:040000006F40201D10
:1000040000000000000000002A3D00004A3D0000FE
:1000140000000000D04100000000000000000000CB
:10002400D0410000D04100000000000000000000AA
:10003400BC3000000000000090020000000000003E
:10004400D0410000D0410000D0410000D041000068
:10005400D0410000D0410000B6340000DE3400007E
:10006400063500002E35000056350000D041000052
:10007400D0410000D0410000D0410000D041000038
:10008400D0410000D0410000D0410000D041000028
:10009400D0410000D0410000D04100007E35000076
:1000A400D0410000D0410000D0410000D041000008
:1000B400D0410000D0410000D0410000D0410000F8
:1000C400D0410000D0410000D0410000D0410000E8
:1000D400D0410000E2390000023A0000D0410000A3
:1000E400F6350000D0410000D0410000D0410000AE
:1000F400D0410000D0410000D0410000D0410000B8
:1001040000000000D0410000D0410000D0410000B8
:10011400D0410000D0410000D0410000D041000097
:10012400D0410000D0410000D0410000D041000087
:10013400D0410000D0410000D0410000D041000077
:10014400D0410000D0410000D0410000D041000067
:10015400D0410000D0410000D0410000D041000057
:10016400D0410000D0410000D0410000D041000047
:10017400D0410000D0410000D0410000D041000037
:10018400D0410000D0410000D0410000D041000027
:10019400D0410000D0410000D0410000D041000017
:1001A400000000000000000000000000000000004B
:0C01B4000000000000000000000000003F
:1001C00097020120938202E4938202E0739002344A
:1001D00003210500224573100530B1A819712320B1
:1001E000250006C006C216CAF322003093F2820030
:1001F000638402009302000816C412C81ACC1ECEF3
:1002000022D026D22AD42ED632D836DA3ADC3EDEB6
:10021000C2C0C6C2CAC4CEC6D2C8D6CADACCDECE26
:10022000E2D0E6D2EAD4EED6F2D8F6DAFADCFEDE96
:1002300003A1050009A002457310153492403785CB
:10024000000013050580732005302245732005301A
:100250004242D2426243F243025492542255B25572
:100260004256D2566257F257064896482649B64932
:10027000464AD64A664BF64B065C965C265DB65DF2
:10028000465ED65E665FF65F09617300203000004F
:10029000197116CA9302000816C49302000273A0D3
:1002A000428006C212C81ACC1ECE22D026D22AD430
:1002B0002ED632D836DA3ADC3EDEC2C0C6C2CAC456
:1002C000CEC6D2C8D6CADACCDECEE2D0E6D2EAD4E6
:1002D000EED6F2D8F6DAFADCFEDE73110134EF0066
:1002E0004074EF10301CEF00A076731101341384BA
:1002F000818A032904006304090223200400732572
:1003000010342AC01384018A044023A024001384DB
:10031000418A044003A10400024573101534924041
:10032000B78200009382028073A00230A24273A0C1
:1003300002304242D2426243F24302549254225566
:10034000B2554256D2566257F25706489648264949
:10035000B649464AD64A664BF64B065C965C265D25
:10036000B65D465ED65E665FF65F0961730020305B
:100370000000397101436EC619A0397141536AC832
:1003800066CA62CC5ECE19A0397101535AD056D2DA
:1003900052D44ED64AD826DA22DC06DE330161403A
:1003A000828241114AC026C222C406C68282B24D50
:1003B0004101024D924C224CB24B4101024B924AF8
:1003C000224AB2494101024992442244B2404101C9
:1003D00082803D432A876373C3029377F700BDEFA2
:1003E000ADE5937606FF3D8ABA960CC34CC30CC7A5
:1003F0004CC74107E36BD7FE11E28280B306C340CE
:100400008A069702000096966780A6002307B70029
:10041000A306B7002306B700A305B7002305B7005E
:10042000A304B7002304B700A303B7002303B70056
:10043000A302B7002302B700A301B7002301B7004E
:10044000A300B7002300B700828093F5F50F9396C1
:100450008500D58D93960501D58D61B793962700BC
:100460009702000096968682E78086FA9680C117EA
:100470001D8F3E96E374C3F8A5B73367B500FD53EF
:100480000D8B79E7B7877F7F9387F7F7104194410A
:10049000B372F6003363F600BE92B3E26200639576
:1004A000720C6318D6065041D441B372F600336320
:1004B000F600BE92B3E262006396720A631BD60432
:1004C00010459445B372F6003363F600BE92B3E272
:1004D0006200639F7208631ED6025045D445B37212
:1004E000F6003363F600BE92B3E2620063987208CE
:1004F0006311D60210499449B372F6003363F600D3
:10050000BE92B3E26200639172085105D105E30F18
:10051000D6F61317060193970601631CF7001357CD
:10052000060193D706013305F7409375F50F91E95E
:1005300082804183C1833305F7409375F50F91E1C4
:1005400082801377F70F93F7F70F3305F740828018
:1005500010219421050585056313D60075FA33052E
:10056000D640828011059105E314D6FE01458280B4
:100570002105A105E31ED6FC014582803105B105A8
:10058000E318D6FC014582804105C105E312D6FC83
:100590000145828003A581818280EFF29FE09387ED
:1005A00081819843050798C3EF1020333C45FD1720
:1005B0003CC589E77C413CC5EF10E036EF10E061B7
:1005C00019B5634205029307803E3347F502336550
:1005D000F5023305F5021305753E3345F502330781
:1005E000F7023A9582807D558280014582800145DF
:1005F00082800145828001458280EFF29FDA31647A
:10060000B164130404459384C4456363940065BBDB
:100610001C4011048297D5BFEFF2BFD83164B1649A
:100620001304C445938444466363940069BB1C402F
:1006300011048297D5BFEFF2DFD6F93FEF30D0102B
:1006400059B3EFF21FD6B705000037A50000D14718
:100650001547930600200146938565631305C5621F
:10066000EF100028EF10803FB9BBEFF29FD3EF10DF
:100670004064EF20501DEF00102DEF10805DEF0063
:10068000B079C137EF10805D0524EF00D07B0145C4
:100690001DBBEFF21FD1D13F014535B3EFF2DFCEE5
:1006A000AA89EF10802319C1EF10E00B2545EF0058
:1006B000506244411304450063968400EF10E0212A
:1006C000014911A8138944FF2146CE854A85B125E9
:1006D00001E9EF10802019C1EF10400A4A85F9B9ED
:1006E0008440D9BF09E57D5582807D55E9B9EFF297
:1006F0005FCB2A842E853289AE844D377DF52285E5
:100700002686A545EF00905F0145231C2401230E9A
:100710000400231D0400D9BFEFF2BFC81E2D4111F4
:100720002A84C18B9DE71C558DC32EC68297AA844F
:10073000B24501CD2A8637A50000A2851305456381
:10074000EF00F01926854101BDB91E2C93E7070182
:100750001EAC1E2CA18B89C73E2CE554A18BFDF34A
:100760005C5489CF22858297AA8405E13E2C93E7C9
:1007700087003EAC5C2C85075CACE9B78567938746
:10078000F7F0FD8D2EAC8144D5B7E957E31CF5FA9F
:10079000F1BF5C2D85CBEFF2DFC0FD1793F7F70FAC
:1007A0005CAD2A84014789EF1C5989E70147231D65
:1007B000040039A082972A8775D9E957E309F5FE25
:1007C0003A8511B17D573A858280EFF29FBD582D51
:1007D00009E77D553D21014521A05C5999C38297C8
:1007E000DDB66955C5BFEFF2DFBB582D09E77D5572
:1007F0000929014521A01C5D99C38297E9B6695575
:10080000C5BF5C5D89C7EFF2DFB982976DBE6955E0
:1008100082800CD101458280EFF21FB79389418716
:10082000854A83A7418763863705EF10804883A7F1
:1008300041872A8A638D370303A441875C401840AF
:100840001309C4FE5CC398C340C000C0EF00B07180
:100850007C5099C34A8582974A85EF00705B631B81
:1008600055014A85EF00704FEF0050715285EF102F
:100870000045A9B6EF0090705285EF1040444848FB
:10088000EF00903A4A85EF00905561BFEFF27FB1DB
:1008900013844195130904011C4091C382971104EC
:1008A000E31C24FF953FEDB7EFF2BFAF3716000012
:1008B000B7A50000930800023D4893070020138766
:1008C000419681461306C6889385C5661385418D7A
:1008D000EF00907D1385418DEF104018EDB4EFF2DD
:1008E0005FAC41112A842E8532C62EC4EF10C00899
:1008F0003246A24519C68547630DF6000145410100
:10090000D9B45840938745011CC398CD5CC0C0C979
:10091000F5B71C406388870083C6550303C71702D9
:1009200063FAE600D4431387450198C294CDD8C337
:10093000DCC9E9B79C43F9BFEFF2BFA64111B2840D
:100940002E8689452A8436C6EF00503BB24693076F
:1009500044011CCC5CC846AC14B401454101A5B4AB
:10096000EFF29FA283A7018641112EC62A8491C36C
:100970008297EF1000345E2CAA8989CFFD175EACF8
:10098000EF10E03383A7C185014591CB2285829783
:10099000014531A0B24791E7EF106032795541012E
:1009A00031BCEF009073232805021034AA85AA8475
:1009B000130544012D37B247635CF0001389C4046A
:1009C000700081454A85EF10C01D4A85EF10601206
:1009D0004E85EF10C02EEF00D049885845D5C1B7DD
:1009E000EFF23F9C83A781852A8491C38297EF1001
:1009F000402CAA84484893074401630FF500311541
:100A0000EF10000105442685EF10602B19C0EF00A0
:100A1000504601456FF03F9B5E2C85075EAC01445C
:100A2000DDB7EFF21F984111EF10A0281387418224
:100A30001C23850793F7F70F1CA383A7C18181C7E8
:100A40002AC682973245EF10802741016FF0BF9789
:100A5000EFF23F954111EF10C025138741821C230F
:100A6000FD1793F7F70F1CA383A7018281C72AC63E
:100A700082973245EF10A02441016FF0DF9403C547
:100A800041828280937808044111639E0800AD681A
:100A90009388888193730801638B03001378E8FFC0
:100AA000930E000219A8A96893884877E5B71373D5
:100AB0001800930E0003E30503FE13732800630E72
:100AC0000306635806023306C0409302D0020A8E22
:100AD000814F294F6395E6073373D6023356D6020A
:100AE000469303430300850F050EA30F6EFE7DF2B0
:100AF0000DA0137348009302B002631703009372B2
:100B00008800B3325000960279F2930600035480B5
:100B1000854FFE8663D3FF00BE8613781801158FBC
:100B200063130804638502006353E0007D172A867F
:100B3000B308E5001303000221A88142F1B7137343
:100B4000F600118271BF6374B600230066000506CB
:100B50003388C840E34900FF3A86635307000146E3
:100B60007D173295118F638802006374B5002300EE
:100B700055007D17050563870302AA961308000335
:100B80001DA86374B6002300D60105063388C8404B
:100B9000E34900FF3A866353070001467D1732950B
:100BA000118FE1BF2A86B308E500CDB76374B500A5
:100BB0002300050105053386A640E3C9CFFEFD5697
:100BC000FD1F6383DF0099E7AA873306E50013085A
:100BD000000231A86376B5003306F101102210A19E
:100BE0000505F9BF63F4B700238007018507B30645
:100BF000F640E349D0FE6353070001473A954101AF
:100C00008280EFF20FFA2A849D3D09C523A48182D8
:100C10006FF06FFBEF00704C75D900D9D5BF0D4751
:100C2000AA876376C7009377350091C7AA873E9657
:100C30006397C706828093F7F50F13978700D98FC4
:100C4000139707015D8FB308C500AA87BD46338897
:100C5000F84063EB060393574600C156B386D702AC
:100C60009207AA970D4836963383C700BE86B3080D
:100C7000D3406362180313572600F156B306D70218
:100C80000A07BA97369665B798C3D8C398C7C107FD
:100C900023AEE7FE6DBF910623AEE6FEC9BF850712
:100CA000A38FB7FE71B763F2A504B386C500637E58
:100CB000D5029345F6FF8147FD176393F5008280C7
:100CC0003387F600030807003387C7002A972300FD
:100CD0000701DDB73387F500830607003307F5000A
:100CE000850714A3E318F6FE82808147E5BF0DC691
:100CF000AA8785050387F5FF85079306F6FFA38F6F
:100D0000E7FE09EB3E9685076393C7008280A38FB9
:100D100007FED5BF3686F1FE828001476314E600E8
:100D2000814739A8B307E50083860700B387E5004C
:100D30009C23B387F640E207E18799E30507F9FEB4
:100D40003E858280AA870387070001E73385A74095
:100D500082808507CDBFEFF24FE22E89B30B2501CC
:100D600041112A8CB68563F5AB001349F5FFFD5B95
:100D7000C16937BA00006284930AB002130B000203
:100D8000FD19130A0A8131A8130750026389E7028B
:100D9000637374011CA013051400B284138614003D
:100DA0002A8483070600EDF363060900637B742F32
:100DB000230004003305844141016FF08FDF0148B7
:100DC0001307D002930630021305000331A0639E7F
:100DD00057011368480026868307160093041600FF
:100DE000E397E7FE13680801FDB763956701136891
:100DF0008800D5B76395D70013680802E9BF6395EB
:100E0000A70013681800C1BF138707FDA54663E656
:100E1000E6040147A546294539A03307A702850402
:100E20003E97130707FD83870400138607FDE3F64B
:100E3000C6FE038604009306E002FD57631FD60436
:100E400083871400254693861400138507FD636588
:100E5000A60A8147254529433DA09306A0027D5758
:100E6000E399D7FC9841930426009105E35307FCCE
:100E70003307E040136808016DBFB387670285063A
:100E8000B297938707FD03860600930806FDE37675
:100E900015FF63D307008147B684838604001306D9
:100EA0008006014593F8B6FF6395C80013F5F60F69
:100EB000850403860400930690066303D60663C583
:100EC000C606930680056303D61C63C3C604930756
:100ED00050026307F61A63757401930750021CA051
:100EE00083870400130514006386071A6373750172
:100EF0001CB0130524005DB51306A0026397C7005C
:100F00009C4193862400910569B7B684814771B7E7
:100F1000930630066302D60893064006E31DD6FA10
:100F200013682800A94699A0930630076303D60CDE
:100F300063C5C6029306F0066300D6169306000743
:100F4000E31BD6F8FD566315D70013681800214738
:100F5000938C4500C14690411DA893065007E303BA
:100F6000D6FC93088007C146E31716F71306C006A0
:100F7000938C4500E301C5FE13068006E31DC5FC06
:100F8000904193752800639B051033763601DE850A
:100F90002285CD3CE68519B5137808016315080252
:100FA000BA879306000229A06373740114A0050494
:100FB000FD17E34BF0FE9307F7FF6343E00005479F
:100FC0003387E740050793874500637474019441B4
:100FD00014A013051400229713060002B306A740BD
:100FE0006344D000BE855DBB6373750110A1050528
:100FF000F5B783AC0500138D450063930C00D28CCC
:1010000066853EC63AC442C2353BB247AA861248FC
:1010100022476355F00063D3A700BE86137808010A
:10102000631E0800BA871306000231A063737401BF
:1010300010A00504BA877D17E3CAF6FE814763C195
:10104000D702B68763D3060081473305F4002A9799
:1010500013060002B307A74063CFF600EA853DBB45
:101060003306F40063777601B385FC0083850500C1
:101070000CA28507E9B76373750110A10505D9BFF7
:101080006373740110A01305140009BB13680804EE
:10109000C146E9BDFD1419B3A146C9BD420641864A
:1010A000FDB5A38F0BFE39B303A5C1828280EFF299
:1010B0004FAF03A9C182EFF06FDE11CD1384C1825F
:1010C000AA84084019C1EFF0CFEC930530042685BF
:1010D000EFF08FE404C04A856FF0EFAE8280397183
:1010E00026CA2ED232D436D62A8654109305F0075B
:1010F000138541B63EDA36C606CE22CC3AD842DC5B
:1011000046DE9139AA8603A5C18209E9138541B655
:10111000F137F2406244D244216182802686262D36
:101120001384C18293E704043EAD9307F00763F490
:10113000D7009306F007138641B68145EFF0AFEA7A
:101140001C40A6AFF9B7EFF2CFA537A500001305F5
:101150008578713737A5000013054579493737A7DA
:10116000000037A500001307877B8D4605468D4597
:101170001305457CAD3737A500001305457E85373F
:101180006FF06FA431C5A9661377F50F9386466794
:1011900009C7BA96882205058280C167938707F040
:1011A000E98F81CB21851377F50F36970823250525
:1011B0008280B707FF00E98F81CB41859377F50FD8
:1011C000B69788234505828061813695082165059B
:1011D000828003A741835C41BA976305F502B62379
:1011E00095E283A60183638FF60093868183904204
:1011F0006313F60088C2D44354C1DC43B306E54010
:10120000BA9794C71045B307C700630FF500B6231C
:1012100081EE938681838C426393A5009CC25441E6
:10122000D4C35C413E9710C78280EFF28F9783A5AD
:10123000018437B500001305C582553583A5C184E7
:1012400037B5000013050584593D83A5C18337B523
:1012500000001305458561356FF0EF96EFF26F944E
:1012600013F7C5FFE1462E8663F1E60693073500C6
:10127000F19B930687FE63EAF6041D8F130687FE33
:1012800023A0C1848966511713844183938606EA9B
:10129000D8C394C323A407001CC0BA9723A8F18223
:1012A000C966938606EAB7B5000094C3D8C398C749
:1012B000814605469385C58E138541BEEFF0CFE785
:1012C000184023ACE1826FF00F90AA8537B500007B
:1012D0001305458F2935C5BFEFF2AF8C39C503A77C
:1012E0000184130435007198138901848144636675
:1012F000870EB1476373F4003144FD55138541BE39
:10130000EFF00FE683A7818383A54183832809003B
:1013100026853386B740B386884013888183636807
:10132000D600138541BEEFF0AFEB81447DA0B384BE
:10133000C500BA2003AE440061E73307CE40930FE7
:1013400047FF63EF8F0A138FC184938EC18313030A
:10135000840183260F0083A30E001389C184938226
:10136000C18363EF6F061307C4003297896E33831E
:10137000E500938E0EEA2322C3012324C300232019
:10138000D3010546D8C0B2A003264300B1086304C8
:1013900016012E9618C61387C60022972320E9004F
:1013A00063F4E30023A0E2000967130707EA9AA0A9
:1013B000639A970083A601830147B22305EE19C300
:1013C0002320F800138541BEEFF08FE183A78184CD
:1013D000B10481C7A2852685829726856FE0BFFE6E
:1013E00005463697B2A02320EF00E3FFE3FA23A0DF
:1013F000EE005DBFE385D7FCDC430547AE9775BFC4
:10140000728631BFEFE2FFF93306B5024111328532
:1014100032C6D9352A8409C532468145EFF03F806E
:10142000228541016FE03FFA45C5EFE2FFF583A752
:1014300041842A8491C3829783A74183138941837E
:101440006366F40883A701836372F408FD5513856E
:1014500041BEEFF0EFD0835764FF930944FF81CB87
:10146000035744FF8967938707EA6301F70237B59B
:1014700000001305058AA531835644FF035664FF17
:1014800037B50000CE851305C58B913989679387E1
:1014900007EA231AF4FE938781839843231B04FEF3
:1014A00063F4E90023A037011387C1841C4383261A
:1014B00084FF4E85958F83260900B386D940B69761
:1014C0001CC3013B138541BEEFF08FD16FE01FEFCE
:1014D0008280B707002093860700014793870700A3
:1014E00021468C426396A500131547003E958280E5
:1014F0000507C106E317C7FE01458280EFE2DFE87A
:101500002A842E85AE89328AE9372A89A92C832438
:101510004900930749006390F4048D2493E909F886
:10152000230434012146D2852285EFF04FFC83A7A6
:10153000018599C322858297EF00A0770327490090
:101540009307C4005CC358C42322F90004C8EF0009
:1015500000776FE0BFE684407DBFEFE29FE483A7A2
:1015600041852A8491C3829723040400EF006074AC
:10157000544418489307C400D8C214C31CC85CC4A0
:10158000EF00E0736FE03FE4EFE21FE02E89AA89ED
:101590008937AA84484589332A841DCDD0448145A2
:1015A000EFF0EFE7214623043401A3040400CA85C9
:1015B0002285EFF0CFF383A7018599C32285829717
:1015C000EF00206FD8409307C40091045CC358C457
:1015D0009CC004C8EF00A06E22856FE03FDEEFE202
:1015E0005FDC83A741852A8491C38297230404008A
:1015F000EF00206C544418489307C400D8C214C3A9
:101600001CC85CC4EF00A06B2285393D6FE0BFDBD6
:10161000030585007D81828023980186938741C0E0
:1016200013870708DCC39CC3A107E39DE7FE3D4782
:101630002382E18623A4018623AE01869387418716
:10164000DCC39CC38280EFE2DFD503A5C187EFF046
:101650007FB37D1593173500138541C03E95084132
:101660001307C5FE210523A4E186EFE07FB56FE0F7
:101670009FD5EFE21FD3EF00C063839701872A89CC
:10168000B1E703A5C187EFF0FFAF7D151317350054
:10169000938741C0BA97844393878186804393851B
:1016A000C4FE6305B4028CC383A7C1862382A186CE
:1016B00099C32285829783C741821305C40193850C
:1016C000840093F7F70F81EBEFE05FB14A85EF00FD
:1016D000005F6FE05FCFEF00E05ECDBFEFE27FCC59
:1016E0002A84EF00005D8347440393064401C19BB5
:1016F00093E71700230AF402834754031397370034
:10170000938741C0BA97D84314C318CCD4C35CC8DC
:101710009387C1879443185C558F98C3EF00205A74
:101720006FE07FCAEFE2FFC72A846123184C544858
:1017300093074401D8C214C35CC81CCC834754032C
:1017400013973700938741C0BA979843631AF700FD
:101750001387C1871C5C144393C7F7FFF58F1CC325
:10176000B92B6FE05FC6EFE2DFC3A1239387018748
:101770009A2305079AA3A1236FE0FFC4EFE27FC27B
:101780000D2B138701871E23FD17C207C1871EA3D8
:10179000634BF000231007001D2383A7818691C3AC
:1017A000C93D6FE05FC2212BEDBFEFE29FBF03A4F5
:1017B00081860123AA842285B5379147230AF40242
:1017C0001305C404012E2285A1358547631BF5004E
:1017D0003C5C81EB228551332685D521593D6FE054
:1017E0009FBE83A641871307440123AAE186D8C27E
:1017F0009387418754C81CCCC5B7EFE29FBA2A84AF
:101800005105411108CC48C80CD050D014D43A86A8
:1018100058D49305300236853EC642C4EFF02FC03F
:10182000585410544C5008507117B71600003A968F
:101830009386A67A2D21B24722483726000048CC4D
:10184000230BF402A30AF402232C0402814723226F
:1018500004052324040523280402230A0402232C5C
:101860000406232E04060147A28613068688A28555
:101870001305C4041D2483A7018899C32285829778
:10188000014541016FE03FB4EFE2BFB15049144D53
:10189000795718D954C21307450190C218CD58C9B9
:1018A000353DC13B6FE03FB2EFE2BFAF4111B284C3
:1018B0002E8685452A84368946C03AC63EC442C231
:1018C000EFF0DFC3024892472247B2464A86A68518
:1018D0002285253741016FE01FAF03A581868280F5
:1018E000EFE29FAA41112E89AA85054532C6B6842A
:1018F000BA893E8AEFF05FC92A8411C92685EFF0C4
:10190000BF9D324609E92285EFF07FCD0144228553
:1019100041016FE0BFAAAA865288CE872687CA8572
:101920002285E13DEDB7EFE2DFA7612683A781863F
:101930000546AA8603C747033D8B631CC702D04BED
:10194000984F6308E60258C210C303C65703938634
:1019500047010E06138741C094CF3297504314C2FB
:1019600090CF54C3D8CBA12EEFF0BFD001456FE08C
:101970009FA53685A926DDBF834745030547BD8B57
:10198000639FE702EFE2FFA12A84252683474403F1
:10199000AA842285C19B93E72700230AF402EFF073
:1019A0007FD81305C404F1222685112E83A78188D0
:1019B000014581C72285829701456FE0DFA07D55F3
:1019C0008280EFE21F9E41112AC6E52403A481868E
:1019D0002A89228555379304C404700081452685E1
:1019E000C922268539224A85D92CEFF09FC818587C
:1019F000F9576314F70023280402014541016FE001
:101A00009F9CEFE21F9AEFE0DFBB653F6FE0BF9B5B
:101A1000834745030947BD8B6390E704EFE27F9856
:101A20002A84412C5448184C93074401AA84D8C2F4
:101A300014C31CCC5CC81305C404252A2685412484
:101A40002285EFF0BFC983A74188014581C7228560
:101A5000829701456FE03F977D558280EFE27F944A
:101A60008346650305473317D70018DD0947A30AE6
:101A7000D502230AE502693F83A7818699C3EFF067
:101A80005FBF01456FE03F945449184D93074501EE
:101A9000D8C214C31CCD5CC98280EFE29F90411173
:101AA000B2842E86A9452A8436C63AC43EC2EFF0D7
:101AB000FFA49247B2462247F99B1CB49307440106
:101AC00044CC14D02324040258D01CCC5CC841015F
:101AD0006FE07F8FEFE2FF8C2A84E12AAA842285BF
:101AE00065372685E92A2285EFF03FA701456FE09B
:101AF0009F8DEFE21F8B2A846D2AAA842285693785
:101B00001C342685F99B1CB45D2A83A7C18599C323
:101B100022858297EFE01FA85C503E9508D4512A99
:101B200013878189032847003706008093878189BE
:101B30001346E6FF98436315F8029386C1889042E6
:101B4000050690C29306440154C358C894C31CCCE4
:101B50001C3493E717001CB49D2201456FE0BF863B
:101B6000544B0C546385B6008D8EE378D6FCBA874F
:101B7000D1B71C35858B85C7EFE2BF8283A78185EE
:101B80002A8491C382973522AA842285F53D268531
:101B90003D221C340145F99B1CB46FE0DF827D556A
:101BA000828085476381F50263C5B70085C1014521
:101BB00082808947638FF5008D47E39AF5FE1C35D7
:101BC00093E7270009A85C511CC2D5B71C425CD121
:101BD000F9BF1C35F59B1CB5D9BFEFE20FFAEFE05A
:101BE0007F9B2A8CF920B70900802A8A93848189F7
:101BF00093C9E9FF8D4B8040631694005285C12044
:101C00006FE02FFB48481309C4FE3305AC40E3E7FF
:101C1000A9FE83A7018999C34A8582974A85EFF077
:101C2000BFE61C4448448297EFE0DF9683A74189D2
:101C30002A8C99C34A858297834754FF13F7E70F8D
:101C4000A30AE4FE8D8BE39877FB4A85EFF07FEAE9
:101C50005DB793878189DCC39CC382808280110633
:101C6000719A2A8837C7ADDE130506F8AA871307CD
:101C7000F7EE631EF600A167938707882322D6F844
:101C80002324B6FA232006F92324F6F8828098C389
:101C90009107C5B737F700E01C43B7060080D58F22
:101CA0001CC3828037F700E01C43860785831CC372
:101CB00082802165130505807315053082807310BD
:101CC00005308280EFE2EFED1387818A1843938716
:101CD000818A19E323A0A18A23A2B18A054798C368
:101CE000553F6FE04FEE2A87814718436314A700E2
:101CF0003E8582808507D5BFB707EFBE37E700E096
:101D0000938707083CC701458280EFE28FE937B52A
:101D1000000013050593EFF08FBC01456FE0AFEABB
:101D2000EFE22FE82A84FD5437B900007D146314D4
:101D300094006FE04FE913058909EFF04FBAFDB742
:101D4000EFE28FE40041AA8437B90000B7B9000080
:101D5000631494006FE08FE69305C4FE1305C90970
:101D6000EFF0EFB71C40638697001385090AEFF088
:101D70000FB70040F1BFEFE2CFE22E89EFE09FFC0A
:101D80002A84EFF05F9E83240900639C2401EFF016
:101D9000FF9EA14763C3870011E0214422856FE0C5
:101DA0008FE2138544FFEFE0FFF96353A4002A8418
:101DB0008440E1BFEFE26FDC0545EFF08FF1B7B98A
:101DC0000000130945002A84CA85138549BE65377A
:101DD000AA85AA8437B50000138649BE1305C5BE7F
:101DE000EFF0EFAF2685EFF0BFF337B50000130536
:101DF00005C3EFF0CFAE4040B7B90000054A894AAD
:101E000037BB0000B7BB000037BC0000B7BC000008
:101E100037BD00006315890001456FE08FD9034786
:101E20009402138509C7930644FF2146A685EFF067
:101E30000FAB834784021385CCC7BD8B638E4701EC
:101E400013058CC8638A570113854BC991C7114785
:101E50006396E70013050BCAEFF06FA84C4C93078D
:101E60003002AE8698226306F702105093074006B0
:101E70000848B295B386D540B386F602585C5C50EC
:101E8000898D1305CDCAB3D6C602EFF04FA5004029
:101E900051B78506C1BFEFE22FCF41110945EFF0E1
:101EA0004FE39309450037B900002A84CE85130516
:101EB00049B8EFF05FECAA85AA8437B50000130695
:101EC00049B8130505B9EFF08FA12685EFF05FE55E
:101ED00037B500001305C5BAEFF06FA0404037BA20
:101EE0000000B7BA000037CB0000639689000145B7
:101EF00041016FE0AFCC1A281C44930644FF13093C
:101F0000840036C63AC44A856306F902EFF0BFDDA5
:101F10002247B246AA872146A68513854ABCEFF020
:101F20000F9C4A85EFF0DFE113050BC8EFF02F9B04
:101F3000004065BFEFF03FDB2247B246AA8721464B
:101F4000A68513054ABDEFF08F99DDB7EFE2CFC349
:101F500041111145EFF0EFD79309450037B9000063
:101F60002A84CE851305899CEFF0FFE0AA85AA8418
:101F700037B500001306899C1305059DEFF02F96D9
:101F80002685EFF0FFD937B500001305459FEFF028
:101F90000F95404037BA0000B7BA000037CB0000B9
:101FA00063968900014541016FE04FC11C4413094C
:101FB0008400930644FF18486309F9024A8536C62F
:101FC0003AC4EFF05FD22247B246AA872146A685DF
:101FD00013854AA1EFF0AF904A85EFF07FD6130545
:101FE0000BC8EFF0CF8F004065BF2146A6851305D3
:101FF000CAA2EFF0CF8EC5BFEFE20FB941110D4578
:10200000EFF02FCDB7B90000130945002A84CA8527
:10201000138509B2EFF03FD6AA85AA8437B5000030
:10202000138609B2130585B2EFF06F8B2685EFF0AA
:102030003FCF37B500001305C5B4EFF04F8A4040DD
:10204000B7B9000063168900014541016FE00FB781
:10205000930644FF1305840036C6EFF0DFC803483B
:1020600034015C48B246AA8821472146A6851385DB
:10207000C9B6EFF0CF860040F1B7EFE2EFB0411103
:102080001545EFF00FC59309450037B900002A84C4
:10209000CE85130509A4EFF01FCEAA85AA8437B513
:1020A0000000130609A4130585A4EFF04F832685CD
:1020B000EFF01FC737B500001305C5A6EFF02F825C
:1020C000404037BA0000B7BA000037CB0000639633
:1020D0008900014541016FE06FAE7A285E28104407
:1020E000930644FF1309840036C63AC43EC24A85AB
:1020F0006307C902EFF03FBF92472247B2462A88E2
:102100002146A68513858AA8EFE07FFD4A85EFF07A
:102110003FC313050BC8EFE09FFC00404DBFEFF03D
:102120009FBC92472247B2462A882146A6851305BE
:102130000AAAEFE0DFFAD5B7EFE20FA54111194582
:10214000EFF02FB99309450037B900002A84CE85F6
:10215000130589ABEFF03FC2AA85AA8437B500000A
:10216000130689AB130545ACEFE07FF72685EFF04A
:102170003FBB37B50000130505AEEFE05FF640400A
:1021800037BA0000B7BA000037CB00006396890069
:10219000014541016FE08FA21A2C1C44930644FFB5
:1021A0001309840036C63AC44A856306F902EFF083
:1021B0009FB32247B246AA872146A68513858AAFD8
:1021C000EFE0FFF14A85EFF0BFB713050BC8EFE072
:1021D0001FF1004065BFEFF01FB12247B246AA874A
:1021E0002146A6851305CAB0EFE07FEFDDB7EFE229
:1021F000AF995D712545EFF0CFADA96513060005D8
:102200002A84130945009385C55D0A85EF20D024F3
:10221000B7B90000CA8513850996EFF0DFB5AA8526
:10222000AA8437B500001386099613058596EFE05A
:102230001FEB2685EFF0DFAE37B5000013050599DB
:10224000EFE0FFE94040D14937BA0000631689004A
:10225000014561616FE08F961C44930644FF63E083
:10226000F90298088A07BA9703A707FB1C2821469A
:10227000A68513054A9BEFE09FE60040C1BF464795
:10228000F5B7EFE26F902945EFF0AFA4B7B90000C2
:10229000130945002A84CA85138549CDEFF0BFADE7
:1022A000AA85AA8437B50000138649CD1305C5CD8C
:1022B000EFE0FFE22685EFF0BFA637B5000013057B
:1022C00045D0EFE0DFE14040B7B9000037BA000089
:1022D000B7BA0000631E8900EFE0CFABAA8537B51F
:1022E00000001305C5D5EFE09FDF01456FE00F8DBE
:1022F0005C4C184C138589D2930644FF2146A68571
:10230000EFE0FFDD8347D4FF13850AD4858B99E383
:102310001305CAD4EFE0BFDC00406DBFEFE2CF860B
:1023200037B5000013058593EFE07FDB03A4018B35
:10233000B7B9000037BA000083A7418B6365F4008A
:1023400001456FE0AF87044009469385C99426850F
:10235000EF20F03519C55040A68513050A95EFE02A
:102360001FD83104D1BFEFE22F8237B5000013052B
:10237000C51FEFE0DFD603A4018BB7B9000037BA61
:10238000000083A7418B636BF40037C50000130581
:1023900005C8EFE0DFD401456FE04F8204401946E5
:1023A000938589212685EF20903001E9504093855F
:1023B000640013050A22EFE09FD23104D9B7054526
:1023C0008280EFD27FFC79712A84AA95930600025D
:1023D000254783070400B38485406385D70A638358
:1023E000E70A0145638B0410014913070002A54663
:1023F000B307240183870700638AE7086388D70847
:102400006314990883A9018B83AA418B37BB000011
:1024100063F0590903AA0900194693058B215285D7
:10242000EF20F02859E54A86A28513056A00EF20BF
:10243000102841E14A9A83076A00A5EF83A9890021
:10244000638809041306800281452800EFD07FF8D5
:1024500013098100CA86A2870145014713080002BB
:10246000A548294313062002130EC00583850700E3
:102470006384050163961505631F9702A9476303EB
:10248000F50469A80504B1B705099DB7E31C09F671
:10249000A287038707001377F7FD79E737B50000B8
:1024A0001305451E23800700A285EFE05FC37D551D
:1024B000A9A0B109B1BF23800700050785077DB733
:1024C0006310650437B500001305051CEFE03FC13C
:1024D0000018B7B40000832509001385041E1109F4
:1024E000EFE0FFBFE31989FE37C50000130505C8FB
:1024F000EFE0FFBE29452C00829945616FD01FECAB
:10250000637E970005056392C504850705079CC295
:10251000838507006381C5026364970069FD8DBFF1
:10252000838E17006396C5016394CE008507050767
:1025300085070507F1BFE37397FE238007000507B2
:1025400085079106E36497F2D1BF9CC2838507009B
:102550006389050163871501E30297FC8507050779
:10256000F5B7E36097FE5DBF850725B7EFD2FFE0C3
:102570008307050099E781450145EFF0DFDE6FD065
:102580005FE303AA018BAA898144014937BB00009C
:10259000B7BB000083A7418B6369FA00EDD04A8680
:1025A000A6854E85EFE0AFF4D9BF03240A00194693
:1025B00093058B212285EF20900F21E14E85EF209E
:1025C000F00D19042A86A2854E85EF20500E15E5E0
:1025D000631709002285EF20700C2A89A284A68740
:1025E00022870386070001EE858F63D327013E898A
:1025F000A28513858B22EFE09FAE310A61BF83066F
:102600000700FDD2E312D6FE85070507D9BFEFD23A
:102610005FD9EFF02FFA01456FD0FFDAEFD27FD804
:10262000EFE0BFC001456FD01FDAEFD29FD703A5FF
:10263000C18AEFE0EFBA01456FD0FFD8EFD27FD665
:10264000B7C700009387C72C23A8F18AB7C700003B
:102650009387C74423AAF18AB7C700009387C7446A
:1026600023ACF18AB7C700009387C74493050021C4
:10267000054523AEF18A1384C18AEFE0BFD808C0B4
:1026800019E937B500001305C52DEFE05FA57D54AE
:1026900022856FD05FD3B725000037B50000A9476A
:1026A0002D479306004001469385C57B1305452FB2
:1026B000EFF00FA3AA840840B7B500008146014699
:1026C0009385C52FEFE04FA70144F9D02685EFF0A1
:1026D000EFB87DBFEFD2FFCCEFF07FCE0DC5B7B521
:1026E00000009385852A138541C8EF20207AB7B56D
:1026F00000009385852B138541C8EF20C075138595
:1027000041C86FD05FCCB7B500009385052BE1BF02
:10271000EFD23FC92A8437B5000013058531EFE0B9
:102720001F9CEFF03FFBAA8537B500001306A41BE2
:1027300013050532EFE0BF9A01456FD0DFC8EFD235
:102740005FC641112AC6EFD07FF5B24511E937B512
:1027500000001305C52BEFE09F9841016FD0BFC665
:1027600083A7C18AAA841384C18A83A7C720E3866A
:10277000A7FE93053014EFD03FFA65F11C4003A586
:10278000C72009C9EFE0EF801C40814503A5C720A1
:10279000EFE02F8800401306000581451305A41BB8
:1027A000EFD03FC3B7250000231504202326942033
:1027B0009385A5622685EFE0CF8545B7EFD27FBB35
:1027C00083A7C18A41119384C18A03C74702136753
:1027D00017002382E70283A7C72091E7EFE0DF8C91
:1027E00019C1EFF0DFF5EFF0FFEEEFE05F8F37BBE1
:1027F0000000B7BB0000B7B9000037CA0000B7BA85
:10280000000037BC0000B7BC00009C4085461306A2
:10281000F10003A5C720FD55EFD03FFB8547631AA4
:10282000F5000309F100ED4780406319F90008D075
:10283000E9BF8840FD55EFE0AF92C1BF1C506392E5
:10284000A7029307B0056315F90089471CD075BF2F
:1028500023200402E30B09FAA5476314F912014986
:10286000D1A80947E398E7FE232004029307100448
:102870006312F9046E30D1D9FD15C205C1816EB065
:102880009307A41B13070005B385E5021306000593
:102890003E859385A502A295EF20003CEF200060C5
:1028A0001375F50F2305A420A305A4202285EFF0BE
:1028B0003FE6A1BF930720046311F90216347E306E
:1028C0001387F6FF63D8E70085077EB09307A41B44
:1028D0006E304DBF9DDA7AB0D5BF930740046310C8
:1028E000F9028347B42095D313854930EFE02FFFD9
:1028F00098408347B720FD17A305F72039B7930702
:102900003004E319F9F48347B4200347A420E3FE1D
:10291000E7EE3E948305A41B13858A30EFE02FFC7D
:1029200098408347B7208507C1BF13854930EFE042
:102930000FFB050980408347B420E348F9FE1305E7
:102940000AC8EFE0CFF9EFF09FA785471304A41B57
:102950006315F5002285EFF07FC1EFF0BFD7228627
:10296000AA8513850C32EFE08FF780401305A41B76
:10297000EF20C0521375F50F2305A420A305A42052
:1029800069B59307F0076305F900A1476315F908D6
:102990008347B420E38B07E60346A420FD1793F793
:1029A000F70F7D161376F60F2305C420A305F42038
:1029B00063F8C7049385B71B1385A71B1D8EA295CB
:1029C0002295EFE04FAE9C401385CB3003C7A72084
:1029D0003E97230D071A83C5B7209385A51BBE9587
:1029E000EFE0EFEF9C4003C4B7209C4083C7A720D3
:1029F000E3CD87E013854930EFE06FEE0504F5B7CE
:102A000013054B31EFE0AFED9C4003C7A720BA9709
:102A1000238D071ADDBB35478347A4206305E900F2
:102A20002947631EE90EB9CB035984029147130D60
:102A3000A41B63FB2709930DA41613060005EA8562
:102A40006E85EF20201F1DC91309A4024A851309B2
:102A5000090513060005CA85EF200020E3982DFF25
:102A60001306000581456E85EFD0BF960346A4206E
:102A7000EA856E85EF20401E95471EB41E347EB059
:102A8000EFF0FF9385476312F5029C4083C747022E
:102A9000858B89C713050AC8EFE06FE4884083453A
:102AA000A5201305A51BEFF0DF91EFF0BFC2EFE00B
:102AB0000FE380401306000581451305A41BEFD0EA
:102AC0005F912315042091B3630109021305F9FFF7
:102AD000930700053305F50213060005EA85130583
:102AE000A5022295EF20001551D9930D000533055D
:102AF000B9031306000581451305A5022295EFD001
:102B00005F8D0A340346A420EA853305B503130517
:102B1000A5022295EF2040141E348507B9BF130784
:102B2000F0046374F700230504200346B4208347B0
:102B3000A4206370F6089305A61B1305B61BA29587
:102B40003386C7402295EFE00F968C4083C7B520AF
:102B50003387F500230D271B03C74502058B01CBE7
:102B60009387A71BBE951305CC09EFE04FD79C4078
:102B700003C4B7209C4083C7A7206346F402984053
:102B80008347A7208346B7208507850693F7F70F6D
:102B9000A305D7202305F7209306F004E3F7F6C634
:102BA000231507209DB113854930EFE04FD305046D
:102BB000D1B7A297238D271B83474402858BE1D38E
:102BC000CA8513858A30EFE08FD155BF7C41232819
:102BD0000504232A05049C4381CBEFD28FFC930587
:102BE000850482976FD02FFE01458280EFD2CFF906
:102BF00036899DCAAA843284B309D600294A1C208A
:102C0000639B4701BE2C93F7070491C7FC40B54571
:102C100026859C478297FC408305040026859C47B7
:102C200005048297E31D34FD4A856FD02FF9EFD25A
:102C30004FF793F705102A8491C71A2D6155137722
:102C4000071035CF13F7054011C71A2C61551377BC
:102C5000074035C713F705049304000401E7262C49
:102C600093F40404384893F5F50F2EAC39EBA1C763
:102C700068442981420541813105EFE0EFE5704468
:102C80002A89310529824206418281452320A900F3
:102C9000EFD0FFF8232209003E2C2324090023282B
:102CA000240593E707103EAC7C4013060010C14595
:102CB000DC43228582973E2C0145DD8C26AC6FD00B
:102CC0008FF0F5DB93E505102EACF5B70948AA8720
:102CD00063810503EFD2EFEC0D48638205030547DE
:102CE0006399E5041A2D1377F7FD1AAD01456FD0EE
:102CF0008FED1A2D136707021AAD014582803287C6
:102D000075D6504274454C2D2982A9824206C206CE
:102D10004182C1826304D6001D45F1F91443B4C752
:102D20005443F4C7E1D5F443BA853E859442829674
:102D300075BF7C41DC4382975DBFEFD2EFE4368400
:102D4000B1CA3E2DAA89328993F70710B6849DE354
:102D50007D5AA94A83A749044E85DC4782976309B7
:102D600045012300A900FD14050963035501FDF089
:102D7000058C0DA02449368A854AEFE09FF3FE209A
:102D8000DA202A869444631AF70081EAEFE03FF3E1
:102D90003304444122856FD06FE298403E97034B45
:102DA000070003A7C9048507C2072983C183420717
:102DB000FEA0418363E4E70023930400639456017B
:102DC00023A404003285EFE09FEF7D1A2300690100
:102DD0000509E3140AFA6DBF582D854763ECE70235
:102DE0003E2D93F707109DC7EFD2AFDB2A84284909
:102DF000EFE08FE33E2C232804041306001093F722
:102E0000F7EF3EAC7C40C5452285DC438297014507
:102E10006FD06FDB01458280EFD2AFD8373700002B
:102E20001307C7BC18D5373700001307E7C258D5BA
:102E300037370000130787DD18D93737000013072D
:102E4000A7D358D9373700001307C7BE18DD373767
:102E500000001307C7CC420658DD34C14182232A43
:102E600005002320050223220502EFD0BF876FD083
:102E70008FD593F5F50F85476391F50AEFD2CFD043
:102E800020494111AA847D598549FC402685DC47AB
:102E900082972A8A63072505EFE0BFE15A201C408C
:102EA000BA97238047015E20F8448507C20729832B
:102EB000C18342075EA0418363E4E700231204005C
:102EC00076205E20639CD7008507C207C1837EA061
:102ED0002324340163E4E70023130400EFE03FDE22
:102EE0006DB79C5085C3EFE0DFDC5A206E20636E27
:102EF000B700B305B7402EC6EFE07FDC9C50B2456B
:102F00002685829741016FD06FCBFC44998DA983B0
:102F1000C207C183B385B740F9BF828001CEEFD22B
:102F20004FC87841B2878E23184332220297014559
:102F30006FD06FC97D558280EFD2AFC6138781D025
:102F400078432E86AA851843138581D002976FD0C7
:102F50008FC7EFD20FC5138781D078432E86AA85FD
:102F60005843138581D002976FD0EFC5EFD26FC35E
:102F7000138781D07843AA85138581D0184702979B
:102F80006FD06FC405C611476392E602EFD26FC1DE
:102F90007C410E2241119C4736C632C4829722469C
:102FA000B2462AA2368541016FD0EFC181463685EF
:102FB00082801DC2B28711466390C602EFD26FBEF7
:102FC0007841B2238E235843411136C60297B24648
:102FD000410136856FD02FBF814636858280EFD282
:102FE0004FBC938781D04947D8CB373700001307B0
:102FF00047F8D8DB37370000130727FB98DF373750
:1030000000001307C7F1ECC3B0C3AA850D461385B2
:1030100081D023A0070223A2070223A4070223A62C
:10302000070223A80702D8DFEFD0CFEB01456FD00E
:103030008FB93715002013050588828037250020B9
:10304000130505888280EFD2CFB5B707002003A70C
:1030500007339307803EC1563357F702B7E700E0C6
:103060002386D7402387D740856623A0D710916653
:1030700023A0D710B7F700E023A0070023A2070082
:10308000014690C78146D4C781461306F7FF90CB0F
:10309000D4CB3D4798C3EFD04FD6EFF09FF92A84A9
:1030A000EFF0DFF9AA852285EFE04F9B37B50000EE
:1030B00013058539EFD0BFFF6FD0EFB07311013426
:1030C000EFD03F96B7F700E023A20700EFD0EFCC98
:1030D000EFD01F987311013473002030814785466B
:1030E000130700023396F6006306A6008507E39BEC
:1030F000E7FEFD573E858280EFD2AFAA85451305D6
:103100000002EF1040476FD00FACEFD28FA985457A
:103110002145EF1040466FD00FABEFD28FA8854509
:103120001145EF1040456FD00FAAEFD28FA785450C
:103130004145EF1040446FD00FA9EFD28FA68545CF
:1031400013050004EF1020436FD0EFA7EFD26FA557
:10315000AD6537C5000001469385053A130585A87E
:10316000EFF0FFE76FD02FA69307400663ECA700B0
:10317000931745002D65130585433E951841FD576E
:103180006313F70001458280EFD2AFA1411113F51F
:10319000F50F32C6EFF05FFD11C54E2532460845EA
:1031A000EF10A02241016FD00FA2EFD28F9F13F535
:1031B000F50FEFF07FFBAA87014589C7CE27884727
:1031C000EF1000206FD02FA0EFD2AF9D011113F5AB
:1031D000F50F3284EFF05FF905C55C412AC682978E
:1031E00032455C45FC82C1473ECE8D473ECC09C48A
:1031F0001547631AE40002CE08454C08EF10401052
:1032000005616FD04F9C05476315E40091473ECEA2
:10321000E5B76315F40093078002D5BF89476315AE
:10322000F40093078004E5B791476314F400D14795
:10323000F9BF99476314F400F147D1BF9D47E31DDF
:10324000F4FAE147E9B7EFD22F9413F5F50FAE8406
:10325000B289368A3A89EFF03FF1994731CD484536
:10326000EFF0DFE73D472A8499476367A704EFE063
:103270005FA4B146B306D402B7070020138707083E
:103280002A8693870708369783160700639F960060
:103290004C43639C45012E236399350118476316FF
:1032A0002701EFE0DFA1814701A87D576389E60090
:1032B0003285EFE0DFA09D473E856FD02F903145EE
:1032C0003305A4023E9506A12322450123113501B1
:1032D000232425013285F1B7EFD2AF8C13F5F50F1A
:1032E000EFF09FE819471DC94845EFF03FDFBD47A4
:1032F0002A84194763E4A702EFE0BF9BB147330478
:10330000F402B7070020938707087D57A29783969A
:1033100007006398E600EFE09F9A01473A856FD077
:103320008F8A41677D1798C323A2070023A4070053
:10333000DDB7EFD26F85011113F5F50F328AEFF08B
:10334000BFE2994721C185442A8463159A104845F4
:10335000EFF0DFD83D47AA8499476365A702EFE005
:103360005F95B14AB3875403370900201309090850
:10337000AA893E9903170900FD576319F700EFE08A
:103380001F9499473E8505616FD04F835C408297BB
:1033900085450545EF10201E5C440D473AC47C82EC
:1033A0003EC88357290002CA52CE638C4709C1C761
:1033B0000947638DE70808444C00EF007074184417
:1033C000B7170140938607C005456302D702094538
:1033D000630FF700938707400D45630AF700B7278F
:1033E00001409387078001456313F700114593F56A
:1033F000F40FEF00307E0808EF007067AD67938729
:10340000873B8E04BE94D04037E700E0930600056A
:10341000B307C7002380D74093575600938707040C
:1034200085468A07B396C600BA9794C34E85EFE0E7
:103430001F89814781BF930780023EC6A1473ECCCA
:103440009DBF930780043EC656CCB5B791473EC694
:10345000C147F5B79947E3170AF24845EFF01FC88F
:103460003D479947E360A7F2931735002D65130593
:10347000853B3E9558419357570093870706B39471
:10348000E4008A0737E700E0BA9784C30F10000012
:103490004DB7EFC21FF1EFF07FC4B1473305F5021E
:1034A000B7070020938707083E955C4199C30845FC
:1034B00082976FC05FF173110134EFD08FD605454D
:1034C000EF00906119C50545EFF0BFFC0545EF0021
:1034D0009062EFD0EFD77311013473002030731175
:1034E0000134EFD00FD40945EF00105F19C509452D
:1034F000EFF03FFA0945EF001060EFD06FD5731180
:1035000001347300203073110134EFD08FD1114595
:10351000EF00905C19C51145EFF0BFF71145EF00C2
:10352000905DEFD0EFD2731101347300203073112E
:103530000134EFD00FCF2145EF00105A19C52145B6
:10354000EFF03FF52145EF00105BEFD06FD0731126
:1035500001347300203073110134EFD08FCC41451A
:10356000EF00905719C54145EFF0BFF24145EF001C
:103570009058EFD0EFCD73110134730020307311E8
:103580000134EFD00FCA13050002EF00F0541DCD37
:1035900013050002EFF0FFEF13050004EFF07FEFDB
:1035A00013050008EFF0FFEE13050010EFF07FEEBB
:1035B00013050020EFF0FFED1305003EEF00B053C0
:1035C000EFD00FC9731101347300203013050004CC
:1035D000EF00905055FD13050008EF00F04F4DF936
:1035E00013050010EF00504F45F513050020EF00C4
:1035F000B04E59FDF1B773110134EFD08FC21305EE
:103600000040EF00704D29C113050040EFF07FE846
:10361000056513050580EFF0DFE70565EFF07FE74F
:103620000965EFF01FE71165EFF0BFE62165EFF0E8
:103630005FE64165130505C0EF00F04BEFD04FC1C9
:103640007311013473002030056513050580EF0008
:10365000B0485DF90565EF0030485DF50965EF009C
:10366000B0475DF11165EF00304759FD2165EF006E
:10367000B04659F9E1B701458280EFC29FD220419F
:10368000AA84930550520848EF10800111C985455E
:103690002685EFF00FFE084893055052EF10000406
:1036A0006FC07FD2EFC2FFCCB72B002013840B93E7
:1036B000930750035CC8B72C0020B747014013871D
:1036C0000C88938707801CC87C47370900C0C16AF3
:1036D000A10AB377F900F16493840420B3E757019A
:1036E000B70D0C00316B1165411124C77CC7130B5A
:1036F000CBA82324B40123220400854511052322ED
:103700006705B719014004C023160400EF00B06636
:103710000D4A93070020614D4C00138509807C827F
:1037200052C46AC6EF00D03D93070040114C4C00D4
:10373000138509807C8252C462C6EF00703C084841
:1037400093850B93EF00F06608488545EF00706F96
:10375000B7B5000093860B93130630109385853917
:1037600013850C88EFF04FEBB72B002013848B945C
:10377000930760035CC8B7470040B72C00209387CD
:1037800007401CC893878C8DF847A4C723220400E8
:103790003379E9003369590123A627052324B401AD
:1037A00085453705020023A2670504C023160400DF
:1037B000EF00505E85451145EF00F05B4C0013852E
:1037C00009802312810152C46AC6EF007033A147F9
:1037D0004C00138509807C8252C462C6EF005032CF
:1037E000084893858B94EF00D05C08488545EF002E
:1037F0005065B7C5000093868B94130630109385EF
:1038000005AA13858C8DEFF02FE1014541016FC0B2
:103810001FBAEFC21FB99C412041A14641111CC0F3
:10382000B1473EA4DC412316040013F7F7006301FF
:10383000D702A546631ED70005675AA013D74700D5
:103840000D8B01C785466308D7002313040031A000
:1038500023120400E5B709677AA099838D8B054789
:103860006389E70081C709476388E70C23140400D4
:1038700021A0930700601EA41848B7470140938712
:1038800007806318F704116585451105EF00B04EF8
:1038900093070020B71401407C820D49E1474C009A
:1038A000138504803EC64AC4EF009025930700406C
:1038B0007C824C009147138504803EC64AC4EF00C9
:1038C00030240848A285EF00D04E08488545EF0017
:1038D00050571848B747004093870740631AF704CA
:1038E000854537050200EF00F04A85451145EF0098
:1038F00090489147B71401407C820D49E1474C0044
:10390000138504803EC64AC4EF00901FA1477C8205
:103910004C009147138504803EC64AC4EF00501EF8
:103920000848A285EF00F04808488545EF0070512F
:10393000014541016FC03FA9930700402DBFEFC271
:103940005FA62041930500020848EF00D05419C536
:103950001C48CA231375F50F6FC0FFA67D55EDBF38
:10396000EFC23FA424412E84884893050004EF0051
:1039700090527DD99C4842044180C2A305456FC046
:103980009FA4EFC21FA2C1473841638DF502C5470E
:103990006397F502544B054693D756009387070665
:1039A0003316D6008A07B7E600E0B69790C30F102B
:1039B00000000146084B93055052EF00F0490145C5
:1039C0006FC07FA0544B054693D7560093870704DA
:1039D0003316D6008A07B7E600E0B69790C30546CF
:1039E000D1BF73110134EFD0CF83372500201305E9
:1039F0000588EFF09FC8EFD0AF85731101347300D5
:103A0000203073110134EFD0CF813725002013050A
:103A1000858DEFF09FC6EFD0AF8373110134730033
:103A20002030EFC21F9883A4018C2A84EFD08FB17D
:103A3000AA86228681452685EFC0FFDA37C50000B9
:103A4000A285130585AAEFD08FE91305C05DEFD0DD
:103A50005FFB6FC05F97EFC25F92B7C7000083AA9A
:103A6000C7B637240020B724002039711304C49648
:103A700093840496D68B37250020FD551305C59EEB
:103A8000EFC01FEE03A5818C85461306F101814529
:103A9000EFC0BFD38547E310F5FE83A7418C130722
:103AA000E0071389418C6360F7128306F1011387E5
:103AB0001700A29794A32320E90022972300070070
:103AC0009307D007E390F6FC9305B0072285EF102B
:103AD000603AAA896309050EAA8537C50000130557
:103AE00005B7EFD0CFDFB7C50000938545B84E8549
:103AF000EF10603E130A000019CDB7C5000010108A
:103B0000938505B92D05EF1060240810EF10A01162
:103B1000EF00F0732A8AB7C500009385C5B94E85BA
:103B2000EF10603B130C000019CDB7C5000010105A
:103B3000938505B92505EF1060210810EF10A00E40
:103B4000EF00F0702A8CB7C50000938585BA4E85CA
:103B5000EF106038814709CDB7C50000101093857C
:103B600005B92105EF10801E0810EF10200CAA8760
:103B70009CC4D68523A0440123A2840162853EC64D
:103B8000EF00D03DEF0090669309400633673503A0
:103B900062853AC4EF009065DE852AC25285EF0047
:103BA000F03BEF00B064B36935035285EF00106459
:103BB000B24722479246AA8537C50000130545BB88
:103BC0004E86EFD0CFD1232009006DBDEFC26FFD2F
:103BD000372500201305C59EEFC09FE001456FC04B
:103BE0008FFEEFC20FFC2A84B335A0002D45EFF005
:103BF0004FB609ECB7C50000938545B537C5000041
:103C0000130585B5EFD0AFCD6FC0EFFBB7C5000092
:103C1000938505B5E5B7EFC2CFF8B727002037C5C4
:103C2000000093870796130700004111130505AAAA
:103C300098C3D8C323A407001384818CEFC01FA6A8
:103C400008C011E937C50000130545AEEFD02FC9F4
:103C500041016FC04FF73247F167938707203EC499
:103C6000B70700C0F98F41672107B7C500003725A6
:103C70000020D98F814601469385C5AF1305C59EA7
:103C80003EC6EFC07FCB084030008D45EFC07FB708
:103C9000084093053010EFC03FA80840B74500002A
:103CA0009385C5BCEFC0FFB6B745000037C500001F
:103CB000A9472147930600400146938565A5130552
:103CC00045B0EFD0FFC119C1EFD05FD981452D4577
:103CD000EFF08FA60545EFF0DFF09DBFEFC26FEC70
:103CE00089476309F50037C50000130505B1EFD01A
:103CF0000FBF29A8C041B7C500009385C5B2228572
:103D0000EFC0AFF711E50545EFF0BFED6FC0AFEBCA
:103D1000B7C50000938505B32285EFC00FF66DD5BA
:103D200037C50000130545B3D9B773110134EFC08F
:103D30005FCF37C50000130585BFEFD04FBAEFC086
:103D40003FD1731101347300203073110134EFC07F
:103D50005FCD37C500001305C5BEEFD04FB8EFC02B
:103D60003FCF73110134730020307D577D156313ED
:103D7000E5008280930730020100FD17F5FFFDB7D3
:103D8000EFC28FE00111371401408D4785493ECCC9
:103D9000AA84C147130504802E894C083ECE02C672
:103DA00023080100231A3101A12B01468545130583
:103DB0000480212D5145EFD0DFC40546854513050C
:103DC000048021257945EFF05FFA930780044C08C1
:103DD000130504803ECE231A31011D2385451305AA
:103DE0000480F92B8547631CF50037C500001305D7
:103DF00085C0EFD0CFAE7D5505616FC02FDC1304B9
:103E00000480854522856D2B6DDD37C500001305C7
:103E100085C237140140EFD08FAC13040480854570
:103E20002285792B8547E30CF5FE37C50000130585
:103E3000C5C3B7190140EFD08FAA6000930A1101E2
:103E4000938909807D5B1D4A85454E85952B6DDDE7
:103E500013058002EFF07FF185454E859523854758
:103E60006317F5001C20331545015D8D08A08545BD
:103E70004E85B9238547E30CF5FE7D1AE3166AFDEE
:103E80000504E3928AFC14869C8618879087B6976F
:103E9000BA97B297034601017955E39FC7F423000F
:103EA000D90098A0014589BFEFC2AFCF411193055A
:103EB000F1001305E100EFF0BFEC01ED90870C87F6
:103EC00037C50000130545D6EFD06FA141016FC083
:103ED0008FCF37C50000130505D8EFD04FA0FDB731
:103EE000EFC22FCC81452945EFF00F85EF00D006BA
:103EF000AA8537C50000130505C5EF001061014410
:103F000037C90000B7C4000081452945EFF06F8430
:103F1000A285130509C6EFD08F9C1305401FEFD073
:103F20005FAE85452945EFF0CF82138584C7EFD07A
:103F30000F9B1305401FEFD0DFAC0504A947E31525
:103F4000F4FC01456FC02FC8EFC2AFC537C50000F4
:103F5000130545C8EFD0AF98A922B707002083A565
:103F6000073337C50000130585C9EFD04F97DD2C07
:103F7000AA8537C50000130585CAEFD04F9637C50F
:103F80000000130585CB0564EFD06F95B7C4000022
:103F9000EFF07FC8130484BB138584CCEFD02F943B
:103FA0002285EFD01FA6CDBFB71702409843B706B2
:103FB000FFF041111367170098C3D843370602007A
:103FC000758FD8C39843B706F7FEFD16758F98C353
:103FD0009843B706FCFFFD16758F98C3D843B70604
:103FE00001FFFD16758FD8C39843B70600ECFD1688
:103FF000758F98C33707FF0098C723A6070202C42E
:1040000002C69843C166558F98C3B716024005672C
:104010009C42F18F3EC6A24785073EC4B24781E766
:10402000A247E397E7FEB71702409C431397E700C8
:104030006357070685473EC632478547631FF70427
:10404000B7170240D843B706C1FFFD16D8C3D843FF
:10405000D8C3D84313670740D8C3D843758FD8C394
:10406000D843B7062900558FD8C39843B706000137
:10407000558F98C3984393166700E3DD06FED84337
:10408000B7160240719BD8C3D84313672700D8C323
:104090002147DC42B18BE39EE7FE4101828002C6EC
:1040A00061BFB7160240D842B70700201146318BD6
:1040B000938707336305C70021466308C702371794
:1040C0007A001307072098C337170240584311831B
:1040D0009376F70037070020130707143697142349
:1040E00098433357D70098C38280D842D442416660
:1040F00049833D8BF18E1306270015CF3D47630F93
:10410000E6024147630FE602454781456313E60037
:104110004146A1E23747024003270780418B0DC784
:1041200037177A00130707203306C70290C3C9DD8B
:104130009843058349BF81454946E1BF85453546DA
:10414000C9BF81453D46F1B737173D0013070790BA
:10415000E1BF3715024058559316F700585563DFF5
:10416000060411833D8B9306170037177A00130757
:1041700007203357D70298C35455A182BD8A8DE2D8
:1041800095463307D702058398C33717024058571F
:1041900094433D8B050733D7E60298C3984369B72C
:1041A00005456394A600E546E9BF3D456396A60034
:1041B000D1463387E602C9BF8906E5BF3D8B93062A
:1041C000170037177A00130707203357D702F1B7C4
:1041D00001A07390123497D1FF1F9381A19517C14D
:1041E0000020130121E2178500001305252897C53B
:1041F000FF1F938525E11386818163FAC500832221
:10420000050023A0550011059105E3EAC5FE1385BD
:10421000818197D5FF1F9385E57F6377B5002320C4
:1042200005001105E36DB5FEFD42739002BCFD4231
:1042300073904280B78200009382028073900230B4
:1042400097C2FFFF938242DC93E2320073905230B8
:10425000EFF09FD597C2FFFF9382E2437390123431
:1042600073002030B7F7FF1F03A5477082805841C5
:10427000032805004C4537060140930706403E974A
:104280009346F8FFB1C583250640F58D2320B6403F
:10429000D043F18ED4C31443B3E6060114C31841CE
:1042A00090479346F7FF758E90C7D047F18ED4C7DD
:1042B000144541466399C6009447D98E94C7D447A4
:1042C000558FD8C78280B6979443558F98C3828004
:1042D0001C43F58F1CC38280B7070140138707403A
:1042E00083A70740584B698F09C77D8D3335A000E0
:1042F000828001458280B707014023AAA7408280BF
:104300009C4513F7070113F8F70001C7D84133683C
:10431000E8008E2113F7F50F39C318418146854E09
:104320003D4F930F800293028004214E3396DE00AE
:10433000B3F8C500631116039398260033131F01C9
:104340001343F3FF3377E300B318180133E7E800B2
:10435000639FF70550C98506E39AC6FD18C1130788
:10436000F00F6375B70454412146854E3D4F930FBE
:10437000800293028004414EB398CE0033F71501BA
:104380006392E8021317260001173313EF0013435B
:10439000F3FFB376D3003317E800D98E639DF7019E
:1043A000232A15010506E319C6FD54C18280E39452
:1043B00057FA10C94DB7E39757FE23281501DDB70B
:1043C00008456D8D3335A000828019C20CC98280EA
:1043D0004CC9828013F7C50F93F73500B70501402C
:1043E000BA9594458A073D473317F7001347F7FFFF
:1043F000758F98C598453315F500598D88C582800D
:10440000371702405C439146B18B6385D700A146C4
:104410006382D706B7177A00938707201CC1371627
:1044200002405C4237070020130707159183BD8BBC
:10443000BA9794231C41B3D7D7005CC15442A182E0
:104440009D8ABA969422B3D6D70014C55442AD8241
:104450009D8A36971823B3D7E7005CC55842398345
:10446000937637001387418036971823B3D7E70236
:104470001CC982805C435843C166C983758FB7F6F7
:10448000FF1F83A6C670BD8B89071396160163486C
:104490000600C54601466392D702C94739A8894636
:1044A000638FD702BD46638ED702C146638ED702A3
:1044B000C54601466393D700C1471DEF3747024009
:1044C00003270780418B05C737177A00130707209A
:1044D000B307F7021CC121D61C41858381B7014671
:1044E0006DBF0546B547D1BF0146BD47F9B7371780
:1044F0003D0013070790E9BFB7150240D855931642
:10450000F700D85563DF060411833D8B930617002F
:1045100037177A00130707203357D70218C1D4552D
:10452000A182BD8A8DE295463307D702058318C163
:1045300037170240585714413D8B050733D7E60221
:1045400018C1184171B785456394B600E546E9BFC7
:10455000BD456396B600D1463387E602C9BF8906DA
:10456000E5BF3D8B9306170037177A001307072026
:104570003357D702F1B799C5371702401C4F5D8DED
:1045800008CF8280B7170240984F1345F5FF798D09
:1045900088CF828099C5371702405C4F5D8D48CF28
:1045A0008280B7170240D84F1345F5FF798DC8CFE9
:1045B0008280EFB21FDF1629F577FD17F58FF62100
:1045C000DA257971D58F1EA95625FD779387379FF8
:1045D000F58FD6212A842EC6D58F9625D58FB62560
:1045E000D58F5EA55E29C207C18393F7F7CFD98F18
:1045F0005EA96808EFF0DFE0B747014093870780C6
:10460000B245631EF402A2576547B387E70298419B
:10461000930640060A07B3D7E70233D7D702B3F7AA
:10462000D7021207920793872703B3D7D702BD8B10
:10463000D98FC207C1831EA445616FB0DFD89257DE
:10464000E1B791C55E250967D98F5EA582805A259D
:10465000F977FD17F98FD5BF13F7F50F8547158348
:10466000B395B7006319F7009307C500984301CECF
:10467000D98D8CC38280894693074501E318D7FE04
:1046800093070501E5B793C5F5FFF98DDDB793F500
:10469000F51F4EA182800A216D8D3335A0008280E6
:1046A00013F7F50F85461583B397B6006311D7024C
:1046B0005A25F98F1A2101454207418381CB0545CF
:1046C000A181B315B5006D8F3335E0008280894636
:1046D0006314D7001A29F1BF5A29E1BFA181854788
:1046E000B397B70093C7F7FFC207C1831EA18280AB
:1046F000EFB29FC9B7440140AE8932890144938427
:104700000480634524014A856FB05FCB93050004A4
:104710002685EFF05FF87DD9B38789008385070090
:1047200026850504C205C181EFF07FF6D9BF138746
:1047300081801C43B7260020938606A13E95636BBB
:10474000D500B70601209386068063E5A60008C35E
:104750003E858280FD57EDBF0A858280797122D423
:10476000135475014ECE52CC9319950006D626D21D
:104770004AD056CA5AC81374F40F93D99900135AE1
:10478000F50169C49307F00F6308F40E939739009D
:1047900037070004B3E9E700130414F88144014B20
:1047A00013D77501939A95001377F70F93DA9A0050
:1047B00013D9F50145CF9307F00F630CF7028E0A6A
:1047C000130717F8B7070004B3EAFA003A94014652
:1047D00033452A01BD47AA869305140063E097106C
:1047E000177700001307475B8A04BA949C40BA9776
:1047F00082871304F40F63960A0C93E4240009469D
:10480000C1BF01451307F00FB7074000B250225453
:10481000A6075E07A5837E05D98F92540259F249F7
:10482000624AD24A424B5D8D45618280CA86D689F2
:10483000328B8947630FFB088D47E304FBFC8547F8
:1048400036856310FB1A01478147C9B7639D090488
:1048500013D77501939A95001377F70F914401448C
:10486000054B93DA9A0013D9F50131F7639D0A00DD
:1048700093E414000546A9BF63920902A1441304FE
:10488000F00F094B31BF5685052E9307B5FF098CF4
:10489000B39AFA001304A4F801461DBFB1441304EF
:1048A000F00F0D4BF5BD4E852EC639269307B5FF8B
:1048B0001304A0F8B399F900098C8144014BB24567
:1048C000C5B593E434000D4621B78947D286E31578
:1048D000FBF636851307F00F81470DBF4163930642
:1048E000F3FF13D6090193D80A01B3F7D900B3FA3D
:1048F000DA0033885703B389F80213570801B30A63
:104900005603D6994E9733061603637357011A96CA
:10491000C167FD17B376F7003378F800C206C29678
:104920009399660093570701B3393001E982B29732
:104930009A07B3E6D900B3E9D7009397490063D942
:10494000070013D7190093F71900B369F7002E84F5
:104950001307F4076350E00493F7790099C793F7BE
:10496000F90091466383D70091099397490063D971
:104970000700B70700F8FD17B3F9F900130704089B
:104980009307E00F63CBE70493976900A583137740
:10499000F70FADBD8547B386E74011C76D460147A8
:1049A0008147E345D6E61307E4093397E900333737
:1049B000E000B3D7D900D98F13F7770019C713F7E1
:1049C000F70091466303D700910713975700634C94
:1049D00007009A07A583014715BD1307F00F81470C
:1049E00035B52E84B5B7054781470DB5370680002C
:1049F000135775019307F6FF1377F70F9305E00739
:104A0000B3F6A7009357F50163FCE5009305D009C1
:104A100063FAE500370500801345F5FF3E95828077
:104A20000145828093055009D18E63CDE5001306C0
:104A300060093307E64033D7E6003305E040F5F37D
:104A40003A8582801307A7F63397E600FDB793D621
:104A500045019397C50093F6F67FB1831386160040
:104A60008E071357D5011376E67FFD815D8F93186E
:104A7000350035CE138806C89307E00F63DD0701C4
:104A80008147139597009306F00FDE062581FE05FA
:104A9000558D4D8D82806355000B931765000E0771
:104AA000B337F000D98F93D8D801B3E7170113F7C4
:104AB00077006301071013F7F70091466303D700EF
:104AC0009107370700047D8F75C713071800130679
:104AD000F00F9376F70FE305C7FA9A07A5831395AE
:104AE0009700DE062581FE05558D4D8D8280B367CA
:104AF000170199EE85CF95479A07A58313959700DF
:104B000093F6F60FDE062581FE05558D4D8D8280CC
:104B1000A5DBB7074000139597009306F00FDE065C
:104B200081452581FE05558D4D8D828081471395E8
:104B300097008146DE062581FE05558D4D8D8280CC
:104B4000A5576348F804F94737068000B387074143
:104B50007D45598E6351F504795733070741130595
:104B600000023357E6006388A700938626CAB3166F
:104B7000D600B3E8D800B3371001D98F13F7770008
:104B8000014815FB139757008546E34807F4814613
:104B9000A5B781468DB7938626C83397D80033379B
:104BA000E000B316D600B3D8F800B367D700B3E778
:104BB000F800E9B7C28689B7C167637CF50293073D
:104BC000F00F1307000263EBA700977700009387AD
:104BD000A720AA9788233305A74082802181977751
:104BE00000009387671FAA97882361473305A74072
:104BF0008280B7070001636DF5006181977700003F
:104C00009387871DAA97882321473305A740828071
:104C10004181977700009387271CAA9788234147F3
:104C20003305A740828081456F00D07929468145B0
:104C30006F10001001476314E60001458280B3073E
:104C4000E5000507B386E5009C2383C6F6FFE384F1
:104C5000D7FE3385D7408280B3C7A5008D8B33073D
:104C6000C50081E78D4763EDC700AA87637EE5082D
:104C7000942185078505A38FD7FEE3EBE7FE8280AD
:104C800093763500AA8789CA942185078505A38F65
:104C9000D7FE93F63700C5BF9376C7FF138606FE8F
:104CA00063F0C70683A3050083A2450083AF850098
:104CB00003AFC50083AE050103AE450103A3850123
:104CC00083A8C5019385450223A0770003A8C5FFEB
:104CD00023A2570023A4F70123A6E70123A8D701A5
:104CE00023AAC70123AC670023AE170193874702AD
:104CF00023AE07FF75B790419107910523AEC7FE1C
:104D0000E3EBD7FEE3E6E7F6828039713EDA2ED296
:104D100032D436D63AD842DC46DE9387C18022CCE4
:104D2000804326CA06CEAA8411C41C4C81E7228582
:104D3000EF10E0130C4454102686228536C6EF206F
:104D4000101EF2406244D2442161828071713ED3D0
:104D50009307402006C72EC632CD36CF3AD142D572
:104D600046D72312F1022ACC2AD40D2A9707000035
:104D7000938707063EDEFD57B2452313F102938762
:104D8000C1802ACE2AD6884334092E862C0882C6B2
:104D900082D036CAEF208057BA404D6182804111DF
:104DA00022C42E848395E50006C6EF30C02E6349E9
:104DB00005007C48AA977CC8B24022444101828009
:104DC0005E247D777D17F98F5EA4FDB70145828053
:104DD000DE25011122CC26CA4AC84EC606CE93F75C
:104DE0000710AA842E843289B68999C78395E50075
:104DF00089460146EF10D0145E247D777D17F98F28
:104E00005EA48315E4006244F240CE864A86B2492D
:104E100042492685D24405616F007073411122C456
:104E20002E848395E50006C6EF109011FD575A2495
:104E3000631AF500FD77FD17F98F5EA4B240224496
:104E4000410182808567D98F5EA468C8C5BF8395FC
:104E5000E5006F003073AA8798239386170009EB4B
:104E6000850503C7F5FF8507A38FE7FE75FB8280E5
:104E7000B687DDB793F5F50F1C2191C76393B70093
:104E800082800505D5BF91C101458280AA879821FE
:104E900085078505A38FE7FE7DFB8280AA878507AE
:104EA00003C7F7FF6DFF3385A7407D15828015C2CC
:104EB0007D160147B307E500B386E5009C239422E5
:104EC0006396D7006304C7000507EDF73385D74025
:104ED00082800145828018219C2101E791C3014510
:104EE0008280814739A01C3113071500EDDB814713
:104EF0003A853387F500182365D7B306F500942269
:104F0000E393E6FE85072A87E5B7011122CC2A87BD
:104F10002E843A85A28532C606CEEF10B075324691
:104F20002A88AE8805C651801374F47F9307B006B3
:104F3000818F635DF000D2073707F03F01483E974D
:104F40004286BA86EF40500B2A88AE88F24062440F
:104F50004285C6850561828035714AC92A893685B0
:104F600032D436C606CF22CD26CB4EC7EAD8EED6EF
:104F70002E8D52C556C35AC1DEDEE2DCE6DA82C8A7
:104F8000EF10A07BAA8D084181440144EFF01FF18E
:104F9000B246AA89EAC635469305B0021305D00287
:104FA00013080002A548B6479823636BE608637FA1
:104FB000170955C702C8364A93070003814A0347B9
:104FC0000A00631BF71283471A00130780056388E2
:104FD000E70013068007130700036396C710C24754
:104FE00036889808D408177600001306A6F4EC005B
:104FF0004A85EF10800A93797500AA8A63880900B0
:1050000099476397F906050AD2C602C8A25781C715
:10501000B64722571CC3C247B9C7B7050080A18D48
:10502000FA406A4426854A49DA44BA492A4A9A4AE1
:105030000A4BF65B665CD65C465DB65D0D618280B0
:105040006309B7006303A702E31607F78507BEC627
:1050500099BF02C813871700BAC69C33A9FFA2578D
:10506000EAC602C8D5F7A28565BF05473AC8DDB7CD
:10507000464611CA93055003A808EF20C003C64551
:105080004A85EF10207BFD19914763EE37011777B2
:105090000000130767E48A09BA9983A70900BA9741
:1050A0008287E644764493FA8A00E3810AF6B707DA
:1050B00000805D8CA1BFF6453704F0FF7D14B3F787
:1050C00085005644E644130434439315440133E405
:1050D000B700D1BF3704F07FF9B7B705008013C41C
:1050E000F5FFFD54C9B7B64793861700B6C69C3383
:1050F000E38BE7FE81DF854AB64C014A814B014CC8
:10510000A546A145A9473645034B050013070BFDEE
:105110001376F70F63FDC60483A50D004E86EFF0EE
:105120001FD93DC1DA87E28D8146014B0145130746
:1051300050066387E7001307500481496395E7161B
:1051400063960D00B3E7560199DB814D364D130789
:10515000B00293071D00BEC683471D00638FE70C96
:105160001307D00201486390E70E0548C1A863C940
:105170008501B38BFB02BA9B0505050CAAC661B776
:10518000330AFA023A9ACDBF364581464E95AAC6F1
:105190001C21630B0C06014BE28D138707FD25468E
:1051A0006375E602054561B7B647850613861700A5
:1051B000B2C69C33E38AE7FE1387F7FC2146E36619
:1051C000E61EB64C368B814D8146938707FD1387CB
:1051D000160085C73A9B3385B6016E872148C148C2
:1051E00029466316A702850DB69DA14663CEE60249
:1051F0002947B38BEB020147BE9BB6479386170046
:10520000B6C69C33BA8651BF1307000365B7930532
:1052100017006346E800B38BCB022E87D9B7E3CEE5
:10522000B8FE330ACA02D5BFC1460147E3C7B6FD7F
:10523000A946330ADA023E9AC9B7014893072D00FE
:10524000BEC683472D00138707FD25466365E60C20
:10525000130700036385E70A1387F7FC214681499A
:105260006363E604B648138707FD2543294EB64716
:1052700013861700B2C69C33938507FD93F5F50F8F
:105280006375B3089569330616419389F9E1A1481E
:10529000CE8563C6C800BA8963D3E500AE896304CE
:1052A0000800B309304163960D0CB3E6DA00E39FC2
:1052B00006D4E31605DA1307E0046389E706634FB3
:1052C000F70413079004E39CE7D8977500009385D3
:1052D00065C5E800EF10C02BE30305D8B647977506
:1052E0000000938565C4E800FD17BEC6EF10402A94
:1052F00001E5B6478507BEC63704F07F01BBB64758
:1053000013861700B2C69C33B1B73307C703BA97E9
:10531000138707FDA9BFEAC6814971B71307900635
:10532000E385E7FA1307E006E39BE7D297750000F1
:10533000938505C0E800EF10A025E30205D2B6472B
:105340009823930780026313F702B0089775000053
:10535000938585BFE800EF10802695476318F50018
:10536000F6453704F07FE6444D8C4DB13704F8FF25
:1053700071B9B38A694163130C006E8CC1476E8D9D
:1053800063D3B701414D5E85EF50C019A547AA848C
:105390002E8463DCB70393077DFF1397370097775D
:1053A00000009387A7C7BA979043D443EF40C04407
:1053B0002A845285AE84EF50E0162A86AE86228576
:1053C000A685EF304058AA842E84BD4763CDB70927
:1053D000E38E0AC2635450075947634357038E0A4A
:1053E00097770000938787C3BE9A03A50A0083A519
:1053F0004A002686A286EF402040AA842E8439B136
:10540000130750023307B741634F5705B38DB741B8
:1054100017790000130989C093973D00CA97884304
:10542000CC43B38DBA412686A2868E0DEF40C03C98
:10543000CA9D03A60D0083A64D0075BFA95763C47E
:10544000FA02B3093B41139B390097790000938915
:10545000E9BCDA9903A6090083A649002685A2853E
:10546000EF30704159BF338DAD41569D6357A01148
:105470009377FD0099CF17770000130727BA8E079F
:10548000BA978843CC432686A286EF40E036AA84AA
:105490002E84137D0DFF63080D0A9307401363D517
:1054A000A705014B814902C6814B930720022320A7
:1054B000F9003704F07F8144B247E38907B4C64559
:1054C0004A85EF102037DE854A85EF10A036CE855D
:1054D0004A85EF102036B2454A85EF10A035DA85AF
:1054E0004A85EF1020351DB6135D4D402685A285F7
:1054F0008147014A0548977800009388A8AF634622
:10550000A80599C3AA842E8417770000130787AED5
:1055100093173A00BA978843CC433707B0FC2297D9
:105520002686BA86EF40402D3704F07FB377B4006B
:105530003707A07CAA84E366F7F63707907C637A86
:10554000F7027D14FD54014ADDA813771D0011CF29
:1055500013173A00469710435443EF40E02985471C
:105560000548977800009388E8A8050A135D1D4058
:1055700079B7370450032E94F9B7E3060DFC330DC9
:10558000A0419377FD0099CF17770000130707A973
:105590008E07BA979043D4432685A285EF30B02D6D
:1055A000AA842E84135D4D40E30F0DF8FD4763DDA3
:1055B000A701014B814902C6814B93072002814418
:1055C00001442320F900CDBD137A0D0163040A00C4
:1055D000130AA0062685A28597770000938707986F
:1055E000014793761D0081CA9043D4433EC6EF40E5
:1055F000A020B2470547135D1D40A107E3130DFE30
:1056000019C3AA842E8463050A029357440113F731
:10561000F77F9307B006998F635CF0007D47635472
:10562000F7221307400381446359F72037047003BE
:10563000014681462685A285EF30307F3DD95E87C1
:10564000EE866286E6854A85EF10802C2AC6E30A3C
:1056500005E493D7FA41B3093B41B3F7F9003ED0D3
:1056600056CE63D30A0002CEB247014B8149B1073F
:105670003ED8B7071000FD173ED6B2474A85CC4347
:10568000EF108012AA8BE30205E2B247C255310542
:10569000904B09060A06EFF02FDCB808D4082286E2
:1056A000A6854A8526CA22CCEF10700CAAC8E30E44
:1056B00005DE85454A85EF10E03AAA89E30705DE55
:1056C000D64763C707180257724C338DE700664709
:1056D000B387474193066003BA97FD17930D20C027
:1056E000998E63D6B7193387FD407D46998E634600
:1056F000E616854DB397ED003ED2814C369CB30D36
:10570000DD00529CEA8763D3AD01EE876353FC0052
:10571000E2876358F000B38DFD40330CFC40330D3D
:10572000FD4082576358F002CE853E864A85EF10D1
:105730006049AA89E30B05D64646AA854A85EF103B
:1057400020342ADAE30305D6C6454A85EF10800ED9
:10575000D257BEC8634FB011635A50017246DE85FE
:105760004A85EF102046AA8BE30105D4635A8001D5
:10577000DE8562864A85EF10C050AA8BE30705D20A
:10578000635AA001CE856A864A85EF10804FAA89A8
:10579000E30D05D0C6455E864A85EF10805E2A8BF4
:1057A000E30505D0032CC500CE8523260500EF10A8
:1057B000205A6359050C336C9C0063110C1293172B
:1057C000C400639D0710B707F07FE18F3707B0066D
:1057D0006376F71083274B0191E703270B01854779
:1057E00063DEE70EDA8505464A85EF108049CE85EF
:1057F0002A8BEF10E0556353A00E630C0A10B70715
:10580000F07FE18F3707B0066345F7103707700365
:10581000E355F7DA0147B70750392685A2853A865E
:10582000BE86EF30707D2E84C98DAA84E39905C8A9
:10583000930720022320F90059B181177D57B31730
:10584000F7007D8CF5B37D57B317F700FD8CCDB312
:105850007247025D330CF7409DBD930C20BEB387A9
:10586000FC40854CB39CFC0085473ED241BD814C39
:10587000E5BFC6456E864A85EF10A040AAC8E31D65
:1058800005EC25B169E9370710007D17B377E4000F
:1058900063090C046399E7047D5763000A02B707A4
:1058A000F07FE18FB706A00663E9F600D183930687
:1058B000B006B387F6403317F7006396E402B707E4
:1058C000F07FFD176315F400FD57E380F4BEB705C4
:1058D000F07FE18D370410002E948144E31C0AF21E
:1058E000F9BEC58F99DB63820C04B3FC8C00E3879F
:1058F0000CFE52862685A285630F0C02EFF0EFE0C6
:105900002A86AE865245E245EF30E003AA842E8413
:10591000F1B7B705F07FE18D3704F0FFA2953704AA
:1059200010007D144D8CFD5455BF9257B3FD970068
:10593000E3860DFA7DBFEFF04FDD2A86AE86524535
:10594000E245EF40E03601468146AA842E84EF30DE
:10595000D04D49F59DB1CE855A85EF10806E976781
:1059600000009387A7599043D4432A8DAE8DEF3022
:10597000505D6342A01063010C0A814D370DF03F6A
:105980000147B707F03FB706F07FB37CD400B706F6
:10599000E07F639FDC166AD2370DB0FC229D26851E
:1059A000EA853EDE3ADC6EDAEF10C04CD25812586F
:1059B0002A86AE864685C285EF3010642686EA8642
:1059C000EF207078AA843705F07F3376B500B706EC
:1059D000A07C6257F2576365D60C62479307F5FFC8
:1059E0006396E7005247FD57E381E7ACB707F07FC6
:1059F0001384F7FFFD54C6454A85EF00B063DE858A
:105A00004A85EF003063CE854A85EF00B062DA85C3
:105A10004A85EF00306295B1B1E0B257E18FA1E75E
:105A2000976700009387074D9043D4436A85EE85BE
:105A3000EF303051634D0502976700009387074BA5
:105A40009043D4436A85EE85EF30105B2A87AE879A
:105A5000370D0080BA8D334DFD0035B7854763940F
:105A6000F400E30C04B4814D370DF0BF11BF0147C2
:105A7000B707E03FF1BF9767000093872747904340
:105A8000D4436A85EE85EF3030572A87AE872E8D56
:105A900063160C00370D0080334DBD00AA8DE5B5AF
:105AA000370450032E94E3180AF4B706F07FE18E12
:105AB000E393DCF4BE853A853A8DBE8CEF4030131B
:105AC000EF40301F2A86AE866A85E685EF40401E8D
:105AD000B2572A8DAE8DE18FC58F33EC8701630BF2
