:040000006F50F01A33
:100004000000000000000000BE560000DE560000A4
:1000140000000000AC5900000000000000000000D7
:10002400AC590000AC5900000000000000000000C2
:100034008E3D00000000000090020000000000005F
:10004400AC590000AC590000AC590000AC59000098
:10005400AC590000AC590000BA460000E24600006A
:100064000A470000324700005A470000AC5900001C
:10007400AC590000AC590000AC590000AC59000068
:10008400AC590000AC590000AC590000AC59000058
:10009400AC590000AC590000AC5900008247000084
:1000A400AC590000AC590000AC590000AC59000038
:1000B400AC590000AC590000D2680000AC590000F3
:1000C400AC590000AC590000AC590000AC59000018
:1000D400AC5900001C4D00003C4D0000AC59000020
:1000E400FA470000AC590000AC590000AC590000BC
:1000F400AC590000AC590000AC590000AC590000E8
:10010400000000001C400000AC590000AC59000085
:10011400AC590000AC590000AC590000AC590000C7
:10012400AC590000AC590000AC590000AC590000B7
:10013400AC590000AC590000AC590000AC590000A7
:10014400AC590000AC590000AC590000AC59000097
:10015400AC590000AC590000AC590000AC59000087
:10016400AC590000AC590000AC590000AC59000077
:10017400AC590000AC590000AC590000AC59000067
:10018400AC590000AC590000AC590000AC59000057
:10019400AC590000AC590000AC590000AC59000047
:1001A400000000000000000000000000000000004B
:0C01B4000000000000000000000000003F
:1001C00097020120938202E4938202E0739002344A
:1001D00003210500224573100530B1A819712320B1
:1001E000250006C006C216CAF322003093F2820030
:1001F000638402009302000816C412C81ACC1ECEF3
:1002000022D026D22AD42ED632D836DA3ADC3EDEB6
:10021000C2C0C6C2CAC4CEC6D2C8D6CADACCDECE26
:10022000E2D0E6D2EAD4EED6F2D8F6DAFADCFEDE96
:1002300003A1050009A002457310153492403785CB
:10024000000013050580732005302245732005301A
:100250004242D2426243F243025492542255B25572
:100260004256D2566257F257064896482649B64932
:10027000464AD64A664BF64B065C965C265DB65DF2
:10028000465ED65E665FF65F09617300203000004F
:10029000197116CA9302000816C49302000273A0D3
:1002A000428006C212C81ACC1ECE22D026D22AD430
:1002B0002ED632D836DA3ADC3EDEC2C0C6C2CAC456
:1002C000CEC6D2C8D6CADACCDECEE2D0E6D2EAD4E6
:1002D000EED6F2D8F6DAFADCFEDE73110134EF0066
:1002E000902CEF20C044EF00F02E731101341384E2
:1002F000418D0329040063040902232004007325AF
:1003000010342AC01384C18C044023A02400138419
:10031000018D044003A1040002457310153492407E
:10032000B78200009382028073A00230A24273A0C1
:1003300002304242D2426243F24302549254225566
:10034000B2554256D2566257F25706489648264949
:10035000B649464AD64A664BF64B065C965C265D25
:10036000B65D465ED65E665FF65F0961730020305B
:100370000000397101436EC619A0397141536AC832
:1003800066CA62CC5ECE19A0397101535AD056D2DA
:1003900052D44ED64AD826DA22DC06DE330161403A
:1003A000828241114AC026C222C406C68282B24D50
:1003B0004101024D924C224CB24B4101024B924AF8
:1003C000224AB2494101024992442244B2404101C9
:1003D00082803D432A876373C3029377F700BDEFA2
:1003E000ADE5937606FF3D8ABA960CC34CC30CC7A5
:1003F0004CC74107E36BD7FE11E28280B306C340CE
:100400008A069702000096966780A6002307B70029
:10041000A306B7002306B700A305B7002305B7005E
:10042000A304B7002304B700A303B7002303B70056
:10043000A302B7002302B700A301B7002301B7004E
:10044000A300B7002300B700828093F5F50F9396C1
:100450008500D58D93960501D58D61B793962700BC
:100460009702000096968682E78086FA9680C117EA
:100470001D8F3E96E374C3F8A5B73367B500FD53EF
:100480000D8B79E7B7877F7F9387F7F7104194410A
:10049000B372F6003363F600BE92B3E26200639576
:1004A000720C6318D6065041D441B372F600336320
:1004B000F600BE92B3E262006396720A631BD60432
:1004C00010459445B372F6003363F600BE92B3E272
:1004D0006200639F7208631ED6025045D445B37212
:1004E000F6003363F600BE92B3E2620063987208CE
:1004F0006311D60210499449B372F6003363F600D3
:10050000BE92B3E26200639172085105D105E30F18
:10051000D6F61317060193970601631CF7001357CD
:10052000060193D706013305F7409375F50F91E95E
:1005300082804183C1833305F7409375F50F91E1C4
:1005400082801377F70F93F7F70F3305F740828018
:1005500010219421050585056313D60075FA33052E
:10056000D640828011059105E314D6FE01458280B4
:100570002105A105E31ED6FC014582803105B105A8
:10058000E318D6FC014582804105C105E312D6FC83
:100590000145828003A501848280EFF29FE093876A
:1005A00001849843050798C3EF1070353C45FD174B
:1005B0003CC589E77C413CC5EF105039EF20800AEB
:1005C00019B5634205029307803E3347F502336550
:1005D000F5023305F5021305753E3345F502330781
:1005E000F7023A9582807D558280014582800145DF
:1005F00082800145828001458280EFF2FFD85164FC
:10060000D164130404A8938484A937D90000B7D90E
:100610000000636394005DB30C401305497C210422
:10062000EF0050648327C4FF8297AA851385497D14
:10063000EF005063F9BFEFF23FD537D50000130547
:10064000057E5164D164EF00F061130484A99384A2
:1006500084AA37D90000B7D9000063639400B9BBFE
:100660000C401305497C2104EF00D05F8327C4FFB1
:100670008297AA851385497DEF00D05EF9BFEFF21E
:100680005FD2553FEF50A0073DBBEFF29FD185668B
:10069000B705000037D50000D1471547938606C03F
:1006A00001469385E5671305C57AEF10B0252A84C6
:1006B00001EDB56537D500001306300C9385C5767E
:1006C0001305457BEF0050692285EF107046E5B9B0
:1006D000EFF23FCDEF208006EF304064EF00105F77
:1006E000EF10D07FEF10805F4D37EF10D07F2929BA
:1006F000EF10A0610145C1B9EFF2BFCAD13F01457A
:10070000D9B1EFF27FC8AA89EF10701F19C1EF109D
:10071000807B2545EF10C0352A8401EDB96537E5AA
:1007200000001306A0089385058013050588EF00D7
:10073000B0624440110463968400EF10501C0149DC
:1007400019A8138944FF2146CE854A85EF0030154C
:1007500001E9EF10D01A19C1EF1080784A85B9B9B4
:100760008440D1BF09E57D5582807D55A9B9EFF25E
:100770005FC32A842E853289AE8461377DF5228558
:100780002686A545EF1060310145231C2401230E68
:100790000400231D0400D9BFEFF2BFC02A842E89B4
:1007A00001EDB96537E5000013062010938505813A
:1007B0001305458EEF00505A2285EF10A04FA54734
:1007C000630DF500B96537E5000013063010938519
:1007D00005811305458FEF0030581E2CC18B8DE726
:1007E0001C5499CF22858297AA8419C92A8637E595
:1007F0000000A28513058589EF00D0462685E1B665
:100800001E2C93E707011EAC1E2CA18B89C73E2C22
:10081000E554A18BE5F75C5485CFCA852285829784
:10082000AA8421E13E2C93E787003EAC5C2C85072F
:1008300093F7F70F5CACF9F3B96537E500001306E1
:100840001013938505811305058DEF00F0507DB7DA
:1008500085679387F7F03379F900231D24018144DC
:10086000D1B7E957E31CF5F875BFEFF29FB32A84BF
:1008700001EDB96537E50000130630149385058254
:100880001305458EEF00504D2285EF10A042A5477D
:10089000630DF500B96537E5000013064014938534
:1008A00005821305458FEF00304B5C2C7D559DC3B1
:1008B000FD1793F7F70F5CAC014589EF1C5889E7EA
:1008C0000145231D040039A02285829775D9E95777
:1008D000E309F5FECDBCEFF23FAB2A84AE8432894A
:1008E000B68901EDB96537E500001306D01693858A
:1008F00005831305458EEF0030462285EF10803BBF
:10090000A547630DF500B96537E500001306E0164D
:10091000938505831305458FEF0010445C2C7D55AE
:1009200091CB5C5899C7CE864A86A6852285829748
:1009300071B46955EF0020650145DDBFEFF2DFA41A
:100940002A84AE843289B68901EDB96537E50000A5
:1009500013064019938505841305458EEF00D03F9B
:100960002285EF102035A547630DF500B96537E501
:10097000000013065019938505841305458FEF0079
:10098000B03D5C2C7D5591CB1C5C99C7CE864A86C8
:10099000A685228582971DB46955F5230145E5BFDB
:1009A000EFF23FA02A84AE84328901EDB96537E5C4
:1009B00000001306501B938505851305458EEF0037
:1009C000B0392285EF10002FA547630DF500B965FA
:1009D00037E500001306601B938505851305458FD9
:1009E000EF0090375C5C695589C74A86A6852285E9
:1009F0008297D1BAEFF2FF9A2A84AE8401EDB965ED
:100A000037E500001306F01C938545861305458ED7
:100A1000EF0090342285EF10E029A547630DF50023
:100A2000B96537E500001306001D9385458613055B
:100A3000458FEF00703204D001456FF0DF98EFF280
:100A4000DF934A8A9389018AB96AB7EB000037ECD1
:100A50000000854C83A7018A638C3707EF10104E86
:100A60002A84452619CD93858A9513850B97EF0027
:100A7000701F1306900993858A951305CCF1EF003A
:100A8000B02D2285EF10504CEF10504B83A7018AF8
:100A90002A8B638D370303A4018A5C4018409304BA
:100AA000C4FE5CC398C340C000C0EF10C0417C507E
:100AB00099C3268582972685EF10401D631C9501FA
:100AC0002685EF10C006EF10A0415A85EF10D047E1
:100AD0006FF03F8EEF10C0405A85EF10F046484847
:100AE000EF00F0622685EF10A013ADB7EFF27F8B19
:100AF00013848199130904011C4091C38297110446
:100B0000E31C24FF2D3FEDB7EFF2BF89371600003D
:100B1000B7E50000930800023D48930700201387C3
:100B2000819A81461306C6AE938585991385819176
:100B3000EF10A05613858191EF10807F6FF0BF8872
:100B4000EFF23F8641112A842E8532C62EC4EF1063
:100B500000653246A24501CA8547630EF60001458D
:100B600041016FF05F865840938745011CC398CDC3
:100B70005CC0C0C9EDB71C406388870083C65503BD
:100B800003C7170263FAE600D4431387450198C2EE
:100B900094CDD8C3DCC9E1B79C43F9BFEFF2CFFED7
:100BA0002A84AE89B284368901EDB96537E5000043
:100BB0001306A00C9385059A130505A4EF00D01920
:100BC000C16763EDF400B96537E500001306B00CAA
:100BD0009385059A130505A5EF00101822854E860A
:100BE0008945EF00906B930744011CCC5CC846AC70
:100BF000A304240101456FF06FFCEFF2EFF84111FF
:100C00002EC62A8401EDB96537E50000130680146D
:100C10009385C59A130505A4EF0010142285EF10E3
:100C200060098947630DF500B96537E500001306D3
:100C300090149385C59A1305859CEF00F01183A746
:100C4000C18899C322858297EF10502F5E2CAA8904
:100C500089CFFD175EACEF10302F83A78188014547
:100C600091CB22858297014531A0B24799E7EF10D9
:100C7000B02D795541016FF06FF4EF10302C2A89B7
:100C8000EF10E04705E5B96437E500009385C49AA5
:100C9000130545A6EF00007D37E50000130690160A
:100CA0009385C49A1305C5F1EF00100BEF101029BE
:100CB0002A8A812A05C5B96437E500009385C49A5C
:100CC00013050597EF00007A37E50000130690162C
:100CD0009385C49A1305C5F1EF0010085285EF10F3
:100CE000B0264A85EF105026EF10604123280502F8
:100CF0001034AA85AA84130544019935B247635C70
:100D0000F0001389C404700081454A85EF10700D0E
:100D10004A85EF1040784E85EF101023EF10A001A8
:100D20008858E30C05F2B9B7EFF2AFE72A8401ED7A
:100D3000B96537E500001306501B9385859B1305A5
:100D400005A4EF0070012285EF00D0768947630D7E
:100D5000F500B96537E500001306601B9385859B98
:100D60001305859CEF00407F83A7418899C32285A6
:100D70008297EF10B01CAA84484893074401630F80
:100D8000F5003115EF10805205442685EF10D01B79
:100D900019C0EF00507A01456FF0EFE25E2C850735
:100DA0005EAC0144DDB7EFF2CFDF4111EF10101957
:100DB0001387C1841C23850793F7F70F1CA383A710
:100DC000418481C72AC682973245EF10F01741014E
:100DD0006FF06FDFEFF2EFDC4111EF103016138789
:100DE000C1841C23FD1793F7F70F1CA383A78184ED
:100DF00081C72AC682973245EF10101541016FF066
:100E00008FDC03C5C1848280937808044111639EFE
:100E10000800B968938888C793730801638B03003F
:100E20001378E8FF930E000219A8B9689388C8B92F
:100E3000E5B713731800930E0003E30503FE137365
:100E40002800630E0306635806023306C04093026F
:100E5000D0020A8E814F294F6395E6073373D6027D
:100E60003356D602469303430300850F050EA30FA6
:100E70006EFE7DF20DA0137348009302B00263175B
:100E8000030093728800B3325000960279F2930601
:100E900000035480854FFE8663D3FF00BE8613781F
:100EA0001801158F63130804638502006353E00083
:100EB0007D172A86B308E5001303000221A88142AA
:100EC000F1B71373F600118271BF6374B60023008B
:100ED000660005063388C840E34900FF3A8663533D
:100EE000070001467D173295118F638802006374F5
:100EF000B500230055007D17050563870302AA96F8
:100F0000130800031DA86374B6002300D60105066C
:100F10003388C840E34900FF3A866353070001461F
:100F20007D173295118FE1BF2A86B308E500CDB752
:100F30006374B5002300050105053386A640E3C9A7
:100F4000CFFEFD56FD1F6383DF0099E7AA873306B6
:100F5000E5001308000231A86376B5003306F101FD
:100F6000102210A10505F9BF63F4B7002380070123
:100F70008507B306F640E349D0FE635307000147F7
:100F80003A9541018280EFF2CFC12A849D3D09C587
:100F900023A881846FF02FC3EF10601675D900D994
:100FA000D5BF0D47AA876376C7009377350091C7F1
:100FB000AA873E966397C706828093F7F50F13972B
:100FC0008700D98F139707015D8FB308C500AA87E3
:100FD000BD463388F84063EB060393574600C1567D
:100FE000B386D7029207AA970D4836963383C70077
:100FF000BE86B308D3406362180313572600F15628
:10100000B306D7020A07BA97369665B798C3D8C30E
:1010100098C7C10723AEE7FE6DBF910623AEE6FE7B
:10102000C9BF8507A38FB7FE71B763F2A504B38666
:10103000C500637ED5029345F6FF8147FD17639394
:10104000F50082803387F600030807003387C70066
:101050002A9723000701DDB73387F50083060700D1
:101060003307F500850714A3E318F6FE8280814755
:10107000E5BF0DC6AA8785050387F5FF850793069B
:10108000F6FFA38FE7FE09EB3E9685076393C70043
:101090008280A38F07FED5BF3686F1FE828001478E
:1010A0006314E600814739A8B307E500838607008B
:1010B000B387E5009C23B387F640E207E18799E315
:1010C0000507F9FE3E858280AA870387070001E7AE
:1010D0003385A74082808507CDBFEFF20FAA2E8906
:1010E000B30B250141112A8CB68563F5AB0013497A
:1010F000F5FFFD5BC16937EA00006284930AB00224
:10110000130B0002FD19130A0AC731A81307500276
:101110006389E702637374011CA013051400B28491
:10112000138614002A8483070600EDF36306090082
:10113000637C742F230004003305844141016FF068
:101140004FA701481307D00293063002130500038E
:1011500031A0639E57011368480026868307160056
:1011600093041600E397E7FE13680801FDB7639543
:10117000670113688800D5B76395D7001368080224
:10118000E9BF6395A70013681800C1BF138707FD67
:10119000A54663E6E6040147A546294539A033077D
:1011A000A70285043E97130707FD83870400138673
:1011B00007FDE3F6C6FE038604009306E002FD5732
:1011C000631FD60483871400254693861400138575
:1011D00007FD6365A60A8147254529433DA093067F
:1011E000A0027D57E399D7FC98419304260091050E
:1011F000E35307FC3307E040136808016DBFB38772
:1012000067028506B297938707FD03860600930859
:1012100006FDE37615FF63D307008147B684838616
:10122000040013068006014593F8B6FF6395C800D5
:1012300013F5F60F850403860400930690066303F6
:10124000D60663C5C606930680056304D61C63C331
:10125000C604930750026308F61A63757401930776
:1012600050021CA083870400130514006387071A2B
:10127000637375011CB0130524005DB51306A0024D
:101280006397C7009C4193862400910569B7B68493
:10129000814771B7930630066303D608930640066C
:1012A000E31DD6FA13682800A94699A093063007D3
:1012B0006304D60C63C5C6029306F0066301D61616
:1012C00093060007E31BD6F8FD566315D700136895
:1012D00018002147938C4500C14690411DA89306F4
:1012E0005007E303D6FC93088007C146E31716F7BF
:1012F0001306C006938C4500E301C5FE1306800665
:10130000E31DC5FC904193752800639C051033765E
:101310003601DE852285EFF03FAFE68511B5137803
:10132000080163150802BA879306000229A06373B7
:10133000740114A00504FD17E34BF0FE9307F7FFBB
:101340006343E00005473387E7400507938745007F
:1013500063747401944114A01305140022971306BA
:101360000002B306A7406344D000BE8555BB63733B
:10137000750110A10505F5B783AC0500138D450077
:1013800063930C00D28C66853EC63AC442C22D3BA4
:10139000B247AA86124822476355F00063D3A700DC
:1013A000BE8613780801631E0800BA871306000280
:1013B00031A06373740110A00504BA877D17E3CAD6
:1013C000F6FE814763C1D702B68763D30600814723
:1013D0003305F4002A9713060002B307A74063CF32
:1013E000F600EA8535BB3306F40063777601B385F2
:1013F000FC00838505000CA28507E9B763737501BE
:1014000010A10505D9BF6373740110A01305140062
:1014100001BB13680804C146E1BDFD1411B3A14628
:10142000C1BD42064186F5B5A38F0BFE31B303A5BE
:1014300041858280EFE2FFF603A94185EFF06FACB2
:1014400011CD13844185AA84084019C1EFF0EFC182
:10145000930530042685EFF02FB404C04A856FE071
:101460009FF68280397126CA2ED232D436D62A8689
:1014700054109305F007138581BA3EDA36C606CEBE
:1014800022CC3AD842DC46DE8939AA8603A54185BA
:1014900009E9138581BAF137F2406244D2442161EF
:1014A00082802686262D1384418593E704043EAD71
:1014B0009307F00763F4D7009306F007138681BA09
:1014C0008145EFF0AFC71C40A6AFF9B7EFE27FED63
:1014D00037E50000130585BE713737E500001305B9
:1014E00045BF493737E7000037E50000130787C1DC
:1014F0008D4605468D45130545C2AD3737E50000DD
:10150000130545C485376FE01FEC31C5B966137705
:10151000F50F9386C6A909C7BA9688220505828069
:10152000C167938707F0E98F81CB21851377F50F8A
:101530003697082325058280B707FF00E98F81CB06
:1015400041859377F50FB6978823450582806181A1
:101550003695082165058280EFE2BFE483A7818587
:101560004111A307010085E3B2862E86AA8537E5DF
:101570000000130505BBFD359C87E207E187EDDF21
:1015800041016FE05FE48297E5BFEFE29FE183A551
:10159000C18637E50000130585CBE93583A5818732
:1015A00037E500001305C5CC753D83A5818637E579
:1015B0000000130505CE7D356FE0FFE0EFE27FDE32
:1015C00003A701862A8413890186637CE500B96537
:1015D00037E50000130640099385C5C81305C5D239
:1015E000A53F03A7C1859384C185636CE400B965F9
:1015F00037E50000130650099385C5C81305C5D407
:10160000A13F3E2099CBB96537E50000130660097C
:101610009385C5C8130585D78137032709005C402A
:10162000BA976304F402B6238DE29440638FF60008
:101630009386418690426313F60080C2D44354C01F
:10164000DC43B306E440BA9794C71044B307C7001D
:10165000630FF400B62381EE938641868C42639338
:1016600085009CC25440D4C35C403E9710C76FE0D5
:101670009FD5EFE27FD1130435002A89AE8993F418
:10168000C5FFEF10A00B7198AA8AEFF08FF715C174
:10169000396A37E5000093058AC913050597D933E0
:1016A00037E500001306500C93058AC91305C5F1F0
:1016B00065355685EF104009E14763FF970493872E
:1016C00084FE63EB8704B3878440938687FE23A65A
:1016D000D1860967D11793840186130707EA5CC096
:1016E00018C02324040080C03E9423AE818449673F
:1016F000130707EAB7E5000018C05CC01CC48146A8
:101700000546938505F5138581C2EFF02FC99840F2
:1017100023A2E1866FE09FCA37E500004E86CA85A6
:10172000130585F58133FDB7EFE21FC619E10149C5
:1017300061A22A84EF1080002A89EFF08FEC15C196
:10174000B96437E500009385C4CA13050597193BB2
:1017500037E500001306B0109385C4CA1305C5F120
:10176000E53B4A85EF00507E03A7C1860D047198C2
:101770009384C186E36D87FAB1476373F400314403
:10178000FD55138581C2EFF04FC783A7418683A51E
:10179000018683A804004A853386B740B386884013
:1017A000138841866367D600138581C2EFF0CFD7D7
:1017B000BDBFB384C500BA2003A34400631507125C
:1017C0003307C340930F47FF63EF8F10138F818759
:1017D000938E8186130E84011309C40083260F00A3
:1017E00083A30E00938981879382818663E9CF0D5D
:1017F000330E2601896E3387C501938E0EEA10C71A
:101800002320D7012322670023A2C40158430546A1
:10181000B2A0B108630517012E972324C7011387CF
:10182000C600229723A0E90063F4E30023A0E200AE
:101830000967130707EA9AA09389C185639A9700FD
:1018400083A609000147B22349EA19C32320F800FF
:10185000138581C2EFF04FCD83A70900269963FC61
:101860002701B96537E50000130690179385C5CAAF
:101870001305C5E8D5311389C4009377390099CB96
:10188000B96537E500001306A0179385C5CA13058F
:1018900045EDD9318D8899C8B96537E50000130643
:1018A000B0179385C5CA130505F27D3183A741871B
:1018B00081C7A2854A8582974A856FE03FB0054679
:1018C0003697B2A02320EF00E3F4E3F623A0EE0066
:1018D00085B7DC430547AE97BDB7E39CF6FE2DDB2D
:1018E0002320D800B5B71A8675BDEFE29FAB33064B
:1018F000B5024111328532C6053D2A8409C53246FA
:101900008145EFF00FEA228541016FE0DFAB630014
:101910000516EFE27FA72A84EF0050622A89EFF0D4
:101920004FCE1DC137E50000938501831305059750
:10193000EFF05FB337E500001306C0219385018304
:101940001305C5F1EFF05FC14A85EF00F05F9377B3
:10195000340099CB37E500001306E021938501831D
:10196000130585D8EFF05FBF83A701861389018631
:101970006366F40083A7C185636CF40037E500005B
:1019800013060022938501831305C5DBEFF0DFBC4E
:1019900083A7018799C322858297832709006366FD
:1019A000F40C83A7C1856372F40CFD55138581C2C5
:1019B000EFF0AFA4835764FF930444FF81CB035738
:1019C00044FF8967938707EA6301F70637E500005C
:1019D000130585E1EFF01FA9835644FF035664FF0A
:1019E00037E50000A685130545E3EFF0BFA7835751
:1019F00064FF99EB37E500001306E023938501832C
:101A0000130545E6EFF05FB5035744FF89679387F9
:101A100007EA630CF70037E500001306F02393850F
:101A20000183130505E7EFF03FB38967938707EA62
:101A3000231AF4FE938741869843231B04FE63F325
:101A4000E40084C3138781871C43832684FF268593
:101A5000958F83260900B386D440B6971CC3EFF058
:101A6000FFB5138581C2EFF02FAC6FE03F95828008
:101A7000B707002093860700014793870700214698
:101A80008C426396A500131547003E95828005079A
:101A9000C106E317C7FE01458280EFE21F8E2A844C
:101AA0002E85AE89328AE9372A8901EDB96537E595
:101AB00000001306B00F938545F913050588EFF074
:101AC000BFA9112183244900930A4900396BB7EB60
:101AD000000063905405292193E909F82304340197
:101AE0002146D2852285EFF0CFD883A7C18799C33D
:101AF00022858297EF009044032749009307C40092
:101B00005CC358C42322F90004C8EF00F0436FE01F
:101B10005F8A938744FF631AF400130690109305BD
:101B20004BF913850B05EFF03FA384405DB7EFE25F
:101B30005F872A8401EDB96537E50000130650136D
:101B4000938545FA1305C503EFF01FA183A701880C
:101B500099C32285829723040400EF00303E544449
:101B600018489307C400D8C214C31CC85CC4EF0053
:101B7000B03D6FE05F85EFE23F812A89AE89EF00DB
:101B8000F03BAA84EFF0EFA705C5396437E5000004
:101B9000930584FB13050597EFF0DF8C37E5000014
:101BA00013068015930584FB1305C5F1EFF0DF9A4A
:101BB0002685EF0070394A85653DAA8401EDB96537
:101BC00037E500001306C015938585FB13050588CE
:101BD000EFF09F98C844EFF03FB52A841DCDD04464
:101BE0008145EFF00FBC214623042401A304040027
:101BF000CE852285EFF0EFC783A7C18799C32285E1
:101C00008297EF00B033D8409307C40091045CC3BF
:101C100058C49CC004C8EF00303322856FE00FFA2F
:101C2000EFE22FF82A8401EDB96537E500001306CD
:101C300060199385C5FC1305C503EFF0FF91830779
:101C4000840063DD0700B96537E5000013067019ED
:101C50009385C5FC13050501EFF01F9083A701884C
:101C600099C32285829723040400EF00302D544449
:101C700018489307C400D8C214C31CC85CC4EF0042
:101C8000B02C2285EFF0BFC86FE0EFF3EFE26FF109
:101C90002A8401EDB96537E500001306801B9385A2
:101CA00005FE1305C503EFF03F8B030584007D811E
:101CB0006FE06FF1EFE2EFEE2A8401EDB96537E5F1
:101CC00000001306B01C9385C5FF1305C503EFF094
:101CD000BF8808241375F5076FE0EFEE239E018897
:101CE000938781C413870708DCC39CC3A107E39DC6
:101CF000E7FE3D472388E18823AA018823A4018ABF
:101D00009387018ADCC39CC38280EFE28FE903A53D
:101D1000818AEFF08FFF7D1593173500138581C4FD
:101D20003E9508411307C5FE210523AAE188EFE08F
:101D30002FC96FE04FE9EFE22FE5EF0030208397E6
:101D4000C189AA89D1EF03A5818AEFF00FFC7D1527
:101D500013173500938781C4BA97804393874189CD
:101D600084431309C4FE638D240723A0270183A79E
:101D700081892388A18881C7CA8526858297631DAA
:101D80000900B96537E500001306A0049385050630
:101D90001305450BEFF04FFC5C481307300294230A
:101DA0006399E600184463F6E700144CBE9663FEA0
:101DB000E60237E50000CA851305850CEFF08FEACF
:101DC000EF001028EF00901701E183C7C18413854D
:101DD000C4019305840093F7F70F85E7EFE00FC088
:101DE0004E85EF0070166FE06FDD93870702E3EE1C
:101DF000E7FC37E50000CA851305450EEFF08FE6D6
:101E0000E9B7EF00D014E9BFEFE2AFD92A8401EDC2
:101E1000B96537E50000130630129385C507130531
:101E2000450BEFF06FF3EF00701183474403930607
:101E30004401C19B93E71700230AF402834754032C
:101E400013973700938781C4BA97D84314C318CC2B
:101E5000D4C35CC89387818A9443185C558F98C318
:101E6000EF00900E6FE02FD6EFE2AFD32A8401EDA2
:101E7000B96537E50000130610159385850913052C
:101E8000450BEFF06FEDEF00700B184C54489307C3
:101E90004401D8C214C35CC81CCC834754031397B5
:101EA0003700938781C4BA979843631AF700138762
:101EB000818A1C5C144393C7F7FFF58F1CC3EF00A6
:101EC000B0086FE04FD0EFE2CFCDEF00300793873F
:101ED000C1899A2305079AA3EF0010076FE0AFCEE0
:101EE000EFE22FCCEF0090051387C1891E23FD1769
:101EF000C207C1871EA3634DF00023100700EF0047
:101F0000B00483A7418999C3EFF0FFE26FE0AFCB44
:101F1000EF009003E5BFEFE2CFC803A44189EF00D3
:101F2000F001AA84228589379147230AF402130518
:101F3000C404F5212285EFF07FD58547631EF500A7
:101F40003C5C99EB2285EFF09FBE2685EF00C07FB9
:101F5000EFF07FDE6FE02FC783A6018A13074401ED
:101F600023A0E18AD8C29387018A54C81CCCF1BF50
:101F7000EFE22FC3BE84930745012A841CCD5CC9C0
:101F80000CD150D114D558D53A86930530023685F8
:101F90004289EFF00F815C5410544C500850F117F7
:101FA000B72600003E96938666F1EF00E07348CCBA
:101FB000BD4763FD9700B96537E50000130660096A
:101FC000938505121305051AEFF00FD93726000087
:101FD0008147230B9402A30A9402232C0402232298
:101FE00024052324240523280402230A0402232C85
:101FF0000406232E04060147A28613066601A28565
:102000001305C404E12683A7C18A99C32285829758
:1020100001456FE04FBBEFE2CFB82A8401EDB9650F
:1020200037E500001306202E9385C5181305450BD0
:10203000EFF08FD2834744030947BD8B638DE700E0
:10204000B96537E500001306302E9385C5181305D2
:102050004521EFF06FD02285EFF0DFC58547630D96
:10206000F500B96537E500001306402E9385C518C5
:1020700013050525EFF04FCE5448184CF9571CD8DE
:10208000D8C29307440114C31CCC5CC82285EFF06E
:10209000BFD7EFF05FCA6FE00FB3EFE20FAE2A8455
:1020A000AE8B3289B689BA843E8AC28A468B01EDEC
:1020B000B96537E500001306600E93850513130517
:1020C000450BEFF06FC981ECB96537E500001306E9
:1020D000700E938505131305451CEFF0EFC75E8660
:1020E00022858545EFF07F9B5A88D6875287A68642
:1020F0004E86CA852285EFF0BFE76FE08FAB03A560
:1021000041898280EFE24FA841112E89AA850545B9
:1021100032C6B684BA893E8AEFF0FFA52A8411C977
:102120002685EFF06FE0324609E92285EFF05FAFD8
:102130000144228541016FE06FA8AA865288CE87AC
:102140002687CA852285EFF0BFE2E5B7EFE26FA5EB
:10215000F52383A741890546AA8603C747033D8B1C
:10216000631CC702D04B984F6308E60258C210C3E5
:1021700003C65703938647010E06138781C494CF85
:102180003297504314C290CF54C3D8CB752BEFF085
:102190009FBA01456FE02FA336857D23DDBFEFE2B7
:1021A0004FA02A8401EDB96537E500001306A02889
:1021B000938545161305450BEFF00FBA2285EFF016
:1021C0007FAF8547630DF500B96537E5000013065D
:1021D000B0289385451613050525EFF0EFB7834723
:1021E000440305477D55BD8B639AE702812B8347E6
:1021F0004403AA842285C19B93E72700230AF402A3
:10220000EFF09FC61305C404BD262685352B83A792
:10221000418B014581C72285829701456FE0AF9AC6
:10222000EFE22F9841112AC6112B03A441892A8974
:1022300001ECB96537E500001306601F938545156D
:102240001305450BEFF04FB12285EFF0BFA6854790
:10225000630DF500B96537E500001306701F93851F
:10226000451513050525EFF02FAF2285EFF03FF35D
:102270009304C404700081452685A5262685212C5B
:102280004A85D921EFF03FAB1858F9576314F7008E
:1022900023280402014541016FE0EF92EFE26F90C5
:1022A000EFE02FB2EFF0DFF76FE0EF91EFE26F8F2B
:1022B0002A8401EDB96537E500001306502B93859C
:1022C00085171305450BEFF02FA92285EFF09F9E90
:1022D0008547630DF500B96537E500001306602BEF
:1022E0009385851713050525EFF00FA78347440352
:1022F00009477D55BD8B639BE70289215448184CE3
:1023000093074401AA84D8C214C31CCC5CC813052B
:10231000C404952426850D292285EFF0FFAE83A7FE
:10232000018B014581C72285829701456FE0AF8906
:10233000EFE22F872A8401EDB96537E50000130627
:10234000C010938505141305450BEFF0EFA08347EC
:102350004403BD8B81CFB96537E500001306D0106B
:10236000938505141305C51DEFF00F9F2285EFF02F
:102370007F948547630DF500B96537E500001306C6
:10238000E0109385051413050525EFF0EF9C034736
:10239000640385472285B397E7001CDC8947230A3D
:1023A000F402A30AE402EFF07FF083A7418999C306
:1023B000EFF07F9801456FE00F815449184D930766
:1023C0004501D8C214C31CCD5CC98280EFD2DFFBAB
:1023D0002A84AE8A328AB6893A89BE8401EDB9650B
:1023E00037E500001306A00B938545291305053535
:1023F000EFF08F965686A9452285EFF00FEA9307F6
:102400004401F99804B4232E4401232034032324E7
:102410000402232224031CCC5CC86FD03FFAEFD205
:102420005FF82A8401EDB96537E500001306F00C6A
:102430009385452A13050535EFF00F922285EFF0BD
:102440007F87A947630DF500B96537E500001306DE
:10245000000D9385452A1305852EEFF0EF8F228519
:10246000EFF0DF8201EDB96537E500001306100DCE
:102470009385452A13054532EFF00F8EC124AA84B7
:102480002285EFF09FF32685C1242285EFF02FEA05
:1024900001456FD05FF3EFD2DFF02A8401EDB9651B
:1024A00037E50000130620139385452B13050535EA
:1024B000EFF08F8A2285EFF0EFFFA947630DF5005B
:1024C000B96537E50000130630139385452B1305D6
:1024D000852EEFF06F889D24AA842285EFF0FFED12
:1024E0001C342685F99B1CB4852483A7818899C355
:1024F000228582975850B707008093C7E7FF63FD96
:10250000E700B96537E50000130630149385452BC5
:1025100013054536EFF04F84EFE0CF875C503E95D2
:1025200008D4292C1387418C0328470037060080E4
:102530009387418C1346E6FF98436315F802938610
:10254000818B9042050690C29306440154C358C83B
:1025500094C31CCC1C3493E717001CB4F52201452E
:102560006FD07FE6544B0C546385B6008D8EE378B4
:10257000D6FCBA87D1B7EFD2DFE22A8401EDB96584
:1025800037E500001306B01A9385452C1305053571
:10259000EFE09FFC2285EFF0EFF1A947630DF50016
:1025A000B96537E500001306C01A9385452C13055D
:1025B000852EEFE07FFA1C347D55858B8DC383A774
:1025C000418899C322858297952AAA842285EFF0B3
:1025D000DFDE2685952A1C340145F99B1CB46FD09B
:1025E0009FDEEFD21FDC2A84AE84328901EDB9650B
:1025F00037E500001306E01C9385452D13050535CE
:10260000EFE09FF52285EFF0EFEAA947630DF500B3
:10261000B96537E500001306F01C9385452D1305B9
:10262000852EEFE07FF385476382F40263C697004F
:1026300095C001456FD03FD989476381F4028D472A
:10264000E399F4FE1C3493E7270019A85C5023207B
:10265000F900C5B7832709005CD0E1BF1C34F59BA6
:102660001CB4C1BFEFD27FD1EFD0DFF22A8CF920AA
:10267000B70900802A8A9384418C93C9E9FF8D4B66
:102680008040631694005285C1206FD09FD2484885
:102690001309C4FE3305AC40E3E7A9FE83A7C18B51
:1026A00099C34A8582974A85EFF03FD11C4448443C
:1026B0008297EFD03FEE83A7018C2A8C99C34A857D
:1026C0008297834754FF13F7E70FA30AE4FE8D8B2D
:1026D000E39877FB4A85EFF01FDC5DB79387418C69
:1026E000DCC39CC3828082801106719A2A8837C716
:1026F000ADDE130506F8AA871307F7EE631EF60092
:10270000A167938707882322D6F82324B6FA2320CB
:1027100006F92324F6F8828098C39107C5B737F7E6
:1027200000E01C43B7060080D58F1CC3828037F7BA
:1027300000E01C43860785831CC382802165130546
:102740000580731505308280731005308280EFD2CA
:102750005FC51387418D18439387418D19E323A6E5
:10276000A18C23A8B18C054798C3EFF05FFB6FD015
:102770009FC52A87814718436314A7003E8582803E
:102780008507D5BFB707EFBE37E700E09387070897
:102790003CC701458280EFD2DFC037E5000013055A
:1027A0008538EFE03FCC01456FD0FFC1EFD27FBF4E
:1027B0002A84FD5437F900007D14631494006FD00F
:1027C0009FC0130509AFEFE0FFC9FDB7EFD2DFBB34
:1027D0000041AA8437F90000B7F90000631494009F
:1027E0006FD0DFBD9305C4FE130549AFEFE09FC76F
:1027F0001C4063869700138589AFEFE0BFC6004099
:10280000F1BFEFD21FBA2E89EFE01F8C2A84EFF0C0
:102810008FEB83240900639C2401EFF06FECA14748
:1028200063C3870011E0214422856FD0DFB913858F
:1028300044FFEFE07F896353A4002A848440E1BF12
:10284000EFD2BFB30545EFF0AFA2B7E9000013091F
:1028500045002A84CA851385C963EFF09FFAAA85CB
:10286000AA8437E500001386C96313054564EFE0C9
:102870007FBF2685EFF09FF337E5000013058568DD
:10288000EFE05FBE4040B7E90000054A894A37EBF8
:102890000000B7EB000037EC0000B7EC000037EDAC
:1028A00000006315890001456FD0BFB00347940253
:1028B0001385896C930644FF2146A685EFE09FBAF5
:1028C0008347840213854C6DBD8B638E47011305CE
:1028D0000C6E638A57011385CB6E91C711476396BF
:1028E000E70013058B6FEFE0FFB74C4C9307300206
:1028F000AE8698226306F7021050930740060848F8
:10290000B295B386D540B386F602585C5C50898D8B
:1029100013054D70B3D6C602EFE0DFB4004051B7E7
:102920008506C1BFEFD25FA641110945EFF04F9474
:102930009309450037E900002A84CE851305C95D57
:10294000EFF03FECAA85AA8437E500001306C95DC5
:102950001305855EEFE01FB12685EFF03FE537E513
:10296000000013054560EFE0FFAF404037EA00008C
:10297000B7EA0000373B0100639689000145410139
:102980006FD0DFA31A281C44930644FF1309840068
:1029900036C63AC44A856306F902EFF09FDD224746
:1029A000B246AA872146A6851385CA61EFE09FAB90
:1029B0004A85EFF0BFE113058BCBEFE0BFAA0040E3
:1029C00065BFEFF01FDB2247B246AA872146A685E6
:1029D0001305CA62EFE01FA9DDB7EFD2FF9A4111DC
:1029E0001145EFF0EF889309450037E900002A848C
:1029F000CE8513050942EFF0DFE0AA85AA8437E50A
:102A000000001306094213058542EFE0BFA52685A5
:102A1000EFF0DFD937E500001305C544EFE09FA4D0
:102A2000404037EA0000B7EA0000373B01006396F8
:102A30008900014541016FD07F981C44130984002F
:102A4000930644FF18486309F9024A8536C63AC41A
:102A5000EFF03FD22247B246AA872146A6851385CA
:102A6000CA46EFE03FA04A85EFF05FD613058BCB57
:102A7000EFE05F9F004065BF2146A68513054A48E9
:102A8000EFE05F9EC5BFEFD23F9041110D45EFE0F3
:102A90003FFEB7E90000130945002A84CA85138563
:102AA0008957EFF01FD6AA85AA8437E50000138660
:102AB000895713050558EFE0FF9A2685EFF01FCFE1
:102AC00037E500001305455AEFE0DF994040B7E9CC
:102AD000000063168900014541016FD03F8E9306C7
:102AE00044FF1305840036C6EFF0BFC80348340125
:102AF0005C48B246AA8821472146A6851385495CD1
:102B0000EFE05F960040F1B7EFD21F884111154505
:102B1000EFE01FF69309450037E900002A84CE85CF
:102B200013058949EFF0FFCDAA85AA8437E5000097
:102B3000130689491305054AEFE0DF922685EFF079
:102B4000FFC637E500001305454CEFE0BF9140405C
:102B500037EA0000B7EA0000373B010063968900BE
:102B6000014541016FD09F857A285E281044930665
:102B700044FF1309840036C63AC43EC24A8563073F
:102B8000C902EFF01FBF92472247B2462A8821466A
:102B9000A68513850A4EEFE0FF8C4A85EFF01FC330
:102BA00013058BCBEFE01F8C00404DBFEFF07FBCD7
:102BB00092472247B2462A882146A68513058A4FA6
:102BC000EFE05F8AD5B7EFD22FFC41111945EFE056
:102BD0003FEA9309450037E900002A84CE851305B2
:102BE0000951EFF01FC2AA85AA8437E50000130639
:102BF00009511305C551EFE0FF862685EFF01FBB95
:102C000037E5000013058553EFE0DF85404037EAE4
:102C10000000B7EA0000373B0100639689000145D8
:102C200041016FD0AFF91A2C1C44930644FF1309DD
:102C3000840036C63AC44A856306F902EFF07FB3D2
:102C40002247B246AA872146A68513850A55EFE09A
:102C50007F814A85EFF09FB713058BCBEFE09F8014
:102C6000004065BFEFF0FFB02247B246AA87214679
:102C7000A68513054A56EFE0EFFEDDB7EFD2CFF0A1
:102C80005D712545EFE0DFDEB565130600052A849A
:102C9000130945009385C5710A85EF607017B7E980
:102CA0000000CA851385893BEFF0BFB5AA85AA84C9
:102CB00037E500001386893B1305053CEFE08FFAEA
:102CC0002685EFF0BFAE37E500001305853EEFE047
:102CD0006FF94040D14937EA000063168900014589
:102CE00061616FD0AFED1C44930644FF63E0F902CD
:102CF00098088A07BA9703A707FB1C282146A685D0
:102D00001305CA40EFE00FF60040C1BF4647F5B7D4
:102D1000EFD28FE72945EFE0BFD5B7E900001309EF
:102D200045002A84CA851385C972EFF09FADAA8534
:102D3000AA8437E500001386C97213054573EFE0D6
:102D40006FF22685EFF09FA637E500001305C575E5
:102D5000EFE04FF14040B7E9000037EA0000B7EA82
:102D60000000631E8900EFD0FF82AA8537E50000CE
:102D70001305457BEFE00FEF01456FD02FE45C4C6E
:102D8000184C13850978930644FF2146A685EFE089
:102D90006FED8347D4FF13858A79858B99E31305FB
:102DA0004A7AEFE02FEC00406DBFEFD2EFDD37E560
:102DB000000013050539EFE0EFEA03A4C18DB7E980
:102DC000000037EA000083A7018E6365F400014527
:102DD0006FD0CFDE044009469385493A2685EF60DF
:102DE000F03919C55040A68513058A3AEFE08FE700
:102DF0003104D1BFEFD24FD937F50000130545C5D7
:102E0000EFE04FE603A4C18DB7F9000037FA0000E8
:102E100083A7018E636BF40037350100130585CB62
:102E2000EFE04FE401456FD06FD904401946938518
:102E300009C72685EF60903401E95040938564000E
:102E400013058AC7EFE00FE23104D9B70545828048
:102E5000EFD28FD379712A84AA9593060002254771
:102E600083070400B38485406385D70A6383E70A38
:102E70000145638B0410014913070002A546B307FF
:102E8000240183870700638AE7086388D7086314EF
:102E9000990883A9C18D83AA018E37FB000063F0D6
:102EA000590903AA0900194693050BC75285EF601B
:102EB000F02C59E54A86A28513056A00EF60102CB4
:102EC00041E14A9A83076A00A5EF83A989006388D4
:102ED00009041306800281452800EFD08FCF130923
:102EE0008100CA86A2870145014713080002A54850
:102EF000294313062002130EC0058385070063844F
:102F0000050163961505631F9702A9476303F5043E
:102F100069A80504B1B705099DB7E31C09F6A287A6
:102F2000038707001377F7FD79E737F500001305EE
:102F3000C5C323800700A285EFE0CFD27D55A9A0AD
:102F4000B109B1BF23800700050785077DB763106E
:102F5000650437F50000130585C1EFE0AFD0001818
:102F6000B7F4000083250900138584C31109EFE03D
:102F70006FCFE31989FE37350100130585CBEFE0EC
:102F80006FCE29452C00829945616FD02FC3637E97
:102F9000970005056392C504850705079CC28385D4
:102FA00007006381C5026364970069FD8DBF838E4E
:102FB00017006396C5016394CE0085070507850752
:102FC0000507F1BFE37397FE238007000507850718
:102FD0009106E36497F2D1BF9CC2838507006389A1
:102FE000050163871501E30297FC85070507F5B71F
:102FF000E36097FE5DBF850725B7EFD20FB8830763
:10300000050099E781450145EFF0DFDE6FD06FBA2B
:1030100003AAC18DAA898144014937FB0000B7FB8F
:10302000000083A7018E6369FA00EDD04A86A68569
:103030004E85EFE00F84D9BF03240A00194693059B
:103040000BC72285EF60901321E14E85EF60F011F0
:1030500019042A86A2854E85EF60501215E5631784
:1030600009002285EF6070102A89A284A687228732
:103070000386070001EE858F63D327013E89A28571
:1030800013850BC8EFE00FBE310A61BF830607004E
:10309000FDD2E312D6FE85070507D9BFEFD26FB088
:1030A000EFF00FFA01456FD00FB2EFD28FAFEFE024
:1030B000CFCD01456FD02FB1EFD2AFAE03A7818D39
:1030C0001384818D01EFBD6537F50000130690066E
:1030D000938505D11305C5D5EFE00FC80840EFD0A3
:1030E000BFC401456FD02FAEEFD2AFABB7470100E1
:1030F0009387478D23AEF18CB7470100938787A74D
:1031000023A0F18EB7470100938787A723A2F18EF2
:10311000B7470100938787A793050021054523A49E
:10312000F18E1384818DEFE04FFC08C019E937F56B
:103130000000130505D9EFE0EFB27D5422856FD072
:103140008FA8B735000037F50000A9472D47930633
:103150000040014693850528130585DAEFE09FFAC4
:10316000AA840840B7F5000081460146938505DB37
:10317000EFD0DFA20144F9D02685EFF06F9B7DBF31
:10318000EFD22FA2EFF09FCC0DC5B7F500009385CD
:1031900085D4138581CCEF60407CB7F50000938522
:1031A00085D5138581CCEF60E077138581CC6FD016
:1031B0008FA1B7F50000938505D5E1BFEFD26F9ED3
:1031C0002A8437F500001305C5DCEFE0AFA9EFF066
:1031D0003FFBAA8537F500001306A41B130545DD48
:1031E000EFE04FA801456FD00F9EEFD28F9B83A7D2
:1031F000818D2A891384818D81EFBD6537F50000AB
:103200001306C007938505D21305C5D5EFE0CFB4EB
:103210004A85EFD00FCFAA8411E937F50000CA859F
:10322000130505D7EFE00FA46FD0EF991C4083A7DB
:10323000C720E38BA7FE93053014EFD0EFD56DF5D3
:103240001C4003A5C72009C9EFD02FE21C408145CF
:1032500003A5C720EFD00FFA0040130600058145F3
:103260001305A41BEFD0EF96B735000023150420FB
:10327000232694209385850B2685EFD0AFF76DB775
:10328000EFD22F8F83A7818D41119384818D03C746
:103290004702136717002382E70283A7C72091E73D
:1032A000EFE0EF9819C1EFF05FF4EFF07FEDEFE0A2
:1032B0006F9B3D6BB7FB000037FC0000B7FC0000C4
:1032C000B7F90000373A0100B7FA00009C4089EBDB
:1032D0001306E00593050BD01385CBD5EFE0CFA700
:1032E0009C4085461306F10003A5C720FD55EFD08D
:1032F0008FDE8547631AF5000309F100ED47804032
:103300006319F90008D0D9B78840FD55EFD0FF8E7A
:10331000C1BF1C506392A7029307B0056315F90063
:1033200089471CD065B723200402E30109FAA547A9
:103330006317F9120149D9A80947E398E7FE23204A
:103340000402930710046312F9046E30C1D1FD1515
:10335000C205C1816EB09307A41B13070005B38596
:10336000E502130600053E859385A502A295EF6050
:10337000202AEF60805F1375F50F2305A420A305B5
:10338000A4202285EFF09FE391B7930720046311F7
:10339000F90216347E301387F6FF63D8E7008507FD
:1033A0007EB09307A41B6E304DBF8DD27AB0D5BFCF
:1033B000930740046311F9028347B420E38807F0C0
:1033C000138589DBEFE00F8A98408347B720FD170C
:1033D000A305F720E5BD93073004E318F9F483470C
:1033E000B4200347A420E3F3E7EE3E948305A41B37
:1033F0001385CADBEFE00F8798408347B720850726
:10340000C1BF138589DBEFE0EF8505098040834765
:10341000B420E348F9FE13058ACBEFE0AF84EFF068
:10342000FFA285471304A41B6315F5002285EFF066
:10343000DFBCEFF0FFD4AA8537F500002286130524
:1034400045DDEFE02F8280401305A41BEF60E051C3
:103450001375F50F2305A420A305A42085BD9307AC
:10346000F0076305F900A1476315F9088347B42005
:10347000E38E07E40346A420FD1793F7F70F7D16AC
:103480001376F60F2305C420A305F42063F8C704C0
:103490009385B71B1385A71B1D8EA2952295EFD090
:1034A000DFB89C4013850CDC03C7A7203E97230D93
:1034B000071A83C5B7209385A51BBE95EFD09FFA49
:1034C0009C4003C4B7209C4083C7A720E3C087E08B
:1034D000138589DBEFD01FF90504F5B713058CDCE4
:1034E000EFD05FF89C4003C7A720BA97238D071A37
:1034F000F1BB35478347A4206305E9002947631ED4
:10350000E90EB9CB035984029147130DA41B63FB49
:103510002709930DA41613060005EA856E85EF6052
:10352000E00C1DC91309A4024A85130909051306F5
:103530000005CA85EF60C00DE3982DFF1306000556
:1035400081456E85EFC0FFE80346A420EA856E85BD
:10355000EF60000C95471EB41E347EB0EFF01F8F55
:1035600085476312F5029C4083C74702858B89C754
:1035700013058ACBEFD01FEF88408345A5201305A4
:10358000A51BEFF0FF8CEFF0BFBFEFD0BFED804089
:103590001306000581451305A41BEFC09FE3231507
:1035A00004202DB3630109021305F9FF93070005F9
:1035B0003305F50213060005EA851305A5022295D9
:1035C000EF60C00251D9930D00053305B90313060E
:1035D000000581451305A5022295EFC09FDF0A343F
:1035E0000346A420EA853305B5031305A5022295F9
:1035F000EF6000021E348507B9BF1307F00463743F
:10360000F700230504200346B4208347A4206372F7
:10361000F6089305A61B1305B61BA2953386C74073
:103620002295EFD09FA08C4083C7B5203387F5004B
:10363000230D271B03C74502058B11CB9387A71BBF
:1036400037F50000BE95130545AFEFD0BFE19C40B4
:1036500003C4B7209C4083C7A7206346F402984068
:103660008347A7208346B7208507850693F7F70F82
:10367000A305D7202305F7209306F004E3F8F6C44A
:1036800023150720A1B1138589DBEFD0BFDD050429
:10369000D1B7A297238D271B83474402858BE1D3A3
:1036A000CA851385CADBEFD0FFDB55BFEFC2DFCD84
:1036B0002A84B284368901EDBD6537E50000130622
:1036C00080129385C5E31305458EEFD0FFE86306AE
:1036D000090401ECBD6537F500001306E00493858D
:1036E000C5DD130505EAEFD03FE7B3892401294A78
:1036F0009C20639B47013E2C93F7070491C77C40B5
:10370000B54522859C4782977C40838504002285AD
:103710009C4785048297E39D34FD4A856FC01FCA8C
:10372000EFC23FC82A8401EDBD6537E500001306EE
:10373000100A9385C5DF1305458EEFD0FFE17C406D
:1037400023280404232A04049C43014589C79305C4
:103750008404228582976FC01FC7EFC29FC42A844A
:10376000AE8401EDBD6537E500001306400B93857F
:10377000C5E01305458EEFD03FDE93F7041091C7E7
:103780001A2C61551377071041CF13F7044011C766
:103790001A2C61551377074041C713F70404130926
:1037A000000409E70359A40113790904384893F484
:1037B000F40F26AC25EBB9CF68442981420541813D
:1037C0003105EFD07FF6AA8401EDBD6537F5000025
:1037D0001306F00C9385C5E01305C5E8EFD0DFD7DD
:1037E00070441385C400814529824206418288C005
:1037F000EFD02FFB23A204003E2C23A4040024C8F6
:1038000093E707103EAC7C4013060010C145DC4333
:10381000228582973E2C01453369F900231D24013E
:103820006FC07FBAE5DB93E4041026ACE5B7EFC2C6
:103830005FB72A842E89B28401EDBD6537E50000AB
:10384000130670139385C5E41305458EEFD0DFD0C2
:103850008947630CF9008D476300F90285476316B9
:10386000F9041E2C93F7F7FD21A01E2C93E7070205
:103870001EAC01456FC03FB5EDDCD8407C44542CF4
:103880002983A9834207C2074183C1836304F700E8
:103890001D45EDF29C403CC4DC407CC4F9DA7C4020
:1038A000A68522859C438297E9B77C402686CA85F7
:1038B000DC43228582977DBFEFC21FAD2A89B28982
:1038C000368401EDBD6537E5000013064011938590
:1038D000C5E21305458EEFD03FC835C48357A90113
:1038E000A28493F707109DE37D5AA94A83274904D0
:1038F0004A85DC478297630945012380A900FD14AE
:10390000850963035501FDF0058C35A8832409055D
:1039100081ECBD6537F50000130610079385C5DE01
:103920001305C5E8EFD05FC3228A854AEFE01FE1A7
:10393000FE20DA202A869444631AF70081EAEFE039
:10394000BFE03304444122856FC05FA798403E9793
:10395000034B07000327C9048507C2072983C183D6
:103960004207FEA0418363E4E700239304006394CD
:10397000560123A404003285EFE01FDD7D1A238069
:1039800069018509E3140AFA6DBFEFC29FA12A8479
:1039900001EDBD6537E500001306600F9385C5E1B5
:1039A0001305458EEFD05FBB582C854763E3E704D2
:1039B0003E2C93F7071095CF244881ECBD6537F571
:1039C0000000130610109385C5E11305C5E8EFD07C
:1039D000BFB82685EFD0BFF33E2C2328040413067E
:1039E000001093F7F7EF3EAC7C40C5452285DC43E1
:1039F000829701456FC03F9DEFC2BF9A41112A8453
:103A0000AE84328911EDBD6537F500001306D0167E
:103A1000938505E6130505EA36C6EFD0FFB3B24637
:103A2000B7370000938707721CD4B737000093871D
:103A3000A7755CD4B74700009387A7981CD8B747F1
:103A400000009387878B5CD8B73700009387C76ADD
:103A50001CDCB74700009387E78213160901232A6D
:103A6000040023200402232204025CDC34C04182CF
:103A7000A6852285EFC01FCF41016FC0DF9493F56B
:103A8000F50F8547639DF50AEFC21F90204941114C
:103A9000AA8401ECBD6537F5000013060019938573
:103AA00085E71305C5E8EFD03FAB7D598549FC405C
:103AB0002685DC4782972A8A63072505EFE01FC821
:103AC0005A201C40BA97238047015E20F84485079E
:103AD000C2072983C18342075EA0418363E4E700F4
:103AE0002312040076205E20639CD7008507C2075E
:103AF000C1837EA02324340163E4E7002313040080
:103B0000EFE09FC46DB79C5085C3EFE03FC35A20E0
:103B10006E20636EB700B305B7402EC6EFE0DFC27C
:103B20009C50B2452685829741016FC03F89FC4475
:103B3000998DA983C207C183B385B740F9BF82803D
:103B4000EFC23F862A84B28401EDBD6537F50000DF
:103B5000130650049385C5EC130545F0EFD0DF9FA5
:103B60007D5581C87C40B2208E209C43228582975F
:103B700001456FC05F85EFC23F819387C1D4FC438D
:103B8000AA842E899389C1D481EFBD6537F50000E1
:103B9000130640089385C5ED130545F8EFD0DF9B6C
:103BA00083A749044A86A6859C431385C1D482977E
:103BB0006FC0DF80EFC24FFD9387C1D4FC43AA845E
:103BC0002E899389C1D481EFBD6537F500001306B6
:103BD000B008938585EE130545F8EFD0FF9783A7CE
:103BE00049044A86A685DC431385C1D482976FC0F9
:103BF000EFFCEFC20FFB9387C1D4FC43AA84138967
:103C0000C1D481EFBD6537F5000013062009938507
:103C100085EF130545F8EFD03F9483274904A68527
:103C20001385C1D49C4782976FC0EFF9EFC26FF73D
:103C3000AA843289368401EDBD6537F5000013068C
:103C40005003938505EC130545F0EFD0FF9063001A
:103C500009029147631DF400FC4003562900835577
:103C60000900DC432685829722856FC0CFF5014489
:103C7000E5BFEFC20FF32A89B284368401EDBD653A
:103C800037F5000013066002938545EB130545F0F8
:103C9000EFD09F8C91CC9147631CF400832749049B
:103CA0008E204A859C478297AAA022856FC0AFF1DB
:103CB0000144E5BFEFC2EFEE9387C1D44947D8CBAB
:103CC00037470000130727C7D8DB37470000130723
:103CD000C7C298DF37470000130707B4ECC3B0C36F
:103CE000AA850D461385C1D423A0070223A207028B
:103CF00023A4070223A6070223A80702D8DFEFC0E8
:103D00007FA601456FC02FEC37150020130545A194
:103D1000828037950020130545A18280EFC26FE8AD
:103D200003A781819307803EC1563357F702B7E757
:103D300000E02386D7402387D740856623A0D7108D
:103D4000916623A0D710B7F700E023A0070023A2B5
:103D50000700014690C78146D4C781461306F7FF86
:103D600090CBD4CB3D4798C3EFC03F89EFF0DFF94C
:103D70002A84EFF01FFAAA852285EFD09F8F37F5AE
:103D800000001305C5F9EFD0EFEA6FC0CFE3731160
:103D90000134EFD04F81B7F700E023A20700EFC056
:103DA000CFFFEFD02F837311013473002030EFC2A7
:103DB000AFDDB7440140AE89328901449384048069
:103DC000634524014A856FC06FDF93050004268593
:103DD000EF20E0347DD9B3878900838507002685ED
:103DE0000504C205C181EF200033D9BFB7F700E059
:103DF000414798C303D7E18E81463306A70290CB93
:103E0000D4CB98431367170298C3D843058B75DF4B
:103E1000D843799BD8C38280EFC2AFD81304803EC9
:103E2000B354850237490F001309092433748502FE
:103E300091E819C41305803E3305A402EFF01FFB7F
:103E40006FC06FD84A85EFF07FFAFD14D5B7EFC287
:103E50004FD537440040AA841309048089454A8518
:103E6000EF10307D65DDA6851305048037440040E2
:103E7000EF10B07B9304048085452685EF10707B9E
:103E800065DD13050480EF10907A1375F50F6FC090
:103E90008FD3EFC20FD1AA84378401405C5893F7C7
:103EA0005704EDDF1145EF10F07619C51145EF10FD
:103EB00050770D456FC02FD10545EF10B07511C576
:103EC0000545EF1010760545F5B71C484145E393CD
:103ED00097FE9307F05F1CDC4848B7E7FFFDA1079A
:103EE0007D8DC9BFEFC2EFCB378401405C5893F79B
:103EF0000710B5C703C7018F85471384418F631D22
:103F0000F704379500209307C5AD3147D8C3130791
:103F1000000498C71305C5AD1307004023A0070090
:103F200023A6070098CBEF10D06C3145EFF07FF659
:103F300008C0B7870140985FD176938656CC136747
:103F4000071098DFD85F758FD8DF0547A388E18E0B
:103F50001C403E856FC02FC723200400D9BF0945F0
:103F6000EF10506B19CD0945EF10B06B5C5C5177C9
:103F7000130757CCF98F5CDC094723AAE18E8947E8
:103F8000C9BF2145EF10106919CD2145EF107069A7
:103F90005C5C5177130757CCF98F5CDC114723AA7F
:103FA000E18E91477DB713050002EF10B06605C1A1
:103FB00013050002EF10F0665C5C5177130757CCD5
:103FC000F98F5CDC194723AAE18E994759B741451F
:103FD000EF10506419CD4145EF10B0645C5C51772F
:103FE000130757CCF98F5CDC154723AAE18E954760
:103FF0008DB713050020EF10F061814739D9130503
:104000000020EF1010625C5C5177130757CCF98FDA
:104010005CDC1D4723AAE18E9D4725BFEFF09FEC96
:1040200073002030EFC2EFB7B707002003D707486F
:10403000BD67938787F12A846315F7006181EFF0EC
:104040001FE1135504011375F50FEFF05FE01355F1
:1040500084001375F50FEFF09FDF1375F40FEFF089
:104060001FDF6FC04FB6EFC2CFB32A8937150140AB
:104070002E84130505C08565B284EF1010330D45FD
:10408000EFF0FFDC2285EFF0FFF901449317040104
:10409000C18363EB9700371501408565130505C0A3
:1040A000EF1070306FC02FB21305F00FEFF03FDA52
:1040B000B307890088A30504D1BFB797002003D7B1
:1040C00087AFB7071060239FE7FE8280B798002074
:1040D000938708AF03DE4700BA27D2278967938703
:1040E000379613D38500938808AF93F5F50F6314C3
:1040F000FE0803D8080083CE6800370E10607D18D4
:1041000093170801C1839306EEFF63960E04898F0F
:10411000231FEEFEC20723910600C18323910600F0
:1041200013D78700BAA293F7F70FBEA2B7071060A4
:10413000239FC7FE239067008EA31387E7FF83D7D3
:104140002800FD1793D68740C206C18236A393F795
:10415000F70F3EA38280231FEEFE135888401357AB
:104160008500BAA21375F50F4208AAA213580801D8
:10417000239106014DBF935885009377F50F3705BE
:10418000106015689306E5FF231FE5FE130808512C
:104190002391160163130E03050742074183231F72
:1041A000E5FEBEA2231FC5FE05064206239166005A
:1041B0004182231FC5FEAEA28280BEA2231FC5FE80
:1041C00023916600CDBFEFC2CF9D411132C6EFF003
:1041D000FFEFEFF09FEE3246B707106042064182D4
:1041E00092A341016FC02F9EEFC2AF9893F4760067
:1041F0003E8AB334900093D73600BE9493D716000E
:10420000B384F402130406FE6204C1472A8BAE8B0A
:10421000B68ABA89618493F4F40F6383F60A63E77C
:10422000D700B1476380F6026FC06F98E147638E95
:10423000F60893070002E399F6FE41661A04130696
:10424000467631A03304D4023D66130646FA329412
:10425000B79C0020A2945E89938C0CAFE38684FC0B
:10426000130C8900834D0400420C135C0C019397DE
:104270008D01E187528663C607006398090003A693
:104280004180CA855A85EFF01FF4050983D72C00B9
:104290004209860D1359090193FDFD0FE376F9F8E4
:1042A000B3077941639BFA02050B83D70C00420BDD
:1042B000135B0B01E37AFBF65E8C0504628979BF20
:1042C0003D6612041306864159B7130640023304B3
:1042D000C4024166130686A09DBFE31A89F9F1BFA7
:1042E00081478546130700023396F6006306A60051
:1042F0008507E39BE7FEFD573E858280EFC26F8A0C
:10430000854513050002EF10102B6FC0CF8BEFC255
:104310004F8985452145EF10102A6FC0CF8AEFC223
:104320004F8885451145EF1010296FC0CF89EFC226
:104330004F8785454145EF1010286FC0CF88EFC2E9
:104340004F86854513050004EF10F0266FC0AF8738
:10435000EFC22F85C965372501000146938545F3D6
:104360001305C561EFF01F956FC0EF8593074006F9
:1043700063ECA7009317450049651305C5FC3E95FE
:104380001841FD576313F70001458280EFC26F812A
:10439000411113F5F50F32C6EFF05FFD11C54E2543
:1043A00032460845EF10B00041016FC0CF81EFB237
:1043B0005FFF13F5F50FEFF07FFBAA87014589C773
:1043C000CE278847EF10807D6FB0FFFFEFB27FFDF3
:1043D000011113F5F50F3284EFF05FF905C55C416B
:1043E0002AC6829732455C45FC82C1473ECE8D4746
:1043F0003ECC09C41547631AE40002CE08454C08B8
:10440000EF10C06D05616FB01FFC05476315E40038
:1044100091473ECEE5B76315F40093078002D5BF00
:1044200089476315F40093078004E5B79147631447
:10443000F400D147F9BF99476314F400F147D1BFA5
:104440009D47E31DF4FAE147E9B7EFB2FFF313F537
:10445000F50FAE84B289368A3A89EFF03FF1994779
:1044600031CD4845EFF0DFE73D472A849947636740
:10447000A704EFE0AFACB146B306D402B707002003
:10448000138707082A86938707083697831607003D
:10449000639F96004C43639C45012E23639935012D
:1044A000184763162701EFE02FAA814701A87D571F
:1044B0006389E6003285EFE02FA99D473E856FB006
:1044C000FFEF31453305A4023E9506A123224501A5
:1044D00023113501232425013285F1B7EFB27FEC9A
:1044E00013F5F50FEFF09FE819471DC94845EFF0A8
:1044F0003FDFBD472A84194763E4A702EFE00FA41A
:10450000B1473304F402B7070020938707087D57AB
:10451000A297839607006398E600EFE0EFA20147B9
:104520003A856FB05FEA41677D1798C323A2070001
:1045300023A40700DDB7EFB23FE5011113F5F50F36
:10454000328AEFF0BFE2994721C185442A8463157E
:104550009A104845EFF0DFD83D47AA849947636534
:10456000A702EFE0AF9DB14AB3875403370900209B
:1045700013090908AA893E9903170900FD57631911
:10458000F700EFE06F9C99473E8505616FB01FE330
:104590005C40829785450545EF10F0015C440D476E
:1045A0003AC47C823EC88357290002CA52CE638C2B
:1045B0004709C1C70947638DE70808444C00EF105D
:1045C000E0511844B7170140938607C005456302C0
:1045D000D7020945630FF700938707400D45630A2B
:1045E000F700B72701409387078001456313F70061
:1045F000114593F5F40FEF10205C0808EF10E0442C
:10460000C9679387C7F48E04BE94D04037E700E0B3
:1046100093060005B307C7002380D7409357560081
:104620009387070485468A07B396C600BA9794C352
:104630004E85EFE06F91814781BF930780023EC6B0
:10464000A1473ECC9DBF930780043EC656CCB5B76C
:1046500091473EC6C147F5B79947E3170AF2484567
:10466000EFF01FC83D479947E360A7F29317350065
:1046700049651305C5F43E955841935757009387F4
:104680000706B394E4008A0737E700E0BA9784C3CB
:104690000F1000004DB7EFB2DFD0EFF07FC4B1478D
:1046A0003305F502B7070020938707083E955C4164
:1046B00099C3084582976FB01FD173110134EFC0C1
:1046C0008FEE0545EF10003F19C50545EFF0BFFC23
:1046D0000545EF100040EFC0EFEF73110134730098
:1046E000203073110134EFC00FEC0945EF10803C0E
:1046F00019C50945EFF03FFA0945EF10803DEFC0BD
:104700006FED731101347300203073110134EFC069
:104710008FE91145EF10003A19C51145EFF0BFF7C9
:104720001145EF10003BEFC0EFEA73110134730045
:10473000203073110134EFC00FE72145EF108037AF
:1047400019C52145EFF03FF52145EF108038EFC046
:104750006FE8731101347300203073110134EFC01E
:104760008FE44145EF10003519C54145EFF0BFF228
:104770004145EF100036EFC0EFE5731101347300CF
:10478000203073110134EFC00FE213050002EF1067
:1047900060321DCD13050002EFF0FFEF130500049A
:1047A000EFF07FEF13050008EFF0FFEE13050010A8
:1047B000EFF07FEE13050020EFF0FFED1305003E54
:1047C000EF102031EFC00FE173110134730020307E
:1047D00013050004EF10002E55FD13050008EF101F
:1047E000602D4DF913050010EF10C02C45F5130591
:1047F0000020EF10202C59FDF1B773110134EFC0E8
:104800008FDA13050040EF10E02A29C1130500409C
:10481000EFF07FE8056513050580EFF0DFE705653C
:10482000EFF07FE70965EFF01FE71165EFF0BFE6F6
:104830002165EFF05FE64165130505C0EF106029C3
:10484000EFC04FD973110134730020300565130593
:104850000580EF1020265DF90565EF10A0255DF5B8
:104860000965EF1020255DF11165EF10A02459FDB9
:104870002165EF10202459F9E1B7EFB29FB2370557
:104880001000411185452105EF10E05293070010FB
:104890007C8237150140E1473EC64C008D47130529
:1048A00005C03EC4EF10802341016FB0DFB1EFB20D
:1048B0005FAF01117D152E8468849307F0054C00CD
:1048C000375501403EC223150100EF102057C16744
:1048D000938707060C08375501403EC8E083231C28
:1048E0000100EF104060A14537550140EF10606DA9
:1048F000854537550140EF10206B85453755014000
:10490000EF100068854537550140EF10E0650561FF
:104910006FB07FAB01458280EFB2BFA82041AA846F
:1049200001ECC965372501001306200C93858565C8
:104930001305456AEFC05FC2084893055052EF1057
:10494000A07E11C985452685EFF06F930848930531
:104950005052EF1030016FB01FA7EFB29FA1B79B6D
:10496000002013840BBB930750035CC8B79C002046
:10497000B747014013870CB0938707801CC87C475A
:10498000370900C0C16AA10AB377F900F1649384C2
:104990000420B3E75701B70D0C00496B11654111B5
:1049A00024C77CC7130B8B682324B4012322040083
:1049B0008545110523226705B719014004C0231658
:1049C0000400EF10403F0D4A93070020614D4C005A
:1049D000138509807C8252C46AC6EF1020109307A9
:1049E0000040114C4C00138509807C8252C462C681
:1049F000EF10C00E084893850BBBEF100064084809
:104A00008545EF10806CB7F5000093860BBB13064D
:104A100030109385C5F913850CB0EFE0FFFDB79B0F
:104A2000002013848BBC930760035CC8B747004029
:104A3000B79C0020938707401CC893878CB5F84724
:104A4000A4C7232204003379E9003369590123A65E
:104A500027052324B40185453705020023A26705F5
:104A600004C023160400EF10E03685451145EF1011
:104A700080344C00138509802312810152C46AC618
:104A8000EF10C005A1474C00138509807C8252C4F9
:104A900062C6EF10A004084893858BBCEF10E05964
:104AA00008488545EF106062B725010093868BBCEE
:104AB000130630109385C56913858CB5EFE0DFF3DD
:104AC000014541016FB0BF8EEFB2BF8D41112A8405
:104AD000AE8401EDC96537F50000130660029385C9
:104AE0000562130505EAEFC03FA781ECC9653725CC
:104AF0000100130670029385056213058567EFC0F8
:104B0000BFA59C402040A1461CC0B1473EA4DC404C
:104B10002316040013F7F7006301D702A546631EAE
:104B2000D70005675AA013D747000D8B01C78546EC
:104B30006308D7002313040031A023120400E5B753
:104B400009677AA099838D8B05476389E70081C740
:104B500009476388E70C2314040021A09307006031
:104B60001EA41848B7470140938707806318F704CD
:104B7000116585451105EF10002493070020B71437
:104B800001407C820D49E1474C00138504803EC6FC
:104B90004AC4EF00B074930700407C824C009147F8
:104BA000138504803EC64AC4EF0050730848A285AE
:104BB000EF10A04808488545EF1020511848B74726
:104BC000004093870740631AF704854537050200C4
:104BD000EF10402085451145EF10E01D9147B714B7
:104BE00001407C820D49E1474C00138504803EC69C
:104BF0004AC4EF00B06EA1477C824C0091471385F8
:104C000004803EC64AC4EF00706D0848A285EF10CC
:104C1000C04208488545EF10404B014541016FB047
:104C20008FFA930700402DBFEFB2AFF72A8401ED52
:104C3000C96537F500001306900A9385C56413050E
:104C400005EAEFC07F912040930500020848EF106D
:104C5000004DFD5709C51C48DE2393F7F70F3E852D
:104C60006FB06FF6EFB2EFF3AA842E8401EDC96541
:104C700037F500001306D00993850564130505EA8E
:104C8000EFC09F8DA440884893050004EF10204991
:104C90007DD99C4842044180C2A305456FB0AFF264
:104CA000EFB22FF0AA842E8401EDC96537F500001C
:104CB0001306400893850563130505EAEFC0DF89F5
:104CC000C147B840630DF402C5476317F402544B63
:104CD000054693D75600938707063316D6008A07F2
:104CE000B7E600E0B69790C30F1000000146084BEE
:104CF00093055052EF10C03E01456FB0CFEC544BBE
:104D0000054693D75600938707043316D6008A07C3
:104D1000B7E600E0B69790C30546D1BF73110134E2
:104D2000EFC06F8837950020130505B0EFF0DFBEA8
:104D3000EFC04F8A731101347300203073110134B6
:104D4000EFC06F8637950020130585B5EFF0DFBC07
:104D5000EFC04F88731101347300203083070500C2
:104D60001307D0026398E7000505FD5681472546E5
:104D7000294821A81307B0028546E399E7FE0505F7
:104D8000F5B7B38707030505BA97030705001307AF
:104D900007FD9375F70FE376B6FE3385D702828061
:104DA000EFB22FE0054419C595471374F50F63F36F
:104DB000A70015442285EF40A058AA85EF309072D5
:104DC00093072003B3C78702B7940020938404BEDF
:104DD000C8C037250100A285130545779EA48547E5
:104DE000DCC4EFC02FE86FB00FDEEFB28FDB85477A
:104DF00063DCA700C841EFF07FF61375F50FEFF005
:104E00003FFA01456FB02FDC0D45C5BFEFB26FD93A
:104E100037250100B79700201305057A23A607BEA2
:104E2000EFC04FE46FB02FDAEFB2AFD7EFF01FFE55
:104E300001456FB04FD9EFB2CFD693074006930527
:104E4000400663E4A7009375F50F37250100B79777
:104E50000020130505752385B7BEEFC0AFE06FB026
:104E60008FD6EFB20FD4854763D6A702C841EFF0C3
:104E7000FFEE9307400663DBA7001305400613759A
:104E8000F50FEFF05FFB01456FB0EFD3E35905FE7F
:104E90000145F5B77945E5B7EFB22FCEB7940020BD
:104EA000379A0020938404C3B72B010093890181B2
:104EB000FD5513050ABFEFB05FD49387818F9843E8
:104EC0001DCB03A4C180372501001305857BA28576
:104ED00023A00700EFC00FD9A9473304F402379588
:104EE00000208947130505C123A2F90023A881806A
:104EF000EFB09FE375BF83A5C18F93972500A69759
:104F0000804363438000054422861385CB7EEFC037
:104F10006FD5D9B7EFB24FC7B79900207D57FD576E
:104F20009384C18F938909C3379A0020804003A9D5
:104F300044006314F40063052703631C09009317FE
:104F40002400CE979C436356F00013050ABFEFB0D0
:104F5000BFDD1305401FEFD06FB44A87A287F9B7B2
:104F60003E84C5BFEFB2EFC389476316F504C8415D
:104F7000EF4040672A846349A000373501001305DC
:104F80000587EFC02FCE0544EFD04FFB054723A682
:104F9000818023ACE18EEFD02FFB379500201305E5
:104FA00005BFEFB07FD837350100A2851305458EC8
:104FB000EFC04FCB05A00544E3D8A7FC373501006F
:104FC0001305458AEFC00FCA373501001305058C5C
:104FD000EFC04FC96FB02FBFEFB2AFBCB735010004
:104FE000379500208146014693850582130505BF4C
:104FF000EFB0DFBAB7350100379500208146014692
:1050000093858582130505C1EFB05FB9B7550000E0
:1050100037350100A94729479306002001469385AB
:1050200045F113054583EFD0EF8D19C1EFD04FB097
:10503000B755000037350100A947254793060040C2
:105040000146938585E913050584EFD0AF8B19C11F
:10505000EFD00FAE6FB02FB7EFB2AFB49387C18F61
:105060002E8688C3CCC3AA85373501001305C584B5
:10507000EFC04FBF6FB02FB5EFB20FB13797002021
:10508000930707C3AA8993860706930407C323A03F
:1050900007009107E39DD7FE373A0100DD4A9305EB
:1050A00020024E85EF40F0092A8909E937350100D1
:1050B00013050592EFC00FBB6FB04FB093091900F5
:1050C0004E85EF4020522A8493054A914A85EF404D
:1050D000700D71D52505EF40E050E3E28AFC0A042B
:1050E000269408C06DBF13079500C94763F5E70410
:1050F0009307F5FF35476376F7029307E50063777B
:10510000F7029307400663C0A7029307C0F9634103
:10511000F50299473305F5021305C55D4205418146
:1051200082803D45FDB713054006E5B74555D5B727
:105130001305C0F9F9BF1305C05D8280EFB26FA6F9
:1051400093870181014523A0070023A20700EFF008
:105150009FF9AA8537550140EF00106A0146814545
:1051600037550140EF00D06637350100130545A9DA
:10517000EFC04FAF6FB02FA5EFB20FA103AA818090
:10518000411113840181B73A0100130B2003B73991
:105190000100FD555285EFB05FA60C40FDD944409B
:1051A000E35990FE2E852EC6EFF0FFF3B245AA8696
:1051B000268613850AAAEFC0EFAA08401309400605
:1051C000EFF07FF2AA8537550140EF00F0625145BC
:1051D0007D19EFD0AF8CE31C09FEB3846403054650
:1051E000814537550140EF00B05E51450509EFD0CC
:1051F000EF8AE39C24FF0146814537550140EF00CB
:10520000305D138509AD2320040023220400EFC084
:105210006FA541B7EFB2EF988D474111630BF500D1
:1052200037350100130545A2EFC0CFA341016FB090
:105230008F99C8412EC6EF40E03AB2452A8488458E
:10524000EF40403A130744069307800C2A8663F721
:10525000E700373501001305C5A4F9B76347A0007F
:1052600037350100130505A6C1B793870181C8C36F
:1052700037350100A285130545A780C3EFC08F9E77
:1052800075B7EFB20F92F52B373501001305C59EA8
:10529000EFC04F9DEFF06FDE0145EFF0DFE4AA8530
:1052A0002A841565130505E2EFF06FE0A2853755F6
:1052B0000140EF0070540146814537550140EF0031
:1052C0003051854537550140EF00104AB755000071
:1052D00037350100A94731479306004001469385C1
:1052E0008517130585A0EFC0FFE109C5EFD04F84F6
:1052F0006FB06F8D37350100130505A1EFC08F9694
:10530000C5BFEFB20F87B737010003AD07BAB73794
:10531000010083AC47BAB79900201D719389C9C9B0
:10532000E68D37950020FD551305C5D1EFB0FF8CF4
:1053300003A581908546130671018145EFB0AFD971
:105340008547E310F5FE83A741901307E007938498
:1053500041906368F71C8306710113871700CE978D
:1053600094A398C04E97230007009307D007E391BA
:10537000F6FC9305B0074E85EF40A05C2A846302DB
:10538000051AAA8537350100130585BAEFC08F8D40
:105390008145130600020810EFB0AF83B735010056
:1053A0009385C5BB2285EF40E05F630F0516B735D7
:1053B00001009000938585BC2D05EF4000468800D4
:1053C000EF40E021EF402004AA8A054B3739010065
:1053D000930549912285EF40E05C130A000005C166
:1053E000B73501009000938585BC2505EF40E0426C
:1053F0008800EF40C01EEF4000012A8A054BB735F8
:105400000100938545BD2285EF40C059014C11CD67
:10541000B73501009000938585BC2105EF40E03F42
:105420008800EF40201C2A8C054BB735010093857E
:1054300005BE2285EF400057630E050E1D051307BC
:10544000000283070500F59B6384E70EB735010072
:105450001010938585BEEF40403CB73501007408BD
:105460003008938505BF081002CC02CEEF40E03A29
:1054700089476316F500F2456245EFF0FFBD854BA5
:10548000030704009307B007631BF70093054991D6
:105490002285EF40205101C52285EFF0FFBD630D4D
:1054A0000B08B7970020938707C923A0570123A2B1
:1054B000470123A48701EA855285EF305039EF3048
:1054C000106223A8A180E6855285EF305038EF3076
:1054D0001061130440063367850252853AC6EF30E7
:1054E0001060EE852AC45685EF307036EF30305F9D
:1054F000336485025685EF30905E3247A246AA8516
:1055000037350100E287130585BF2286EFB09FF58E
:1055100063890B00373501000C10130505C3EFB08C
:105520007FF423A0040029B5014B930A000079BD44
:10553000050501BF814BA9B7E39E0BFC03070400DF
:105540009307B0076318F700930549912285EF4050
:10555000604561F937350100A285130585C4C1B7DF
:10556000EFA23FE4379500201305C5D1EFB0CFFB84
:1055700001456FA05FE5EFA2DFE22A84B335A0000A
:105580002D45EFE02FE309ECB7350100938585B891
:10559000373501001305C5B8EFB0DFEC6FA0BFE2EF
:1055A000B7350100938545B8E5B7EFA29FDFB79700
:1055B000002037250100938707C913070000411118
:1055C0001305C56998C3D8C323A407001384819029
:1055D000EFB02F9308C011E937350100130585B1ED
:1055E000EFB05FE841016FA01FDE3247F16793879C
:1055F00007203EC4B70700C0F98F41672107B735C0
:10560000010037950020D98F81460146938505B367
:105610001305C5D13EC6EFB06FD8084030008D45A8
:10562000EFB00FB8084093053010EFB0EF96084088
:10563000B755000093850556EFB0CFBBB7550000B6
:1056400037350100A947214793060040014693855D
:105650002530130585B3EFC0FFAA19C1EFC05FCD98
:1056600081452D45EFE02FD10545EFF0DFF09DBFDF
:10567000EFA23FD389476309F500373501001305D1
:1056800045B4EFB03FDE29A8C041B735010093858E
:1056900005B62285EFA07FDE11E50545EFF0BFEDF1
:1056A0006FA07FD2B7350100938545B62285EFA064
:1056B000DFDC6DD537350100130585B6D9B7731119
:1056C0000134EFB04FEE37350100130585C6EFB05A
:1056D0007FD9EFB02FF073110134730020307311B4
:1056E0000134EFB04FEC373501001305C5C5EFB0FD
:1056F0007FD7EFB02FEE7311013473002030EFA28B
:105700005FCA37350100130585C7EFB0BFD5952AAD
:1057100083A58181373501001305C5C8EFB09FD43B
:105720000526AA85373501001305C5C9EFB09FD3FB
:10573000373501001305C5CAEFB0DFD2EFF07FB4F3
:10574000EFF0BFE6EFF05F89EFD01F9A37F400006B
:105750001305C4F9EFD07FA91305C4F9EFA07FFAB0
:1057600009C593053010EFB02F830564EFA0BFEC9F
:10577000B7340100130484BB1385C4CBEFB09FCEB4
:105780002285EFC0BFB1CDBFB71702409843B7061F
:10579000FFF041111367170098C3D8433706020082
:1057A000758FD8C39843B706F7FEFD16758F98C35B
:1057B0009843B706FCFFFD16758F98C3D843B7060C
:1057C00001FFFD16758FD8C39843B70600ECFD1690
:1057D000758F98C33707FF0098C723A6070202C436
:1057E00002C69843C166558F98C3B7160240056735
:1057F0009C42F18F3EC6A24785073EC4B24781E76F
:10580000A247E397E7FEB71702409C431397E700D0
:105810006357070685473EC632478547631FF7042F
:10582000B7170240D843B706C1FFFD16D8C3D84307
:10583000D8C3D84313670740D8C3D843758FD8C39C
:10584000D843B7062900558FD8C39843B70600013F
:10585000558F98C3984393166700E3DD06FED8433F
:10586000B7160240719BD8C3D84313672700D8C32B
:105870002147DC42B18BE39EE7FE4101828002C6F4
:1058800061BFB7160240D8421146318B93878181A0
:105890006305C70021466308C70237177A0013075C
:1058A000072098C337170240584311839376F700B7
:1058B00037070020130707143697142398433357EC
:1058C000D70098C38280D842D442416649833D8B39
:1058D000F18E1306270015CF3D47630FE6024147BF
:1058E000630FE602454781456313E6004146A1E2A6
:1058F0003747024003270780418B0DC737177A00CF
:10590000130707203306C70290C3C9DD98430583F8
:1059100049BF81454946E1BF85453546C9BF8145F7
:105920003D46F1B737173D0013070790E1BF371524
:10593000024058559316F700585563DF060411834B
:105940003D8B9306170037177A001307072033574C
:10595000D70298C35455A182BD8A8DE2954633077C
:10596000D702058398C337170240585794433D8B9D
:10597000050733D7E60298C3984369B70545639492
:10598000A600E546E9BF3D456396A600D1463387AC
:10599000E602C9BF8906E5BF3D8B9306170037179E
:1059A0007A00130707203357D702F1B701A073908D
:1059B000123497B1FF1F9381E12C17A1002013012E
:1059C000616417E500001305E50E97A5FF1F938599
:1059D00065631386018463FAC5008322050023A052
:1059E000550011059105E3EAC5FE1385018497650D
:1059F0000020938565E16377B5002320050011053C
:105A0000E36DB5FEFD42739002BCFD42739042808F
:105A1000B7820000938202807390023097A2FFFF4A
:105A20009382825E93E2320073905230EFF0DFD5C2
:105A300097B2FFFF938282CC7390123473002030B0
:105A4000B7F7FF1F03A54770828058410328050060
:105A50004C4537060140930706403E979346F8FFB2
:105A6000B1C583250640F58D2320B640D043F18E85
:105A7000D4C31443B3E6060114C3184190479346B8
:105A8000F7FF758E90C7D047F18ED4C714454146B5
:105A90006399C6009447D98E94C7D447558FD8C709
:105AA0008280B6979443558F98C382801C43F58FAC
:105AB0001CC38280B70701401387074083A70740B4
:105AC000584B698F09C77D8D3335A0008280014511
:105AD0008280B707014023AAA74082809C4513F724
