:040000006F7090236A
:100004000000000000000000F07500001076000001
:1000140000000000367A000000000000000000002C
:10002400367A0000367A000000000000000000006C
:10003400942F000000000000900200000000000067
:10004400367A0000367A0000367A0000367A0000EC
:10005400367A0000367A0000586C0000806C00008C
:10006400A86C0000D06C0000F86C0000367A000028
:10007400367A0000367A0000367A0000367A0000BC
:10008400367A0000367A0000367A0000367A0000AC
:10009400367A0000367A0000367A0000206D0000BF
:1000A400367A0000367A0000367A0000367A00008C
:1000B400367A0000367A0000367A0000367A00007C
:1000C400367A0000367A0000367A0000367A00006C
:1000D400367A000052700000367A0000367A00004A
:1000E400986D0000367A0000367A0000367A0000F7
:1000F400367A0000367A0000367A0000367A00003C
:1001040000000000367A0000367A0000367A0000DB
:10011400367A0000367A0000367A0000367A00001B
:10012400367A0000367A0000367A0000367A00000B
:10013400367A0000367A0000367A0000367A0000FB
:10014400367A0000367A0000367A0000367A0000EB
:10015400367A0000367A0000367A0000367A0000DB
:10016400367A0000367A0000367A0000367A0000CB
:10017400367A0000367A0000367A0000367A0000BB
:10018400367A0000367A0000367A0000367A0000AB
:10019400367A0000367A0000367A0000367A00009B
:1001A400000000000000000000000000000000004B
:0C01B4000000000000000000000000003F
:1001C00097020120938202E4938202E0739002344A
:1001D00003210500224573100530B1A819712320B1
:1001E000250006C006C216CAF322003093F2820030
:1001F000638402009302000816C412C81ACC1ECEF3
:1002000022D026D22AD42ED632D836DA3ADC3EDEB6
:10021000C2C0C6C2CAC4CEC6D2C8D6CADACCDECE26
:10022000E2D0E6D2EAD4EED6F2D8F6DAFADCFEDE96
:1002300003A1050009A002457310153492403785CB
:10024000000013050580732005302245732005301A
:100250004242D2426243F243025492542255B25572
:100260004256D2566257F257064896482649B64932
:10027000464AD64A664BF64B065C965C265DB65DF2
:10028000465ED65E665FF65F09617300203000004F
:10029000197116CA9302000816C49302000273A0D3
:1002A000428006C212C81ACC1ECE22D026D22AD430
:1002B0002ED632D836DA3ADC3EDEC2C0C6C2CAC456
:1002C000CEC6D2C8D6CADACCDECEE2D0E6D2EAD4E6
:1002D000EED6F2D8F6DAFADCFEDE73110134EF0066
:1002E0000062EF10B009EF00406473110134138411
:1002F000818B032904006304090223200400732571
:1003000010342AC01384018B044023A024001384DA
:10031000418B044003A10400024573101534924040
:10032000B78200009382028073A00230A24273A0C1
:1003300002304242D2426243F24302549254225566
:10034000B2554256D2566257F25706489648264949
:10035000B649464AD64A664BF64B065C965C265D25
:10036000B65D465ED65E665FF65F0961730020305B
:100370000000397101436EC619A0397141536AC832
:1003800066CA62CC5ECE19A0397101535AD056D2DA
:1003900052D44ED64AD826DA22DC06DE330161403A
:1003A000828241114AC026C222C406C68282B24D50
:1003B0004101024D924C224CB24B4101024B924AF8
:1003C000224AB2494101024992442244B2404101C9
:1003D00082803D432A876373C3029377F700BDEFA2
:1003E000ADE5937606FF3D8ABA960CC34CC30CC7A5
:1003F0004CC74107E36BD7FE11E28280B306C340CE
:100400008A069702000096966780A6002307B70029
:10041000A306B7002306B700A305B7002305B7005E
:10042000A304B7002304B700A303B7002303B70056
:10043000A302B7002302B700A301B7002301B7004E
:10044000A300B7002300B700828093F5F50F9396C1
:100450008500D58D93960501D58D61B793962700BC
:100460009702000096968682E78086FA9680C117EA
:100470001D8F3E96E374C3F8A5B703A581828280E1
:10048000EFF23FF2938781829843050798C3EF10FC
:1004900040323C45FD173CC589E77C413CC5EF1027
:1004A0000036EF10006105B7634205029307803EF6
:1004B0003347F5023365F5023305F5021305753E42
:1004C0003345F5023307F7023A9582807D558280E5
:1004D00001458280014582800145828001458280FC
:1004E000EFF23FEC37440200B7440200130404A8C3
:1004F0009384C4A863639400F9B51C4011048297E7
:10050000D5BFEFF21FEA37440200B74402001304DC
:10051000C4A8938444A96363940075B51C40110476
:100520008297D5BFEFF2FFE7E93FEF70001B61BD97
:10053000EFF23FE7B705000037C50000D147154788
:10054000930600200146938545521305C529EF10F7
:10055000A026EF10203E85BDEFF2BFE4EF10E06271
:10056000EF20F01BEF00B02BEF10205CEF00507875
:10057000C137EF10205C012CEF00707A0145A1B566
:10058000EFF23FE2D13F01453DBDEFF2FFDFAA8927
:10059000EF10202219C1EF10800A2545EF00F0600E
:1005A00044411304450063968400EF108020014904
:1005B00011A8138944FF2146CE854A851D2D01E9E6
:1005C000EF10201F19C1EF10E0084A85C5BB844019
:1005D000D9BF09E57D5582807D55F5B3EFF27FDC0B
:1005E0002A842E853289AE844D377DF52285268674
:1005F000A545EF00305E0145231C2401230E0400B5
:10060000231D0400D9BFEFF2DFD91E2D41112A842A
:10061000C18B9DE71C558DC32EC68297AA84B24517
:1006200001CD2A8637C50000A2851305452AEF00B3
:1006300090182685410141BB1E2C93E707011EAC93
:100640001E2CA18B89C73E2CE554A18BFDF35C5475
:1006500089CF22858297AA8405E13E2C93E7870003
:100660003EAC5C2C85075CACE9B785679387F7F0F7
:10067000FD8D2EAC8144D5B7E957E31CF5FAF1BFE7
:100680005C2D85CBEFF2FFD1FD1793F7F70F5CAD33
:100690002A84014789EF1C5989E70147231D04007B
:1006A00039A082972A8775D9E957E309F5FE3A857B
:1006B00019BB7D573A858280EFF2BFCE582D09E7EE
:1006C0007D552129014521A05C5999C38297E5B93F
:1006D0006955C5BFEFF2FFCC582D09E77D55F52EC2
:1006E000014521A01C5D99C38297F1B96955C5BF29
:1006F0000CD101458280EFF23FC993894188854A38
:1007000083A7418863863705EF10204883A7418877
:100710002A8A638D370303A441885C40184013097B
:10072000C4FE5CC398C340C000C0EF0050717C5051
:1007300099C34A8582974A85EF00105B631B550178
:100740004A85EF00104FEF00F0705285EF10A04483
:10075000B5B1EF0030705285EF10E0434848EF002C
:10076000303A4A85EF00305561BFEFF29FC31384E2
:10077000C195130904011C4091C382971104E31C25
:1007800024FF953FEDB7EFF2DFC137060000B7C594
:100790000000930800023D48930700201387C1968C
:1007A00081461306A6769385C52D1385C18DEF006E
:1007B000307D1385C18DEF10E01731B1EFF27FBEB0
:1007C00041112A842E8532C62EC4EF1060083246AD
:1007D000A24519C68547630DF60001454101E5B6FE
:1007E0005840938745011CC398CD5CC0C0C9F5B77C
:1007F0001C406388870083C6550303C7170263FA4A
:10080000E600D4431387450198C294CDD8C3DCC910
:10081000E9B79C43F9BFEFF2DFB84111B2842E86ED
:1008200089452A8436C6EF00F03AB2469307440160
:100830001CCC5CC846AC14B40145410169B6EFF26A
:10084000BFB483A7018741112EC62A8491C3829722
:10085000EF10A0335E2CAA8989CFFD175EACEF1094
:10086000803383A7C186014591CB228582970145BC
:1008700031A0B24791E7EF100032795541013DBEFA
:10088000EF003073232805021034AA85AA841305CB
:1008900044012D37B247635CF0001389C404700033
:1008A00081454A85EF10601D4A85EF1000124E8584
:1008B000EF10602EEF007049885845D5C1B7EFF2B0
:1008C0005FAE83A781862A8491C38297EF10E02BC5
:1008D000AA84484893074401630EF5003115EF10D0
:1008E000A00005442685EF10002B19C0EF00F0454D
:1008F0000145D1BC5E2C85075EAC0144E5B7EFF243
:100900005FAA4111EF106028138741831C238507DC
:1009100093F7F70F1CA383A7C18281C72AC68297CA
:100920003245EF104027410179BCEFF29FA74111FA
:10093000EF10A025138741831C23FD1793F7F70FB2
:100940001CA383A7018381C72AC682973245EF1073
:10095000802441018DBC03C54183828093780804C3
:100960004111639E0800B168938888489373080119
:10097000638B03001378E8FF930E000219A8B16897
:100980009388483EE5B713731800930E0003E30500
:1009900003FE13732800630E030663580602330632
:1009A000C0409302D0020A8E814F294F6395E6071B
:1009B0003373D6023356D602469303430300850FA2
:1009C000050EA30F6EFE7DF20DA013734800930277
:1009D000B0026317030093728800B332500096028E
:1009E00079F2930600035480854FFE8663D3FF009F
:1009F000BE8613781801158F6313080463850200FF
:100A00006353E0007D172A86B308E5001303000254
:100A100021A88142F1B71373F600118271BF63748C
:100A2000B6002300660005063388C840E34900FF8E
:100A30003A866353070001467D173295118F63880C
:100A400002006374B500230055007D170505638718
:100A50000302AA96130800031DA86374B6002300BE
:100A6000D60105063388C840E34900FF3A86635340
:100A7000070001467D173295118FE1BF2A86B30822
:100A8000E500CDB76374B500230005010505338685
:100A9000A640E3C9CFFEFD56FD1F6383DF0099E743
:100AA000AA873306E5001308000231A86376B50073
:100AB0003306F101102210A10505F9BF63F4B70058
:100AC000238007018507B306F640E349D0FE635350
:100AD000070001473A9541018280EFF29F8C2A84FA
:100AE0009D3D09C523AC81826FF0FF8DEF00704CF6
:100AF00075D900D9D5BF0D47AA876376C70093770C
:100B0000350091C7AA873E966397C706828093F700
:100B1000F50F13978700D98F139707015D8FB308DF
:100B2000C500AA87BD463388F84063EB0603935798
:100B30004600C156B386D7029207AA970D4836964B
:100B40003383C700BE86B308D340636218031357CC
:100B50002600F156B306D7020A07BA97369665B74C
:100B600098C3D8C398C7C10723AEE7FE6DBF9106EF
:100B700023AEE6FEC9BF8507A38FB7FE71B763F248
:100B8000A504B386C500637ED5029345F6FF814771
:100B9000FD176393F50082803387F6000308070092
:100BA0003387C7002A9723000701DDB73387F50095
:100BB000830607003307F500850714A3E318F6FE44
:100BC00082808147E5BF0DC6AA8785050387F5FFAB
:100BD00085079306F6FFA38FE7FE09EB3E96850790
:100BE0006393C7008280A38F07FED5BF3686F1FED0
:100BF000828001476314E600814739A8B307E50006
:100C000083860700B387E5009C23B387F640E2079D
:100C1000E18799E30507F9FE3E858280AA8703876D
:100C2000070001E73385A74082808507CDBFEFF23B
:100C3000CFF42E89B30B250141112A8CB68563F5BB
:100C4000AB001349F5FFFD5BC16937CA0000628440
:100C5000930AB002130B0002FD19130A0A4831A8C7
:100C6000130750026389E702637374011CA0130524
:100C70001400B284138614002A8483070600EDF35F
:100C800063060900637B742F23000400330584414D
:100C900041016FF00FF201481307D00293063002B2
:100CA0001305000331A0639E570113684800268690
:100CB0008307160093041600E397E7FE1368080104
:100CC000FDB76395670113688800D5B76395D700B2
:100CD00013680802E9BF6395A70013681800C1BF35
:100CE000138707FDA54663E6E6040147A5462945A7
:100CF00039A03307A70285043E97130707FD8387B2
:100D00000400138607FDE3F6C6FE0386040093067F
:100D1000E002FD57631FD60483871400254693869F
:100D20001400138507FD6365A60A814725452943FD
:100D30003DA09306A0027D57E399D7FC9841930408
:100D400026009105E35307FC3307E04013680801D0
:100D50006DBFB38767028506B297938707FD038649
:100D60000600930806FDE37615FF63D3070081476D
:100D7000B6848386040013068006014593F8B6FF07
:100D80006395C80013F5F60F8504038604009306E7
:100D900090066303D60663C5C60693068005630303
:100DA000D61C63C3C604930750026307F61A637523
:100DB0007401930750021CA08387040013051400DC
:100DC0006386071A637375011CB0130524005DB5B3
:100DD0001306A0026397C7009C41938624009105E7
:100DE00069B7B684814771B7930630066302D608A7
:100DF00093064006E31DD6FA13682800A94699A079
:100E0000930630076303D60C63C5C6029306F0064B
:100E10006300D61693060007E31BD6F8FD5663154C
:100E2000D700136818002147938C4500C1469041B4
:100E30001DA893065007E303D6FC93088007C1461C
:100E4000E31716F71306C006938C4500E301C5FEB1
:100E500013068006E31DC5FC904193752800639B33
:100E6000051033763601DE852285CD3CE68519B541
:100E70001378080163150802BA879306000229A0B7
:100E80006373740114A00504FD17E34BF0FE930790
:100E9000F7FF6343E00005473387E7400507938783
:100EA000450063747401944114A013051400229743
:100EB00013060002B306A7406344D000BE855DBBA5
:100EC0006373750110A10505F5B783AC0500138D9B
:100ED000450063930C00D28C66853EC63AC442C27C
:100EE000353BB247AA86124822476355F00063D3C8
:100EF000A700BE8613780801631E0800BA87130690
:100F0000000231A06373740110A00504BA877D1735
:100F1000E3CAF6FE814763C1D702B68763D30600F2
:100F200081473305F4002A9713060002B307A74050
:100F300063CFF600EA853DBB3306F40063777601A4
:100F4000B385FC00838505000CA28507E9B76373B0
:100F5000750110A10505D9BF6373740110A01305B5
:100F6000140009BB13680804C146E9BDFD1419B398
:100F7000A146C9BD42064186FDB5A38F0BFE39B31C
:100F800003A5C1838280EFF2CFC103A9C183EFF033
:100F9000CFDF11CD1384C183AA84084019C1EFF0BB
:100FA0002FEE930530042685EFF0EFE504C04A8567
:100FB0006FF06FC18280397126CA2ED232D436D6F4
:100FC0002A8654109305F0071385C1B63EDA36C65B
:100FD00006CE22CC3AD842DC46DE9139AA8603A559
:100FE000C18309E91385C1B6F137F2406244D244A6
:100FF000216182802686262D1384C18393E7040411
:101000003EAD9307F00763F4D7009306F00713860D
:10101000C1B68145EFF00FEC1C40A6AFF9B7EFF277
:101020004FB837C500001305853F713737C500003D
:1010300013054540493737C7000037C5000013077F
:1010400087428D4605468D4513054543AD3737C567
:1010500000001305454585376FF0EFB631C5B16621
:101060001377F50F9386462E09C7BA968822050591
:101070008280C167938707F0E98F81CB2185137741
:10108000F50F3697082325058280B707FF00E98F03
:1010900081CB41859377F50FB697882345058280EC
:1010A0006181369508216505828003A741845C41F2
:1010B000BA976305F502B62395E283A60184638F90
:1010C000F6009386818490426313F60088C2D4436D
:1010D00054C1DC43B306E540BA9794C71045B30743
:1010E000C700630FF500B62381EE938681848C429E
:1010F0006393A5009CC25441D4C35C413E9710C782
:101100008280EFF20FAA83A5018537C50000130581
:10111000C549553583A5C18537C500001305054B65
:10112000593D83A5C18437C500001305454C613581
:101130006FF06FA9EFF2EFA613F7C5FFE1462E8619
:1011400063F1E60693073500F19B930687FE63EA99
:10115000F6041D8F130687FE23A8C18489665117E4
:1011600013844184938606EAD8C394C323A407005A
:101170001CC0BA9723A0F184C966938606EAB7C556
:10118000000094C3D8C398C7814605469385C555CA
:101190001385C1BEEFF02FE8184023A4E1846FF05F
:1011A0008FA2AA8537C50000130545562935C5BF4E
:1011B000EFF22F9F39C503A70185130435007198FD
:1011C0001389018581446366870EB1476373F40018
:1011D0003144FD551385C1BEEFF06FE683A78184CE
:1011E00083A541848328090026853386B740B386CA
:1011F0008840138881846368D6001385C1BEEFF0F0
:101200000FEC81447DA0B384C500BA2003AE440036
:1012100061E73307CE40930F47FF63EF8F0A138FC9
:10122000C185938EC1841303840183260F0083A399
:101230000E001389C1859382C18463EF6F06130783
:10124000C4003297896E3383E500938E0EEA232221
:10125000C3012324C3002320D3010546D8C0B2A074
:1012600003264300B108630416012E9618C613879F
:10127000C60022972320E90063F4E30023A0E200E4
:101280000967130707EA9AA0639A970083A6018467
:101290000147B22305EE19C32320F8001385C1BE10
:1012A000EFF0EFE183A78185B10481C7A285268590
:1012B000829726856FF02F9105463697B2A023209E
:1012C000EF00E3FFE3FA23A0EE005DBFE385D7FC68
:1012D000DC430547AE9775BF728631BFEFF26F8C66
:1012E0003306B5024111328532C6D9352A8409C583
:1012F00032468145EFF03F80228541016FF0AF8C8F
:1013000045C5EFF26F8883A741852A8491C38297F0
:1013100083A74184138941846366F40883A7018409
:101320006372F408FD551385C1BEEFF04FD18357AA
:1013300064FF930944FF81CB035744FF8967938778
:1013400007EA6301F70237C5000013050551A5310F
:10135000835644FF035664FF37C50000CE8513054E
:10136000C55291398967938707EA231AF4FE938758
:1013700081849843231B04FE63F4E90023A0370112
:101380001387C1851C43832684FF4E85958F832652
:101390000900B386D940B6971CC3013B1385C1BE73
:1013A000EFF0EFD16FF08F818280B7070020938636
:1013B000070001479387070021468C426396A500EA
:1013C000131547003E9582800507C106E317C7FE47
:1013D00001458280EFE25FFB2A842E85AE89328A46
:1013E000E9372A89A92C832449009307490063908F
:1013F000F4048D2493E909F8230434012146D285AD
:101400002285EFF04FFC83A7018699C3228582973E
:10141000EF00A077032749009307C4005CC358C4BA
:101420002322F90004C8EF0000776FE03FF9844001
:101430007DBFEFE21FF783A741862A8491C382977D
:1014400023040400EF006074544418489307C40058
:10145000D8C214C31CC85CC4EF00E0736FE0BFF6D1
:10146000EFE29FF22E89AA898937AA8448458933F9
:101470002A841DCDD0448145EFF0EFE721462304B7
:101480003401A3040400CA852285EFF0CFF383A7BB
:10149000018699C322858297EF00206FD840930779
:1014A000C40091045CC358C49CC004C8EF00A06E83
:1014B00022856FE0BFF0EFE2DFEE83A741862A844A
:1014C00091C3829723040400EF00206C5444184811
:1014D0009307C400D8C214C31CC85CC4EF00A06B3F
:1014E0002285393D6FE03FEE030585007D818280D6
:1014F000239001889387C1C013870708DCC39CC36E
:10150000A107E39DE7FE3D47238AE18623AC0186E0
:1015100023A6018893874188DCC39CC38280EFE2C5
:101520005FE803A5C188EFF07FB37D159317350001
:101530001385C1C03E9508411307C5FE210523ACA4
:10154000E186EFE0FFC76FE01FE8EFE29FE5EF0005
:10155000C063839701882A89B1E703A5C188EFF0AA
:10156000FFAF7D15131735009387C1C0BA97844329
:101570009387818780439385C4FE6305B4028CC33F
:1015800083A7C187238AA18699C32285829783C7AF
:1015900041831305C4019385840093F7F70F81EB12
:1015A000EFE0DFC34A85EF00005F6FE0DFE1EF00AF
:1015B000E05ECDBFEFE2FFDE2A84EF00005D8347EF
:1015C000440393064401C19B93E71700230AF402E6
:1015D00083475403139737009387C1C0BA97D84302
:1015E00014C318CCD4C35CC89387C1889443185CD7
:1015F000558F98C3EF00205A6FE0FFDCEFE27FDAEF
:101600002A846123184C544893074401D8C214C358
:101610005CC81CCC83475403139737009387C1C021
:10162000BA979843631AF7001387C1881C5C144368
:1016300093C7F7FFF58F1CC3B92B6FE0DFD8EFE23C
:101640005FD6A123938701889A2305079AA3A12334
:101650006FE07FD7EFE2FFD40D2B138701881E23A5
:10166000FD17C207C1871EA3634BF00023100700BC
:101670001D2383A7818791C3C93D6FE0DFD4212B50
:10168000EDBFEFE21FD203A481870123AA84228544
:10169000B5379147230AF4021305C404012E2285AD
:1016A000A1358547631BF5003C5C81EB22855133F6
:1016B0002685D521593D6FE01FD183A641881307A8
:1016C000440123A2E188D8C29387418854C81CCC26
:1016D000C5B7EFE21FCD2A845105411108CC48C897
:1016E0000CD050D014D43A8658D4930530023685A5
:1016F0003EC642C4EFF02FC0585410544C5008500E
:101700007117B71600003A96938626682D21B247C6
:1017100022483716000048CC230BF402A30AF40237
:10172000232C0402814723220405232404052328B3
:101730000402230A0402232C0406232E0406014774
:10174000A28613060676A2851305C4041D2483A76A
:10175000018999C322858297014541016FE0BFC687
:10176000EFE23FC45049144D795718D954C21307BA
:10177000450190C218CD58C9353DC13B6FE0BFC48B
:10178000EFE23FC24111B2842E8685452A84368914
:1017900046C03AC63EC442C2EFF0DFC30248924799
:1017A0002247B2464A86A6852285253741016FE049
:1017B0009FC103A581878280EFE21FBD41112E8961
:1017C000AA85054532C6B684BA893E8AEFF05FC95C
:1017D0002A8411C92685EFF0BF9D324609E922858A
:1017E000EFF07FCD0144228541016FE03FBDAA8625
:1017F0005288CE872687CA852285E13DEDB7EFE284
:101800005FBA612683A781870546AA8603C7470377
:101810003D8B631CC702D04B984F6308E60258C249
:1018200010C303C65703938647010E061387C1C032
:1018300094CF3297504314C290CF54C3D8CBA12E2B
:10184000EFF0BFD001456FE01FB83685A926DDBF98
:10185000834745030547BD8B639FE702EFE27FB4F3
:101860002A84252683474403AA842285C19B93E7C3
:101870002700230AF402EFF07FD81305C404F122F5
:101880002685112E83A78189014581C722858297EC
:1018900001456FE05FB37D558280EFE29FB041115B
:1018A0002AC6E52403A481872A8922855537930413
:1018B000C404700081452685C922268539224A85BF
:1018C000D92CEFF09FC81858F9576314F700232854
:1018D0000402014541016FE01FAFEFE29FACEFE072
:1018E000BFBC653F6FE03FAE834745030947BD8BF3
:1018F0006390E704EFE2FFAA2A84412C5448184C75
:1019000093074401AA84D8C214C31CCC5CC8130535
:10191000C404252A268541242285EFF0BFC983A768
:101920004189014581C72285829701456FE0BFA9A2
:101930007D558280EFE2FFA6834665030547331796
:10194000D70018DD0947A30AD502230AE502693F3B
:1019500083A7818799C3EFF05FBF01456FE0BFA602
:101960005449184D93074501D8C214C31CCD5CC916
:101970008280EFE21FA34111B2842E86A9452A84FA
:1019800036C63AC43EC2EFF0FFA49247B2462247A1
:10199000F99B1CB49307440144CC14D023240402C3
:1019A00058D01CCC5CC841016FE0FFA1EFE27F9FE3
:1019B0002A84E12AAA84228565372685E92A228598
:1019C000EFF03FA701456FE01FA0EFE29F9D2A8443
:1019D0006D2AAA84228569371C342685F99B1CB49C
:1019E0005D2A83A7C18699C322858297EFE0FFA86D
:1019F0005C503E9508D4512A1387818A03284700FA
:101A0000370600809387818A1346E6FF9843631563
:101A1000F8029386C1899042050690C2930644015C
:101A200054C358C894C31CCC1C3493E717001CB48F
:101A30009D2201456FE03F99544B0C546385B600DD
:101A40008D8EE378D6FCBA87D1B71C35858B85C7D8
:101A5000EFE23F9583A781862A8491C3829735223E
:101A6000AA842285F53D26853D221C340145F99B3B
:101A70001CB46FE05F957D55828085476381F502D8
:101A800063C5B70085C1014582808947638FF50032
:101A90008D47E39AF5FE1C3593E7270009A85C51B2
:101AA0001CC2D5B71C425CD1F9BF1C35F59B1CB5D7
:101AB000D9BFEFE29F8CEFE05F9C2A8CF920B70939
:101AC00000802A8A9384818A93C9E9FF8D4B8040E4
:101AD000631694005285C1206FE0BF8D48481309FA
:101AE000C4FE3305AC40E3E7A9FE83A7018A99C38E
:101AF0004A8582974A85EFF0BFE61C4448448297A6
:101B0000EFE0BF9783A7418A2A8C99C34A858297C1
:101B1000834754FF13F7E70FA30AE4FE8D8BE39886
:101B200077FB4A85EFF07FEA5DB79387818ADCC354
:101B30009CC3828082801106719A2A8837C7ADDEE5
:101B4000130506F8AA871307F7EE631EF600A167D0
:101B5000938707882322D6F82324B6FA232006F990
:101B60002324F6F8828098C39107C5B737F700E0C1
:101B70001C43B7060080D58F1CC3828037F700E076
:101B80001C43860785831CC382802165130505805D
:101B9000731505308280731005308280EFE27F80FC
:101BA0001387818B18439387818B19E323A8A18A1C
:101BB00023AAB18A054798C3553F6FE0DF802A8783
:101BC000814718436314A7003E8582808507D5BFEF
:101BD000B707EFBE37E700E0938707083CC701452A
:101BE0008280EFE20FFC37C500001305055AEFF0C5
:101BF0008FBC01456FE02FFDEFE2AFFA2A84FD5460
:101C000037D900007D14631494006FE0CFFB1305F7
:101C100089D0EFF04FBAFDB7EFE20FF70041AA8489
:101C200037D90000B7D90000631494006FE00FF9B2
:101C30009305C4FE1305C9D0EFF0EFB71C406386CF
:101C40009700138509D1EFF00FB70040F1BFEFE225
:101C50004FF52E89EFE09FFC2A84EFF05F9E8324EE
:101C60000900639C2401EFF0FF9EA14763C3870036
:101C700011E0214422856FE00FF5138544FFEFE06A
:101C8000FFF96353A4002A848440E1BFEFE2EFEE42
:101C90000545EFF08FF1B7D90000130945002A84FC
:101CA000CA85138549856537AA85AA8437D500007A
:101CB000138649851305C585EFF0EFAF2685EFF054
:101CC000BFF337D500001305058AEFF0CFAE4040D3
:101CD000B7D90000054A894A37DB0000B7DB0000AE
:101CE00037DC0000B7DC000037DD00006315890039
:101CF00001456FE00FEC034794021385098E9306AC
:101D000044FF2146A685EFF00FAB8347840213857D
:101D1000CC8EBD8B638E470113058C8F638A570170
:101D200013854B9091C711476396E70013050B91FC
:101D3000EFF06FA84C4C93073002AE8698226306F2
:101D4000F7021050930740060848B295B386D54075
:101D5000B386F602585C5C50898D1305CD91B3D6DD
:101D6000C602EFF04FA5004051B78506C1BFEFE2B4
:101D7000AFE141110945EFF04FE39309450037C941
:101D800000002A84CE851305497FEFF05FECAA8519
:101D9000AA8437D500001306497F13050580EFF0AC
:101DA0008FA12685EFF05FE537D500001305C581CB
:101DB000EFF06FA0404037DA0000B7DA000037CB11
:101DC000000063968900014541016FE02FDF1A286A
:101DD0001C44930644FF1309840036C63AC44A855E
:101DE0006306F902EFF0BFDD2247B246AA8721461B
:101DF000A68513854A83EFF00F9C4A85EFF0DFE15B
:101E000013050B62EFF02F9B004065BFEFF03FDB47
:101E10002247B246AA872146A68513054A84EFF0D9
:101E20008F99DDB7EFE24FD641111145EFF0EFD7B3
:101E30009309450037C900002A84CE8513058963BC
:101E4000EFF0FFE0AA85AA8437C500001306896376
:101E500013050564EFF02F962685EFF0FFD937C5FF
:101E6000000013054566EFF00F95404037CA0000AB
:101E7000B7CA000037CB00006396890001454101D5
:101E80006FE0CFD31C4413098400930644FF184825
:101E90006309F9024A8536C63AC4EFF05FD2224799
:101EA000B246AA872146A68513854A68EFF0AF900F
:101EB0004A85EFF07FD613050B62EFF0CF8F00401D
:101EC00065BF2146A6851305CA69EFF0CF8EC5BF51
:101ED000EFE28FCB41110D45EFF02FCDB7C90000D8
:101EE000130945002A84CA8513850979EFF03FD686
:101EF000AA85AA8437C50000138609791305857958
:101F0000EFF06F8B2685EFF03FCF37C5000013054C
:101F1000C57BEFF04F8A4040B7C9000063168900C7
:101F2000014541016FE08FC9930644FF130584000A
:101F300036C6EFF0DFC8034834015C48B246AA88D1
:101F400021472146A6851385C97DEFF0CF86004045
:101F5000F1B7EFE26FC341111545EFF00FC59309DB
:101F6000450037C900002A84CE851305096BEFF0C0
:101F70001FCEAA85AA8437C500001306096B130576
:101F8000856BEFF04F832685EFF01FC737C5000044
:101F90001305C56DEFF02F82404037CA0000B7CA65
:101FA000000037CB000063968900014541016FE0D6
:101FB000EFC07A285E281044930644FF130984007A
:101FC00036C63AC43EC24A856307C902EFF03FBF36
:101FD00092472247B2462A882146A68513858A6FF2
:101FE000EFE07FFD4A85EFF03FC313050B62EFE0A2
:101FF0009FFC00404DBFEFF09FBC92472247B24686
:102000002A882146A68513050A71EFE0DFFAD5B7C5
:10201000EFE28FB741111945EFF02FB99309450051
:1020200037C900002A84CE8513058972EFF03FC2BC
:10203000AA85AA8437C50000130689721305457363
:10204000EFE07FF72685EFF03FBB37C500001305B3
:102050000575EFE05FF6404037CA0000B7CA0000E0
:1020600037CB000063968900014541016FE00FB551
:102070001A2C1C44930644FF1309840036C63AC444
:102080004A856306F902EFF09FB32247B246AA875A
:102090002146A68513858A76EFE0FFF14A85EFF0A9
:1020A000BFB713050B62EFE01FF1004065BFEFF013
:1020B0001FB12247B246AA872146A6851305CA77D3
:1020C000EFE07FEFDDB7EFE22FAC5D712545EFF07C
:1020D000CFADB165130600052A8413094500938529
:1020E000C5240A85EF80702CB7C90000CA85138506
:1020F000095DEFF0DFB5AA85AA8437C50000138615
:10210000095D1305855DEFE01FEB2685EFF0DFAE7F
:1021100037C5000013050560EFE0FFE94040D149F5
:1021200037CA000063168900014561616FE00FA99D
:102130001C44930644FF63E0F90298088A07BA97A3
:1021400003A707FB1C282146A68513054A62EFE07A
:102150009FE60040C1BF4647F5B7EFE2EFA2294531
:10216000EFF0AFA4B7D90000130945002A84CA854F
:1021700013854994EFF0BFADAA85AA8437D5000036
:10218000138649941305C594EFE0FFE22685EFF02E
:10219000BFA637D5000013054597EFE0DFE14040CB
:1021A000B7D9000037DA0000B7DA0000631E8900F3
:1021B000EFE0AFACAA8537D500001305C59CEFE072
:1021C0009FDF01456FE08F9F5C4C184C1385899908
:1021D000930644FF2146A685EFE0FFDD8347D4FF49
:1021E00013850A9B858B99E31305CA9BEFE0BFDC3F
:1021F00000406DBFEFE24F9937C500001305855AC7
:10220000EFE07FDB03A4018CB7C9000037CA0000F0
:1022100083A7418C6365F40001456FE02F9A044069
:1022200009469385C95B2685EF80902F19C55040DC
:10223000A68513050A5CEFE01FD83104D1BFEFE299
:10224000AF9437D500001305C5E6EFE0DFD603A451
:10225000018CB7D9000037DA000083A7418C636B8B
:10226000F40037C5000013050562EFE0DFD4014537
:102270006FE0CF9404401946938589E82685EF8066
:10228000302A01E950409385640013050AE9EFE024
:102290009FD23104D9B705458280EFE2EF8E797184
:1022A0002A84AA9593060002254783070400B38475
:1022B00085406385D70A6383E70A0145638B041071
:1022C000014913070002A546B307240183870700CD
:1022D000638AE7086388D7086314990883A9018C87
:1022E00083AA418C37DB000063F0590903AA090077
:1022F000194693058BE85285EF80902259E54A866E
:10230000A28513056A00EF80B02141E14A9A830754
:102310006A00A5EF83A98900638809041306800277
:1023200081452800EFE0EF8A13098100CA86A28761
:102330000145014713080002A5482943130620025E
:10234000130EC00583850700638405016396150598
:10235000631F9702A9476303F50469A80504B1B791
:1023600005099DB7E31C09F6A287038707001377C9
:10237000F7FD79E737D50000130545E52380070011
:10238000A285EFE05FC37D55A9A0B109B1BF23804D
:102390000700050785077DB76310650437D5000082
:1023A000130505E3EFE03FC10018B7D40000832513
:1023B0000900138504E51109EFE0FFBFE31989FE69
:1023C00037C5000013050562EFE0FFBE29452C006C
:1023D000829945616FD09FFE637E970005056392E9
:1023E000C504850705079CC2838507006381C50274
:1023F0006364970069FD8DBF838E17006396C501E6
:102400006394CE008507050785070507F1BFE373D1
:1024100097FE23800700050785079106E36497F27E
:10242000D1BF9CC2838507006389050163871501BD
:10243000E30297FC85070507F5B7E36097FE5DBFEC
:10244000850725B7EFD27FF38307050099E781451C
:102450000145EFF0DFDE6FD0DFF503AA018CAA891A
:102460008144014937DB0000B7DB000083A7418CC2
:102470006369FA00EDD04A86A6854E85EFE0AFF499
:10248000D9BF03240A00194693058BE82285EF8003
:10249000300921E14E85EF80900719042A86A28534
:1024A0004E85EF80F00715E5631709002285EF8060
:1024B00010062A89A284A68722870386070001EED8
:1024C000858F63D327013E89A28513858BE9EFE0D1
:1024D0009FAE310A61BF83060700FDD2E312D6FE2C
:1024E00085070507D9BFEFD2DFEBEFF02FFA0145E3
:1024F0006FD07FEDEFD2FFEAEFE0BFC001456FD0B4
:102500009FECEFD21FEA03A5C18BEFE04FBB014563
:102510006FD07FEBEFD2FFE8B74702009387879039
:1025200023A0F18CB74702009387C7A723A2F18CA1
:10253000B74702009387C7A723A4F18CB7470200CF
:102540009387C7A793050021054523A6F18C138423
:10255000C18BEFE0BFD808C019E937D500001305DB
:10256000C5F4EFE05FA57D5422856FD0DFE5B72588
:10257000000037D50000A9472D47930600400146CB
:1025800093854569130545F6EFF00FA3AA8408402B
:10259000B7D50000814601469385C5F6EFE0AFA7A9
:1025A0000144F9D02685EFF0EFB87DBFEFD27FDF91
:1025B000EFF07FCE0DC5B7D50000938585F113856B
:1025C000C1C8EF80C073B7D50000938585F213852D
:1025D000C1C8EF80E0701385C1C86FD0DFDEB7D50A
:1025E0000000938505F2E1BFEFD2BFDB2A8437D527
:1025F0000000130585F8EFE01F9CEFF03FFBAA8574
:1026000037D500001306A41B130505F9EFE0BF9AA8
:1026100001456FD05FDBEFD2DFD841112AC6EFD082
:10262000DFF6B24511E937D500001305C5F2EFE03A
:102630009F9841016FD03FD983A7C18BAA8413848F
:10264000C18B83A7C720E386A7FE93053014EFD084
:102650009FFB65F11C4003A5C72009C9EFE04F822D
:102660001C40814503A5C720EFE08F88004013067A
:10267000000581451305A41BEFD0BFD5B725000089
:102680002315042023269420938525502685EFE0EA
:102690002F8645B7EFD2FFCD83A7C18B411193841D
:1026A000C18B03C74702136717002382E70283A782
:1026B000C72091E7EFE0DF8C19C1EFF0DFF5EFF015
:1026C000FFEEEFE05F8F37DB0000B7DB0000B7D92C
:1026D000000037CA0000B7DA000037DC0000B7DCC2
:1026E00000009C4085461306F10003A5C720FD5558
:1026F000EFD09FFC8547631AF5000309F100ED4711
:1027000080406319F90008D0E9BF8840FD55EFE02B
:102710000F93C1BF1C506392A7029307B0056315C6
:10272000F90089471CD075BF23200402E30B09FA86
:10273000A5476314F9120149D1A80947E398E7FEB8
:1027400023200402930710046312F9046E30D1D9D8
:10275000FD15C205C1816EB09307A41B13070005C8
:10276000B385E502130600053E859385A502A29573
:10277000EF80A043EF80A0591375F50F2305A42027
:10278000A305A4202285EFF03FE6A1BF9307200414
:102790006311F90216347E301387F6FF63D8E70021
:1027A00085077EB09307A41B6E304DBF9DDA7AB0CB
:1027B000D5BF930740046310F9028347B42095D333
:1027C000138549F7EFE02FFF98408347B720FD17A7
:1027D000A305F72039B793073004E319F9F48347C9
:1027E000B4200347A420E3FEE7EE3E948305A41B38
:1027F00013858AF7EFE02FFC98408347B7208507C1
:10280000C1BF138549F7EFE00FFB050980408347FF
:10281000B420E348F9FE13050A62EFE0CFF9EFF0C8
:102820009FA785471304A41B6315F5002285EFF0CD
:102830007FC1EFF0BFD72286AA8513850CF9EFE0A0
:102840008FF780401305A41BEF80604C1375F50FC4
:102850002305A420A305A42069B59307F007630509
:10286000F900A1476315F9088347B420E38B07E615
:102870000346A420FD1793F7F70F7D161376F60F86
:102880002305C420A305F42063F8C7049385B71B70
:102890001385A71B1D8EA2952295EFE04FAE9C409D
:1028A0001385CBF703C7A7203E97230D071A83C5CF
:1028B000B7209385A51BBE95EFE0EFEF9C4003C4C6
:1028C000B7209C4083C7A720E3CD87E0138549F755
:1028D000EFE06FEE0504F5B713054BF8EFE0AFED51
:1028E0009C4003C7A720BA97238D071ADDBB354745
:1028F0008347A4206305E9002947631EE90EB9CB8D
:10290000035984029147130DA41B63FB2709930D00
:10291000A41613060005EA856E85EF80C0261DC942
:102920001309A4024A851309090513060005CA857F
:10293000EF80A027E3982DFF1306000581456E85E3
:10294000EFD03FA90346A420EA856E85EF80E025FD
:1029500095471EB41E347EB0EFF0FF938547631297
:10296000F5029C4083C74702858B89C713050A621D
:10297000EFE06FE488408345A5201305A51BEFF029
:10298000DF91EFF0BFC2EFE00FE3804013060005D8
:1029900081451305A41BEFD0DFA32315042091B3B9
:1029A000630109021305F9FF930700053305F502DA
:1029B00013060005EA851305A5022295EF80A01CE9
:1029C00051D9930D00053305B90313060005814560
:1029D0001305A5022295EFD0DF9F0A340346A420F9
:1029E000EA853305B5031305A5022295EF80E01BA8
:1029F0001E348507B9BF1307F0046374F70023057D
:102A000004200346B4208347A4206370F60893058E
:102A1000A61B1305B61BA2953386C7402295EFE08F
:102A20000F968C4083C7B5203387F500230D271BF5
:102A300003C74502058B01CB9387A71BBE951305E2
:102A4000CCD0EFE04FD79C4003C4B7209C4083C755
:102A5000A7206346F40298408347A7208346B72007
:102A60008507850693F7F70FA305D7202305F720E1
:102A70009306F004E3F7F6C6231507209DB11385EE
:102A800049F7EFE04FD30504D1B7A297238D271B59
:102A900083474402858BE1D3CA8513858AF7EFE02B
:102AA0008FD155BF7C4123280504232A05049C436C
:102AB00081CBEFD21F8F9305850482976FD0BF9093
:102AC00001458280EFD25F8C36899DCAAA84328408
:102AD000B309D600294A1C20639B4701BE2C93F7FB
:102AE000070491C7FC40B54526859C478297FC406A
:102AF0008305040026859C4705048297E31D34FD69
:102B00004A856FD0BF8BEFD2DF8993F705102A84F7
:102B100091C71A2D61551377071035CF13F705406C
:102B200011C71A2C61551377074035C713F70504F1
:102B30009304000401E7262C93F40404384893F529
:102B4000F50F2EAC39EBA1C76844298142054181BC
:102B50003105EFE0EFE570442A893105298242060C
:102B6000418281452320A900EFD0FFF823220900EC
:102B70003E2C232409002328240593E707103EACAC
:102B80007C4013060010C145DC43228582973E2C11
:102B90000145DD8C26AC6FD01F83F5DB93E5051076
:102BA0002EACF5B70948AA8763810503EFD26FFF02
:102BB0000D486382050305476399E5041A2D1377D1
:102BC000F7FD1AAD01456FD01F801A2D136707025C
:102BD0001AAD01458280328775D6504274454C2D1E
:102BE0002982A9824206C2064182C1826304D600BC
:102BF0001D45F1F91443B4C75443F4C7E1D5F44378
:102C0000BA853E859442829675BF7C41DC438297AB
:102C10005DBFEFD26FF73684B1CA3E2DAA893289E3
:102C200093F70710B6849DE37D5AA94A83A7490408
:102C30004E85DC478297630945012300A900FD14F6
:102C4000050963035501FDF0058C0DA02449368A62
:102C5000854AEFE09FF3FE20DA202A869444631A27
:102C6000F70081EAEFE03FF33304444122856FD05F
:102C7000EFF498403E97034B070003A7C90485076C
:102C8000C2072983C1834207FEA0418363E4E700B2
:102C9000239304006394560123A404003285EFE0DB
:102CA0009FEF7D1A230069010509E3140AFA6DBF3D
:102CB000582D854763ECE7023E2D93F707109DC71B
:102CC000EFD22FEE2A842849EFE08FE33E2C232811
:102CD00004041306001093F7F7EF3EAC7C40C545A3
:102CE0002285DC43829701456FD0EFED014582805C
:102CF000EFD22FEB37370000130747AA18D5373725
:102D00000000130767B058D537370000130707CB0B
:102D100018D937370000130727C158D937370000B3
:102D2000130747AC18DD37370000130747BA4206D0
:102D300058DD34C14182232A0500232005022322C5
:102D40000502EFD01F896FD00FE893F5F50F854787
:102D50006391F50AEFD24FE320494111AA847D59CE
:102D60008549FC402685DC4782972A8A630725052A
:102D7000EFE0BFE15A201C40BA97238047015E2054
:102D8000F8448507C2072983C18342075EA04183B7
:102D900063E4E7002312040076205E20639CD700E2
:102DA0008507C207C1837EA02324340163E4E700C2
:102DB00023130400EFE03FDE6DB79C5085C3EFE0C6
:102DC000DFDC5A206E20636EB700B305B7402EC615
:102DD000EFE07FDC9C50B2452685829741016FD0A1
:102DE000EFDDFC44998DA983C207C183B385B74049
:102DF000F9BF828001CEEFD2CFDA7841B2878E233D
:102E000018433222029701456FD0EFDB7D55828057
:102E1000EFD22FD9138701D178432E86AA85184384
:102E2000138501D102976FD00FDAEFD28FD71387B6
:102E300001D178432E86AA855843138501D1029784
:102E40006FD06FD8EFD2EFD5138701D17843AA8521
:102E5000138501D1184702976FD0EFD605C61147E9
:102E60006392E602EFD2EFD37C410E2241119C47E0
:102E700036C632C482972246B2462AA2368541011E
:102E80006FD06FD48146368582801DC2B2871146CD
:102E90006390C602EFD2EFD07841B2238E2358431D
:102EA000411136C60297B246410136856FD0AFD187
:102EB000814636858280EFD2CFCE938701D14947B4
:102EC000D8CB373700001307C7E5D8DB373700000A
:102ED0001307A7E898DF37370000130747DFECC375
:102EE000B0C3AA850D46138501D123A0070223A2F2
:102EF000070223A4070223A6070223A80702D8DF9C
:102F0000EFD02FED01456FD00FCC37050020130512
:102F10008571828037150020130585718280EFD27C
:102F20004FC8B707002003A7471C9307803EC15630
:102F30003357F702B7E700E02386D7402387D7400F
:102F4000856623A0D710916623A0D710B7F700E0BD
:102F500023A0070023A20700014690C78146D4C7DB
:102F600081461306F7FF90CBD4CB3D4798C3EFD0F3
:102F70002FD7EFF09FF92A84EFF0DFF9AA85228599
:102F8000EFE04F9B37D5000013058500EFD0BFFF62
:102F90006FD06FC373110134EFD07F96B7F700E0A5
:102FA00023A20700EFD0CFCDEFD03F9873110134AB
:102FB00073002030B7F700E0414798C303D7018D75
:102FC00081463306A70290CBD4CB984313671702F0
:102FD00098C3D843058B75DFD843799BD8C38280CB
:102FE000EFD22FBC1304803EB354850237490F0043
:102FF000130909243374850291E819C41305803E2E
:103000003305A402EFF01FFB6FD0EFBB4A85EFF052
:103010007FFAFD14D5B7B7071060F917BE23411129
:10302000C207C1837C87288741018280411168875C
:103030003887B7071060420741839AA34101828015
:10304000411168873C8737071060C207C183231F7F
:10305000F7FE41018280B7071060239FA7FE8EA371
:103060008280B717002003D70772B7071060239F2D
:10307000E7FE8280B71800209387887103DE47003F
:10308000BA27D22789679387379613D38500938809
:10309000887193F5F50F6314FE0803D8080083CEFA
:1030A0006800370E10607D1893170801C1839306DE
:1030B000EEFF63960E04898F231FEEFEC207239155
:1030C0000600C1832391060013D78700BAA293F7A5
:1030D000F70FBEA2B7071060239FC7FE23906700BB
:1030E0008EA31387E7FF83D72800FD1793D6874069
:1030F000C206C18236A393F7F70F3EA38280231F37
:10310000EEFE1358884013578500BAA21375F50FC9
:103110004208AAA213580801239106014DBF9358F3
:1031200085009377F50F3705106015689306E5FF66
:10313000231FE5FE130808512391160163130E03A4
:10314000050742074183231FE5FEBEA2231FC5FEDC
:1031500005064206239166004182231FC5FEAEA2EA
:103160008280BEA2231FC5FE23916600CDBF371704
:10317000002093078771F023D623854589671307BD
:10318000877193873796631EB6006399F6027D15A3
:103190001375F50F994763F4A7041306600381477D
:1031A00049A01DE66396F6029D4763E1A71AB5673D
:1031B000938707010A053E951C4182879D4763E777
:1031C000A718B567938707030A053E951C418287B8
:1031D0007D151375F50F19468147636BA600B5671A
:1031E000938707050A053E951C4182879307000EC9
:1031F000156613060651638AC6042566130616343F
:10320000638DC6001D66930596786388B6009305A6
:103210006679130660036396B60093E7870013068A
:103220006003B7051060239FC5FE09669EA11306C3
:1032300036966388C60C93F7070212232E2399CF84
:103240006370B6020EA332A321A80D6613060660B2
:10325000C9BF1306600393070004E1B7E3E4C5FEAA
:10326000956793870751639EF6083227B70710606A
:103270005627130816002E230A234208239FC7FE51
:103280002390070013580801239F07FF1308260007
:10329000420823900700135808017D15239F07FF5C
:1032A0001358854042080D06135808014206239022
:1032B00007014182239FC7FE1375F50F8AA313866A
:1032C0001600239FD7FE4206239007004182239FCA
:1032D000C7FE138626004206239007004182239FE3
:1032E000C7FE1386F5FF93558640C2058D06C18142
:1032F000C2068EA3C182239FD7FE1376F60F92A338
:103300008280362737061060231FD6FE2310060062
:10331000231006001623FD1693D58640C205C181F1
:103320000EA293F6F60F16A25627231FD6FE2310E1
:103330000600231006003A237D1793568740C206E5
:10334000C18216A21377F70F1AA2828081474DB56A
:103350009307000A71BD9307000659BD9307000249
:1033600041BD9307000C69B59307000451B593075D
:103370000008BDBDEFD2EF82411132C6EFF09FCF02
:10338000EFF03FCE3246B70710604206418292A36B
:1033900041016FD04F83EFD2CF80B7071060130782
:1033A000E00B1384E7FF239FE7FE95473EA0EF6005
:1033B000C04AB707010003A687FF83A6C7FFEF50E7
:1033C000B004EF60C043420541812AA085473EA07A
:1033D0009307F00F3EA023110400231104006FC0D7
:1033E0009FFEEFC21FFCB717002093868771E8A2EB
:1033F000DA229387877155E1370640011306060FDD
:1034000090C21566930506516315B702B737002AB7
:10341000938707C09CC68D67938707B0DEA6B70762
:1034200020039387071E9CC20145EFF05FD46FC055
:103430009FF9896693863696631AD702B7062B00E2
:103440009386C60294C79306A002D6A7B7062003A8
:103450009386061E94C3A96693866680E316D7FCFE
:10346000370720031307071E98C37DBFB7062A003E
:103470009386C60294C79306B002D6A713060631F8
:103480006317C700B706E00193860614E1B79D668F
:1034900093866679E308D7FE7DBF3706F0001306F2
:1034A000061490C21566130606516310C702B7379B
:1034B000002A938707C09CC68D67938707B0DEA656
:1034C000B707E00193870732B9BF896693863696BE
:1034D0006307D700A96693866680631CD702B70688
:1034E0002A009386C60294C79306B002D6A7B706F1
:1034F000E0019386063294C395669386063163078E
:10350000D7009D6693866679E310D7F237074001AE
:1035100091BFB7062A009386C60294C79306B002ED
:10352000D6A7D9BFEFC2FFE7B717002093878771EF
:103530009A23A2238145AA8401453304E402EFF0D3
:103540007FB3EFF01FB281473707106063948700A5
:103550006FC07FE706A38507D5BFEFC2FFE21971F1
:10356000854513050010EF40D03585452145EF40D6
:103570003037854513050002EF4090368545130529
:103580000004EF40F035F17793873770371401402E
:103590007C82E147130504403EC64C008D47372925
:1035A00001403EC4EF40500A930700F8130509801C
:1035B0004C007C82EF40500993070008130504403B
:1035C0004C007C82EF405008930700021305044032
:1035D0004C007C82EF405007C144130504404C006E
:1035E0006482EF407006130509804C00A14A231243
:1035F0005101EF4070054C00130504C06482C144C2
:1036000026C6EF4070048567BED49167BED81C08FB
:10361000BEDC7C10BEDEBD473EC89307C0033ECC77
:10362000A800A5473ED63EDAA6CA82C482C882C692
:1036300082CC82D082D282D682CE82DA02CA02CEF6
:1036400002D002D202D402D802DC02DE82C082C2E0
:10365000EF40007385450145EF40207D13052003B1
:10366000130A300DB7041060EFF09F973714002055
:10367000239F44FF13098471EFF0FF992312A900DF
:10368000EFF07F992312A900EFF0FF982205231293
:10369000A900EFF05F9883574900130484715D8D92
:1036A00042054181A5672312A9009387173463035C
:1036B000F5189147239FF4FEEFF0FF954AA0EFF035
:1036C0009F954AA0EFF03F9522054AA0EFF0BF94E6
:1036D0005E205D8D42054181A1674AA093872755F1
:1036E0006317F5009D67938797785EA0A1A21D6B75
:1036F00093079B786300F5149307400D239FF4FE16
:10370000EFF07F914AA0EFF01F914AA0EFF0BF9039
:1037100022054AA0EFF03F905E2015695D8D4205BD
:1037200041814AA0930709316306F510239F44FFA6
:10373000EFF07F8E4AA0EFF01F8E4AA0EFF0BF8D12
:1037400022054AA0EFF03F8D5E20130B6B795D8D53
:10375000420541814AA0630F650DFD77239FF4FE6A
:103760009389E4FF130750052391E900138717009D
:10377000239FE4FE1307A00A2391E9001387270083
:10378000239FE4FE130720052391E90013873700E8
:10379000239FE4FE239159019107239FF4FE85475F
:1037A0002391F900B16993870950239FF4FEEFF04C
:1037B0009F8622054AA093891950239F34FFEFF07A
:1037C0009F855E205D8D4AA01545EFF07F815A20D0
:1037D000930709516300F706239F44FFEFF0BF836F
:1037E0004AA0EFF05F834AA0EFF0FF8222054AA0D3
:1037F000EFF07F825E205D8D42054181A9674AA07E
:10380000938767806308F5029307100A239FF4FEED
:10381000EFF07F804AA0EFF01F8022054AA0EFF072
:103820008FFF5E20130919765D8D42054181630B80
:1038300025054AA04E20370501001305C5FEEF708F
:10384000E0415E209D66138796786391E704652CBE
:103850005E201D6793069778639BD7088D473ED6F9
:103860003EDA0145EFF0FFB737150140C1451305BA
:1038700005C0EF40006A41657D15EFF0BFCA0961E0
:103880006FC0DFB389679387379685B525671307C0
:1038900017346394E700952165BF15671306073158
:1038A0006395C700EF00A06E65B793866679639550
:1038B000D700EF10407E69BF130707516395E700FB
:1038C000EF10702071B72967130767806395E700D1
:1038D000EF201025B5BF096713073796E39AE7F67F
:1038E000EF20506013054006EFF0FFAA95B7A966D8
:1038F00093866680638CD700A566938616346387AB
:10390000D7009566138606516394C700894781BF27
:1039100093860631638BD700130767796387E700C7
:10392000096713073796E39EE7F285470DBFEFC29D
:10393000BFA5B304A64085043389B640C204050977
:10394000C18042094111AA892E8A13590901939A0B
:1039500014000144370B10606365240141016FC0FE
:10396000FFA5B3054401C205C1814E853AC6EFF0FB
:103970006FF0EFF00FEF32478147BA8663E79700A9
:103980000504420441805697C1BF8E228507C207B5
:103990002310BB00C1838906D5B7EFC29F9D93F466
:1039A00076003E8AB334900093D73600BE9493D706
:1039B0001600B384F402130406FE6204C1472A8B86
:1039C000AE8BB68ABA89618493F4F40F6385F60AE4
:1039D00063E7D700B1476380F6026FC05F9DE147A0
:1039E0006380F60A93070002E399F6FE3D661A0427
:1039F0001306C68231A03304D40235661306C60608
:103A00003294B71C0020A2945E89370D0020938C5D
:103A10008C71E38484FC130C8900834D0400420CF8
:103A2000135C0C0193978D01E187528663C60700F2
:103A30006398090003260D1CCA855A85EFF09F93F1
:103A4000050983D72C004209860D1359090193FDFE
:103A5000FD0FE374F9F8B3077941639BFA02050B94
:103A600083D70C00420B135B0B01E378FBF65E8CF3
:103A70000504628979BF356612041306064E49B7FC
:103A8000130640023304C4023966130606AD8DBF27
:103A9000E31A89F9F1BFEFC25F8E2A96AE969319A9
:103AA0000601139A06014111AE843E8993D909019A
:103AB000135A0A01BA8A935B17002A84130BE00594
:103AC000137CF50F03060900930706FE93F7F70F23
:103AD0006375FB0041016FC0DF8D63663401D694CE
:103AE000C2046284C180E3F744FFC2872285014794
:103AF000D686A6855E9442C64204EFF01FEA418056
:103B000005093248C1B7EFC2DF894545EFF04FD311
:103B100013058007EFF0CFCC13056003EFF04FD211
:103B20000145EFF0AFD01305A003EFF06FD11545BD
:103B3000EFF0CFCF1305200BEFF08FD03145EFF032
:103B4000EFCE3145EFF08FCE0145EFF02FCE1305CC
:103B50003003EFF0AFCD13053003EFF02FCD130599
:103B6000700BEFF0EFCD13055003EFF02FCC1305E2
:103B7000B00BEFF0EFCC13052003EFF02FCB1305C4
:103B8000000CEFF0EFCB3145EFF04FCA1305200CDE
:103B9000EFF00FCB0545EFF06FC91305300CEFF0D8
:103BA0002FCA4145EFF08FC81305400CEFF04FC905
:103BB00013050002EFF08FC71305600CEFF04FC83C
:103BC0003D45EFF0AFC61305000DEFF06FC71305CD
:103BD000400AEFF0AFC51305100AEFF02FC513052B
:103BE000000EEFF0EFC51305000DEFF02FC40145F7
:103BF000EFF0CFC30945EFF06FC31D45EFF00FC3E2
:103C00002945EFF0AFC213058002EFF02FC2130574
:103C10002003EFF0AFC113054004EFF02FC11305EF
:103C20002004EFF0AFC01945EFF04FC03945EFF079
:103C3000EFBF4945EFF08FBF5145EFF02FBF5D4516
:103C4000EFF0CFBE1305100EEFF08FBF1305000D80
:103C5000EFF0CFBD0145EFF06FBD0945EFF00FBDAF
:103C60001D45EFF0AFBC2945EFF04FBC13058002B6
:103C7000EFF0CFBB13051003EFF04FBB130540056A
:103C8000EFF0CFBA13057004EFF04FBA3945EFF0FB
:103C9000EFB97145EFF08FB95D45EFF02FB96D4584
:103CA000EFF0CFB87945EFF06FB81305A002EFF051
:103CB0002FB90145EFF08FB70145EFF02FB7014560
:103CC000EFF0CFB61305F00EEFF04FB61305B002CC
:103CD000EFF00FB70145EFF06FB50145EFF00FB50D
:103CE0000545EFF0AFB41305F003EFF02FB4130563
:103CF0009002EFF0EFB46FC00FEDEFC28FEA130543
:103D0000F00CEFF0EFB30145EFF04FB21305100CDC
:103D1000EFF0CFB113050003EFF04FB11305D00E54
:103D2000EFF00FB213054006EFF04FB00D45EFF086
:103D3000EFAF4945EFF08FAF13051008EFF00FAF6D
:103D40001305800EEFF0CFAF13055008EFF00FAE64
:103D50004145EFF0AFAD1305A007EFF02FAD130510
:103D6000B00CEFF0EFAD13059003EFF02FAC13059F
:103D7000C002EFF0AFAB0145EFF04FAB13054003CE
:103D8000EFF0CFAA0945EFF06FAA1305700FEFF01F
:103D90002FAB13050002EFF06FA91305A00EEFF093
:103DA0002FAA0145EFF08FA80145EFF02FA81305CA
:103DB000000CEFF0EFA86D45EFF04FA71305100CC6
:103DC000EFF00FA80545EFF06FA61305500CEFF0CC
:103DD0002FA713050003EFF06FA513050003EFF005
:103DE000EFA41305700CEFF0AFA51305700BEFF007
:103DF000EFA313056003EFF0AFA413058004EFF009
:103E0000EFA21305A003EFF0AFA313055005EFF0E9
:103E1000EFA11305100BEFF0AFA20145EFF00FA1DA
:103E20006945EFF0AFA01305600BEFF06FA12945D6
:103E3000EFF0CF9F1305200AEFF04F9F1305200FDF
:103E4000EFF00FA00145EFF06F9E13056002EFF059
:103E50002F9F0545EFF08F9D1305000EEFF04F9E4D
:103E60003D45EFF0AF9C1305A002EFF02F9C13052A
:103E70008002EFF0AF9B2145EFF04F9B3945EFF00B
:103E8000EF9A2145EFF08F9A13054005EFF00F9A56
:103E90001305900AEFF08F9913053004EFF00F9996
:103EA0002945EFF0AF983D45EFF04F980145EFF011
:103EB000EF970145EFF08F970145EFF02F97014500
:103EC000EFF0CF961305100EEFF08F970145EFF04E
:103ED000EF955545EFF08F955D45EFF02F951D451A
:103EE000EFF0CF944545EFF06F941945EFF00F9444
:103EF0001305B002EFF08F9313056005EFF00F93F9
:103F00001305C003EFF08F921545EFF02F92414556
:103F1000EFF0CF913D45EFF06F911305F003EFF017
:103F2000EF901305F003EFF06F903D45EFF00F9029
:103F30001305B002EFF0CF900145EFF02F8F014550
:103F4000EFF0CF8E0545EFF06F8E1305F003EFF025
:103F5000EF8D1305A002EFF0AF8E0145EFF00F8D4E
:103F60000145EFF0AF8C0145EFF04F8C1305F00EDB
:103F7000EFF0CF8B4545EFF0AF8C13058007EFF0E6
:103F80002F8613059002EFF0AF8B6FC0CFC3EFC247
:103F90004FC11305D00EEFF0AF8A0545EFF00F8942
:103FA0001305E00FEFF08F881305E00EEFF04F8957
:103FB0001305E00DEFF08F8713051002EFF00F8768
:103FC0001305100FEFF0CF870545EFF02F8613058F
:103FD000F00DEFF0EF864145EFF04F851305400CF3
:103FE000EFF00F861305F008EFF04F841305600C17
:103FF000EFF00F850145EFF06F831305200EEFF012
:10400000EF821305200EEFF06F821305200EEFF004
:10401000EF811305F00BEFF0AF821305A00AEFF06C
:10402000EF801305000BEFF0AF813545EFF00F8007
:104030000145EFE0BFFF3545EFE05FFF0145EFE0F1
:10404000FFFE4545EFE09FFE0145EFE03FFE654581
:10405000EFE0DFFD0145EFE07FFD13051002EFE02B
:10406000FFFC0145EFE09FFC1305D002EFE01FFCD1
:104070000145EFE0BFFB1305D003EFE03FFB014537
:10408000EFE0DFFA1305D005EFE05FFA0145EFE05E
:10409000FFF91305D005EFE07FF90145EFE01FF9C7
:1040A0001305100BEFE0DFF913050008EFE01FF830
:1040B0000145EFE0BFF71305B008EFE03FF701451A
:1040C000EFE0DFF613056009EFE05FF60145EFE092
:1040D000FFF51305200BEFE0BFF60145EFE01FF5FC
:1040E0000145EFE0BFF40945EFE05FF40145EFE083
:1040F000FFF30D45EFE09FF30145EFE03FF31305BC
:10410000300BEFE0FFF30145EFE05FF20145EFE038
:10411000FFF10145EFE09FF10145EFE03FF101457F
:10412000EFE0DFF00145EFE07FF00145EFE01FF049
:104130000145EFE0BFEF0145EFE05FEF0145EFE044
:10414000FFEE0145EFE09FEE0145EFE03FEE014558
:10415000EFE0DFED0145EFE07FED0145EFE01FED22
:104160000145EFE0BFEC0145EFE05FEC0145EFE01A
:10417000FFEB0145EFE09FEB0145EFE03FEB014531
:10418000EFE0DFEA0145EFE07FEA0145EFE01FEAFB
:104190000145EFE0BFE91305400BEFE07FEA1305AF
:1041A000B008EFE0BFE80145EFE05FE81305600904
:1041B000EFE0DFE70145EFE07FE71305100AEFE0EE
:1041C000FFE60145EFE09FE61305500BEFE05FE7E8
:1041D0000945EFE0BFE50145EFE05FE50D45EFE0A4
:1041E000FFE40145EFE09FE41145EFE03FE40145C6
:1041F000EFE0DFE31305600BEFE09FE40145EFE044
:10420000FFE20145EFE09FE21305700BEFE05FE393
:104210000145EFE0BFE10145EFE05FE11305F00389
:10422000EFE0DFE00145EFE07FE01305E005EFE0C0
:10423000FFDF0145EFE09FDF13054006EFE01FDFE2
:104240000145EFE0BFDE1305C008EFE03FDE0145AA
:10425000EFE0DFDD1305C00AEFE05FDD0145EFE0D1
:10426000FFDC1305C00DEFE07FDC0145EFE01FDC54
:1042700013050007EFE09FDB0145EFE03FDB13058F
:104280000009EFE0BFDA0145EFE05FDA1305B00E99
:10429000EFE0DFD90145EFE07FD91305C00DEFE076
:1042A000FFD80145EFE09FD81305800BEFE05FD901
:1042B0000145EFE0BFD70145EFE05FD70145EFE0F3
:1042C000FFD60145EFE09FD60145EFE03FD601451F
:1042D000EFE0DFD50145EFE07FD50145EFE01FD5E9
:1042E0001305A00BEFE0DFD513054002EFE01FD46C
:1042F0000145EFE0BFD30145EFE05FD30145EFE0BB
:10430000FFD21305100CEFE0BFD313050002EFE05E
:10431000FFD10145EFE09FD113054005EFE01FD12C
:104320000145EFE0BFD01305F00FEFE03FD00145AE
:10433000EFE0DFCF1305200CEFE09FD02945EFE041
:10434000FFCE0145EFE09FCE1145EFE03FCE0145A6
:10435000EFE0DFCD1305300CEFE09FCE1305C00377
:10436000EFE0DFCC0145EFE07FCC1305A003EFE0E9
:10437000FFCB0145EFE09FCB13059003EFE01FCB90
:104380000145EFE0BFCA13057003EFE03FCA0145E6
:10439000EFE0DFC91305C003EFE05FC90145EFE0BF
:1043A000FFC813056003EFE07FC80145EFE01FC8B9
:1043B00013052003EFE09FC70145EFE03FC713055A
:1043C000F002EFE0BFC60145EFE05FC61305C00293
:1043D000EFE0DFC50145EFE07FC513059002EFE098
:1043E000FFC40145EFE09FC413056002EFE01FC466
:1043F0000145EFE0BFC313054002EFE03FC30145B5
:10440000EFE0DFC213054002EFE05FC20145EFE0DD
:10441000FFC113053002EFE07FC10145EFE01FC18E
:104420001305C003EFE09FC00145EFE03FC0130557
:104430006003EFE0BFBF0145EFE05FBF130520035E
:10444000EFE0DFBE0145EFE07FBE1305F002EFE0D5
:10445000FFBD0145EFE09FBD1305C002EFE01FBDAA
:104460000145EFE0BFBC13059002EFE03FBC014502
:10447000EFE0DFBB13056002EFE05FBB0145EFE05B
:10448000FFBA13054002EFE07FBA0145EFE01FBA23
:1044900013054002EFE09FB90145EFE03FB9130576
:1044A0003002EFE0BFB80145EFE05FB81305400C04
:1044B000EFE01FB913052006EFE05FB70145EFE01D
:1044C000FFB61545EFE09FB60145EFE03FB6130597
:1044D0004008EFE0BFB50145EFE05FB51305000F01
:1044E000EFE0DFB40145EFE07FB46145EFE01FB4DA
:1044F0000145EFE0BFB31305400AEFE03FB30145CC
:10450000EFE0DFB26145EFE07FB20145EFE01FB2BF
:1045100013050005EFE09FB10145EFE03FB13145E4
:10452000EFE0DFB00145EFE07FB05D45EFE01FB0A9
:104530000145EFE0BFAF13055009EFE03FAF014584
:10454000EFE0DFAE1305300FEFE05FAE0145EFE0C7
:10455000FFAD1305600EEFE07FAD0145EFE01FAD4D
:104560001305500CEFE0DFAD13052003EFE01FACA7
:104570000145EFE0BFAB13054004EFE03FAB014561
:10458000EFE0DFAA13055006EFE05FAA0145EFE078
:10459000FFA913056007EFE07FA90145EFE01FA920
:1045A00013058008EFE09FA80145EFE03FA8130541
:1045B000600CEFE0FFA813050002EFE03FA7014504
:1045C000EFE0DFA65D45EFE07FA60145EFE01FA627
:1045D0000545EFE0BFA50145EFE05FA51305700CB1
:1045E000EFE01FA60145EFE07FA40145EFE01FA427
:1045F0000145EFE0BFA30145EFE05FA31305800C89
:10460000EFE01FA40145EFE07FA20145EFE01FA20C
:104610000145EFE0BFA10145EFE05FA11305900C5C
:10462000EFE01FA20145EFE07FA00145EFE01FA0F2
:104630000145EFE0BF9F0145EFE05F9F0145EFE0DF
:10464000FF9E0145EFE09F9E0145EFE03F9E014543
:10465000EFE0DF9D0145EFE07F9D0145EFE01F9D0D
:104660000145EFE0BF9C0145EFE05F9C0145EFE0B5
:10467000FF9B0145EFE09F9B0145EFE03F9B01451C
:10468000EFE0DF9A1305000EEFE09F9B5945EFE046
:10469000FF990145EFE09F997145EFE03F99014592
:1046A000EFE0DF9813051002EFE05F980145EFE0BF
:1046B000FF9713056003EFE07F970145EFE01F9739
:1046C00013056004EFE09F960145EFE03F96130568
:1046D0002005EFE0BF950145EFE05F95130540062B
:1046E000EFE0DF940145EFE07F941305A007EFE0D2
:1046F000FF930145EFE09F931305B008EFE01F9390
:104700000145EFE0BF9213059009EFE03F920145AC
:10471000EFE0DF911305800AEFE05F910145EFE0E4
:10472000FF901305900BEFE07F900145EFE01F90A5
:104730001305400CEFE09F8F0145EFE03F8F13051D
:10474000A00CEFE0BF8E0145EFE05F8E1305200D5A
:10475000EFE0DF8D0145EFE07F8D1305900DEFE079
:10476000FF8C0145EFE09F8C1305000EEFE01F8CDE
:104770000145EFE0BF8B1305300FEFE03F8B0145A4
:10478000EFE0DF8A1305100EEFE09F8B5945EFE055
:10479000FF890145EFE09F897145EFE03F890145C1
:1047A000EFE0DF8813052002EFE05F880145EFE0CE
:1047B000FF8713056003EFE07F870145EFE01F8768
:1047C00013055004EFE09F860145EFE03F86130597
:1047D0002005EFE0BF850145EFE05F85130540064A
:1047E000EFE0DF840145EFE07F841305A007EFE0F1
:1047F000FF830145EFE09F831305B008EFE01F83BF
:104800000145EFE0BF8213059009EFE03F820145CB
:10481000EFE0DF811305800AEFE05F810145EFE003
:10482000FF801305900BEFE07F800145EFE01F80D4
:104830001305400CEFE08FFF0145EFE02FFF13055C
:10484000A00CEFE0AFFE0145EFE04FFE1305200D99
:10485000EFE0CFFD0145EFE06FFD1305800DEFE0C8
:10486000EFFC0145EFE08FFC1305000EEFE00FFCBD
:104870000145EFE0AFFB1305300FEFE02FFB0145E3
:10488000EFE0CFFA1305200EEFE08FFB1545EFE0C8
:10489000EFF90145EFE08FF92D45EFE02FF90145E4
:1048A000EFE0CFF86D45EFE06FF80145EFE00FF86E
:1048B00013054003EFE08FF70145EFE02FF71305F5
:1048C0004004EFE0AFF60145EFE04FF61305F004CA
:1048D000EFE0CFF50145EFE06FF513051006EFE0CF
:1048E000EFF40145EFE08FF413059007EFE00FF4CC
:1048F0000145EFE0AFF313058008EFE02FF301452A
:10490000EFE0CFF213057009EFE04FF20145EFE061
:10491000EFF11305600AEFE06FF10145EFE00FF1F1
:104920001305700BEFE08FF00145EFE02FF013055A
:10493000200CEFE0AFEF0145EFE04FEF1305700CF7
:10494000EFE0CFEE0145EFE06FEE1305100DEFE065
:10495000EFED0145EFE08FED1305600DEFE00FED9A
:104960000145EFE0AFEC1305D00DEFE02FEC014572
:10497000EFE0CFEB1305300FEFE04FEB0145EFE039
:10498000EFEA1305300EEFE0AFEB1545EFE00FEA6D
:104990000145EFE0AFE92945EFE04FE90145EFE0E0
:1049A000EFE87145EFE08FE80145EFE02FE81305F0
:1049B0003003EFE0AFE70145EFE04FE713054004B8
:1049C000EFE0CFE60145EFE06FE613050005EFE00D
:1049D000EFE50145EFE08FE513052006EFE00FE579
:1049E0000145EFE0AFE413058007EFE02FE4014558
:1049F000EFE0CFE313058008EFE04FE30145EFE080
:104A0000EFE213057009EFE06FE20145EFE00FE21E
:104A10001305600AEFE08FE10145EFE02FE1130598
:104A2000700BEFE0AFE00145EFE04FE01305200C25
:104A3000EFE0CFDF0145EFE06FDF1305700CEFE033
:104A4000EFDE0145EFE08FDE1305100DEFE00FDE26
:104A50000145EFE0AFDD1305500DEFE02FDD01451F
:104A6000EFE0CFDC1305D00DEFE04FDC0145EFE0C8
:104A7000EFDB1305300FEFE06FDB0145EFE00FDBFD
:104A80001305400EEFE0CFDB0545EFE02FDA0145DF
:104A9000EFE0CFD90545EFE06FD90145EFE00FD941
:104AA0000945EFE0AFD80145EFE04FD81305A0026C
:104AB000EFE0CFD70145EFE06FD71305C003EFE07C
:104AC000EFD60145EFE08FD61305B004EFE00FD627
:104AD0000145EFE0AFD51305D005EFE02FD5014537
:104AE000EFE0CFD413054007EFE04FD40145EFE0EE
:104AF000EFD313054008EFE06FD30145EFE00FD38C
:104B000013053009EFE08FD20145EFE02FD21305F6
:104B1000200AEFE0AFD10145EFE04FD11305300B94
:104B2000EFE0CFD00145EFE06FD01305E00BEFE0F1
:104B3000EFCF0145EFE08FCF1305400CEFE00FCF33
:104B40000145EFE0AFCE1305D00CEFE02FCE0145CD
:104B5000EFE0CFCD1305300DEFE04FCD0145EFE095
:104B6000EFCC1305D00DEFE06FCC0145EFE00FCC9B
:104B70001305300FEFE08FCB0145EFE02FCB13058E
:104B8000500EEFE0EFCB0145EFE04FCA0145EFE0FB
:104B9000EFC90145EFE08FC90145EFE02FC9094595
:104BA000EFE0CFC80145EFE06FC813059002EFE0DA
:104BB000EFC70145EFE08FC71305C003EFE00FC754
:104BC0000145EFE0AFC61305B004EFE02FC6014585
:104BD000EFE0CFC51305D005EFE04FC50145EFE08D
:104BE000EFC413054007EFE06FC40145EFE00FC4C9
:104BF00013054008EFE08FC30145EFE02FC3130515
:104C00003009EFE0AFC20145EFE04FC21305200AC3
:104C1000EFE0CFC10145EFE06FC11305300BEFE0CE
:104C2000EFC00145EFE08FC01305E00BEFE00FC0D0
:104C30000145EFE0AFBF1305400CEFE02FBF01458A
:104C4000EFE0CFBE1305D00CEFE04FBE0145EFE023
:104C5000EFBD1305300DEFE06FBD0145EFE00FBD77
:104C60001305C00DEFE08FBC0145EFE02FBC13052D
:104C7000300FEFE0AFBB0145EFE04FBB1305600E17
:104C8000EFE00FBC4545EFE06FBA0145EFE00FBA2A
:104C900013054003EFE08FB90145EFE02FB913058D
:104CA0006005EFE0AFB80145EFE04FB813056007CE
:104CB000EFE0CFB70145EFE06FB713057007EFE006
:104CC000EFB60145EFE08FB613056006EFE00FB6D3
:104CD0000145EFE0AFB513058008EFE02FB50145C2
:104CE000EFE0CFB413059009EFE04FB40145EFE0DA
:104CF000EFB31305B00BEFE06FB30145EFE00FB377
:104D000013059009EFE08FB20145EFE02FB21305D4
:104D10006006EFE0AFB10145EFE04FB1130550057C
:104D2000EFE0CFB00145EFE06FB013055005EFE0C5
:104D3000EFAF0145EFE08FAF13055004EFE00FAF89
:104D40000145EFE0AFAE13053004EFE02FAE0145B3
:104D5000EFE0CFAD13054004EFE04FAD0145EFE0CC
:104D6000EFAC1305700EEFE0AFAD13052003EFE0DD
:104D7000EFAB0145EFE08FAB13055005EFE00FAB54
:104D80000145EFE0AFAA13056007EFE02FAA014548
:104D9000EFE0CFA913056006EFE04FA90145EFE072
:104DA000EFA813057006EFE06FA80145EFE00FA82C
:104DB00013057006EFE08FA70145EFE02FA713055D
:104DC0007008EFE0AFA60145EFE04FA6130590098C
:104DD000EFE0CFA50145EFE06FA51305B00BEFE0C5
:104DE000EFA40145EFE08FA413059009EFE00FA4B5
:104DF0000145EFE0AFA313057007EFE02FA30145D6
:104E0000EFE0CFA213054004EFE04FA20145EFE031
:104E1000EFA113056005EFE06FA10145EFE00FA1E1
:104E200013053002EFE08FA00145EFE02FA013053E
:104E30003003EFE0AF9F0145EFE04F9F13055004B3
:104E4000EFE0CF9E0145EFE06F9E1305800EEFE08F
:104E50002F9F0145EFE08F9D0145EFE02F9D13054A
:104E60009009EFE0AF9C0145EFE04F9C13057008FF
:104E7000EFE0CF9B0145EFE06F9B13058008EFE06B
:104E8000EF9A0145EFE08F9A13057007EFE00F9A54
:104E90000145EFE0AF9913056006EFE02F9901455A
:104EA000EFE0CF9813058008EFE04F980145EFE061
:104EB000EF971305A00AEFE06F970145EFE00F971A
:104EC0001305B00BEFE08F960145EFE02F96130529
:104ED0009009EFE0AF950145EFE04F9513056006AF
:104EE000EFE0CF940145EFE06F9413055005EFE03C
:104EF000EF930145EFE08F9313055005EFE00F931B
:104F00000145EFE0AF9213054004EFE02F92014519
:104F1000EFE0CF9113054004EFE04F910145EFE042
:104F2000EF9013055005EFE06F900145EFE00F9013
:104F30001305900EEFE0CF901305A00AEFE00F8F5E
:104F40000145EFE0AF8E0145EFE04F8E0145EFE008
:104F5000EF8D0145EFE0CF8E1305A00AEFE00F8D36
:104F60001305F00CEFE0CF8D0145EFE02F8C0145EC
:104F7000EFE0CF8B0145EFE06F8B0145EFE00F8B4A
:104F80000145EFE0AF8A0145EFE04F8A0145EFE0D0
:104F9000EF890145EFE08F890145EFE02F89014559
:104FA000EFE0CF880145EFE06F880145EFE00F8823
:104FB0000145EFE0AF870145EFE04F870145EFE0A6
:104FC000EF860145EFE08F860145EFE02F86130560
:104FD000000FEFE0EF860145EFE04F851305000578
:104FE000EFE0CF840145EFE06F840145EFE00F84EF
:104FF0000145EFE0AF831305300FEFE06F8401450B
:10500000EFE0CF821305900FEFE08F831945EFE0BB
:10501000EF814145EFE08F8113059002EFE00F81B2
:105020000145EFE0AF801305A003EFE06F811305AA
:105030005005EFD0BFFF4545EFE08F8013054006D8
:10504000EFD01FFA13059002EFD09FFF1305500316
:10505000EFD01FFF0145EFD07FFD13051005EFD006
:105060003FFE1305F00FEFD07FFC13053005EFD0A6
:105070003FFD1305C002EFD07FFB13055005EFD0B5
:105080003FFC13052008EFD07FFA1305C002EFD0D4
:105090003FFB6FB04FB3EFB2CFB04545EFD05FFAF3
:1050A00013058007EFD0DFF313056003EFD05FF93E
:1050B00013058004EFD09FF71305A003EFD05FF82E
:1050C00013055005EFD09FF61305000FEFD05FF7E3
:1050D0001305300CEFD09FF51305000FEFD05FF6EE
:1050E00013056009EFD09FF41305400BEFD05FF577
:1050F0000545EFD0BFF31305600BEFD07FF42945D2
:10510000EFD0DFF21305200AEFD05FF21305700B2A
:10511000EFD01FF31305600CEFD05FF11305900B78
:10512000EFD01FF20945EFD07FF01305000EEFD04E
:10513000FFEF1305000CEFD0BFF013050008EFD010
:10514000FFEE5945EFD09FEE1305100CEFD05FEF47
:105150006545EFD0BFED1305200CEFD07FEE1305B2
:10516000700AEFD0BFEC1305500CEFD07FED59451E
:10517000EFD0DFEB1305800EEFD09FEC130500049A
:10518000EFD0DFEA1305A008EFD05FEA0145EFD0CA
:10519000FFE90145EFD09FE913059002EFD01FE929
:1051A0006545EFD0BFE81305500AEFD03FE813057F
:1051B0003003EFD0BFE71305000EEFD07FE81305F3
:1051C000000FEFD0BFE61D45EFD05FE63545EFD0CD
:1051D000FFE51145EFD09FE51545EFD03FE551457F
:1051E000EFD0DFE413056003EFD05FE41305400563
:1051F000EFD0DFE31305C004EFD05FE313058003B6
:10520000EFD0DFE24D45EFD07FE25145EFD01FE216
:105210001305E002EFD09FE113054003EFD01FE13B
:105220001305100EEFD0DFE11305000FEFD01FE0E4
:105230004145EFD0BFDF5145EFD05FDF3945EFD0BB
:10524000FFDE3145EFD09FDE2145EFD03FDE130575
:105250005003EFD0BFDD13054004EFD03FDD130551
:10526000C004EFD0BFDC13056002EFD03FDC414546
:10527000EFD0DFDB4945EFD07FDB1305C002EFD075
:10528000FFDA13052003EFD07FDA1305000FEFD00C
:105290003FDB1305C003EFD07FD91305000FEFD01C
:1052A0003FDA13059006EFD07FD813058007EFD0C3
:1052B0003FD313051002EFD0BFD813059002EFD0F3
:1052C0003FD86FB04F90EFB2CF8D930550053D653D
:1052D000EFD07FD83D64130514009305A00AEFD0EA
:1052E0009FD71305240093052005EFD0DFD61305C3
:1052F0003400A145EFD03FD6130544008545EFD0DB
:105300009FD5B5452D652D64EFD0FFD4130514004E
:10531000B545EFD05FD413052400B545EFD0BFD31A
:105320001305046093054003EFD0FFD2130514600A
:1053300093054003EFD03FD213052460930540034B
:10534000EFD07FD113050410B545EFD0DFD01305A2
:105350001410B545EFD03FD013052410B545EFD05C
:105360009FCF1305047093054003EFD0DFCE1305E4
:10537000147093054003EFD01FCE130524709305DE
:105380004003EFD05FCD130504208145EFD0BFCCA3
:10539000130514208145EFD01FCC1305242081452F
:1053A000B164EFD05FCB1385048093054002EFD04A
:1053B0009FCA1385148093054002EFD0DFC913857F
:1053C000248093054002EFD01FC9138504F0854562
:1053D000EFD07FC813050430BD45EFD0DFC71305FC
:1053E0001430BD45EFD03FC713052430BD45EFD085
:1053F0009FC61385049093054003EFD0DFC5138546
:10540000149093054003EFD01FC513852490930596
:105410004003EFD05FC413050450A145EFD0BFC3D4
:1054200013051450A145EFD01FC313052450A14507
:10543000EFD07FC2138504208D45EFD0DFC11385E7
:1054400004A093054002EFD01FC1138514A093055B
:105450004002EFD05FC0138524A093054002EFD037
:105460009FBF138504C08145EFD0FFBE138514C0D4
:1054700093058007EFD03FBE138524C08145EFD050
:105480009FBD138504D08145EFD0FFBC138514D098
:1054900093058007EFD03FBC138524D08145EFD022
:1054A0009FBB138504E08145EFD0FFBA138514E05C
:1054B000930540063564EFD01FBA130504108145EB
:1054C000EFD07FB91305141093053003EFD0BFB8A8
:1054D000130524108145EFD01FB813053410930530
:1054E0004003EFD05FB7130544108145EFD0BFB63E
:1054F000130554109305A003EFD0FFB513056410F6
:105500008145EFD05FB5130574109305A004EFD06B
:105510009FB4130584108145EFD0FFB31305941099
:105520009305C005EFD03FB31305A4108145EFD01C
:105530009FB21305B41093051008EFD0DFB1130527
:10554000C4108145EFD03FB11305D4109305600A14
:10555000EFD07FB01305E4108145EFD0DFAF130526
:10556000F4109305500EEFD01FAF130504118545BD
:10557000EFD07FAE13051411CD45EFD0DFAD13058D
:1055800024118545EFD03FAD130534119305400537
:10559000EFD07FAC130544118545EFD0DFAB130589
:1055A000541193052008EFD01FAB130564118545F6
:1055B000EFD07FAA130574119305A00CEFD0BFA9FB
:1055C000130584118945EFD01FA913059411814556
:1055D000EFD07FA81305A4118945EFD0DFA71305ED
:1055E000B4118545EFD03FA71305C4118945EFD00D
:1055F0009FA61305D41193054003EFD0DFA5130533
:10560000E4118945EFD03FA51305F4119305700609
:10561000EFD07FA4130504128945EFD0DFA3130553
:10562000141293054008EFD01FA3130524128945D7
:10563000EFD07FA2130534129305400AEFD0BFA12B
:10564000130544128945EFD01FA113055412930589
:10565000700BEFD05FA0130564128945EFD0BF9F98
:10566000130574129305F00CEFD0FF9E13058412FE
:105670008945EFD05F9E130594129305E00DEFD09E
:105680009F9D1305A4128945EFD0FF9C1305B4120A
:105690009305200FEFD03F9C1305C4128945EFD02E
:1056A0009F9B1305D4129305E00FEFD0DF9A1305EB
:1056B000E4128D45EFD03F9A1305F412C145EFD0A7
:1056C0009F99130504138D45EFD0FF98130514130C
:1056D00093053003EFD03F98130524138D45EFD089
:1056E0009F97130534139305D006EFD0DF9613056B
:1056F00004208145EFD03F96130514209305300315
:10570000EFD07F95130524208145EFD0DF9413055A
:10571000342093054003EFD01F94130544208145A6
:10572000EFD07F93130554209305A003EFD0BF92D1
:10573000130564208145EFD01F9213057420930553
:10574000A004EFD05F91130584208145EFD0BF9076
:10575000130594209305C005EFD0FF8F1305A420F7
:105760008145EFD05F8F1305B42093051008EFD06B
:105770009F8E1305C4208145EFD0FF8D1305D420E3
:105780009305600AEFD03F8D1305E4208145EFD0EB
:105790009F8C1305F4209305500EEFD0DF8B13057B
:1057A00004218545EFD03F8B13051421CD45EFD063
:1057B0009F8A130524218545EFD0FF8913053421E5
:1057C00093054005EFD03F89130544218545EFD06F
:1057D0009F881305542193052008EFD0DF87130518
:1057E00064218545EFD03F87130574219305A00CF4
:1057F000EFD07F86130584218945EFD0DF8513051F
:1058000094218145EFD03F851305A4218945EFD030
:105810009F841305B4218545EFD0FF831305C42170
:105820008945EFD05F831305D42193054003EFD062
:105830009F821305E4218945EFD0FF811305F421F0
:1058400093057006EFD03F81130504228945EFD000
:105850009F801305142293054008EFD0CFFF130556
:1058600024228945EFD02FFF130534229305400AE7
:10587000EFD06FFE130544228945EFD0CFFD13050D
:1058800054229305700BEFD00FFD13056422894558
:10589000EFD06FFC130574229305F00CEFD0AFFB33
:1058A000130584228945EFD00FFB1305942293053D
:1058B000E00DEFD04FFA1305A4228945EFD0AFF9E0
:1058C0001305B4229305200FEFD0EFF81305C4227F
:1058D0008945EFD04FF81305D4229305E00FEFD0A0
:1058E0008FF71305E4228D45EFD0EFF61305F42270
:1058F000C145EFD04FF6130504238D45EFD0AFF52A
:105900001305142393053003EFD0EFF4130524237C
:105910008D45EFD04FF4130534239305D006EFD017
:105920008FF3130504308145EFD0EFF213051430E7
:1059300093053003EFD02FF2130524308145EFD0CB
:105940008FF11305343093054003EFD0CFF01305EA
:1059500044308145EFD02FF0130554309305A00358
:10596000EFD06FEF130564308145EFD0CFEE130514
:1059700074309305A004EFD00FEE130584308145F9
:10598000EFD06FED130594309305C005EFD0AFEC69
:105990001305A4308145EFD00FEC1305B430930507
:1059A0001008EFD04FEB1305C4308145EFD0AFEABC
:1059B0001305D4309305600AEFD0EFE91305E43006
:1059C0008145EFD04FE91305F4309305500EEFD029
:1059D0008FE8130504318545EFD0EFE71305143147
:1059E000CD45EFD04FE7130524318545EFD0AFE625
:1059F0001305343193054005EFD0EFE5130544312D
:105A00008545EFD04FE51305543193052008EFD0BD
:105A10008FE4130564318545EFD0EFE3130574314E
:105A20009305A00CEFD02FE3130584318945EFD007
:105A30008FE2130594318145EFD0EFE11305A431D6
:105A40008945EFD04FE11305B4318545EFD0AFE084
:105A50001305C4318945EFD00FE01305D431930508
:105A60004003EFD04FDF1305E4318945EFD0AFDEBF
:105A70001305F43193057006EFD0EFDD1305043202
:105A80008945EFD04FDD1305143293054008EFD060
:105A90008FDC130524328945EFD0EFDB1305343258
:105AA0009305400AEFD02FDB130544328945EFD030
:105AB0008FDA130554329305700BEFD0CFD913054D
:105AC00064328945EFD02FD9130574329305F00C59
:105AD000EFD06FD8130584328945EFD0CFD71305A7
