:040000006F70705C51
:1000040000000000000000007E7900009E790000DE
:1000140000000000C47D000000000000000000009B
:10002400C47D0000C47D000000000000000000004A
:1000340048300000000000009002000000000000B2
:10004400C47D0000C47D0000C47D0000C47D0000A8
:10005400C47D0000C47D0000E66F00000E70000047
:10006400367000005E70000086700000C47D0000E1
:10007400C47D0000C47D0000C47D0000C47D000078
:10008400C47D0000C47D0000C47D0000C47D000068
:10009400C47D0000C47D0000C47D0000AE7000007B
:1000A400C47D0000C47D0000C47D0000C47D000048
:1000B400C47D0000C47D0000C47D0000C47D000038
:1000C400C47D0000C47D0000C47D0000C47D000028
:1000D400C47D0000E0730000C47D0000C47D000006
:1000E40026710000C47D0000C47D0000C47D0000B2
:1000F400C47D0000C47D0000C47D0000C47D0000F8
:1001040000000000C47D0000C47D0000C47D000028
:10011400C47D0000C47D0000C47D0000C47D0000D7
:10012400C47D0000C47D0000C47D0000C47D0000C7
:10013400C47D0000C47D0000C47D0000C47D0000B7
:10014400C47D0000C47D0000C47D0000C47D0000A7
:10015400C47D0000C47D0000C47D0000C47D000097
:10016400C47D0000C47D0000C47D0000C47D000087
:10017400C47D0000C47D0000C47D0000C47D000077
:10018400C47D0000C47D0000C47D0000C47D000067
:10019400C47D0000C47D0000C47D0000C47D000057
:1001A400000000000000000000000000000000004B
:0C01B4000000000000000000000000003F
:1001C00097020120938202E4938202E0739002344A
:1001D00003210500224573100530B1A819712320B1
:1001E000250006C006C216CAF322003093F2820030
:1001F000638402009302000816C412C81ACC1ECEF3
:1002000022D026D22AD42ED632D836DA3ADC3EDEB6
:10021000C2C0C6C2CAC4CEC6D2C8D6CADACCDECE26
:10022000E2D0E6D2EAD4EED6F2D8F6DAFADCFEDE96
:1002300003A1050009A002457310153492403785CB
:10024000000013050580732005302245732005301A
:100250004242D2426243F243025492542255B25572
:100260004256D2566257F257064896482649B64932
:10027000464AD64A664BF64B065C965C265DB65DF2
:10028000465ED65E665FF65F09617300203000004F
:10029000197116CA9302000816C49302000273A0D3
:1002A000428006C212C81ACC1ECE22D026D22AD430
:1002B0002ED632D836DA3ADC3EDEC2C0C6C2CAC456
:1002C000CEC6D2C8D6CADACCDECEE2D0E6D2EAD4E6
:1002D000EED6F2D8F6DAFADCFEDE73110134EF0066
:1002E0002062EF10F014EF00606473110134138486
:1002F000018B0329040063040902232004007325F1
:1003000010342AC01384818A044023A0240013845B
:10031000C18A044003A104000245731015349240C1
:10032000B78200009382028073A00230A24273A0C1
:1003300002304242D2426243F24302549254225566
:10034000B2554256D2566257F25706489648264949
:10035000B649464AD64A664BF64B065C965C265D25
:10036000B65D465ED65E665FF65F0961730020305B
:100370000000397101436EC619A0397141536AC832
:1003800066CA62CC5ECE19A0397101535AD056D2DA
:1003900052D44ED64AD826DA22DC06DE330161403A
:1003A000828241114AC026C222C406C68282B24D50
:1003B0004101024D924C224CB24B4101024B924AF8
:1003C000224AB2494101024992442244B2404101C9
:1003D00082803D432A876373C3029377F700BDEFA2
:1003E000ADE5937606FF3D8ABA960CC34CC30CC7A5
:1003F0004CC74107E36BD7FE11E28280B306C340CE
:100400008A069702000096966780A6002307B70029
:10041000A306B7002306B700A305B7002305B7005E
:10042000A304B7002304B700A303B7002303B70056
:10043000A302B7002302B700A301B7002301B7004E
:10044000A300B7002300B700828093F5F50F9396C1
:100450008500D58D93960501D58D61B793962700BC
:100460009702000096968682E78086FA9680C117EA
:100470001D8F3E96E374C3F8A5B703A50182828061
:10048000EFF23FF2938701829843050798C3EF107C
:10049000803D3C45FD173CC589E77C413CC5EF10DC
:1004A0004041EF10406C05B7634205029307803E60
:1004B0003347F5023365F5023305F5021305753E42
:1004C0003345F5023307F7023A9582807D558280E5
:1004D00001458280014582800145828001458280FC
:1004E000EFF23FEC37340200B73402001304441A31
:1004F0009384041B63639400F9B51C401104829734
:10050000D5BFEFF21FEA37340200B73402001304FC
:10051000041B9384C41B6363940075B51C401104D1
:100520008297D5BFEFF2FFE7E93FEF70E05361BD7F
:10053000EFF23FE7B705000037C50000D147154788
:1005400093060020014693854552130505A0EF1040
:10055000E031EF10604985BDEFF2BFE4EF10206E8F
:10056000EF203027EF00F036EF106067EF108003C8
:10057000C137EF106067092CEF10A0050145A1B548
:10058000EFF23FE2D13F01453DBDEFF2FFDFAA8927
:10059000EF10602D19C1EF10C0152545EF00306C2C
:1005A00044411304450063968400EF10C02B0149B9
:1005B00019A8138944FF2146CE854A85EF00A06E15
:1005C00001E9EF10402A19C1EF1000144A85FDB36C
:1005D0008440D1BF09E57D5582807D55EDB3EFF2B2
:1005E0005FDC2A842E853289AE8445377DF52285ED
:1005F0002686A545EF0050690145231C2401230EE2
:100600000400231D0400D9BFEFF2BFD91E2D4111F4
:100610002A84C18B9DE71C558DC32EC68297AA8460
:10062000B24501CD2A8637C50000A285130585A0F5
:10063000EF00B0232685410179B31E2C93E7070113
:100640001EAC1E2CA18B89C73E2CE554A18BFDF35B
:100650005C5489CF22858297AA8405E13E2C93E7DA
:1006600087003EAC5C2C85075CACE9B78567938757
:10067000F7F0FD8D2EAC8144D5B7E957E31CF5FAB0
:10068000F1BF5C2D85CBEFF2DFD1FD1793F7F70FAC
:100690005CAD2A84014789EF1C5989E70147231D76
:1006A000040039A082972A8775D9E957E309F5FE36
:1006B0003A8511BB7D573A858280EFF29FCE582D47
:1006C00009E77D552129014521A05C5999C38297ED
:1006D000DDB96955C5BFEFF2DFCC582D09E77D556F
:1006E000F52E014521A01C5D99C38297E9B9695592
:1006F000C5BF0CD101458280EFF21FC99389C18724
:10070000854A83A7C18763863705EF10405383A7C7
:10071000C1872A8A638D370303A4C1875C401840D0
:100720001309C4FE5CC398C340C000C0EF00707CD6
:100730007C5099C34A8582974A85EF003066631BD7
:1007400055014A85EF00305AEF00107C5285EF10BA
:10075000C04FADB1EF00507B5285EF10004F4848BD
:10076000EF0050454A85EF00506061BFEFF27FC354
:1007700013844195130904011C4091C3829711040D
:10078000E31C24FF953FEDB7EFF2BFC13706000031
:10079000B7C50000930800023D4893070020138767
:1007A000419681461306C676938505A41385418D2F
:1007B000EF1040081385418DEF10002329B1EFF2AF
:1007C0005FBE41112A842E8532C62EC4EF108013DD
:1007D0003246A24519C68547630DF6000145410121
:1007E000DDB65840938745011CC398CD5CC0C0C995
:1007F000F5B71C406388870083C6550303C71702FB
:1008000063FAE600D4431387450198C294CDD8C358
:10081000DCC9E9B79C43F9BFEFF2BFB84111B2841C
:100820002E8689452A8436C6EF001046B2469307C5
:1008300044011CCC5CC846AC14B40145410161B60E
:10084000EFF29FB483A7818641112EC62A8491C3FB
:100850008297EF10C03E5E2CAA8989CFFD175EAC4F
:10086000EF10A03E83A74186014591CB2285829758
:10087000014531A0B24791E7EF10203D7955410184
:1008800035BEEF00507E232805021034AA85AA84C5
:10089000130544012D37B247635CF0001389C4048B
:1008A000700081454A85EF1080284A85EF10201D91
:1008B0004E85EF108039EF009054885845D5C1B768
:1008C000EFF23FAE83A701862A8491C38297EF108F
:1008D0000037AA84484893074401630EF500311598
:1008E000EF10C00B05442685EF10203619C0EF002D
:1008F00010510145C9BC5E2C85075EAC0144E5B7CB
:10090000EFF23FAA4111EF1080331387C1821C23FD
:10091000850793F7F70F1CA383A7418281C72AC6D7
:1009200082973245EF106032410171BCEFF27FA730
:100930004111EF10C0301387C1821C23FD1793F7BC
:10094000F70F1CA383A7818281C72AC682973245ED
:10095000EF10A02F410185BC03C5C182828093782E
:1009600008044111639E0800B1689388C8BE937360
:100970000801638B03001378E8FF930E000219A8A7
:10098000B168938888B4E5B713731800930E000319
:10099000E30503FE13732800630E03066358060283
:1009A0003306C0409302D0020A8E814F294F6395CF
:1009B000E6073373D6023356D60246930343030049
:1009C000850F050EA30F6EFE7DF20DA01373480078
:1009D0009302B0026317030093728800B332500091
:1009E000960279F2930600035480854FFE8663D306
:1009F000FF00BE8613781801158F63130804638502
:100A000002006353E0007D172A86B308E500130354
:100A1000000221A88142F1B71373F600118271BF61
:100A20006374B6002300660005063388C840E349B6
:100A300000FF3A866353070001467D173295118FF8
:100A4000638802006374B500230055007D17050517
:100A500063870302AA96130800031DA86374B600F7
:100A60002300D60105063388C840E34900FF3A86D3
:100A70006353070001467D173295118FE1BF2A8627
:100A8000B308E500CDB76374B50023000501050583
:100A90003386A640E3C9CFFEFD56FD1F6383DF000A
:100AA00099E7AA873306E5001308000231A86376A8
:100AB000B5003306F101102210A10505F9BF63F45A
:100AC000B700238007018507B306F640E349D0FE4F
:100AD0006353070001473A9541018280EFF27F8C12
:100AE0002A849D3D09C523A881826FF0DF8DEF0028
:100AF000905775D900D9D5BF0D47AA876376C7002F
:100B00009377350091C7AA873E966397C706828080
:100B100093F7F50F13978700D98F139707015D8F10
:100B2000B308C500AA87BD463388F84063EB0603C7
:100B300093574600C156B386D7029207AA970D482D
:100B400036963383C700BE86B308D340636218036A
:100B500013572600F156B306D7020A07BA973696FE
:100B600065B798C3D8C398C7C10723AEE7FE6DBF6A
:100B7000910623AEE6FEC9BF8507A38FB7FE71B706
:100B80003D47AA876377C700B367B5008D8BA5CBB8
:100B9000AA8701476315C708828003A80700C10719
:100BA0004107232807FF03A847FF232A07FF03A8BD
:100BB00087FF232C07FF03A8C7FF232E07FF3388D7
:100BC000F840E3EC06FD9356460013974600B30742
:100BD000E500BA954157B386E602014736968D4641
:100BE0003308E64063C30603135726009316270015
:100BF000B697B695F1563307D7023A9659BFAE87E6
:100C00002A87B388C500BD465DBF3388E5008328C9
:100C100008003388E700110723201801D1B7B386F5
:100C2000E50003880600B386E70005072380060178
:100C300095B763F2A504B386C500637ED5029345DC
:100C4000F6FF8147FD176393F50082803387F60036
:100C5000030807003387C7002A9723000701DDB781
:100C60003387F500830607003307F500850714A3D3
:100C7000E318F6FE82808147E5BF0DC6AA87850589
:100C80000387F5FF85079306F6FFA38FE7FE09EBC1
:100C90003E9685076393C7008280A38F07FED5BF6A
:100CA0003686F1FE828001476314E600814739A849
:100CB000B307E50083860700B387E5009C23B3876D
:100CC000F640E207E18799E30507F9FE3E85828059
:100CD000AA870387070001E73385A740828085073D
:100CE000CDBFEFF28FE92E89B30B250141112A8C7C
:100CF000B68563F5AB001349F5FFFD5BC16937CAE3
:100D000000006284930AB002130B0002FD19130A5B
:100D10004ABE31A8130750026389E7026373740166
:100D20001CA013051400B284138614002A848307C0
:100D30000600EDF363060900637B742F23000400B3
:100D40003305844141016FF0CFE601481307D0021B
:100D5000930630021305000331A0639E5701136808
:100D6000480026868307160093041600E397E7FEE3
:100D700013680801FDB76395670113688800D5B74C
:100D80006395D70013680802E9BF6395A70013684D
:100D90001800C1BF138707FDA54663E6E6040147B7
:100DA000A546294539A03307A70285043E971307B6
:100DB00007FD83870400138607FDE3F6C6FE03865E
:100DC00004009306E002FD57631FD60483871400D6
:100DD000254693861400138507FD6365A60A81479F
:100DE000254529433DA09306A0027D57E399D7FCF2
:100DF0009841930426009105E35307FC3307E04034
:100E0000136808016DBFB38767028506B2979387A1
:100E100007FD03860600930806FDE37615FF63D3FE
:100E200007008147B68483860400130680060145C7
:100E300093F8B6FF6395C80013F5F60F8504038693
:100E40000400930690066303D60663C5C6069306A0
:100E500080056303D61C63C3C6049307500263076F
:100E6000F61A63757401930750021CA0838704006F
:100E7000130514006386071A637375011CB013050C
:100E800024005DB51306A0026397C7009C419386BA
:100E90002400910569B7B684814771B7930630067F
:100EA0006302D60893064006E31DD6FA13682800AD
:100EB000A94699A0930630076303D60C63C5C60202
:100EC0009306F0066300D61693060007E31BD6F8D8
:100ED000FD566315D700136818002147938C450011
:100EE000C14690411DA893065007E303D6FC930822
:100EF0008007C146E31716F71306C006938C45001A
:100F0000E301C5FE13068006E31DC5FC9041937501
:100F10002800639B051033763601DE8522858134F7
:100F2000E68519B51378080163150802BA87930698
:100F3000000229A06373740114A00504FD17E34B9C
:100F4000F0FE9307F7FF6343E00005473387E74070
:100F500005079387450063747401944114A0130539
:100F60001400229713060002B306A7406344D00082
:100F7000BE855DBB6373750110A10505F5B783AC34
:100F80000500138D450063930C00D28C66853EC628
:100F90003AC442C2353BB247AA861248224763553B
:100FA000F00063D3A700BE8613780801631E080013
:100FB000BA871306000231A06373740110A0050400
:100FC000BA877D17E3CAF6FE814763C1D702B687A9
:100FD00063D3060081473305F4002A971306000205
:100FE000B307A74063CFF600EA853DBB3306F400A4
:100FF00063777601B385FC00838505000CA2850725
:10100000E9B76373750110A10505D9BF6373740156
:1010100010A01305140009BB13680804C146E9BDFC
:10102000FD1419B3A146C9BD42064186FDB5A38F83
:101030000BFE39B303A541838280EFF28FB603A97B
:101040004183EFF08FD411CD13844183AA840840EB
:1010500019C1EFF00FE3930530042685EFF0CFDAE6
:1010600004C04A856FF02FB68280397126CA2ED20D
:1010700032D436D62A8654109305F007138541B62C
:101080003EDA36C606CE22CC3AD842DC46DE91396C
:10109000AA8603A5418309E9138541B6F137F240D9
:1010A0006244D244216182802686262D13844183A6
:1010B00093E704043EAD9307F00763F4D70093066B
:1010C000F007138641B68145EFF0EFE01C40A6AF74
:1010D000F9B7EFF20FAD37C500001305C5B571378D
:1010E00037C50000130585B6493737C7000037C537
:1010F00000001307C7B88D4605468D45130585B911
:10110000AD3737C50000130585BB85376FF0AFAB32
:1011100031C5B1661377F50F938686A409C7BA96D1
:10112000882205058280C167938707F0E98F81CB0C
:1011300021851377F50F3697082325058280B70799
:10114000FF00E98F81CB41859377F50FB697882310
:10115000450582806181369508216505828003A757
:10116000C1835C41BA976305F502B62395E283A675
:101170008183638FF6009386018490426313F600A7
:1011800088C2D44354C1DC43B306E540BA9794C740
:101190001045B307C700630FF500B62381EE9386B1
:1011A00001848C426393A5009CC25441D4C35C412A
:1011B0003E9710C78280EFF2CF9E83A5818437C50A
:1011C0000000130505C0553583A5418537C50000CE
:1011D000130545C1593D83A5418437C5000013055A
:1011E00085C261356FF02F9EEFF2AF9B13F7C5FFFD
:1011F000E1462E8663F1E60693073500F19B9306E0
:1012000087FE63EAF6041D8F130687FE23A4C184BC
:10121000896651171384C183938606EAD8C394C3A1
:1012200023A407001CC0BA9723ACF182C966938639
:1012300006EAB7C5000094C3D8C398C781460546DF
:10124000938505CC138541BEEFF00FDD184023A038
:10125000E1846FF04F97AA8537C50000130585CC50
:101260002935C5BFEFF2EF9339C503A78184130475
:10127000350071981389818481446366870EB14774
:101280006373F4003144FD55138541BEEFF04FDB2D
:1012900083A7018483A5C18383280900268533861B
:1012A000B740B3868840138801846368D6001385ED
:1012B00041BEEFF0EFE081447DA0B384C500BA20C9
:1012C00003AE440061E73307CE40930F47FF63EF5F
:1012D0008F0A138F4185938E4184130384018326E3
:1012E0000F0083A30E00138941859382418463EF2D
:1012F0006F061307C4003297896E3383E500938E1F
:101300000EEA2322C3012324C3002320D301054670
:10131000D8C0B2A003264300B108630416012E967C
:1013200018C61387C60022972320E90063F4E30060
:1013300023A0E2000967130707EA9AA0639A9700BF
:1013400083A681830147B22305EE19C32320F80049
:10135000138541BEEFF0CFD683A70185B10481C7C5
:10136000A2852685829726856FF0EF8505463697FC
:10137000B2A02320EF00E3FFE3FA23A0EE005DBF5D
:10138000E385D7FCDC430547AE9775BF728631BF56
:10139000EFF22F813306B5024111328532C6D935BD
:1013A0002A8409C532468145EFF00FF522854101B7
:1013B0006FF06F8145C5EFE23FFD83A7C1842A84AA
:1013C00091C3829783A7C1831389C1836366F4089D
:1013D00083A781836372F408FD55138541BEEFF046
:1013E0002FC6835764FF930944FF81CB035744FF03
:1013F0008967938707EA6301F70237C50000130581
:1014000045C7A531835644FF035664FF37C5000026
:10141000CE85130505C991398967938707EA231A91
:10142000F4FE938701849843231B04FE63F4E900D0
:1014300023A03701138741851C43832684FF4E85F3
:10144000958F83260900B386D940B6971CC3013B0C
:10145000138541BEEFF0CFC66FE05FF68280B7071D
:1014600000209386070001479387070021468C429E
:101470006396A500131547003E9582800507C106B7
:10148000E317C7FE01458280EFE21FF02A842E8514
:10149000AE89328AE9372A89A92C83244900930727
:1014A00049006390F4048D2493E909F8230434017E
:1014B0002146D2852285EFF04FFC83A7818599C311
:1014C00022858297EF00A077032749009307C40085
:1014D0005CC358C42322F90004C8EF0000776FE012
:1014E000FFED84407DBFEFE2DFEB83A7C1852A8457
:1014F00091C3829723040400EF0060745444184899
:101500009307C400D8C214C31CC85CC4EF00E073C6
:101510006FE07FEBEFE25FE72E89AA898937AA8423
:10152000484589332A841DCDD0448145EFF0CFDC76
:10153000214623043401A3040400CA852285EFF068
:10154000CFF383A7818599C322858297EF00206F0F
:10155000D8409307C40091045CC358C49CC004C81D
:10156000EF00A06E22856FE07FE5EFE29FE383A7A7
:10157000C1852A8491C3829723040400EF00206C64
:10158000544418489307C400D8C214C31CC85CC490
:10159000EF00A06B2285393D6FE0FFE20305850077
:1015A0007D818280239C0186938741C01387070831
:1015B000DCC39CC3A107E39DE7FE3D472386E1868C
:1015C00023A8018623A201889387C187DCC39CC31B
:1015D0008280EFE21FDD03A54188EFF07FB37D1528
:1015E00093173500138541C03E9508411307C5FE8A
:1015F000210523A8E186EFE0BFBC6FE0DFDCEFE26E
:101600005FDAEF00C063839781872A89B1E703A57A
:101610004188EFF0FFAF7D1513173500938741C068
:10162000BA9784439387018780439385C4FE6305FB
:10163000B4028CC383A741872386A18699C32285E0
:10164000829783C7C1821305C4019385840093F7F1
:10165000F70F81EBEFE09FB84A85EF00005F6FE086
:101660009FD6EF00E05ECDBFEFE2BFD32A84EF004C
:10167000005D8347440393064401C19B93E7170031
:10168000230AF4028347540313973700938741C01A
:10169000BA97D84314C318CCD4C35CC89387418885
:1016A0009443185C558F98C3EF00205A6FE0BFD168
:1016B000EFE23FCF2A846123184C5448930744013A
:1016C000D8C214C35CC81CCC83475403139737009B
:1016D000938741C0BA979843631AF70013874188EC
:1016E0001C5C144393C7F7FFF58F1CC3B92B6FE045
:1016F0009FCDEFE21FCBA123938781879A23050714
:101700009AA3A1236FE03FCCEFE2BFC90D2B138753
:1017100081871E23FD17C207C1871EA3634BF000FC
:10172000231007001D2383A7018791C3C93D6FE0E4
:101730009FC9212BEDBFEFE2DFC603A40187012380
:10174000AA842285B5379147230AF4021305C404FD
:10175000012E2285A1358547631BF5003C5C81EB9A
:10176000228551332685D521593D6FE0DFC583A6FB
:10177000C1871307440123AEE186D8C29387C1878E
:1017800054C81CCCC5B7EFE2DFC12A845105411112
:1017900008CC48C80CD050D014D43A8658D49305FD
:1017A000300236853EC642C4EFF00FB5585410548F
:1017B0004C5008507117B71600003A96938666731E
:1017C0002D21B24722483726000048CC230BF402D3
:1017D000A30AF402232C04028147232204052324B4
:1017E000040523280402230A0402232C0406232EC2
:1017F00004060147A28613064681A2851305C40488
:101800001D2483A7818899C32285829701454101C0
:101810006FE07FBBEFE2FFB85049144D795718D9FC
:1018200054C21307450190C218CD58C9353DC13B7C
:101830006FE07FB9EFE2FFB64111B2842E86854595
:101840002A84368946C03AC63EC442C2EFF0DFC39E
:10185000024892472247B2464A86A6852285253706
:1018600041016FE05FB603A501878280EFE2DFB13F
:1018700041112E89AA85054532C6B684BA893E8AA9
:10188000EFF05FC92A8411C92685EFF0BF9D32466B
:1018900009E92285EFF07FCD0144228541016FE007
:1018A000FFB1AA865288CE872687CA852285E13D68
:1018B000EDB7EFE21FAF612683A701870546AA8631
:1018C00003C747033D8B631CC702D04B984F630887
:1018D000E60258C210C303C65703938647010E069B
:1018E000138741C094CF3297504314C290CF54C352
:1018F000D8CBA12EEFF0BFD001456FE0DFAC36852D
:10190000A926DDBF834745030547BD8B639FE702DB
:10191000EFE23FA92A84252683474403AA8422852F
:10192000C19B93E72700230AF402EFF07FD8130549
:10193000C404F1222685112E83A70189014581C7A0
:101940002285829701456FE01FA87D558280EFE2D6
:101950005FA541112AC6E52403A401872A892285AF
:1019600055379304C404700081452685C922268515
:1019700039224A85D92CEFF09FC81858F9576314BB
:10198000F70023280402014541016FE0DFA3EFE2E5
:101990005FA1EFE07FB1653F6FE0FFA283474503A2
:1019A0000947BD8B6390E704EFE2BF9F2A84412C77
:1019B0005448184C93074401AA84D8C214C31CCCC1
:1019C0005CC81305C404252A268541242285EFF02E
:1019D000BFC983A7C188014581C722858297014578
:1019E0006FE07F9E7D558280EFE2BF9B834665035B
:1019F00005473317D70018DD0947A30AD502230A84
:101A0000E502693F83A7018799C3EFF05FBF0145F6
:101A10006FE07F9B5449184D93074501D8C214C30A
:101A20001CCD5CC98280EFE2DF974111B2842E8623
:101A3000A9452A8436C63AC43EC2EFF0FFA49247B5
:101A4000B2462247F99B1CB49307440144CC14D0FE
:101A50002324040258D01CCC5CC841016FE0BF961F
:101A6000EFE23F942A84E12AAA84228565372685FD
:101A7000E92A2285EFF03FA701456FE0DF94EFE20E
:101A80005F922A846D2AAA84228569371C342685B0
:101A9000F99B1CB45D2A83A7418699C3228582974E
:101AA000EFE0BF9D5C503E9508D4512A1387018A10
:101AB00003284700370600809387018A1346E6FF14
:101AC00098436315F802938641899042050690C2B7
:101AD0009306440154C358C894C31CCC1C3493E7E8
:101AE00017001CB49D2201456FE0FF8D544B0C5430
:101AF0006385B6008D8EE378D6FCBA87D1B71C35E6
:101B0000858B85C7EFE2FF8983A701862A8491C36D
:101B100082973522AA842285F53D26853D221C34F4
:101B20000145F99B1CB46FE01F8A7D558280854773
:101B30006381F50263C5B70085C10145828089478D
:101B4000638FF5008D47E39AF5FE1C3593E7270078
:101B500009A85C511CC2D5B71C425CD1F9BF1C3529
:101B6000F59B1CB5D9BFEFE25F81EFE01F912A8C96
:101B7000F920B70900802A8A9384018A93C9E9FF72
:101B80008D4B8040631694005285C1206FE07F82A8
:101B900048481309C4FE3305AC40E3E7A9FE83A718
:101BA000818999C34A8582974A85EFF0BFE61C4434
:101BB00048448297EFE07F8C83A7C1892A8C99C320
:101BC0004A858297834754FF13F7E70FA30AE4FE81
:101BD0008D8BE39877FB4A85EFF07FEA5DB79387BB
:101BE000018ADCC39CC3828082801106719A2A8894
:101BF00037C7ADDE130506F8AA871307F7EE631E95
:101C0000F600A167938707882322D6F82324B6FA23
:101C1000232006F92324F6F8828098C39107C5B7DC
:101C200037F700E01C43B7060080D58F1CC38280C5
:101C300037F700E01C43860785831CC3828021653B
:101C4000130505807315053082807310053082807E
:101C5000EFE22FF51387018B18439387018B19E36C
:101C600023A4A18A23A6B18A054798C3553F6FE0F4
:101C70008FF52A87814718436314A7003E85828029
:101C80008507D5BFB707EFBE37E700E093870708A2
:101C90003CC701458280EFE2CFF037C50000130555
:101CA00045D0EFF08FBC01456FE0EFF1EFE26FEF51
:101CB0002A84FD5437C900007D14631494006FE03A
:101CC0008FF01305C946EFF04FBAFDB7EFE2CFEB47
:101CD0000041AA8437C90000B7C90000631494000A
:101CE0006FE0CFED9305C4FE13050947EFF0EFB7A2
:101CF0001C406386970013854947EFF00FB70040FB
:101D0000F1BFEFE20FEA2E89EFE09FFC2A84EFF0AB
:101D10005F9E83240900639C2401EFF0FF9EA1478E
:101D200063C3870011E0214422856FE0CFE913856A
:101D300044FFEFE0FFF96353A4002A848440E1BF2D
:101D4000EFE2AFE30545EFF08FF1B7C900001309EB
:101D500045002A84CA85138589FB6537AA85AA842C
:101D600037C50000138689FB130505FCEFF0EFAFC4
:101D70002685EFF0BFF337C5000013054500EFF0EF
:101D8000CFAE4040B7C90000054A894A37CB0000B2
:101D9000B7CB000037CC0000B7CC000037CD000037
:101DA0006315890001456FE0CFE003479402138576
:101DB0004904930644FF2146A685EFF00FAB834705
:101DC000840213850C05BD8B638E47011305CC057A
:101DD000638A570113858B0691C711476396E70005
:101DE00013054B07EFF06FA84C4C93073002AE86FB
:101DF00098226306F7021050930740060848B295F0
:101E0000B386D540B386F602585C5C50898D1305C5
:101E10000D08B3D6C602EFF04FA5004051B78506B6
:101E2000C1BFEFE26FD641110945EFF04FE39309CF
:101E3000450037C900002A84CE85130589F5EFF0E7
:101E40005FECAA85AA8437C50000130689F513053F
:101E500045F6EFF08FA12685EFF05FE537C500006E
:101E6000130505F8EFF06FA0404037CA0000B7CA6D
:101E7000000037CB000063968900014541016FE007
:101E8000EFD31A281C44930644FF1309840036C676
:101E90003AC44A856306F902EFF0BFDD2247B24635
:101EA000AA872146A68513858AF9EFF00F9C4A85FB
:101EB000EFF0DFE113054BD8EFF02F9B004065BF3B
:101EC000EFF03FDB2247B246AA872146A6851305DD
:101ED0008AFAEFF08F99DDB7EFE20FCB4111114590
:101EE000EFF0EFD79309450037C900002A84CE856B
:101EF0001305C9D9EFF0FFE0AA85AA8437C5000011
:101F00001306C9D9130545DAEFF02F962685EFF0B1
:101F1000FFD937C50000130585DCEFF00F95404071
:101F200037CA0000B7CA000037CB000063968900AB
:101F3000014541016FE08FC81C44130984009306DA
:101F400044FF18486309F9024A8536C63AC4EFF0DF
:101F50005FD22247B246AA872146A68513858ADE2C
:101F6000EFF0AF904A85EFF07FD613054BD8EFF036
:101F7000CF8F004065BF2146A68513050AE0EFF02C
:101F8000CF8EC5BFEFE24FC041110D45EFF02FCD11
:101F9000B7C90000130945002A84CA85138549EF93
:101FA000EFF03FD6AA85AA8437C50000138649EF13
:101FB0001305C5EFEFF06F8B2685EFF03FCF37C5E8
:101FC0000000130505F2EFF04F8A4040B7C900004A
:101FD00063168900014541016FE04FBE930644FF3F
:101FE0001305840036C6EFF0DFC8034834015C48AF
:101FF000B246AA8821472146A685138509F4EFF049
:10200000CF860040F1B7EFE22FB841111545EFF050
:102010000FC59309450037C900002A84CE851305F2
:1020200049E1EFF01FCEAA85AA8437C50000130648
:1020300049E11305C5E1EFF04F832685EFF01FC797
:1020400037C50000130505E4EFF02F82404037CA82
:102050000000B7CA000037CB000063968900014535
:1020600041016FE0AFB57A285E281044930644FF23
:102070001309840036C63AC43EC24A856307C902C2
:10208000EFF03FBF92472247B2462A882146A685F5
:102090001385CAE5EFE07FFD4A85EFF03FC31305E6
:1020A0004BD8EFE09FFC00404DBFEFF09FBC924744
:1020B0002247B2462A882146A68513054AE7EFE063
:1020C000DFFAD5B7EFE24FAC41111945EFF02FB968
:1020D0009309450037C900002A84CE851305C9E855
:1020E000EFF03FC2AA85AA8437C500001306C9E8ED
:1020F000130585E9EFE07FF72685EFF03FBB37C595
:102100000000130545EBEFE05FF6404037CA0000E2
:10211000B7CA000037CB0000639689000145410132
:102120006FE0CFA91A2C1C44930644FF13098400C6
:1021300036C63AC44A856306F902EFF09FB32247D8
:10214000B246AA872146A6851385CAECEFE0FFF1C7
:102150004A85EFF0BFB713054BD8EFE01FF1004001
:1021600065BFEFF01FB12247B246AA872146A68578
:1021700013050AEEEFE07FEFDDB7EFE2EFA05D7150
:102180002545EFF0CFADB165130600052A8413098C
:1021900045009385059B0A85EF80B055B7C90000BF
:1021A000CA85138549D3EFF0DFB5AA85AA8437C560
:1021B0000000138649D31305C5D3EFE01FEB268536
:1021C000EFF0DFAE37C50000130545D6EFE0FFE9BD
:1021D0004040D14937CA000063168900014561615A
:1021E0006FE0CF9D1C44930644FF63E0F90298081A
:1021F0008A07BA9703A707FB1C282146A685130563
:102200008AD8EFE09FE60040C1BF4647F5B7EFE24E
:10221000AF972945EFF0AFA4B7C9000013094500F7
:102220002A84CA851385890AEFF0BFADAA85AA84DE
:1022300037C500001386890A1305050BEFE0FFE29E
:102240002685EFF0BFA637C500001305850DEFE02A
:10225000DFE14040B7C9000037CA0000B7CA00003C
:10226000631E8900EFE06FA1AA8537C50000130542
:102270000513EFE09FDF01456FE04F945C4C184C75
:102280001385C90F930644FF2146A685EFE0FFDDC5
:102290008347D4FF13854A11858B99E313050A12EE
:1022A000EFE0BFDC00406DBFEFE20F8E37C50000EE
:1022B0001305C5D0EFE07FDB03A4818BB7C9000015
:1022C00037CA000083A7C18B6365F40001456FE046
:1022D000EF8E04400946938509D22685EF80D054BD
:1022E00019C55040A68513054AD2EFE01FD8310426
:1022F000D1BFEFE26F8937C500001305055DEFE040
:10230000DFD603A4818BB7C9000037CA000083A7BA
:10231000C18B636BF40037C50000130545D8EFE0AF
:10232000DFD401456FE08F89044019469385C95E6B
:102330002685EF80704F01E95040938564001305B6
:102340004A5FEFE09FD23104D9B705458280EFE2C2
:10235000AF8379712A84AA959306000225478307E3
:102360000400B38485406385D70A6383E70A014587
:10237000638B0410014913070002A546B30724012B
:1023800083870700638AE7086388D708631499087E
:1023900083A9818B83AAC18B37CB000063F05909D5
:1023A00003AA090019469305CB5E5285EF80D047FA
:1023B00059E54A86A28513056A00EF80F04641E19F
:1023C0004A9A83076A00A5EF83A9890063880904F4
:1023D0001306800281452800EFD0BFFF130981005A
:1023E000CA86A2870145014713080002A548294370
:1023F00013062002130EC0058385070063840501C0
:1024000063961505631F9702A9476303F50469A83E
:102410000504B1B705099DB7E31C09F6A287038738
:1024200007001377F7FD79E737C500001305855BD3
:1024300023800700A285EFE05FC37D55A9A0B10905
:10244000B1BF23800700050785077DB763106504CA
:1024500037C5000013054559EFE03FC10018B7C468
:102460000000832509001385445B1109EFE0FFBFDD
:10247000E31989FE37C50000130545D8EFE0FFBE1C
:1024800029452C00829945616FD05FF3637E9700E8
:1024900005056392C504850705079CC2838507006F
:1024A0006381C5026364970069FD8DBF838E170049
:1024B0006396C5016394CE00850705078507050768
:1024C000F1BFE37397FE2380070005078507910698
:1024D000E36497F2D1BF9CC283850700638905013D
:1024E00063871501E30297FC85070507F5B7E360ED
:1024F00097FE5DBF850725B7EFD23FE8830705004C
:1025000099E781450145EFF0DFDE6FD09FEA03AA2E
:10251000818BAA898144014937CB0000B7CB0000E9
:1025200083A7C18B6369FA00EDD04A86A6854E85E4
:10253000EFE0AFF4D9BF03240A0019469305CB5E40
:102540002285EF80702E21E14E85EF80D02C19047A
:102550002A86A2854E85EF80302D15E56317090088
:102560002285EF80502B2A89A284A68722870386A2
:10257000070001EE858F63D327013E89A28513856D
:10258000CB5FEFE09FAE310A61BF83060700FDD24B
:10259000E312D6FE85070507D9BFEFD29FE0EFF023
:1025A0002FFA01456FD03FE2EFD2BFDFEFE0BFC0AF
:1025B00001456FD05FE1EFD2DFDE03A5418BEFE095
:1025C0002FB001456FD03FE0EFD2BFDDB73702003B
:1025D0009387C70223ACF18AB73702009387071AA3
:1025E00023AEF18AB73702009387071A23A0F18C34
:1025F000B73702009387071A93050021054523A2E8
:10260000F18C1384418BEFE0BFD808C019E937C5BE
:1026100000001305056BEFE05FA57D5422856FD0A8
:102620009FDAB725000037C50000A9472D4793065C
:1026300000400146938585741305856CEFF00FA368
:10264000AA840840B7C50000814601469385056D00
:10265000EFE08F9C0144F9D02685EFF0EFB87DBF05
:10266000EFD23FD4EFF07FCE0DC5B7C50000938504
:10267000C567138541C8EF801019B7C50000938561
:10268000C568138541C8EF803016138541C86FD0E7
:102690009FD3B7C5000093854568E1BFEFD27FD0D7
:1026A0002A8437C500001305C56EEFE01F9CEFF0CC
:1026B0003FFBAA8537C500001306A41B1305456F11
:1026C000EFE0BF9A01456FD01FD0EFD29FCD4111EF
:1026D0002AC6EFD09FEBB24511E937C500001305BC
:1026E0000569EFE09F9841016FD0FFCD83A7418B33
:1026F000AA841384418B83A7C720E386A7FE930592
:102700003014EFD07FF065F11C4003A5C72009C944
:10271000EFD03FF71C40814503A5C720EFD07FFDD8
:1027200000401306000581451305A41BEFD07FCAA6
:10273000B725000023150420232694209385655B8C
:102740002685EFD01FFB45B7EFD2BFC283A7418BD1
:1027500041119384418B03C74702136717002382FB
:10276000E70283A7C72091E7EFE0DF8C19C1EFF004
:10277000DFF5EFF0FFEEEFE05F8F37CB0000B7CB78
:102780000000B7C9000037CA0000B7CA000037CC44
:102790000000B7CC00009C4085461306F10003A55D
:1027A000C720FD55EFD07FF18547631AF500030977
:1027B000F100ED4780406319F90008D0E9BF884077
:1027C000FD55EFE0EF87C1BF1C506392A70293074E
:1027D000B0056315F90089471CD075BF232004029A
:1027E000E30B09FAA5476314F9120149D1A8094777
:1027F000E398E7FE23200402930710046312F90410
:102800006E30D1D9FD15C205C1816EB09307A41BEE
:1028100013070005B385E502130600053E85938581
:10282000A502A295EF80E06CEF80E07E1375F50FB6
:102830002305A420A305A4202285EFF03FE6A1BF35
:10284000930720046311F90216347E301387F6FFD4
:1028500063D8E70085077EB09307A41B6E304DBF99
:102860009DDA7AB0D5BF930740046310F90283471D
:10287000B42095D31385896DEFE02FFF98408347EF
:10288000B720FD17A305F72039B793073004E319E4
:10289000F9F48347B4200347A420E3FEE7EE3E9417
:1028A0008305A41B1385CA6DEFE02FFC9840834776
:1028B000B7208507C1BF1385896DEFE00FFB0509C0
:1028C00080408347B420E348F9FE13054AD8EFE07F
:1028D000CFF9EFF09FA785471304A41B6315F500FC
:1028E0002285EFF07FC1EFF0BFD72286AA8513853E
:1028F0004C6FEFE08FF780401305A41BEF80A071B1
:102900001375F50F2305A420A305A42069B593072B
:10291000F0076305F900A1476315F9088347B42060
:10292000E38B07E60346A420FD1793F7F70F7D1608
:102930001376F60F2305C420A305F42063F8C7041B
:102940009385B71B1385A71B1D8EA2952295EFE0DB
:102950004FAE9C4013850B6E03C7A7203E97230DF7
:10296000071A83C5B7209385A51BBE95EFE0EFEF4F
:102970009C4003C4B7209C4083C7A720E3CD87E0D9
:102980001385896DEFE06FEE0504F5B713058B6EC7
:10299000EFE0AFED9C4003C7A720BA97238D071A3D
:1029A000DDBB35478347A4206305E9002947631E43
:1029B000E90EB9CB035984029147130DA41B63FBA5
:1029C0002709930DA41613060005EA856E85EF808E
:1029D00000501DC91309A4024A85130909051306ED
:1029E0000005CA85EF80E050E3982DFF130600052F
:1029F00081456E85EFD0FF9D0346A420EA856E8554
:102A0000EF80204F95471EB41E347EB0EFF0FF9349
:102A100085476312F5029C4083C74702858B89C7AF
:102A200013054AD8EFE06FE488408345A5201305DD
:102A3000A51BEFF0DF91EFF0BFC2EFE00FE38040A6
:102A40001306000581451305A41BEFD09F9823159D
:102A5000042091B3630109021305F9FF93070005F0
:102A60003305F50213060005EA851305A502229534
:102A7000EF80E04551D9930D00053305B9031306E6
:102A8000000581451305A5022295EFD09F940A34D5
:102A90000346A420EA853305B5031305A502229554
:102AA000EF8020451E348507B9BF1307F004637417
:102AB000F700230504200346B4208347A420637055
:102AC000F6089305A61B1305B61BA2953386C740CF
:102AD0002295EFE00F968C4083C7B5203387F50031
:102AE000230D271B03C74502058B01CB9387A71B2B
:102AF000BE9513050C47EFE04FD79C4003C4B720A9
:102B00009C4083C7A7206346F40298408347A720D0
:102B10008346B7208507850693F7F70FA305D720CF
:102B20002305F7209306F004E3F7F6C623150720E4
:102B30009DB11385896DEFE04FD30504D1B7A297FE
:102B4000238D271B83474402858BE1D3CA851385D8
:102B5000CA6DEFE08FD155BF7C4123280504232A9D
:102B600005049C4381CBEFD2DF83930585048297D4
:102B70006FD07F8501458280EFD21F8136899DCA43
:102B8000AA843284B309D600294A1C20639B4701DA
:102B9000BE2C93F7070491C7FC40B54526859C479A
:102BA0008297FC408305040026859C470504829794
:102BB000E31D34FD4A856FD07F80EFD28FFE93F7FF
:102BC00005102A8491C71A2D61551377071035CF48
:102BD00013F7054011C71A2C61551377074035C705
:102BE00013F705049304000401E7262C93F404046E
:102BF000384893F5F50F2EAC39EBA1C7684429810D
:102C0000420541813105EFE0EFE570442A89310545
:102C100029824206418281452320A900EFD0DFEDC1
:102C2000232209003E2C232409002328240593E7AE
:102C300007103EAC7C4013060010C145DC432285E2
:102C400082973E2C0145DD8C26AC6FD0CFF7F5DBAB
:102C500093E505102EACF5B70948AA8763810503F3
:102C6000EFD22FF40D486382050305476399E5040D
:102C70001A2D1377F7FD1AAD01456FD0CFF41A2D39
:102C8000136707021AAD01458280328775D650421C
:102C900074454C2D2982A9824206C2064182C18216
:102CA0006304D6001D45F1F91443B4C75443F4C777
:102CB000E1D5F443BA853E859442829675BF7C4146
:102CC000DC4382975DBFEFD22FEC3684B1CA3E2D34
:102CD000AA89328993F70710B6849DE37D5AA94AE1
:102CE00083A749044E85DC47829763094501230089
:102CF000A900FD14050963035501FDF0058C0DA025
:102D00002449368A854AEFE09FF3FE20DA202A869E
:102D10009444631AF70081EAEFE03FF3330444413F
:102D200022856FD0AFE998403E97034B070003A779
:102D3000C9048507C2072983C1834207FEA04183D6
:102D400063E4E700239304006394560123A4040082
:102D50003285EFE09FEF7D1A230069010509E31436
:102D60000AFA6DBF582D854763ECE7023E2D93F7B5
:102D700007109DC7EFD2EFE22A842849EFE08FE3E6
:102D80003E2C232804041306001093F7F7EF3EAC03
:102D90007C40C5452285DC43829701456FD0AFE278
:102DA00001458280EFD2EFDF37370000130787B588
:102DB00018D5373700001307A7BB58D537370000A1
:102DC000130747D618D937370000130767CC58D9EF
:102DD00037370000130787B718DD373700001307B0
:102DE00087C5420658DD34C14182232A05002320CD
:102DF000050223220502EFD0EFFD6FD0CFDC93F563
:102E0000F50F85476391F50AEFD20FD8204941119C
:102E1000AA847D598549FC402685DC4782972A8A09
:102E200063072505EFE0BFE15A201C40BA972380D5
:102E300047015E20F8448507C2072983C183420702
:102E40005EA0418363E4E7002312040076205E2045
:102E5000639CD7008507C207C1837EA02324340169
:102E600063E4E70023130400EFE03FDE6DB79C50FE
:102E700085C3EFE0DFDC5A206E20636EB700B30538
:102E8000B7402EC6EFE07FDC9C50B2452685829786
:102E900041016FD0AFD2FC44998DA983C207C18391
:102EA000B385B740F9BF828001CEEFD28FCF784192
:102EB000B2878E2318433222029701456FD0AFD0DC
:102EC0007D558280EFD2EFCD138781D078432E8657
:102ED000AA851843138581D002976FD0CFCEEFD249
:102EE0004FCC138781D078432E86AA85584313850B
:102EF00081D002976FD02FCDEFD2AFCA138781D088
:102F00007843AA85138581D0184702976FD0AFCB3D
:102F100005C611476392E602EFD2AFC87C410E228C
:102F200041119C4736C632C482972246B2462AA235
:102F3000368541016FD02FC98146368582801DC2FA
:102F4000B28711466390C602EFD2AFC57841B22373
:102F50008E235843411136C60297B2464101368549
:102F60006FD06FC6814636858280EFD28FC393873C
:102F700081D04947D8CB37370000130707F1D8DB9A
:102F8000373700001307E7F398DF373700001307E0
:102F900087EAECC3B0C3AA850D46138581D023A070
:102FA000070223A2070223A4070223A6070223A8DD
:102FB0000702D8DFEFD00FE201456FD0CFC0370551
:102FC0000020130505718280371500201305057157
:102FD0008280EFD20FBDB707002003A7471C9307DD
:102FE000803EC1563357F702B7E700E02386D7404B
:102FF0002387D740856623A0D710916623A0D710DA
:10300000B7F700E023A0070023A20700014690C7FE
:103010008146D4C781461306F7FF90CBD4CB3D47FA
:1030200098C3EFD0EFCBEFF09FF92A84EFF0DFF9F0
:10303000AA852285EFE04F9B37C500001305C576B2
:10304000EFD0BFFF6FD02FB873110134EFD05F8B7B
:10305000B7F700E023A20700EFD08FC2EFD01F8D9B
:103060007311013473002030B7F700E0414798C373
:1030700003D7818C81463306A70290CBD4CB9843EB
:103080001367170298C3D843058B75DFD843799B24
:10309000D8C38280EFD2EFB01304803EB3548502D0
:1030A00037490F00130909243374850291E819C4C4
:1030B0001305803E3305A402EFF01FFB6FD0AFB0C5
:1030C0004A85EFF07FFAFD14D5B7B7071060F917FE
:1030D000BE234111C207C1837C87288741018280BA
:1030E000411168873887B7071060420741839AA368
:1030F00041018280411168873C8737071060C20711
:10310000C183231FF7FE41018280B7071060239F10
:10311000A7FE8EA38280B717002003D78771B70759
:103120001060239FE7FE8280B717002003D7477106
:10313000956793870751631AF7008D679387079008
:1031400037071060231FF7FE828013079002B7072E
:103150001060239FE7FE8280B717002003D74771D6
:10316000956793870751631AF7008D6793870780E8
:1031700037071060231FF7FE828013078002B7070E
:103180001060239FE7FE8280B718002093870871A4
:1031900003DE4700BA27D22789679387379613D370
:1031A00085009388087193F5F50F6314FE0803D822
:1031B000080083CE6800370E10607D189317080151
:1031C000C1839306EEFF63960E04898F231FEEFEE4
:1031D000C20723910600C1832391060013D78700FD
:1031E000BAA293F7F70FBEA2B7071060239FC7FEDE
:1031F000239067008EA31387E7FF83D72800FD176E
:1032000093D68740C206C18236A393F7F70F3EA339
:103210008280231FEEFE1358884013578500BAA200
:103220001375F50F4208AAA213580801239106014D
:103230004DBF935885009377F50F370510601568DB
:103240009306E5FF231FE5FE13080851239116019D
:1032500063130E03050742074183231FE5FEBEA249
:10326000231FC5FE05064206239166004182231FE7
:10327000C5FEAEA28280BEA2231FC5FE23916600BA
:10328000CDBFEFD20F92B714002083D70471014451
:10329000637AF50693840471B620014463F4D5067D
:1032A000EFF09FEEDA20956793870751631FF704CD
:1032B0008D67938707E037071060231FF7FEEFF055
:1032C000DFE0DA208967938737962A84630CF70258
:1032D000EFF0BFDFDA209D67938767792A84630365
:1032E000F702EFF09FDE9317340013F7077E935732
:1032F000B400C207C1832D81AE074205D98F418139
:1033000033E4A70022856FD00F8C1307E002B707C4
:103310001060239FE7FE65B73717002093070771FA
:10332000F023D6238545896713070771938737965E
:10333000631EB6006399F6027D151375F50F994764
:1033400063F4A70413066003814749A01DE6639652
:10335000F6029D4763E1A71AB167938747770A058D
:103360003E951C4182879D4763E7A718B167938705
:1033700047790A053E951C4182877D151375F50F27
:1033800019468147636BA600B1679387477B0A059F
:103390003E951C4182879307000E15661306065161
:1033A000638AC604256613061634638DC6001D663F
:1033B000930596786388B6009305667913066003D3
:1033C0006396B60093E7870013066003B7051060A5
:1033D000239FC5FE09669EA1130636966388C60C18
:1033E00093F7070212232E2399CF6370B6020EA320
:1033F00032A321A80D6613060660C9BF1306600339
:1034000093070004E1B7E3E4C5FE9567938707518E
:10341000639EF6083227B707106056271308160078
:103420002E230A234208239FC7FE23900700135828
:103430000801239F07FF1308260042082390070076
:10344000135808017D15239F07FF13588540420834
:103450000D06135808014206239007014182239F5D
:10346000C7FE1375F50F8AA313861600239FD7FE98
:103470004206239007004182239FC7FE1386260041
:103480004206239007004182239FC7FE1386F5FF63
:1034900093558640C2058D06C181C2068EA3C182A6
:1034A000239FD7FE1376F60F92A382803627370626
:1034B0001060231FD6FE23100600231006001623DB
:1034C000FD1693D58640C205C1810EA293F6F60F74
:1034D00016A25627231FD6FE23100600231006002F
:1034E0003A237D1793568740C206C18216A21377EE
:1034F000F70F1AA2828081474DB59307000A71BD6C
:103500009307000659BD9307000241BD9307000CC5
:1035100069B59307000451B593070008BDBDEFC21C
:103520005FE8411132C6EFF03FC6EFF0DFBE324632
:10353000B70710604206418292A341016FC0BFE805
:10354000EFC23FE6B70710601307E00B1384E7FFF5
:10355000239FE7FE95473EA0EF60A064B7F7000009
:1035600003A6077583A64775EF50901EEF60A05D18
:10357000420541812AA085473EA09307F00F3EA057
:1035800023110400231104006FC0FFE3EFC27FE1A9
:10359000B717002093860771E8A2DA229387077194
:1035A00055E1370640011306060F90C215669305D4
:1035B00006516315B702B737002A938707C09CC628
:1035C0008D67938707B0DEA6B70720039387071E92
:1035D0009CC20145EFF05FD46FC0FFDE8966938621
:1035E0003696631AD702B7062B009386C60294C795
:1035F0009306A002D6A7B70620039386061E94C39F
:10360000A96693866680E316D7FC37072003130765
:10361000071E98C37DBFB7062A009386C60294C7CB
:103620009306B002D6A7130606316317C700B70684
:10363000E00193860614E1B79D6693866679E308F8
:10364000D7FE7DBF3706F0001306061490C215663C
:10365000130606516310C702B737002A938707C0C5
:103660009CC68D67938707B0DEA6B707E0019387F6
:103670000732B9BF8966938636966307D700A96675
:1036800093866680631CD702B7062A009386C6021B
:1036900094C79306B002D6A7B706E0019386063218
:1036A00094C39566938606316307D7009D6693861B
:1036B0006679E310D7F23707400191BFB7062A00B9
:1036C0009386C60294C79306B002D6A7D9BFEFC2AD
:1036D0005FCDB7170020938707719A23A2238145F6
:1036E000AA8401453304E402EFF01FAAEFF0BFA261
:1036F000814737071060639487006FC0DFCC06A353
:103700008507D5BFEFC25FC8197185451305001045
:10371000EF40105485452145EF4070558545130510
:103720000002EF40D054854513050004EF403054AB
:10373000F17793873770371401407C80E147130598
:1037400004403EC48A858D47372901403EC2EF4080
:103750009028930700F8130509808A857C80EF4044
:10376000902793070008130504408A857C80EF406A
:10377000902693070002130504408A857C80EF4061
:103780009025C144130504408A856480EF40B0242D
:10379000130509808A85A14A23105101EF40B02307
:1037A0008A85130504C06480C14426C4EF40B0225A
:1037B0008567BED49167BED87C00BEDC3C10BEDEFF
:1037C000BD473EC69307C0033ECAC800A5473ED4C6
:1037D0003ED8A6C882C282C682D082C482CA82CEA5
:1037E00082D282D682CC82DA02C802CC02CE02D049
:1037F00002D202D602DA02DC02DE82C0EF403011D1
:1038000085450145EF40501B13052003130A300D79
:10381000B7041060EFF01F8837140020239F44FF87
:1038200013090471EFF07F8A2312A900EFF0FF89DA
:103830002312A900EFF07F8922052312A900EFF0DF
:10384000DF8883574900130404715D8D420541816F
:10385000A5672312A900938717346303F5189147CE
:10386000239FF4FEEFF07F864AA0EFF01F864AA068
:10387000EFF0BF8522054AA0EFF03F855E205D8D09
:1038800042054181A1674AA0938727556317F50038
:103890009D67938797785EA0A1A21D6B93079B7885
:1038A0006300F5149307400D239FF4FEEFF0FF81B2
:1038B0004AA0EFF09F814AA0EFF03F8122054AA085
:1038C000EFF0BF805E2015695D8D420541814AA001
:1038D000930709316306F510239F44FFEFF0EFFED5
:1038E0004AA0EFF08FFE4AA0EFF02FFE22054AA07B
:1038F000EFF0AFFD5E20130B6B795D8D42054181CA
:103900004AA0630F650DFD77239FF4FE9389E4FFC2
:10391000130750052391E90013871700239FE4FE46
:103920001307A00A2391E90013872700239FE4FED1
:10393000130720052391E90013873700239FE4FE36
:10394000239159019107239FF4FE85472391F900A4
:10395000B16993870950239FF4FEEFF00FF722051A
:103960004AA093891950239F34FFEFF00FF65E2091
:103970005D8D4AA01545EFF0EFF15A2093070951EC
:103980006300F706239F44FFEFF02FF44AA0EFF007
:10399000CFF34AA0EFF06FF322054AA0EFF0EFF269
:1039A0005E205D8D42054181A9674AA093876780AB
:1039B0006308F5029307100A239FF4FEEFF0EFF07F
:1039C0004AA0EFF08FF022054AA0EFF00FF05E2042
:1039D000130919765D8D42054181630425054AA0CE
:1039E0005E209D66138796786391E704652C5E20C0
:1039F0001D6793069778639BD7088D473ED43ED8C2
:103A00000145EFF0BFB837150140C145130505C0AA
:103A1000EF40100941657D15EFF07FCB09616FC064
:103A2000FF99896793873796BDB5256713071734C4
:103A30006394E700952165BF156713060731639509
:103A4000C700EF00A06E65B7938666796395D700CF
:103A5000EF10407E69BF130707516395E700EF1031
:103A6000702071B72967130767806395E700EF201F
:103A70001025B5BF096713073796E39AE7F6EF20DD
:103A8000506013054006EFF0BFAB95B7A96693866B
:103A90006680638CD700A566938616346387D7004B
:103AA0009566138606516394C700894781BF938644
:103AB0000631638BD700130767796387E7000967CF
:103AC00013073796E39EE7F285470DBFEFC2DF8B02
:103AD000B304A64085043389B640C2040509C180F9
:103AE00042094111AA892E8A13590901939A140097
:103AF0000144370B10606365240141016FC01F8CC6
:103B0000B3054401C205C1814E853AC6EFF0CFE747
:103B1000EFF06FE032478147BA8663E7970005040C
:103B2000420441805697C1BF8E228507C2072310E9
:103B3000BB00C1838906D5B7EFC2BF8393F476007B
:103B40003E8AB334900093D73600BE9493D71600C4
:103B5000B384F402130406FE6204C1472A8BAE8BC1
:103B6000B68ABA89618493F4F40F6385F60A63E731
:103B7000D700B1476380F6026FC07F83E14763805F
:103B8000F60A93070002E399F6FE39661A04130653
:103B900006F931A03304D40231661306067D32944F
:103BA000B71C0020A2945E89370D0020938C0C7105
:103BB000E38484FC130C8900834D0400420C135CE5
:103BC0000C0193978D01E187528663C607006398C5
:103BD000090003260D1CCA855A85EFF05F9405097C
:103BE00083D72C004209860D1359090193FDFD0F5F
:103BF000E374F9F8B3077941639BFA02050B83D7A5
:103C00000C00420B135B0B01E378FBF65E8C0504A2
:103C1000628979BF35661204130646C449B7130694
:103C200040023304C4023566130646238DBFE31AEF
:103C300089F9F1BFEFC26FF42A96AE969319060187
:103C4000139A06014111AE843E8993D90901135A92
:103C50000A01BA8A935B17002A84130BE005137CD0
:103C6000F50F03060900930706FE93F7F70F637538
:103C7000FB0041016FC0EFF363663401D694C204C8
:103C80006284C180E3F744FFC28722850147D6865C
:103C9000A6855E9442C64204EFF01FEA4180050902
:103CA0003248C1B7EFC2EFEF4545EFF0AFC413059F
:103CB0008007EFF02FBE13056003EFF0AFC301459F
:103CC000EFF00FC21305A003EFF0CFC21545EFF0E0
:103CD0002FC11305200BEFF0EFC13145EFF04FC0BE
:103CE0003145EFF0EFBF0145EFF08FBF1305300313
:103CF000EFF00FBF13053003EFF08FBE1305700B0D
:103D0000EFF04FBF13055003EFF08FBD1305B00B5D
:103D1000EFF04FBE13052003EFF08FBC1305000C2E
:103D2000EFF04FBD3145EFF0AFBB1305200CEFF0C6
:103D30006FBC0545EFF0CFBA1305300CEFF08FBB29
:103D40004145EFF0EFB91305400CEFF0AFBA1305A2
:103D50000002EFF0EFB81305600CEFF0AFB93D458E
:103D6000EFF00FB81305000DEFF0CFB81305400AC0
:103D7000EFF00FB71305100AEFF08FB61305000E22
:103D8000EFF04FB71305000DEFF08FB50145EFF0E1
:103D90002FB50945EFF0CFB41D45EFF06FB42945BD
:103DA000EFF00FB413058002EFF08FB3130520037B
:103DB000EFF00FB313054004EFF08FB213052004AA
:103DC000EFF00FB21945EFF0AFB13945EFF04FB159
:103DD0004945EFF0EFB05145EFF08FB05D45EFF0A2
:103DE0002FB01305100EEFF0EFB01305000DEFF03C
:103DF0002FAF0145EFF0CFAE0945EFF06FAE1D4597
:103E0000EFF00FAE2945EFF0AFAD13058002EFF0F4
:103E10002FAD13051003EFF0AFAC13054005EFF025
:103E20002FAC13057004EFF0AFAB3945EFF04FAB9B
:103E30007145EFF0EFAA5D45EFF08FAA6D45EFF009
:103E40002FAA7945EFF0CFA91305A002EFF08FAAB2
:103E50000145EFF0EFA80145EFF08FA80145EFF025
:103E60002FA81305F00EEFF0AFA71305B002EFF087
:103E70006FA80145EFF0CFA60145EFF06FA605450D
:103E8000EFF00FA61305F003EFF08FA513059002D6
:103E9000EFF04FA66FC02FD3EFC2AFD01305F00CD9
:103EA000EFF04FA50145EFF0AFA31305100CEFF0B5
:103EB0002FA313050003EFF0AFA21305D00EEFF010
:103EC0006FA313054006EFF0AFA10D45EFF04FA132
:103ED0004945EFF0EFA013051008EFF06FA01305B0
:103EE000800EEFF02FA113055008EFF06F9F4145B2
:103EF000EFF00F9F1305A007EFF08F9E1305B00C96
:103F0000EFF04F9F13059003EFF08F9D1305C00254
:103F1000EFF00F9D0145EFF0AF9C13054003EFF06C
:103F20002F9C0945EFF0CF9B1305700FEFF08F9C8E
:103F300013050002EFF0CF9A1305A00EEFF08F9B50
:103F40000145EFF0EF990145EFF08F991305000C53
:103F5000EFF04F9A6D45EFF0AF981305100CEFF0AE
:103F60006F990545EFF0CF971305500CEFF08F9840
:103F700013050003EFF0CF9613050003EFF04F9603
:103F80001305700CEFF00F971305700BEFF04F95C2
:103F900013056003EFF00F9613058004EFF04F94C4
:103FA0001305A003EFF00F9513055005EFF04F93A5
:103FB0001305100BEFF00F940145EFF06F92694578
:103FC000EFF00F921305600BEFF0CF922945EFF061
:103FD0002F911305200AEFF0AF901305200FEFF09B
:103FE0006F910145EFF0CF8F13056002EFF08F90D6
:103FF0000545EFF0EF8E1305000EEFF0AF8F3D4556
:10400000EFF00F8E1305A002EFF08F8D13058002E5
:10401000EFF00F8D2145EFF0AF8C3945EFF04F8C6D
:104020002145EFF0EF8B13054005EFF06F8B130583
:10403000900AEFF0EF8A13053004EFF06F8A2945FC
:10404000EFF00F8A3D45EFF0AF890145EFF04F8962
:104050000145EFF0EF880145EFF08F880145EFF063
:104060002F881305100EEFF0EF880145EFF04F8712
:104070005545EFF0EF865D45EFF08F861D45EFF07B
:104080002F864545EFF0CF851945EFF06F85130575
:10409000B002EFF0EF8413056005EFF06F841305B5
:1040A000C003EFF0EF831545EFF08F834145EFF04C
:1040B0002F833D45EFF0CF821305F003EFF04F82E1
:1040C0001305F003EFF0CF813D45EFF06F8113054D
:1040D000B002EFF02F820145EFF08F800145EFF045
:1040E0002F800545EFE0DFFF1305F003EFE05FFFF2
:1040F0001305A002EFF00F800145EFE07FFE0145C0
:10410000EFE01FFE0145EFE0BFFD1305F00EEFE00D
:104110003FFD4545EFE01FFE13058007EFE09FF7E9
:1041200013059002EFE01FFD6FC0EFA9EFC26FA76C
:104130001305D00EEFE01FFC0545EFE07FFA1305F5
:10414000E00FEFE0FFF91305E00EEFE0BFFA130513
:10415000E00DEFE0FFF813051002EFE07FF8130524
:10416000100FEFE03FF90545EFE09FF71305F00D65
:10417000EFE05FF84145EFE0BFF61305400CEFE0DC
:104180007FF71305F008EFE0BFF51305600CEFE0D3
:104190007FF60145EFE0DFF41305200EEFE05FF45A
:1041A0001305200EEFE0DFF31305200EEFE05FF3C1
:1041B0001305F00BEFE01FF41305A00AEFE05FF228
:1041C0001305000BEFE01FF33545EFE07FF10145EC
:1041D000EFE01FF13545EFE0BFF00145EFE05FF0A4
:1041E0004545EFE0FFEF0145EFE09FEF6545EFE06C
:1041F0003FEF0145EFE0DFEE13051002EFE05FEE69
:104200000145EFE0FFED1305D002EFE07FED014542
:10421000EFE01FED1305D003EFE09FEC0145EFE069
:104220003FEC1305D005EFE0BFEB0145EFE05FEB9E
:104230001305D005EFE0DFEA0145EFE07FEA130563
:10424000100BEFE03FEB13050008EFE07FE90145BD
:10425000EFE01FE91305B008EFE09FE80145EFE04C
:104260003FE813056009EFE0BFE70145EFE05FE7D6
:104270001305200BEFE01FE80145EFE07FE6014565
:10428000EFE01FE60945EFE0BFE50145EFE05FE540
:104290000D45EFE0FFE40145EFE09FE41305300B2F
:1042A000EFE05FE50145EFE0BFE30145EFE05FE3ED
:1042B0000145EFE0FFE20145EFE09FE20145EFE05D
:1042C0003FE20145EFE0DFE10145EFE07FE101453D
:1042D000EFE01FE10145EFE0BFE00145EFE05FE007
:1042E0000145EFE0FFDF0145EFE09FDF0145EFE033
:1042F0003FDF0145EFE0DFDE0145EFE07FDE014516
:10430000EFE01FDE0145EFE0BFDD0145EFE05FDDDF
:104310000145EFE0FFDC0145EFE09FDC0145EFE008
:104320003FDC0145EFE0DFDB0145EFE07FDB0145EE
:10433000EFE01FDB1305400BEFE0DFDB1305B008F8
:10434000EFE01FDA0145EFE0BFD913056009EFE0A8
:104350003FD90145EFE0DFD81305100AEFE05FD841
:104360000145EFE0FFD71305500BEFE0BFD809453B
:10437000EFE01FD70145EFE0BFD60D45EFE05FD678
:104380000145EFE0FFD51145EFE09FD50145EFE096
:104390003FD51305600BEFE0FFD50145EFE05FD49B
:1043A0000145EFE0FFD31305700BEFE0BFD40145EB
:1043B000EFE01FD30145EFE0BFD21305F003EFE0BC
:1043C0003FD20145EFE0DFD11305E005EFE05FD11B
:1043D0000145EFE0FFD013054006EFE07FD0014537
:1043E000EFE01FD01305C008EFE09FCF0145EFE0DD
:1043F0003FCF1305C00AEFE0BFCE0145EFE05FCE2F
:104400001305C00DEFE0DFCD0145EFE07FCD1305D3
:104410000007EFE0FFCC0145EFE09FCC130500095A
:10442000EFE01FCC0145EFE0BFCB1305B00EEFE08E
:104430003FCB0145EFE0DFCA1305C00DEFE05FCAD7
:104440000145EFE0FFC91305800BEFE0BFCA01454E
:10445000EFE01FC90145EFE0BFC80145EFE05FC8CD
:104460000145EFE0FFC70145EFE09FC70145EFE0E1
:104470003FC70145EFE0DFC60145EFE07FC613050A
:10448000A00BEFE03FC713054002EFE07FC50145F9
:10449000EFE01FC50145EFE0BFC40145EFE05FC499
:1044A0001305100CEFE01FC513050002EFE05FC31A
:1044B0000145EFE0FFC213054005EFE07FC2014573
:1044C000EFE01FC21305F00FEFE09FC10145EFE0E1
:1044D0003FC11305200CEFE0FFC12945EFE05FC0AD
:1044E0000145EFE0FFBF1145EFE09FBF0145EFE061
:1044F0003FBF1305300CEFE0FFBF1305C003EFE033
:104500003FBE0145EFE0DFBD1305A003EFE05FBD57
:104510000145EFE0FFBC13059003EFE07FBC0145D0
:10452000EFE01FBC13057003EFE09FBB0145EFE018
:104530003FBB1305C003EFE0BFBA0145EFE05FBA30
:1045400013056003EFE0DFB90145EFE07FB9130524
:104550002003EFE0FFB80145EFE09FB81305F0023C
:10456000EFE01FB80145EFE0BFB71305C002EFE071
:104570003FB70145EFE0DFB613059002EFE05FB60D
:104580000145EFE0FFB513056002EFE07FB501459F
:10459000EFE01FB513054002EFE09FB40145EFE0E7
:1045A0003FB413054002EFE0BFB30145EFE05FB356
:1045B00013053002EFE0DFB20145EFE07FB21305F3
:1045C000C003EFE0FFB10145EFE09FB113056003C9
:1045D000EFE01FB10145EFE0BFB013052003EFE0AE
:1045E0003FB00145EFE0DFAF1305F002EFE05FAF52
:1045F0000145EFE0FFAE1305C002EFE07FAE0145DD
:10460000EFE01FAE13059002EFE09FAD0145EFE034
:104610003FAD13056002EFE0BFAC0145EFE05FACDA
:1046200013054002EFE0DFAB0145EFE07FAB130580
:104630004002EFE0FFAA0145EFE09FAA1305300218
:10464000EFE01FAA0145EFE0BFA91305400CEFE022
:104650007FAA13052006EFE0BFA80145EFE05FA8A1
:104660001545EFE0FFA70145EFE09FA713054008C0
:10467000EFE01FA70145EFE0BFA61305000FEFE035
:104680003FA60145EFE0DFA56145EFE07FA50145CD
:10469000EFE01FA51305400AEFE09FA40145EFE0FE
:1046A0003FA46145EFE0DFA30145EFE07FA31305E1
:1046B0000005EFE0FFA20145EFE09FA23145EFE0EA
:1046C0003FA20145EFE0DFA15D45EFE07FA101459D
:1046D000EFE01FA113055009EFE09FA00145EFE0B7
:1046E0003FA01305300FEFE0BF9F0145EFE05F9F54
:1046F0001305600EEFE0DF9E0145EFE07F9E13059E
:10470000500CEFE03F9F13052003EFE07F9D014534
:10471000EFE01F9D13054004EFE09F9C0145EFE093
:104720003F9C13055006EFE0BF9B0145EFE05F9B08
:1047300013056007EFE0DF9A0145EFE07F9A13056C
:104740008008EFE0FF990145EFE09F991305600CA9
:10475000EFE05F9A13050002EFE09F980145EFE05C
:104760003F985D45EFE0DF970145EFE07F97054516
:10477000EFE01F970145EFE0BF961305700CEFE0E7
:104780007F970145EFE0DF950145EFE07F9501451B
:10479000EFE01F950145EFE0BF941305800CEFE0BB
:1047A0007F950145EFE0DF930145EFE07F93014501
:1047B000EFE01F930145EFE0BF921305900CEFE08F
:1047C0007F930145EFE0DF910145EFE07F910145E7
:1047D000EFE01F910145EFE0BF900145EFE05F90F2
:1047E0000145EFE0FF8F0145EFE09F8F0145EFE0CE
:1047F0003F8F0145EFE0DF8E0145EFE07F8E014501
:10480000EFE01F8E0145EFE0BF8D0145EFE05F8DCA
:104810000145EFE0FF8C0145EFE09F8C0145EFE0A3
:104820003F8C1305000EEFE0FF8C5945EFE05F8BE6
:104830000145EFE0FF8A7145EFE09F8A0145EFE017
:104840003F8A13051002EFE0BF890145EFE05F8961
:1048500013056003EFE0DF880145EFE07F88130573
:104860006004EFE0FF870145EFE09F871305200517
:10487000EFE01F870145EFE0BF8613054006EFE03C
:104880003F860145EFE0DF851305A007EFE05F8578
:104890000145EFE0FF841305B008EFE07F84014598
:1048A000EFE01F8413059009EFE09F830145EFE0DF
:1048B0003F831305800AEFE0BF820145EFE05F828E
:1048C0001305900BEFE0DF810145EFE07F811305D9
:1048D000400CEFE0FF800145EFE09F801305A00C46
:1048E000EFE01F800145EFE0AFFF1305200DEFE083
:1048F0002FFF0145EFE0CFFE1305900DEFE04FFED7
:104900000145EFE0EFFD1305000EEFE06FFD0145FF
:10491000EFE00FFD1305300FEFE08FFC0145EFE0F6
:104920002FFC1305100EEFE0EFFC5945EFE04FFBB5
:104930000145EFE0EFFA7145EFE08FFA0145EFE056
:104940002FFA13052002EFE0AFF90145EFE04FF930
:1049500013056003EFE0CFF80145EFE06FF81305B2
:104960005004EFE0EFF70145EFE08FF71305200566
:10497000EFE00FF70145EFE0AFF613054006EFE07B
:104980002FF60145EFE0CFF51305A007EFE04FF557
:104990000145EFE0EFF41305B008EFE06FF40145D7
:1049A000EFE00FF413059009EFE08FF30145EFE01E
:1049B0002FF31305800AEFE0AFF20145EFE04FF26D
:1049C0001305900BEFE0CFF10145EFE06FF1130518
:1049D000400CEFE0EFF00145EFE08FF01305A00C85
:1049E000EFE00FF00145EFE0AFEF1305200DEFE032
:1049F0002FEF0145EFE0CFEE1305800DEFE04FEE16
:104A00000145EFE0EFED1305000EEFE06FED01451E
:104A1000EFE00FED1305300FEFE08FEC0145EFE015
:104A20002FEC1305200EEFE0EFEC1545EFE04FEB18
:104A30000145EFE0EFEA2D45EFE08FEA0145EFE0B9
:104A40002FEA6D45EFE0CFE90145EFE06FE913058F
:104A50004003EFE0EFE80145EFE08FE81305400485
:104A6000EFE00FE80145EFE0AFE71305F004EFE0FA
:104A70002FE70145EFE0CFE613051006EFE04FE624
:104A80000145EFE0EFE513059007EFE06FE5014525
:104A9000EFE00FE513058008EFE08FE40145EFE05C
:104AA0002FE413057009EFE0AFE30145EFE04FE3BA
:104AB0001305600AEFE0CFE20145EFE06FE2130576
:104AC000700BEFE0EFE10145EFE08FE11305200C03
:104AD000EFE00FE10145EFE0AFE01305700CEFE010
:104AE0002FE00145EFE0CFDF1305100DEFE04FDFC2
:104AF0000145EFE0EFDE1305600DEFE06FDE0145ED
:104B0000EFE00FDE1305D00DEFE08FDD0145EFE0A4
:104B10002FDD1305300FEFE0AFDC0145EFE04FDC98
:104B20001305300EEFE00FDD1545EFE06FDB0145BB
:104B3000EFE00FDB2945EFE0AFDA0145EFE04FDAB8
:104B40007145EFE0EFD90145EFE08FD91305300350
:104B5000EFE00FD90145EFE0AFD813054004EFE0D7
:104B60002FD80145EFE0CFD713050005EFE04FD771
:104B70000145EFE0EFD613052006EFE06FD60145C3
:104B8000EFE00FD613058007EFE08FD50145EFE08A
:104B90002FD513058008EFE0AFD40145EFE04FD4E7
:104BA00013057009EFE0CFD30145EFE06FD3130594
:104BB000600AEFE0EFD20145EFE08FD21305700BF2
:104BC000EFE00FD20145EFE0AFD11305200CEFE08D
:104BD0002FD10145EFE0CFD01305700CEFE04FD09F
:104BE0000145EFE0EFCF1305100DEFE06FCF01456A
:104BF000EFE00FCF1305500DEFE08FCE0145EFE052
:104C00002FCE1305D00DEFE0AFCD0145EFE04FCD36
:104C10001305300FEFE0CFCC0145EFE06FCC13056B
:104C2000400EEFE02FCD0545EFE08FCB0145EFE0E3
:104C30002FCB0545EFE0CFCA0145EFE06FCA09452C
:104C4000EFE00FCA0145EFE0AFC91305A002EFE0A6
:104C50002FC90145EFE0CFC81305C003EFE04FC8EF
:104C60000145EFE0EFC71305B004EFE06FC7014562
:104C7000EFE00FC71305D005EFE08FC60145EFE069
:104C80002FC613054007EFE0AFC50145EFE04FC564
:104C900013054008EFE0CFC40145EFE06FC41305F2
:104CA0003009EFE0EFC30145EFE08FC31305200AA1
:104CB000EFE00FC30145EFE0AFC21305300BEFE0AB
:104CC0002FC20145EFE0CFC11305E00BEFE04FC16C
:104CD0000145EFE0EFC01305400CEFE06FC0014568
:104CE000EFE00FC01305D00CEFE08FBF0145EFE000
:104CF0002FBF1305300DEFE0AFBE0145EFE04FBE13
:104D00001305D00DEFE0CFBD0145EFE06FBD1305FA
:104D1000300FEFE0EFBC0145EFE08FBC1305500E04
:104D2000EFE04FBD0145EFE0AFBB0145EFE04FBB0A
:104D30000145EFE0EFBA0145EFE08FBA0945EFE03A
:104D40002FBA0145EFE0CFB913059002EFE04FB95C
:104D50000145EFE0EFB81305C003EFE06FB8014580
:104D6000EFE00FB81305B004EFE08FB70145EFE0B7
:104D70002FB71305D005EFE0AFB60145EFE04FB612
:104D800013054007EFE0CFB50145EFE06FB5130520
:104D90004008EFE0EFB40145EFE08FB413053009B0
:104DA000EFE00FB40145EFE0AFB31305200AEFE0E9
:104DB0002FB30145EFE0CFB21305300BEFE04FB258
:104DC0000145EFE0EFB11305E00BEFE06FB10145F6
:104DD000EFE00FB11305400CEFE08FB00145EFE0BD
:104DE0002FB01305D00CEFE0AFAF0145EFE04FAFB0
:104DF0001305300DEFE0CFAE0145EFE06FAE1305C8
:104E0000C00DEFE0EFAD0145EFE08FAD1305300FC2
:104E1000EFE00FAD0145EFE0AFAC1305600EEFE042
:104E20006FAD4545EFE0CFAB0145EFE06FAB13054C
:104E30004003EFE0EFAA0145EFE08FAA13056005FC
:104E4000EFE00FAA0145EFE0AFA913056007EFE01F
:104E50002FA90145EFE0CFA813057007EFE04FA899
:104E60000145EFE0EFA713056006EFE06FA70145EE
:104E7000EFE00FA713058008EFE08FA60145EFE0F4
:104E80002FA613059009EFE0AFA50145EFE04FA570
:104E90001305B00BEFE0CFA40145EFE06FA41305BD
:104EA0009009EFE0EFA30145EFE08FA31305600643
:104EB000EFE00FA30145EFE0AFA213055005EFE0CF
:104EC0002FA20145EFE0CFA113055005EFE04FA160
:104ED0000145EFE0EFA013055004EFE06FA001459E
:104EE000EFE00FA013053004EFE08F9F0145EFE0E6
:104EF0002F9F13054004EFE0AF9E0145EFE04F9E6A
:104F00001305700EEFE00F9F13052003EFE04F9D98
:104F10000145EFE0EF9C13055005EFE06F9C014564
:104F2000EFE00F9C13056007EFE08F9B0145EFE07A
:104F30002F9B13056006EFE0AF9A0145EFE04F9A13
:104F400013057006EFE0CF990145EFE06F99130567
:104F50007006EFE0EF980145EFE08F9813057008B9
:104F6000EFE00F980145EFE0AF9713059009EFE0F0
:104F70002F970145EFE0CF961305B00BEFE04F966A
:104F80000145EFE0EF9513059009EFE06F950145BE
:104F9000EFE00F9513057007EFE08F940145EFE008
:104FA0002F9413054004EFE0AF930145EFE04F93DA
:104FB00013056005EFE0CF920145EFE06F92130516
:104FC0003002EFE0EF910145EFE08F9113053003E0
:104FD000EFE00F910145EFE0AF9013055004EFE0D3
:104FE0002F900145EFE0CF8F1305800EEFE08F90FB
:104FF0000145EFE0EF8E0145EFE08F8E130590093C
:10500000EFE00F8E0145EFE0AF8D13057008EFE084
:105010002F8D0145EFE0CF8C13058008EFE04F8C1A
:105020000145EFE0EF8B13057007EFE06F8B014553
:10503000EFE00F8B13056006EFE08F8A0145EFE08C
:105040002F8A13058008EFE0AF890145EFE04F8913
:105050001305A00AEFE0CF880145EFE06F88130544
:10506000B00BEFE0EF870145EFE08F871305900964
:10507000EFE00F870145EFE0AF8613056006EFE034
:105080002F860145EFE0CF8513055005EFE04F85F2
:105090000145EFE0EF8413055005EFE06F84014513
:1050A000EFE00F8413054004EFE08F830145EFE04C
:1050B0002F8313054004EFE0AF820145EFE04F82FC
:1050C00013055005EFE0CF810145EFE06F81130537
:1050D000900EEFE02F821305A00AEFE06F800145EC
:1050E000EFE00F800145EFD0BFFF0145EFD05FFF3C
:1050F0000145EFE02F801305A00AEFD07FFE1305D6
:10510000F00CEFD03FFF0145EFD09FFD0145EFD000
:105110003FFD0145EFD0DFFC0145EFD07FFC0145AD
:10512000EFD01FFC0145EFD0BFFB0145EFD05FFB87
:105130000145EFD0FFFA0145EFD09FFA0145EFD0CE
:105140003FFA0145EFD0DFF90145EFD07FF9014586
:10515000EFD01FF90145EFD0BFF80145EFD05FF860
:105160000145EFD0FFF70145EFD09FF71305000F82
:10517000EFD05FF80145EFD0BFF613050005EFD083
:105180003FF60145EFD0DFF50145EFD07FF5014552
:10519000EFD01FF51305300FEFD0DFF50145EFD04D
:1051A0003FF41305900FEFD0FFF41945EFD05FF3F4
:1051B0004145EFD0FFF213059002EFD07FF2014599
:1051C000EFD01FF21305A003EFD0DFF21305500557
:1051D000EFD01FF14545EFD0FFF113054006EFD0AA
:1051E0007FEB13059002EFD0FFF013055003EFD0D3
:1051F0007FF00145EFD0DFEE13051005EFD09FEFF4
:105200001305F00FEFD0DFED13053005EFD09FEE63
:105210001305C002EFD0DFEC13055005EFD09FED72
:1052200013052008EFD0DFEB1305C002EFD09FEC91
:105230006FB06F99EFB2EF964545EFD0BFEB130516
:105240008007EFD03FE513056003EFD0BFEA1305F9
:105250008004EFD0FFE81305A003EFD0BFE91305EA
:105260005005EFD0FFE71305000FEFD0BFE813059F
:10527000300CEFD0FFE61305000FEFD0BFE71305AA
:105280006009EFD0FFE51305400BEFD0BFE6054501
:10529000EFD01FE51305600BEFD0DFE52945EFD018
:1052A0003FE41305200AEFD0BFE31305700BEFD0E6
:1052B0007FE41305600CEFD0BFE21305900BEFD035
:1052C0007FE30945EFD0DFE11305000EEFD05FE18A
:1052D0001305000CEFD01FE213050008EFD05FE0CC
:1052E0005945EFD0FFDF1305100CEFD0BFE0654547
:1052F000EFD01FDF1305200CEFD0DFDF1305700A9E
:10530000EFD01FDE1305500CEFD0DFDE5945EFD094
:105310003FDD1305800EEFD0FFDD13050004EFD055
:105320003FDC1305A008EFD0BFDB0145EFD05FDB0A
:105330000145EFD0FFDA13059002EFD07FDA654523
:10534000EFD01FDA1305500AEFD09FD913053003B1
:10535000EFD01FD91305000EEFD0DFD91305000FD2
:10536000EFD01FD81D45EFD0BFD73545EFD05FD761
:105370001145EFD0FFD61545EFD09FD65145EFD060
:105380003FD613056003EFD0BFD513054005EFD01E
:105390003FD51305C004EFD0BFD413058003EFD071
:1053A0003FD44D45EFD0DFD35145EFD07FD3130528
:1053B000E002EFD0FFD213054003EFD07FD21305F8
:1053C000100EEFD03FD31305000FEFD07FD1414532
:1053D000EFD01FD15145EFD0BFD03945EFD05FD0CE
:1053E0003145EFD0FFCF2145EFD09FCF13055003BC
:1053F000EFD01FCF13054004EFD09FCE1305C0049C
:10540000EFD01FCE13056002EFD09FCD4145EFD006
:105410003FCD4945EFD0DFCC1305C002EFD05FCCC4
:1054200013052003EFD0DFCB1305000FEFD09FCC87
:105430001305C003EFD0DFCA1305000FEFD09FCBD9
:1054400013059006EFD0DFC913058007EFD09FC486
:1054500013051002EFD01FCA13059002EFD09FC9A9
:105460006FA07FF6EFA2FFF3930550053D65EFD0E7
:10547000DFC93D64130514009305A00AEFD0FFC8EF
:105480001305240093052005EFD03FC81305340011
:10549000A145EFD09FC7130544008545EFD0FFC657
:1054A000B5452D652D64EFD05FC613051400B545D5
:1054B000EFD0BFC513052400B545EFD01FC51305B8
:1054C000046093054003EFD05FC413051460930597
:1054D0004003EFD09FC31305246093054003EFD032
:1054E000DFC213050410B545EFD03FC213051410F9
:1054F000B545EFD09FC113052410B545EFD0FFC0CF
:105500001305047093054003EFD03FC013051470DA
:1055100093054003EFD07FBF13052470930540032C
:10552000EFD0BFBE130504208145EFD01FBE130589
:1055300014208145EFD07FBD130524208145B1643F
:10554000EFD0BFBC1385048093054002EFD0FFBBB2
:105550001385148093054002EFD03FBB1385248050
:1055600093054002EFD07FBA138504F08545EFD054
:10557000DFB913050430BD45EFD03FB91305143032
:10558000BD45EFD09FB813052430BD45EFD0FFB720
:105590001385049093054003EFD03FB71385149013
:1055A00093054003EFD07FB6138524909305400305
:1055B000EFD0BFB513050450A145EFD01FB51305BB
:1055C0001450A145EFD07FB413052450A145EFD06E
:1055D000DFB3138504208D45EFD03FB3138504A0BE
:1055E00093054002EFD07FB2138514A093054002CB
:1055F000EFD0BFB1138524A093054002EFD0FFB0D8
:10560000138504C08145EFD05FB0138514C09305A6
:105610008007EFD09FAF138524C08145EFD0FFAE48
:10562000138504D08145EFD05FAE138514D0930568
:105630008007EFD09FAD138524D08145EFD0FFAC1C
:10564000138504E08145EFD05FAC138514E093052A
:1056500040063564EFD07FAB130504108145EFD0D1
:10566000DFAA1305141093053003EFD01FAA13050A
:1056700024108145EFD07FA9130534109305400312
:10568000EFD0BFA8130544108145EFD01FA8130524
:1056900054109305A003EFD05FA713056410814554
:1056A000EFD0BFA6130574109305A004EFD0FFA59B
:1056B000130584108145EFD05FA513059410930561
:1056C000C005EFD09FA41305A4108145EFD0FFA320
:1056D0001305B41093051008EFD03FA31305C410B1
:1056E0008145EFD09FA21305D4109305600AEFD037
:1056F000DFA11305E4108145EFD03FA11305F4109D
:105700009305500EEFD07FA0130504118545EFD00F
:10571000DF9F13051411CD45EFD03F9F13052411D2
:105720008545EFD09F9E1305341193054005EFD0BA
:10573000DF9D130544118545EFD03F9D130554119E
:1057400093052008EFD07F9C130564118545EFD0A9
:10575000DF9B130574119305A00CEFD01F9B13055D
:1057600084118945EFD07F9A130594118145EFD0BC
:10577000DF991305A4118945EFD03F991305B411A2
:105780008545EFD09F981305C4118945EFD0FF9749
:105790001305D41193054003EFD03F971305E4118F
:1057A0008945EFD09F961305F41193057006EFD04D
:1057B000DF95130504128945EFD03F9513051412A8
:1057C00093054008EFD07F94130524128945EFD04C
:1057D000DF93130534129305400AEFD01F9313058E
:1057E00044128945EFD07F92130554129305700B34
:1057F000EFD0BF91130564128945EFD01F911305B7
:1058000074129305F00CEFD05F9013058412894554
:10581000EFD0BF8F130594129305E00DEFD0FF8EEC
:105820001305A4128945EFD05F8E1305B4129305BA
:10583000200FEFD09F8D1305C4128945EFD0FF8C48
:105840001305D4129305E00FEFD03F8C1305E4123B
:105850008D45EFD09F8B1305F412C145EFD0FF8A21
:10586000130504138D45EFD05F8A130514139305B8
:105870003003EFD09F89130524138D45EFD0FF88A7
:10588000130534139305D006EFD03F881305042089
:105890008145EFD09F871305142093053003EFD087
:1058A000DF86130524208145EFD03F861305342081
:1058B00093054003EFD07F85130544208145EFD049
:1058C000DF84130554209305A003EFD01F84130534
:1058D00064208145EFD07F83130574209305A004D5
:1058E000EFD0BF82130584208145EFD01F821305BE
:1058F00094209305C005EFD05F811305A420814556
:10590000EFD0BF801305B42093051008EFD0EFFF50
:105910001305C4208145EFD04FFF1305D420930514
:10592000600AEFD08FFE1305E4208145EFD0EFFD34
:105930001305F4209305500EEFD02FFD130504211D
:105940008545EFD08FFC13051421CD45EFD0EFFB3B
:10595000130524218545EFD04FFB13053421930512
:105960004005EFD08FFA130544218545EFD0EFF9BC
:105970001305542193052008EFD02FF91305642156
:105980008545EFD08FF8130574219305A00CEFD057
:10599000CFF7130584218945EFD02FF71305942104
:1059A0008145EFD08FF61305A4218945EFD0EFF59F
:1059B0001305B4218545EFD04FF51305C421894562
:1059C000EFD0AFF41305D42193054003EFD0EFF3EC
:1059D0001305E4218945EFD04FF31305F421930516
:1059E0007006EFD08FF2130504228945EFD0EFF156
:1059F0001305142293054008EFD02FF1130524223C
:105A00008945EFD08FF0130534229305400AEFD07B
:105A1000CFEF130544228945EFD02FEF1305542211
:105A20009305700BEFD06FEE130564228945EFD01C
:105A3000CFED130574229305F00CEFD00FED130595
:105A400084228945EFD06FEC130594229305E00D75
:105A5000EFD0AFEB1305A4228945EFD00FEB130570
:105A6000B4229305200FEFD04FEA1305C4228945D5
:105A7000EFD0AFE91305D4229305E00FEFD0EFE8A4
:105A80001305E4228D45EFD04FE81305F422C145FC
:105A9000EFD0AFE7130504238D45EFD00FE71305D3
:105AA000142393053003EFD04FE6130524238D45CF
:105AB000EFD0AFE5130534239305D006EFD0EFE424
:105AC000130504308145EFD04FE4130514309305DE
:105AD0003003EFD08FE3130524308145EFD0EFE2A0
