:040000006F70503697
:100004000000000000000000C6770000E677000052
:1000140000000000627B00000000000000000000FF
:10002400627B0000627B0000000000000000000012
:10003400B22F000000000000900200000000000049
:10004400627B0000627B0000627B0000627B000038
:10005400627B0000627B0000326E00005A6E00007A
:10006400826E0000AA6E0000D26E0000627B000067
:10007400627B0000627B0000627B0000627B000008
:10008400627B0000627B0000627B0000627B0000F8
:10009400627B0000627B0000627B0000FA6E00005D
:1000A400627B0000627B0000627B0000627B0000D8
:1000B400627B0000627B00005E8D0000627B0000BA
:1000C400627B0000627B0000627B0000627B0000B8
:1000D400627B00002C720000627B0000627B0000E7
:1000E400726F0000627B0000627B0000627B000094
:1000F400627B0000627B0000627B0000627B000088
:100104000000000040320000627B0000627B0000BF
:10011400627B0000627B0000627B0000627B000067
:10012400627B0000627B0000627B0000627B000057
:10013400627B0000627B0000627B0000627B000047
:10014400627B0000627B0000627B0000627B000037
:10015400627B0000627B0000627B0000627B000027
:10016400627B0000627B0000627B0000627B000017
:10017400627B0000627B0000627B0000627B000007
:10018400627B0000627B0000627B0000627B0000F7
:10019400627B0000627B0000627B0000627B0000E7
:1001A400000000000000000000000000000000004B
:0C01B4000000000000000000000000003F
:1001C00097020120938202E4938202E0739002344A
:1001D00003210500224573100530B1A819712320B1
:1001E000250006C006C216CAF322003093F2820030
:1001F000638402009302000816C412C81ACC1ECEF3
:1002000022D026D22AD42ED632D836DA3ADC3EDEB6
:10021000C2C0C6C2CAC4CEC6D2C8D6CADACCDECE26
:10022000E2D0E6D2EAD4EED6F2D8F6DAFADCFEDE96
:1002300003A1050009A002457310153492403785CB
:10024000000013050580732005302245732005301A
:100250004242D2426243F243025492542255B25572
:100260004256D2566257F257064896482649B64932
:10027000464AD64A664BF64B065C965C265DB65DF2
:10028000465ED65E665FF65F09617300203000004F
:10029000197116CA9302000816C49302000273A0D3
:1002A000428006C212C81ACC1ECE22D026D22AD430
:1002B0002ED632D836DA3ADC3EDEC2C0C6C2CAC456
:1002C000CEC6D2C8D6CADACCDECEE2D0E6D2EAD4E6
:1002D000EED6F2D8F6DAFADCFEDE73110134EF0066
:1002E0000062EF10F00BEF00C0647311013413844F
:1002F000818B032904006304090223200400732571
:1003000010342AC01384018B044023A024001384DA
:10031000418B044003A10400024573101534924040
:10032000B78200009382028073A00230A24273A0C1
:1003300002304242D2426243F24302549254225566
:10034000B2554256D2566257F25706489648264949
:10035000B649464AD64A664BF64B065C965C265D25
:10036000B65D465ED65E665FF65F0961730020305B
:100370000000397101436EC619A0397141536AC832
:1003800066CA62CC5ECE19A0397101535AD056D2DA
:1003900052D44ED64AD826DA22DC06DE330161403A
:1003A000828241114AC026C222C406C68282B24D50
:1003B0004101024D924C224CB24B4101024B924AF8
:1003C000224AB2494101024992442244B2404101C9
:1003D00082803D432A876373C3029377F700BDEFA2
:1003E000ADE5937606FF3D8ABA960CC34CC30CC7A5
:1003F0004CC74107E36BD7FE11E28280B306C340CE
:100400008A069702000096966780A6002307B70029
:10041000A306B7002306B700A305B7002305B7005E
:10042000A304B7002304B700A303B7002303B70056
:10043000A302B7002302B700A301B7002301B7004E
:10044000A300B7002300B700828093F5F50F9396C1
:100450008500D58D93960501D58D61B793962700BC
:100460009702000096968682E78086FA9680C117EA
:100470001D8F3E96E374C3F8A5B7B707002003A508
:1004800007348280EFF2FFF1B7070020938707342B
:100490009843050798C3EF1040343C45FD173CC511
:1004A00089E77C413CC5EF100038EF10E06221BFC6
:1004B000634205029307803E3347F5023365F50238
:1004C0003305F5021305753E3345F5023307F70290
:1004D0003A9582807D5582800145828001458280E7
:1004E0000145828001458280EFF2BFEB4964C96417
:1004F000130484569384445763639400E9B51C4005
:1005000011048297D5BFEFF2DFE94964C96413048F
:1005100044579384C4576363940075B51C40110419
:100520008297D5BFEFF2FFE7F93FEF70603861BD0A
:10053000EFF23FE7B705000037D50000D147154778
:10054000930600200146938545521305452FEF1071
:100550002029EF10804085BDEFF2BFE4EF10206549
:10056000EF20101EEF00F02DEF10605EEF00907A8C
:10057000C137EF10605E012CEF00B07C0145A1B5E2
:10058000EFF23FE2D13F01453DBDEFF2FFDFAA8927
:10059000EF10A02419C1EF10000D2545EF003063C6
:1005A00044411304450063968400EF100023014981
:1005B00011A8138944FF2146CE854A85B92501E952
:1005C000EF10A02119C1EF10600B4A85C5BB844014
:1005D000D9BF09E57D5582807D55F5B3EFF27FDC0B
:1005E0002A842E853289AE844D377DF52285268674
:1005F000A545EF0070600145231C2401230E040073
:10060000231D0400D9BFEFF2DFD91E2D41112A842A
:10061000C18B9DE71C558DC32EC68297AA84B24517
:1006200001CD2A8637D50000A2851305C52FEF001E
:10063000901A2685410141BB1E2C93E707011EAC91
:100640001E2CA18B89C73E2CE554A18BFDF35C5475
:1006500089CF22858297AA8405E13E2C93E7870003
:100660003EAC5C2C85075CACE9B785679387F7F0F7
:10067000FD8D2EAC8144D5B7E957E31CF5FAF1BFE7
:100680005C2D85CBEFF2FFD1FD1793F7F70F5CAD33
:100690002A84014789EF1C5989E70147231D04007B
:1006A00039A082972A8775D9E957E309F5FE3A857B
:1006B00019BB7D573A858280EFF2BFCE582D09E7EE
:1006C0007D553521014521A05C5999C38297E5B933
:1006D0006955C5BFEFF2FFCC582D09E77D550129BB
:1006E000014521A01C5D99C38297F1B96955C5BF29
:1006F0000CD101458280EFF23FC993894188854A38
:1007000083A7418863863705EF10604A83A7418835
:100710002A8A638D370303A441885C40184013097B
:10072000C4FE5CC398C340C000C0EF00D0737C50CF
:1007300099C34A8582974A85EF00505D631B550136
:100740004A85EF005051EF0070735285EF10E0467C
:10075000B5B1EF00B0725285EF1020464848EF0067
:10076000703C4A85EF00705761BFEFF29FC313845E
:100770008196130904011C4091C382971104E31C64
:1007800024FF953FEDB7EFF2DFC137060000B7D584
:100790000000930800023D489307002013878197CB
:1007A00081461306A676938545331385818EEF0027
:1007B000B07F1385818EEF10401A31B1EFF27FBE0A
:1007C00041112A842E8532C62EC4EF10E00A32462B
:1007D000A24519C68547630DF60001454101E5B6FE
:1007E0005840938745011CC398CD5CC0C0C9F5B77C
:1007F0001C406388870083C6550303C7170263FA4A
:10080000E600D4431387450198C294CDD8C3DCC910
:10081000E9B79C43F9BFEFF2DFB84111B2842E86ED
:1008200089452A8436C6EF00303DB246930744011D
:100830001CCC5CC846AC14B40145410169B6EFF26A
:10084000BFB483A7018741112EC62A8491C3829722
:10085000EF10E0355E2CAA8989CFFD175EACEF1052
:10086000C03583A7C186014591CB2285829701457A
:1008700031A0B24791E7EF104034795541013DBEB8
:10088000EF00B075232805021034AA85AA84130549
:1008900044012D37B247635CF0001389C404700033
:1008A00081454A85EF10C01F4A85EF1060144E85C0
:1008B000EF10A030EF00B04B885845D5C1B7EFF22C
:1008C0005FAE83A781862A8491C38297EF10202E82
:1008D000AA84484893074401630EF5003115EF10D0
:1008E000000305442685EF10402D19C0EF00304865
:1008F0000145D1BC5E2C85075EAC0144E5B7EFF243
:100900005FAA4111EF10A02A370700201307C73450
:100910001C23850793F7F70F1CA3B707002083A7B5
:10092000473481C72AC682973245EF10002941011A
:1009300059BCEFF21FA74111EF10602737070020C5
:100940001307C7341C23FD1793F7F70F1CA3B70732
:10095000002083A7873481C72AC682973245EF10CB
:10096000C02541018DB4B707002003C5C73482807C
:10097000937808044111639E0800B5689388084E77
:1009800093730801638B03001378E8FF930E000252
:1009900019A8B5689388C843E5B713731800930E78
:1009A0000003E30503FE13732800630E0306635878
:1009B00006023306C0409302D0020A8E814F294FAF
:1009C0006395E6073373D6023356D6024693034344
:1009D0000300850F050EA30F6EFE7DF20DA01373AD
:1009E00048009302B0026317030093728800B33289
:1009F0005000960279F2930600035480854FFE86DC
:100A000063D3FF00BE8613781801158F63130804A3
:100A1000638502006353E0007D172A86B308E50072
:100A20001303000221A88142F1B71373F60011826B
:100A300071BF6374B6002300660005063388C840A2
:100A4000E34900FF3A866353070001467D1732955C
:100A5000118F638802006374B500230055007D1771
:100A6000050563870302AA96130800031DA8637493
:100A7000B6002300D60105063388C840E34900FFCD
:100A80003A866353070001467D173295118FE1BF07
:100A90002A86B308E500CDB76374B50023000501CD
:100AA00005053386A640E3C9CFFEFD56FD1F6383CF
:100AB000DF0099E7AA873306E5001308000231A892
:100AC0006376B5003306F101102210A10505F9BFC8
:100AD00063F4B700238007018507B306F640E349B6
:100AE000D0FE6353070001473A9541018280EFF23F
:100AF0005F8B2A848D3D19C5B707002023A8873452
:100B00006FF07F8CEF00704D65D900D9D5BF0D47D0
:100B1000AA876376C7009377350091C7AA873E9668
:100B20006397C706828093F7F50F13978700D98FD5
:100B3000139707015D8FB308C500AA87BD463388A8
:100B4000F84063EB060393574600C156B386D702BD
:100B50009207AA970D4836963383C700BE86B3081E
:100B6000D3406362180313572600F156B306D70229
:100B70000A07BA97369665B798C3D8C398C7C1070E
:100B800023AEE7FE6DBF910623AEE6FEC9BF850723
:100B9000A38FB7FE71B763F2A504B386C500637E69
:100BA000D5029345F6FF8147FD176393F5008280D8
:100BB0003387F600030807003387C7002A9723000E
:100BC0000701DDB73387F500830607003307F5001B
:100BD000850714A3E318F6FE82808147E5BF0DC6A2
:100BE000AA8785050387F5FF85079306F6FFA38F80
:100BF000E7FE09EB3E9685076393C7008280A38FCB
:100C000007FED5BF3686F1FE828001476314E600F9
:100C1000814739A8B307E50083860700B387E5005D
:100C20009C23B387F640E207E18799E30507F9FEC5
:100C30003E858280AA870387070001E73385A740A6
:100C400082808507CDBFEFF24FF32E89B30B2501CC
:100C500041112A8CB68563F5AB001349F5FFFD5BA6
:100C6000C16937DA00006284930AB002130B0002F4
:100C7000FD19130A8A4D31A8130750026389E70250
:100C8000637374011CA013051400B284138614004E
:100C90002A8483070600EDF363060900637B742F43
:100CA000230004003305844141016FF08FF00148B7
:100CB0001307D002930630021305000331A0639E90
:100CC0005701136848002686830716009304160010
:100CD000E397E7FE13680801FDB7639567011368A2
:100CE0008800D5B76395D70013680802E9BF6395FC
:100CF000A70013681800C1BF138707FDA54663E668
:100D0000E6040147A546294539A03307A702850413
:100D10003E97130707FD83870400138607FDE3F65C
:100D2000C6FE038604009306E002FD57631FD60447
:100D300083871400254693861400138507FD636599
:100D4000A60A8147254529433DA09306A0027D5769
:100D5000E399D7FC9841930426009105E35307FCDF
:100D60003307E040136808016DBFB387670285064B
:100D7000B297938707FD03860600930806FDE37686
:100D800015FF63D307008147B684838604001306EA
:100D90008006014593F8B6FF6395C80013F5F60F7A
:100DA000850403860400930690066303D60663C594
:100DB000C606930680056303D61C63C3C604930767
:100DC00050026307F61A63757401930750021CA062
:100DD00083870400130514006386071A6373750183
:100DE0001CB0130524005DB51306A0026397C7006D
:100DF0009C4193862400910569B7B684814771B7F9
:100E0000930630066302D60893064006E31DD6FA21
:100E100013682800A94699A0930630076303D60CEF
:100E200063C5C6029306F0066300D6169306000754
:100E3000E31BD6F8FD566315D70013681800214749
:100E4000938C4500C14690411DA893065007E303CB
:100E5000D6FC93088007C146E31716F71306C006B1
:100E6000938C4500E301C5FE13068006E31DC5FC17
:100E7000904193752800639B051033763601DE851B
:100E80002285FD34E68519B513780801631508023B
:100E9000BA879306000229A06373740114A00504A5
:100EA000FD17E34BF0FE9307F7FF6343E0000547B0
:100EB0003387E740050793874500637474019441C5
:100EC00014A013051400229713060002B306A740CE
:100ED0006344D000BE855DBB6373750110A1050539
:100EE000F5B783AC0500138D450063930C00D28CDD
:100EF00066853EC63AC442C2353BB247AA8612480E
:100F000022476355F00063D3A700BE86137808011B
:100F1000631E0800BA871306000231A063737401D0
:100F200010A00504BA877D17E3CAF6FE814763C1A6
:100F3000D702B68763D3060081473305F4002A97AA
:100F400013060002B307A74063CFF600EA853DBB56
:100F50003306F40063777601B385FC0083850500D2
:100F60000CA28507E9B76373750110A10505D9BF08
:100F70006373740110A01305140009BB13680804FF
:100F8000C146E9BDFD1419B3A146C9BD420641865B
:100F9000FDB5A38F0BFE39B3B707002003A5473576
:100FA0008280EFF20FC03704002003294435EFF0B0
:100FB000CFDD11CD13044435AA84084019C1EFF0E8
:100FC0002FEC930530042685EFF0EFE304C04A854B
:100FD0006FF06FBF8280397126CA2ED232D436D6D6
:100FE0002A8654109305F007138581B73EDA36C67A
:100FF00006CE22CC3AD842DC46DEB131B70700201B
:10100000AA8603A5473509E9138581B7E137F24080
:101010006244D244216182802686262D138447357E
:1010200093E704043EAD9307F00763F4D7009306FB
:10103000F007138681B78145EFF0CFE91C40A6AFDA
:10104000F9B7EFF20FB637D5000013050545613744
:1010500037D500001305C545BD3F37D7000037D54C
:101060000000130707488D4605468D451305C54802
:101070009D3737D500001305C54AB13F6FF0AFB4B7
:1010800031C5B5661377F50F9386C63309C7BA968F
:10109000882205058280C167938707F0E98F81CB9D
:1010A00021851377F50F3697082325058280B7072A
:1010B000FF00E98F81CB41859377F50FB6978823A1
:1010C000450582806181369508216505828003A7E8
:1010D00041845C41BA976305F502B62395E283A685
:1010E0000184638FF6009386818490426313F60037
:1010F00088C2D44354C1DC43B306E540BA9794C7D1
:101100001045B307C700630FF500B62381EE938641
:1011100081848C426393A5009CC25441D4C35C413A
:101120003E9710C78280EFF2CFA783A5018537D500
:1011300000001305454F453583A5C18537D500000F
:1011400013058550493D83A5C18437D5000013059B
:10115000C55151356FF02FA7EFF2AFA413F7C5FFBC
:10116000E1462E8663F1E60693073500F19B930670
:1011700087FE63EAF6041D8F130687FE23A8C18449
:101180008966511713844184938606EAD8C394C3B1
:1011900023A407001CC0BA9723A0F184C9669386D4
:1011A00006EAB7D5000094C3D8C398C78146054660
:1011B0009385455B138581BFEFF0EFE5184023A4CD
:1011C000E1846FF04FA0AA8537D500001305C55BF9
:1011D0001935C5BFEFF2EF9C39C503A7018513048C
:1011E000350071981389018581446366870EB14784
:1011F0006373F4003144FD55138581BFEFF02FE494
:1012000083A7818483A541848328090026853386AA
:10121000B740B3868840138881846368D6001385FD
:1012200081BFEFF0CFE981447DA0B384C500BA202F
:1012300003AE440061E73307CE40930F47FF63EFEF
:101240008F0A138FC185938EC18413038401832673
:101250000F0083A30E001389C1859382C18463EFBD
:101260006F061307C4003297896E3383E500938EAF
:101270000EEA2322C3012324C3002320D301054601
:10128000D8C0B2A003264300B108630416012E960D
:1012900018C61387C60022972320E90063F4E300F1
:1012A00023A0E2000967130707EA9AA0639A970050
:1012B00083A601840147B22305EE19C32320F80059
:1012C000138581BFEFF0AFDF83A78185B10481C7AC
:1012D000A2852685829726856FF0EF8E0546369784
:1012E000B2A02320EF00E3FFE3FA23A0EE005DBFEE
:1012F000E385D7FCDC430547AE9775BF728631BFE7
:10130000EFF22F8A3306B5024111328532C6D93544
:101310002A8409C532468145EFF06FFF22854101DD
:101320006FF06F8A45C5EFF22F8683A741852A8427
:1013300091C3829783A74184138941846366F4082B
:1013400083A701846372F408FD55138581BFEFF014
:101350000FCF835764FF930944FF81CB035744FFAA
:101360008967938707EA6301F70237D50000130501
:1013700085569531835644FF035664FF37D50000E8
:10138000CE851305455881398967938707EA231A63
:10139000F4FE938781849843231B04FE63F4E900E1
:1013A00023A037011387C1851C43832684FF4E8504
:1013B000958F83260900B386D940B6971CC3013B9D
:1013C000138581BFEFF0AFCF6FE05FFF8280B7077B
:1013D00000209386070001479387070021468C422F
:1013E0006396A500131547003E9582800507C10648
:1013F000E317C7FE01458280EFE21FF92A842E859C
:10140000AE89328AE9372A89B92C832449009307A7
:1014100049006390F4049D2493E909F823043401FE
:101420002146D2852285EFF08FFB83A7018699C3E1
:1014300022858297EF00A077032749009307C40015
:101440005CC358C42322F90004C8EF0000776FE0A2
:10145000FFF684407DBFEFE2DFF483A741862A8454
:1014600091C3829723040400EF0060745444184829
:101470009307C400D8C214C31CC85CC4EF00E07357
:101480006FE07FF4EFE25FF02E89AA898937AA84A2
:10149000484589332A841DCDD0448145EFF02FE79C
:1014A000214623043401A3040400CA852285EFF0F9
:1014B0000FF383A7018699C322858297EF00206FDF
:1014C000D8409307C40091045CC358C49CC004C8AE
:1014D000EF00A06E22856FE07FEEEFE29FEC83A726
:1014E00041862A8491C3829723040400EF00206C74
:1014F000544418489307C400D8C214C31CC85CC421
:10150000EF00A06B2285393D6FE0FFEB03058500FE
:101510007D81828023900188938781C1138707088A
:10152000DCC39CC3A107E39DE7FE3D47238AE18618
:1015300023AC018623A6018893874188DCC39CC322
:101540008280EFE21FE603A5C188EFF07FB37D152F
:1015500093173500138581C13E9508411307C5FED9
:10156000210523ACE186EFE0BFC56FE0DFE5EFE2E8
:101570005FE3EF00C063839701882A89A1EB03A58D
:10158000C188EFF0FFAF7D1513173500938781C138
:10159000BA9784439387818780439385C4FE63070A
:1015A000B4028CC383A7C187238AA18699C32285ED
:1015B0008297B707002083C7C7341305C4019385FA
:1015C000840093F7F70F81EBEFE05FC14A85EF00EE
:1015D000C05E6FE05FDFEF00A05ECDBFEFE27FDCBB
:1015E0002A84EF00C05C8347440393064401C19BF7
:1015F00093E71700230AF402834754031397370035
:10160000938781C1BA97D84314C318CCD4C35CC89C
:101610009387C1889443185C558F98C3EF00E059B5
:101620006FE07FDAEFE2FFD72A845123184C544849
:1016300093074401D8C214C35CC81CCC834754032D
:1016400013973700938781C1BA979843631AF700BD
:101650001387C1881C5C144393C7F7FFF58F1CC325
:10166000A92B6FE05FD6EFE2DFD391239387018848
:101670009A2305079AA391236FE0FFD4EFE27FD26C
:101680003D23138701881E23FD17C207C1871EA3B0
:10169000634BF000231007000D2383A7818791C3BC
:1016A000F9356FE05FD2112BEDBFEFE29FCF03A4BE
:1016B0008187F529AA842285B5379147230AF40248
:1016C0001305C4043926228591358547631BF5002F
:1016D0003C5C81EB228541332685C521493D6FE085
:1016E0009FCE83A641881307440123A2E188D8C274
:1016F0009387418854C81CCCC5B7EFE29FCA2A849F
:101700005105411108CC48C80CD050D014D43A86A9
:1017100058D49305300236853EC642C4EFF02FBF41
:10172000585410544C5008507117B71600003A9690
:101730009386A66A1D21B24722483716000048CC7E
:10174000230BF402A30AF402232C04028147232270
:1017500004052324040523280402230A0402232C5D
:101760000406232E04060147A28613068678A28566
:101770001305C404152483A7018999C32285829780
:10178000014541016FE03FC4EFE2BFC15049144D34
:10179000795718D954C21307450190C218CD58C9BA
:1017A000353DF1336FE03FC2EFE2BFBF4111B2847C
:1017B0002E8685452A84368946C03AC63EC442C232
:1017C000EFF09FC3024892472247B2464A86A68559
:1017D0002285253741016FE01FBF03A581878280E5
:1017E000EFE29FBA41112E89AA85054532C6B6841B
:1017F000BA893E8AEFF01FC92A8411C92685EFF005
:101800007F9D324609E92285EFF03FCD01442285D4
:1018100041016FE0BFBAAA865288CE872687CA8563
:101820002285E13DEDB7EFE2DFB7512683A781873F
:101830000546AA8603C747033D8B631CC702D04BEE
:10184000984F6308E60258C210C303C65703938635
:1018500047010E06138781C194CF3297504314C2BB
:1018600090CF54C3D8CB912EEFF07FD001456FE0DD
:101870009FB536859926DDBF834745030547BD8B58
:10188000639EE702EFE2FFB12A84152683474403F3
:10189000AA842285C19B93E72700230AF4025933C7
:1018A0001305C404F1222685092E83A781890145E9
:1018B00081C72285829701456FE0FFB07D55828008
:1018C000EFE23FAE41112AC6DD2403A481872A89B5
:1018D00022855D379304C404700081452685C922A2
:1018E000268539224A85D12CEFF07FC81858F95740
:1018F0006314F70023280402014541016FE0BFACE7
:10190000EFE23FAAEFE0DFBA653F6FE0DFAB83476E
:1019100045030947BD8B6390E704EFE29FA82A8443
:1019200079245448184C93074401AA84D8C214C39C
:101930001CCC5CC81305C404252A2685BD2C228531
:10194000EFF0DFC983A74189014581C722858297CE
:1019500001456FE05FA77D558280EFE29FA483463B
:10196000650305473317D70018DD0947A30AD502D9
:10197000230AE502693F83A7818799C3EFF03FBF40
:1019800001456FE05FA45449184D93074501D8C243
:1019900014C31CCD5CC98280EFE2BFA04111B284A8
:1019A0002E86A9452A8436C63AC43EC2EFF0DFA48B
:1019B0009247B2462247F99B1CB49307440144CC9A
:1019C00014D02324040258D01CCC5CC841016FE021
:1019D0009F9FEFE21F9D2A84D92AAA84228565371A
:1019E0002685E12A2285EFF01FA701456FE0BF9D04
:1019F000EFE23F9B2A84652AAA84228569371C343A
:101A00002685F99B1CB4552A83A7C18699C32285D4
:101A10008297EFE09FA65C503E9508D4492A138731
:101A2000818A03284700370600809387818A1346FE
:101A3000E6FF98436315F8029386C1899042050634
:101A400090C29306440154C358C894C31CCC1C34A0
:101A500093E717001CB4952201456FE0DF96544BC5
:101A60000C546385B6008D8EE378D6FCBA87D1B767
:101A70001C35858B85C7EFE2DF9283A781862A8498
:101A800091C382972D22AA842285F53D2685352291
:101A90001C340145F99B1CB46FE0FF927D55828098
:101AA00085476381F50263C5B70085C10145828022
:101AB0008947638FF5008D47E39AF5FE1C3593E760
:101AC000270009A85C511CC2D5B71C425CD1F9BFE4
:101AD0001C35F59B1CB5D9BFEFE23F8AEFE0FF99BB
:101AE0002A8CF120B70900802A8A9384818A93C9BD
:101AF000E9FF8D4B80406316940052857D286FE08E
:101B00005F8B48481309C4FE3305AC40E3E7A9FEE8
:101B100083A7018A99C34A8582974A85EFF0BFE679
:101B20001C4448448297EFE05F9583A7418A2A8C42
:101B300099C34A858297834754FF13F7E70FA30A97
:101B4000E4FE8D8BE39877FB4A855D3565B7938717
:101B5000818ADCC39CC3828082801106719A2A88A4
:101B600037C7ADDE130506F8AA871307F7EE631E25
:101B7000F600A167938707882322D6F82324B6FAB4
:101B8000232006F92324F6F8828098C39107C5B76D
:101B900037F700E01C43B7060080D58F1CC3828056
:101BA00037F700E01C43860785831CC382802165CC
:101BB000130505807315053082807310053082800F
:101BC000EFE22FFE1387818B18439387818B19E3F4
:101BD00023A8A18A23AAB18A054798C3553F6FE07D
:101BE0008FFE2A87814718436314A7003E858280B1
:101BF0008507D5BFB707EFBE37E700E09387070833
:101C00003CC701458280EFE2CFF937D500001305CC
:101C1000855FEFF04FBC01456FE0EFFAEFE26FF840
:101C20002A84FD5437E900007D14631494006FE0AA
:101C30008FF9130509D6EFF00FBAFDB7EFE2CFF435
:101C40000041AA8437E90000B7E90000631494005A
:101C50006FE0CFF69305C4FE130549D6EFF0AFB79A
:101C60001C4063869700138589D6EFF0CFB60040FD
:101C7000F1BFEFE20FF32E89EFE0DFFB2A84EFF0F4
:101C80009F9E83240900639C2401EFF03F9FA1479E
:101C900063C3870011E0214422856FE0CFF21385F2
:101CA00044FFEFE03FF96353A4002A848440E1BF7E
:101CB000EFE2AFEC0545EFF08FF1B7E90000130953
:101CC00045002A84CA851385C98A6537AA85AA84EE
:101CD00037E500001386C98A1305458BEFF0AFAFD7
:101CE00026852D3F37E500001305858FEFF0AFAE59
:101CF0004040B7E90000054A894A37EB0000B7EBDE
:101D0000000037EC0000B7EC000037ED0000631571
:101D1000890001456FE0EFE9034794021385899339
:101D2000930644FF2146A685EFF0EFAA834784027D
:101D300013854C94BD8B638E470113050C95638A04
:101D400057011385CB9591C711476396E70013059B
:101D50008B96EFF04FA84C4C93073002AE8698223A
:101D60006306F7021050930740060848B295B38601
:101D7000D540B386F602585C5C50898D13054D97AB
:101D8000B3D6C602EFF02FA5004051B78506C1BFFC
:101D9000EFE28FDF41110945EFF06FE39309450052
:101DA00037E900002A84CE851305C984EFF07FEC63
:101DB000AA85AA8437E500001306C9841305858522
:101DC000EFF06FA12685EFF07FE537E50000130502
:101DD0004587EFF04FA0404037EA0000B7EA000027
:101DE000372B010063968900014541016FE00FDD4B
:101DF0001A281C44930644FF1309840036C63AC4CB
:101E00004A856306F902EFF0DFDD2247B246AA8772
:101E10002146A6851385CA88EFF0EF9B4A85EFF02F
:101E2000FFE113050BF3EFF00F9B004065BFEFF0F0
:101E30005FDB2247B246AA872146A6851305CA89D9
:101E4000EFF06F99DDB7EFE22FD441111145EFF0BC
:101E50000FD89309450037D900002A84CE85130591
:101E60000969EFF01FE1AA85AA8437D5000013069F
:101E7000096913058569EFF00F962685EFF01FDAE3
:101E800037D500001305C56BEFF0EF94404037DA0B
:101E90000000B7DA0000372B010063968900014586
:101EA00041016FE0AFD11C4413098400930644FF45
:101EB00018486309F9024A8536C63AC4EFF07FD262
:101EC0002247B246AA872146A6851385CA6DEFF040
:101ED0008F904A85EFF09FD613050BF3EFF0AF8F8D
:101EE000004065BF2146A68513054A6FEFF0AF8E0F
:101EF000C5BFEFE26FC941110D45EFF04FCDB7D926
:101F00000000130945002A84CA851385897EEFF0F5
:101F10005FD6AA85AA8437D500001386897E13056B
:101F2000057FEFF04F8B2685EFF05FCF37E50000A0
:101F300013054581EFF02F8A4040B7E90000631692
:101F40008900014541016FE06FC7930644FF130507
:101F5000840036C6EFF0FFC8034834015C48B2463F
:101F6000AA8821472146A68513854983EFF0AF86CD
:101F70000040F1B7EFE24FC141111545EFF02FC519
:101F80009309450037D900002A84CE85130589704E
:101F9000EFF03FCEAA85AA8437D5000013068970DA
:101FA00013050571EFF02F832685EFF03FC737D576
:101FB000000013054573EFF00F82404037DA000050
:101FC000B7DA0000372B0100639689000145410113
:101FD0006FE0CFBE7A285E281044930644FF1309B1
:101FE000840036C63AC43EC24A856307C902EFF090
:101FF0005FBF92472247B2462A882146A6851385AD
:102000000A75EFE05FFD4A85EFF05FC313050BF340
:10201000EFE07FFC00404DBFEFF0BFBC924722478E
:10202000B2462A882146A68513058A76EFE0BFFAD4
:10203000D5B7EFE26FB541111945EFF04FB99309EC
:10204000450037D900002A84CE8513050978EFF0C2
:102050005FC2AA85AA8437D5000013060978130544
:10206000C578EFE05FF72685EFF05FBB37D500005E
:102070001305857AEFE03FF6404037DA0000B7DA23
:102080000000372B010063968900014541016FE094
:10209000EFB21A2C1C44930644FF1309840036C681
:1020A0003AC44A856306F902EFF0BFB32247B2464D
:1020B000AA872146A68513850A7CEFE0DFF14A85D1
:1020C000EFF0DFB713050BF3EFE0FFF0004065BF63
:1020D000EFF03FB12247B246AA872146A6851305F5
:1020E0004A7DEFE05FEFDDB7EFE20FAA5D712545B6
:1020F000EFF0EFADB565130600052A84130945001E
:102100009385452A0A85EF90905BB7D90000CA8570
:1021100013858962EFF0FFB5AA85AA8437D5000040
:102120001386896213050563EFE0FFEA2685EFF069
:10213000FFAE37D5000013058565EFE0DFE94040CD
:10214000D14937DA000063168900014561616FE00B
:10215000EFA61C44930644FF63E0F90298088A073F
:10216000BA9703A707FB1C282146A6851305CA6753
:10217000EFE07FE60040C1BF4647F5B7EFE2CFA0F2
:102180002945EFF0CFA4B7E90000130945002A84E0
:10219000CA851385C999EFF0DFADAA85AA8437E512
:1021A00000001386C9991305459AEFE0DFE2268502
:1021B000EFF0DFA637E500001305C59CEFE0BFE1B7
:1021C0004040B7E9000037EA0000B7EA0000631EAC
:1021D0008900EFE08FAAAA8537E50000130545A224
:1021E000EFE07FDF01456FE06F9D5C4C184C13857D
:1021F000099F930644FF2146A685EFE0DFDD834774
:10220000D4FF13858AA0858B99E313054AA1EFE0DB
:102210009FDC00406DBFEFE22F9737D5000013051C
:102220000560EFE05FDB03A4018CB7D9000037DA6B
:10223000000083A7418C6365F40001456FE00F98AF
:1022400004400946938549612685EF90106B19C5B6
:102250005040A68513058A61EFE0FFD73104D1BF56
:10226000EFE28F9237E50000130545ECEFE0BFD6B3
:1022700003A4018CB7E9000037EA000083A7418C72
:10228000636BF40037250100130505F3EFE0BFD4BD
:1022900001456FE0AF9204401946938509EE26850B
:1022A000EF90B06501E950409385640013058AEE14
:1022B000EFE07FD23104D9B705458280EFE2CF8CC1
:1022C00079712A84AA9593060002254783070400A2
:1022D000B38485406385D70A6383E70A0145638B2E
:1022E0000410014913070002A546B30724018387A0
:1022F0000700638AE7086388D7086314990883A9ED
:10230000018C83AA418C37EB000063F0590903AAC2
:102310000900194693050BEE5285EF90105E59E5C2
:102320004A86A28513056A00EF90305D41E14A9A22
:1023300083076A00A5EF83A989006388090413064F
:10234000800281452800EFE0CF8813098100CA860A
:10235000A2870145014713080002A5482943130637
:102360002002130EC0058385070063840501639670
:102370001505631F9702A9476303F50469A80504BF
:10238000B1B705099DB7E31C09F6A28703870700CB
:102390001377F7FD79E737E500001305C5EA2380D9
:1023A0000700A285EFE03FC37D55A9A0B109B1BFE9
:1023B00023800700050785077DB76310650437E5AF
:1023C0000000130585E8EFE01FC10018B7E4000026
:1023D00083250900138584EA1109EFE0DFBFE319C3
:1023E00089FE37250100130505F3EFE0DFBE29451F
:1023F0002C00829945616FD07FFC637E97000505B4
:102400006392C504850705079CC283850700638125
:10241000C5026364970069FD8DBF838E17006396C4
:10242000C5016394CE008507050785070507F1BF41
:10243000E37397FE23800700050785079106E36491
:1024400097F2D1BF9CC2838507006389050163872A
:102450001501E30297FC85070507F5B7E36097FED2
:102460005DBF850725B7EFD25FF18307050099E7C8
:1024700081450145EFF0DFDE6FD0BFF303AA018C89
:10248000AA898144014937EB0000B7EB000083A71C
:10249000418C6369FA00EDD04A86A6854E85EFE04F
:1024A0000FF4D9BF03240A00194693050BEE2285C9
:1024B000EF90B04421E14E85EF90104319042A8635
:1024C000A2854E85EF90704315E5631709002285BC
:1024D000EF9090412A89A284A6872287038607006D
:1024E00001EE858F63D327013E89A28513850BEF0B
:1024F000EFE07FAE310A61BF83060700FDD2E31231
:10250000D6FE85070507D9BFEFD2BFE9EFF04FFA36
:1025100001456FD05FEBEFD2DFE8EFE0DFC00145B0
:102520006FD07FEAEFD2FFE703A5C18BEFE02FB9B1
:1025300001456FD05FE9EFD2DFE6B727010093874F
:10254000073F23A0F18CB72701009387475623A2AA
:10255000F18CB72701009387475623A4F18CB72746
:1025600001009387475693050021054523A6F18C6A
:102570001384C18BEFE0DFD808C019E937E500000C
:10258000130545FAEFE03FA57D5422856FD0BFE3E8
:10259000B725000037E50000A9472D479306004006
:1025A00001469385656B1305C5FBEFF06FA3AA8405
:1025B0000840B7E5000081460146938545FCEFE001
:1025C0008FA50144F9D02685EFF02FB97DBFEFD25A
:1025D0005FDDEFF07FCE0DC5B7E50000938505F711
:1025E000138581C9EF90502FB7E50000938505F85A
:1025F000138581C9EF90702C138581C96FD0BFDC22
:10260000B7E50000938585F7E1BFEFD29FD92A8413
:1026100037E50000130505FEEFE0FF9BEFF03FFB01
:10262000AA8537E500001306A41B130585FEEFE01D
:102630009F9A01456FD03FD9EFD2BFD641112AC62C
:10264000EFD0BFF4B24511E937E50000130545F8B6
:10265000EFE07F9841016FD01FD783A7C18BAA8479
:102660001384C18B83A7C720E386A7FE930530148C
:10267000EFD07FF965F11C4003A5C72009C9EFE041
:102680002F801C40814503A5C720EFE06F860040E6
:102690001306000581451305A41BEFD09FD3B72572
:1026A0000000231504202326942093854552268577
:1026B000EFE00F8445B7EFD2DFCB83A7C18B411189
:1026C0009384C18B03C74702136717002382E70275
:1026D00083A7C72091E7EFE03F8C19C1EFF0DFF54A
:1026E000EFF0FFEEEFE03F8F37EB0000B7EB0000BD
:1026F000B7E90000372A0100B7EA000037EC000014
:10270000B7EC00009C4085461306F10003A5C720E6
:10271000FD55EFD07FFA8547631AF5000309F100F4
:10272000ED4780406319F90008D0E9BF8840FD55A6
:10273000EFE0EF90C1BF1C506392A7029307B00572
:102740006315F90089471CD075BF23200402E30BF1
:1027500009FAA5476314F9120149D1A80947E3987A
:10276000E7FE23200402930710046312F9046E307D
:10277000D1D9FD15C205C1816EB09307A41B130703
:102780000005B385E502130600053E859385A50285
:10279000A295EF90C072EF9030151375F50F2305D9
:1027A000A420A305A4202285EFF03FE6A1BF930754
:1027B00020046311F90216347E301387F6FF63D8C4
:1027C000E70085077EB09307A41B6E304DBF9DDAEE
:1027D0007AB0D5BF930740046310F9028347B42051
:1027E00095D31385C9FCEFE00FFF98408347B720CE
:1027F000FD17A305F72039B793073004E319F9F45F
:102800008347B4200347A420E3FEE7EE3E9483050C
:10281000A41B13850AFDEFE00FFC98408347B72007
:102820008507C1BF1385C9FCEFE0EFFA05098040B9
:102830008347B420E348F9FE13050AF3EFE0AFF94C
:10284000EFF09FA785471304A41B6315F5002285AD
:10285000EFF07FC1EFF0BFD72286AA8513858CFEEB
:10286000EFE06FF780401305A41BEF90F00713759E
:10287000F50F2305A420A305A42069B59307F0074D
:102880006305F900A1476315F9088347B420E38B7A
:1028900007E60346A420FD1793F7F70F7D1613767E
:1028A000F60F2305C420A305F42063F8C70493851D
:1028B000B71B1385A71B1D8EA2952295EFE0AFAD28
:1028C0009C4013854BFD03C7A7203E97230D071A95
:1028D00083C5B7209385A51BBE95EFE0CFEF9C4045
:1028E00003C4B7209C4083C7A720E3CD87E01385AE
:1028F000C9FCEFE04FEE0504F5B71305CBFDEFE0A3
:102900008FED9C4003C7A720BA97238D071ADDBB24
:1029100035478347A4206305E9002947631EE90E74
:10292000B9CB035984029147130DA41B63FB2709FC
:10293000930DA41613060005EA856E85EF90E05509
:102940001DC91309A4024A851309090513060005C8
:10295000CA85EF90C056E3982DFF13060005814508
:102960006E85EFD01FA70346A420EA856E85EF9001
:10297000005595471EB41E347EB0EFF0FF93854797
:102980006312F5029C4083C74702858B89C71305F4
:102990000AF3EFE04FE488408345A5201305A51B0B
:1029A000EFF0DF91EFF0BFC2EFE0EFE280401306FF
:1029B000000581451305A41BEFD0BFA123150420FA
:1029C00091B3630109021305F9FF9307000533056D
:1029D000F50213060005EA851305A5022295EF907E
:1029E000C04B51D9930D00053305B90313060005FB
:1029F00081451305A5022295EFD0BF9D0A340346F9
:102A0000A420EA853305B5031305A5022295EF90AE
:102A1000004B1E348507B9BF1307F0046374F70039
:102A2000230504200346B4208347A4206370F608DE
:102A30009305A61B1305B61BA2953386C7402295A6
:102A4000EFE06F958C4083C7B5203387F500230DE9
:102A5000271B03C74502058B01CB9387A71BBE9598
:102A600013054CD6EFE02FD79C4003C4B7209C4001
:102A700083C7A7206346F40298408347A720834674
:102A8000B7208507850693F7F70FA305D720230501
:102A9000F7209306F004E3F7F6C6231507209DB14F
:102AA0001385C9FCEFE02FD30504D1B7A297238D7E
:102AB000271B83474402858BE1D3CA8513850AFD12
:102AC000EFE06FD155BF7C4123280504232A05047C
:102AD0009C4381CBEFD2FF8C9305850482976FD006
:102AE0009F8E01458280EFD23F8A36899DCAAA8493
:102AF0003284B309D600294A1C20639B4701BE2CAF
:102B000093F7070491C7FC40B54526859C478297FB
:102B1000FC408305040026859C4705048297E31D3D
:102B200034FD4A856FD09F89EFD2BF8793F7051098
:102B30002A8491C71A2D61551377071035CF13F7E3
:102B4000054011C71A2C61551377074035C713F795
:102B500005049304000401E7262C93F40404384888
:102B600093F5F50F2EAC39EBA1C7684429814205D6
:102B700041813105EFE00FE670442A893105298251
:102B80004206418281452320A900EFD05FF823222D
:102B900009003E2C232409002328240593E707106D
:102BA0003EAC7C4013060010C145DC432285829771
:102BB0003E2C0145DD8C26AC6FD0FF80F5DB93E524
:102BC00005102EACF5B70948AA8763810503EFD23B
:102BD0004FFD0D486382050305476399E5041A2DEF
:102BE0001377F7FD1AAD01456FD0EFFD1A2D13676E
:102BF00007021AAD01458280328775D6504274456E
:102C00004C2D2982A9824206C2064182C1826304F8
:102C1000D6001D45F1F91443B4C75443F4C7E1D5B8
:102C2000F443BA853E859442829675BF7C41DC436D
:102C300082975DBFEFD24FF53684B1CA3E2DAA8987
:102C4000328993F70710B6849DE37D5AA94A83A77A
:102C500049044E85DC478297630945012300A9009A
:102C6000FD14050963035501FDF0058C0DA02449F1
:102C7000368A854AEFE0BFF3FE20DA202A869444A4
:102C8000631AF70081EAEFE05FF3330444412285E1
:102C90006FD0CFF298403E97034B070003A7C904BB
:102CA0008507C2072983C1834207FEA0418363E4ED
:102CB000E700239304006394560123A404003285A3
:102CC000EFE0BFEF7D1A230069010509E3140AFA5A
:102CD0006DBF582D854763ECE7023E2D93F7071033
:102CE0009DC7EFD20FEC2A842849EFE0AFE33E2CDA
:102CF000232804041306001093F7F7EF3EAC7C4042
:102D0000C5452285DC43829701456FD0CFEB014555
:102D10008280EFD20FE937370000130767AC18D570
:102D200037370000130787B258D53737000013072D
:102D300027CD18D937370000130747C358D937377D
:102D40000000130767AE18DD37370000130767BCB4
:102D5000420658DD34C14182232A050023200502A2
:102D600023220502EFD0FF866FD0EFE593F5F50F34
:102D700085476391F50AEFD22FE120494111AA84DA
:102D80007D598549FC402685DC4782972A8A63075E
:102D90002505EFE0DFE15A201C40BA972380470168
:102DA0005E20F8448507C2072983C18342075EA0DD
:102DB000418363E4E7002312040076205E20639CD5
:102DC000D7008507C207C1837EA02324340163E4B2
:102DD000E70023130400EFE05FDE6DB79C5085C36E
:102DE000EFE0FFDC5A206E20636EB700B305B740FA
:102DF0002EC6EFE09FDC9C50B245268582974101AC
:102E00006FD0CFDBFC44998DA983C207C183B38502
:102E1000B740F9BF828001CEEFD2AFD87841B287F8
:102E20008E2318433222029701456FD0CFD97D55AA
:102E30008280EFD20FD71387C1D178432E86AA851F
:102E400018431385C1D102976FD0EFD7EFD26FD55A
:102E50001387C1D178432E86AA8558431385C1D1E3
:102E600002976FD04FD6EFD2CFD31387C1D178431B
:102E7000AA851385C1D1184702976FD0CFD405C654
:102E800011476392E602EFD2CFD17C410E2241116D
:102E90009C4736C632C482972246B2462AA236855D
:102EA00041016FD04FD28146368582801DC2B287E4
:102EB00011466390C602EFD2CFCE7841B2238E2363
:102EC0005843411136C60297B246410136856FD04C
:102ED0008FCF814636858280EFD2AFCC9387C1D128
:102EE0004947D8CB373700001307E7E7D8DB373738
:102EF00000001307C7EA98DF37370000130767E1C0
:102F0000ECC3B0C3AA850D461385C1D123A0070227
:102F100023A2070223A4070223A6070223A807026D
:102F2000D8DFEFD00FEB01456FD0EFC93715002088
:102F30001305C5878280372500201305C587828049
:102F4000EFD22FC603A781809307803EC156335727
:102F5000F702B7E700E02386D7402387D74085668E
:102F600023A0D710916623A0D710B7F700E023A0C5
:102F7000070023A20700014690C78146D4C78146B7
:102F80001306F7FF90CBD4CB3D4798C3EFD0CFD5F6
:102F9000EFF0DFF92A84EFF01FFAAA852285EFE02F
:102FA000AF9B37E5000013050506EFD09FFF6FD0FC
:102FB0008FC173110134EFD09F94B7F700E023A2C3
:102FC0000700EFD02FCCEFD0DF96731101347300E0
:102FD0002030EFD26FBBB7440140AE893289014443
:102FE00093840480634524014A856FD02FBD9305E7
:102FF00000042685EF50605B7DD9B3878900838507
:10300000070026850504C205C181EF508059D9BF4C
:10301000B7F700E0414798C303D7218D81463306B7
:10302000A70290CBD4CB98431367170298C3D84319
:10303000058B75DFD843799BD8C38280EFD26FB6FA
:103040001304803EB354850237490F001309092445
:103050003374850291E819C41305803E3305A40238
:10306000EFF01FFB6FD02FB64A85EFF07FFAFD140B
:10307000D5B7EFD20FB337440040AA8413090480B8
:1030800089454A85EF50802665DDA68513050480B5
:1030900037440040EF500025930404808545268581
:1030A000EF50C02465DD13050480EF50E023137555
:1030B000F50F6FD04FB1EFD2CFAEAA843784014065
:1030C0005C5893F75704EDDF1145EF50402019C5C8
:1030D0001145EF50A0200D456FD0EFAE0545EF50E4
:1030E000001F11C50545EF50601F0545F5B71C4889
:1030F0004145E39397FE9307F05F1CDC4848B7E730
:10310000FFFDA1077D8DC9BFEFD2AFA93784014074
:103110005C5893F70710B5C703C7418D85471384E3
:10312000818D631DF70437250020930745943147AF
:10313000D8C31307000498C713054594130700402C
:1031400023A0070023A6070098CBEF502016314597
:10315000EFF07FF608C0B7870140985FD17693867D
:1031600056CC1367071098DFD85F758FD8DF0547F7
:10317000A38AE18C1C403E856FD0EFA4232004007D
:10318000D9BF0945EF50A01419CD0945EF500015DE
:103190005C5C5177130757CCF98F5CDC094723AC93
:1031A000E18C8947C9BF2145EF50601219CD2145F7
:1031B000EF50C0125C5C5177130757CCF98F5CDC81
:1031C000114723ACE18C91477DB713050002EF5006
:1031D000001005C113050002EF5040105C5C5177F0
:1031E000130757CCF98F5CDC194723ACE18C994766
:1031F00059B74145EF50A00D19CD4145EF50000E94
:103200005C5C5177130757CCF98F5CDC154723AC16
:10321000E18C95478DB713050020EF50400B814797
:1032200039D913050020EF50600B5C5C5177130710
:1032300057CCF98F5CDC1D4723ACE18C9D4725BF43
:10324000EFF09FEC73002030EFD2AF95B70700206E
:1032500003D78731BD67938787F12A846315F70009
:103260006181EFF01FE1135504011375F50FEFF0C5
:103270005FE0135584001375F50FEFF09FDF1375B2
:10328000F40FEFF01FDF6FD00F94EFD28F912A89E8
:10329000371501402E84130505C08565B284EF40C3
:1032A000905A0D45EFF0FFDC2285EFF0FFF9014465
:1032B00093170401C18363EB9700371501408565BF
:1032C000130505C0EF40F0576FD0EF8F1305F00FD7
:1032D000EFF03FDAB307890088A30504D1BFB70731
:1032E0001060F917BE234111C207C1837C8728876C
:1032F00041018280411168873887B7071060420713
:1033000041839AA341018280411168873C87370736
:103310001060C207C183231FF7FE41018280B707F7
:103320001060239FA7FE8EA38280B727002003D7BB
:103330000796B7071060239FE7FE8280B72800201A
:103340009387889503DE4700BA27D227896793873A
:10335000379613D385009388889593F5F50F6314FA
:10336000FE0803D8080083CE6800370E10607D1871
:1033700093170801C1839306EEFF63960E04898FAD
:10338000231FEEFEC20723910600C183239106008E
:1033900013D78700BAA293F7F70FBEA2B707106042
:1033A000239FC7FE239067008EA31387E7FF83D771
:1033B0002800FD1793D68740C206C18236A393F733
:1033C000F70F3EA38280231FEEFE13588840135749
:1033D0008500BAA21375F50F4208AAA21358080176
:1033E000239106014DBF935885009377F50F37055C
:1033F000106015689306E5FF231FE5FE13080851CA
:103400002391160163130E03050742074183231F0F
:10341000E5FEBEA2231FC5FE0506420623916600F7
:103420004182231FC5FEAEA28280BEA2231FC5FE1D
:1034300023916600CDBF3727002093078795F0239F
:10344000D623854589671307879593873796631E2B
:10345000B6006399F6027D151375F50F994763F46D
:10346000A70413066003814749A01DE66396F60290
:103470009D4763E1A71AB967938787060A053E95BA
:103480001C4182879D4763E7A718B9679387870820
:103490000A053E951C4182877D151375F50F194667
:1034A0008147636BA600B9679387870A0A053E9533
:1034B0001C4182879307000E156613060651638A26
:1034C000C604256613061634638DC6001D66930573
:1034D00096786388B6009305667913066003639651
:1034E000B60093E7870013066003B7051060239FBB
:1034F000C5FE09669EA1130636966388C60C93F72F
:10350000070212232E2399CF6370B6020EA332A3B3
:1035100021A80D6613060660C9BF13066003930752
:103520000004E1B7E3E4C5FE956793870751639E06
:10353000F6083227B70710605627130816002E2307
:103540000A234208239FC7FE23900700135808014F
:10355000239F07FF130826004208239007001358F3
:1035600008017D15239F07FF1358854042080D066B
:10357000135808014206239007014182239FC7FE8A
:103580001375F50F8AA313861600239FD7FE4206F4
:10359000239007004182239FC7FE13862600420620
:1035A000239007004182239FC7FE1386F5FF9355A2
:1035B0008640C2058D06C181C2068EA3C182239FAB
:1035C000D7FE1376F60F92A3828036273706106057
:1035D000231FD6FE23100600231006001623FD1617
:1035E00093D58640C205C1810EA293F6F60F16A2AE
:1035F0005627231FD6FE23100600231006003A2369
:103600007D1793568740C206C18216A21377F70F23
:103610001AA2828081474DB59307000A71BD9307B6
:10362000000659BD9307000241BD9307000C69B520
:103630009307000451B593070008BDBDEFC27FD6C4
:10364000411132C6EFF09FCFEFF03FCE3246B707C1
:1036500010604206418292A341016FC0DFD6EFC2E3
:103660005FD4B70710601307E00B1384E7FF239FB5
:10367000E7FE95473EA0EF70804FB717010003A605
:10368000870483A6C704EF607009EF708048420585
:1036900041812AA085473EA09307F00F3EA0231149
:1036A0000400231104006FC01FD2EFC29FCFB727C1
:1036B000002093868795E8A2DA229387879555E1C3
:1036C000370640011306060F90C215669305065192
:1036D0006315B702B737002A938707C09CC68D676A
:1036E000938707B0DEA6B70720039387071E9CC207
:1036F0000145EFF05FD46FC01FCD89669386369683
:10370000631AD702B7062B009386C60294C79306A6
:10371000A002D6A7B70620039386061E94C3A96607
:1037200093866680E316D7FC370720031307071E2E
:1037300098C37DBFB7062A009386C60294C7930636
:10374000B002D6A7130606316317C700B706E0011B
:1037500093860614E1B79D6693866679E308D7FEE3
:103760007DBF3706F0001306061490C215661306D7
:1037700006516310C702B737002A938707C09CC65B
:103780008D67938707B0DEA6B707E00193870732FE
:10379000B9BF8966938636966307D700A966938674
:1037A0006680631CD702B7062A009386C60294C7B8
:1037B0009306B002D6A7B706E0019386063294C3FB
:1037C0009566938606316307D7009D669386667972
:1037D000E310D7F23707400191BFB7062A0093865E
:1037E000C60294C79306B002D6A7D9BFEFC27FBB6B
:1037F000B7270020938787959A23A2238145AA841F
:1038000001453304E402EFF07FB3EFF01FB28147CC
:1038100037071060639487006FC0FFBA06A385075F
:10382000D5BFEFC27FB61971854513050010EF4073
:10383000502285452145EF40B02385451305000200
:10384000EF401023854513050004EF407022F17707
:1038500093873770371401407C82E1471305044099
:103860003EC64C008D47372901403EC4EF40C07032
:10387000930700F8130509804C007C82EF40C06F6D
:1038800093070008130504404C007C82EF40C06E93
:1038900093070002130504404C007C82EF40C06D8A
:1038A000C144130504404C006482EF40E06C1305F2
:1038B00009804C00A14A23125101EF40E06B4C00FB
:1038C000130504C06482C14426C6EF40E06A8567E0
:1038D000BED49167BED81C08BEDC7C10BEDEBD47DE
:1038E0003EC89307C0033ECCA800A5473ED63EDAAB
:1038F000A6CA82C482C882C682CC82D082D282D634
:1039000082CE82DA02CA02CE02D002D202D402D819
:1039100002DC02DE82C082C2EF408059854501454B
:10392000EF40A06313052003130A300DB7041060A5
:10393000EFF0CFF037240020239F44FF1309849534
:10394000EFF0FF992312A900EFF07F992312A9004D
:10395000EFF0FF9822052312A900EFF05F9883573C
:103960004900130484955D8D42054181A5672312AA
:10397000A900938717346303F5189147239FF4FE3A
:10398000EFF0FF954AA0EFF09F954AA0EFF03F952A
:1039900022054AA0EFF0BF945E205D8D4205418173
:1039A000A1674AA0938727556317F5009D67938702
:1039B00097785EA0A1A21D6B93079B786300F51416
:1039C0009307400D239FF4FEEFF07F914AA0EFF0A4
:1039D0001F914AA0EFF0BF9022054AA0EFF03F9060
:1039E0005E2015695D8D420541814AA0930709312A
:1039F0006306F510239F44FFEFF07F8E4AA0EFF09F
:103A00001F8E4AA0EFF0BF8D22054AA0EFF03F8D38
:103A10005E20130B6B795D8D420541814AA0630FD7
:103A2000650DFD77239FF4FE9389E4FF130750058E
:103A30002391E90013871700239FE4FE1307A00AD0
:103A40002391E90013872700239FE4FE1307200535
:103A50002391E90013873700239FE4FE2391590146
:103A60009107239FF4FE85472391F900B16993875D
:103A70000950239FF4FEEFF09F8622054AA0938908
:103A80001950239F34FFEFF09F855E205D8D4AA083
:103A90001545EFF0AFDA5A20930709516300F70696
:103AA000239F44FFEFF0BF834AA0EFF05F834AA05B
:103AB000EFF0FF8222054AA0EFF07F825E205D8D4D
:103AC00042054181A9674AA0938767806308F50290
:103AD0009307100A239FF4FEEFF07F804AA0EFF0D7
:103AE0001F8022054AA0EFF08FFF5E201309197690
:103AF0005D8D42054181630425054AA05E209D66D7
:103B0000138796786391E704E12A5E201D67930688
:103B10009778639BD7088D473ED63EDA0145EFF094
:103B2000DFB837150140C145130505C0EF406051AE
:103B300041657D15EFF09FCB09616FC03F888967B4
:103B400093873796BDB52567130717346394E7004D
:103B5000512665BF1567130607316395C700EF004F
:103B6000A06065B7938666796395D700EF104070C3
:103B700069BF130707516395E700EF10701271B723
:103B80002967130767806395E700EF201017B5BF1B
:103B9000096713073796E39AE7F6EF2050521305AB
:103BA0004006EFF0DFAB95B7A96693866680638C1D
:103BB000D700A566938616346387D700956613866B
:103BC00006516394C700894781BF93860631638B92
:103BD000D700130767796387E700096713073796EC
:103BE000E39EE7F285470DBFEFC2AFF893F476008E
:103BF0003E8AB334900093D73600BE9493D7160014
:103C0000B384F402130406FE6204C1472A8BAE8B10
:103C1000B68ABA89618493F4F40F6383F60A63E782
:103C2000D700B1476380F6026FC06FF8E147638E3B
:103C3000F60893070002E399F6FE41661A0413069C
:103C4000468831A03304D40239661306460C3294F8
:103C5000B72C0020A2945E89938C8C95E38684FC1B
:103C6000130C8900834D0400420C135C0C019397E4
:103C70008D01E187528663C607006398090003A699
:103C80004180CA855A85EFF07F9B050983D72C00B8
:103C90004209860D1359090193FDFD0FE376F9F8EA
:103CA000B3077941639BFA02050B83D70C00420BE3
:103CB000135B0B01E37AFBF65E8C0504628979BF26
:103CC000396612041306865359B7130640023304AB
:103CD000C4023D66130686B29DBFE31A89F9F1BF9F
:103CE000EFC22FEC4545EFF02FE213058007EFF010
:103CF000EFB413056003EFF02FE10145EFF08FDF24
:103D00001305A003EFF04FE01545EFF0AFDE13050C
:103D1000200BEFF06FDF3145EFF0CFDD3145EFF0F5
:103D20006FDD0145EFF00FDD13053003EFF08FDCA1
:103D300013053003EFF00FDC1305700BEFF0CFDC51
:103D400013055003EFF00FDB1305B00BEFF0CFDBE3
:103D500013052003EFF00FDA1305000CEFF0CFDAB4
:103D60003145EFF02FD91305200CEFF0EFD90545C1
:103D7000EFF04FD81305300CEFF00FD94145EFF0BD
:103D80006FD71305400CEFF02FD813050002EFF0AA
:103D90006FD61305600CEFF02FD73D45EFF08FD5B0
:103DA0001305000DEFF04FD61305400AEFF08FD446
:103DB0001305100AEFF00FD41305000EEFF0CFD467
:103DC0001305000DEFF00FD30145EFF0AFD2094519
:103DD000EFF04FD21D45EFF0EFD12945EFF08FD135
:103DE00013058002EFF00FD113052003EFF08FD001
:103DF00013054004EFF00FD013052004EFF08FCF30
:103E00001945EFF02FCF3945EFF0CFCE4945EFF010
:103E10006FCE5145EFF00FCE5D45EFF0AFCD1305FE
:103E2000100EEFF06FCE1305000DEFF0AFCC014593
:103E3000EFF04FCC0945EFF0EFCB1D45EFF08FCB06
:103E40002945EFF02FCB13058002EFF0AFCA130521
:103E50001003EFF02FCA13054005EFF0AFC91305AB
:103E60007004EFF02FC93945EFF0CFC87145EFF07E
:103E70006FC85D45EFF00FC86D45EFF0AFC77945EE
:103E8000EFF04FC71305A002EFF00FC80145EFF0A8
:103E90006FC60145EFF00FC60145EFF0AFC5130542
:103EA000F00EEFF02FC51305B002EFF0EFC501459E
:103EB000EFF04FC40145EFF0EFC30545EFF08FC3BE
:103EC0001305F003EFF00FC313059002EFF0CFC31B
:103ED0006FC06FCFEFC2EFCC1305F00CEFF0CFC285
:103EE0000145EFF02FC11305100CEFF0AFC0130523
:103EF0000003EFF02FC01305D00EEFF0EFC0130555
:103F00004006EFF02FBF0D45EFF0CFBE4945EFF073
:103F10006FBE13051008EFF0EFBD1305800EEFF034
:103F2000AFBE13055008EFF0EFBC4145EFF08FBC7A
:103F30001305A007EFF00FBC1305B00CEFF0CFBCDA
:103F400013059003EFF00FBB1305C002EFF08FBA1B
:103F50000145EFF02FBA13054003EFF0AFB9094563
:103F6000EFF04FB91305700FEFF00FBA1305000211
:103F7000EFF04FB81305A00EEFF00FB90145EFF0C9
:103F80006FB70145EFF00FB71305000CEFF0CFB797
:103F90006D45EFF02FB61305100CEFF0EFB60545A9
:103FA000EFF04FB51305500CEFF00FB613050003FB
:103FB000EFF04FB413050003EFF0CFB31305700C0F
:103FC000EFF08FB41305700BEFF0CFB21305600361
:103FD000EFF08FB313058004EFF0CFB11305A0030A
:103FE000EFF08FB213055005EFF0CFB01305100BB3
:103FF000EFF08FB10145EFF0EFAF6945EFF08FAF14
:104000001305600BEFF04FB02945EFF0AFAE13058D
:10401000200AEFF02FAE1305200FEFF0EFAE0145B1
:10402000EFF04FAD13056002EFF00FAE0545EFF076
:104030006FAC1305000EEFF02FAD3D45EFF08FABE9
:104040001305A002EFF00FAB13058002EFF08FAA6B
:104050002145EFF02FAA3945EFF0CFA92145EFF028
:104060006FA913054005EFF0EFA81305900AEFF0D4
:104070006FA813053004EFF0EFA72945EFF08FA7E5
:104080003D45EFF02FA70145EFF0CFA60145EFF03A
:104090006FA60145EFF00FA60145EFF0AFA51305A0
:1040A000100EEFF06FA60145EFF0CFA45545EFF0ED
:1040B0006FA45D45EFF00FA41D45EFF0AFA345459C
:1040C000EFF04FA31945EFF0EFA21305B002EFF0A8
:1040D0006FA213056005EFF0EFA11305C003EFF029
:1040E0006FA11545EFF00FA14145EFF0AFA03D45A1
:1040F000EFF04FA01305F003EFF0CF9F1305F0038F
:10410000EFF04F9F3D45EFF0EF9E1305B002EFF04B
:10411000AF9F0145EFF00F9E0145EFF0AF9D0545C4
:10412000EFF04F9D1305F003EFF0CF9C1305A002B5
:10413000EFF08F9D0145EFF0EF9B0145EFF08F9B76
:104140000145EFF02F9B1305F00EEFF0AF9A4545B8
:10415000EFF08F9B13058007EFE05FEE13059002F1
:10416000EFF08F9A6FC02FA6EFC2AFA31305D00E4A
:10417000EFF08F990545EFF0EF971305E00FEFF0A3
:104180006F971305E00EEFF02F981305E00DEFF099
:104190006F9613051002EFF0EF951305100FEFF077
:1041A000AF960545EFF00F951305F00DEFF0CF95A5
:1041B0004145EFF02F941305400CEFF0EF941305F9
:1041C000F008EFF02F931305600CEFF0EF9301452B
:1041D000EFF04F921305200EEFF0CF911305200E54
:1041E000EFF04F911305200EEFF0CF901305F00B79
:1041F000EFF08F911305A00AEFF0CF8F1305000B9E
:10420000EFF08F903545EFF0EF8E0145EFF08F8E98
:104210003545EFF02F8E0145EFF0CF8D4545EFF09E
:104220006F8D0145EFF00F8D6545EFF0AF8C0145C7
:10423000EFF04F8C13051002EFF0CF8B0145EFF03C
:104240006F8B1305D002EFF0EF8A0145EFF08F8AF4
:104250001305D003EFF00F8A0145EFF0AF89130586
:10426000D005EFF02F890145EFF0CF881305D00579
:10427000EFF04F880145EFF0EF871305100BEFF0DB
:10428000AF8813050008EFF0EF860145EFF08F8649
:104290001305B008EFF00F860145EFF0AF85130569
:1042A0006009EFF02F850145EFF0CF841305200B57
:1042B000EFF08F850145EFF0EF830145EFF08F833D
:1042C0000945EFF02F830145EFF0CF820D45EFF068
:1042D0006F820145EFF00F821305300BEFF0CF82B4
:1042E0000145EFF02F810145EFF0CF800145EFF060
:1042F0006F800145EFF00F800145EFE0BFFF014502
:10430000EFE05FFF0145EFE0FFFE0145EFE09FFEBC
:104310000145EFE03FFE0145EFE0DFFD0145EFE045
:104320007FFD0145EFE01FFD0145EFE0BFFC0145CA
:10433000EFE05FFC0145EFE0FFFB0145EFE09FFB95
:104340000145EFE03FFB0145EFE0DFFA0145EFE01B
:104350007FFA0145EFE01FFA0145EFE0BFF90145A3
:10436000EFE05FF90145EFE0FFF80145EFE09FF86E
:104370001305400BEFE05FF91305B008EFE09FF77E
:104380000145EFE03FF713056009EFE0BFF6014597
:10439000EFE05FF61305100AEFE0DFF50145EFE00F
:1043A0007FF51305500BEFE03FF60945EFE09FF472
:1043B0000145EFE03FF40D45EFE0DFF30145EFE0AD
:1043C0007FF31145EFE01FF30145EFE0BFF2130566
:1043D000600BEFE07FF30145EFE0DFF10145EFE037
:1043E0007FF11305700BEFE03FF20145EFE09FF026
:1043F0000145EFE03FF01305F003EFE0BFEF0145AB
:10440000EFE05FEF1305E005EFE0DFEE0145EFE0E1
:104410007FEE13054006EFE0FFED0145EFE09FED75
:104420001305C008EFE01FED0145EFE0BFEC1305F9
:10443000C00AEFE03FEC0145EFE0DFEB1305C00DF4
:10444000EFE05FEB0145EFE0FFEA13050007EFE067
:104450007FEA0145EFE01FEA13050009EFE09FE95D
:104460000145EFE03FE91305B00EEFE0BFE801457D
:10447000EFE05FE81305C00DEFE0DFE70145EFE097
:104480007FE71305800BEFE03FE80145EFE09FE693
:104490000145EFE03FE60145EFE0DFE50145EFE0F4
:1044A0007FE50145EFE01FE50145EFE0BFE4014591
:1044B000EFE05FE40145EFE0FFE31305A00BEFE061
:1044C000BFE413054002EFE0FFE20145EFE09FE2A9
:1044D0000145EFE03FE20145EFE0DFE11305100C9D
:1044E000EFE09FE213050002EFE0DFE00145EFE0BF
:1044F0007FE013054005EFE0FFDF0145EFE09FDFC0
:104500001305F00FEFE01FDF0145EFE0BFDE1305FD
:10451000200CEFE07FDF2945EFE0DFDD0145EFE034
:104520007FDD1145EFE01FDD0145EFE0BFDC130546
:10453000300CEFE07FDD1305C003EFE0BFDB01458A
:10454000EFE05FDB1305A003EFE0DFDA0145EFE00A
:104550007FDA13059003EFE0FFD90145EFE09FD923
:1045600013057003EFE01FD90145EFE0BFD8130535
:10457000C003EFE03FD80145EFE0DFD7130560034C
:10458000EFE05FD70145EFE0FFD613052003EFE032
:104590007FD60145EFE01FD61305F002EFE09FD56F
:1045A0000145EFE03FD51305C002EFE0BFD4014560
:1045B000EFE05FD413059002EFE0DFD30145EFE0B9
:1045C0007FD313056002EFE0FFD20145EFE09FD2F9
:1045D00013054002EFE01FD20145EFE0BFD1130504
:1045E0004002EFE03FD10145EFE0DFD0130530029C
:1045F000EFE05FD00145EFE0FFCF1305C003EFE030
:104600007FCF0145EFE01FCF13056003EFE09FCEA2
:104610000145EFE03FCE13052003EFE0BFCD01459C
:10462000EFE05FCD1305F002EFE0DFCC0145EFE0F6
:104630007FCC1305C002EFE0FFCB0145EFE09FCB3D
:1046400013059002EFE01FCB0145EFE0BFCA130551
:104650006002EFE03FCA0145EFE0DFC91305400209
:10466000EFE05FC90145EFE0FFC813054002EFE04E
:104670007FC80145EFE01FC813053002EFE09FC778
:104680000145EFE03FC71305400CEFE0FFC71305FE
:104690002006EFE03FC60145EFE0DFC51545EFE03E
:1046A0007FC50145EFE01FC513054008EFE09FC43B
:1046B0000145EFE03FC41305000FEFE0BFC3014524
:1046C000EFE05FC36145EFE0FFC20145EFE09FC24D
:1046D0001305400AEFE01FC20145EFE0BFC161458D
:1046E000EFE05FC10145EFE0FFC013050005EFE01B
:1046F0007FC00145EFE01FC03145EFE0BFBF01457E
:10470000EFE05FBF5D45EFE0FFBE0145EFE09FBE1C
:1047100013055009EFE01FBE0145EFE0BFBD1305D3
:10472000300FEFE03FBD0145EFE0DFBC1305600E49
:10473000EFE05FBC0145EFE0FFBB1305500CEFE07D
:10474000BFBC13052003EFE0FFBA0145EFE09FBABD
:1047500013054004EFE01FBA0145EFE0BFB91305B0
:104760005006EFE03FB90145EFE0DFB81305600701
:10477000EFE05FB80145EFE0FFB713058008EFE019
:104780007FB70145EFE01FB71305600CEFE0DFB71F
:1047900013050002EFE01FB60145EFE0BFB55D4530
:1047A000EFE05FB50145EFE0FFB40545EFE09FB4F2
:1047B0000145EFE03FB41305700CEFE0FFB4014595
:1047C000EFE05FB30145EFE0FFB20145EFE09FB2DC
:1047D0000145EFE03FB21305800CEFE0FFB2014569
:1047E000EFE05FB10145EFE0FFB00145EFE09FB0C2
:1047F0000145EFE03FB01305900CEFE0FFB001453D
:10480000EFE05FAF0145EFE0FFAE0145EFE09FAEA7
:104810000145EFE03FAE0145EFE0DFAD0145EFE0E0
:104820007FAD0145EFE01FAD0145EFE0BFAC0145B5
:10483000EFE05FAC0145EFE0FFAB0145EFE09FAB80
:104840000145EFE03FAB0145EFE0DFAA0145EFE0B6
:104850007FAA0145EFE01FAA0145EFE0BFA91305BC
:10486000000EEFE07FAA5945EFE0DFA80145EFE039
:104870007FA87145EFE01FA80145EFE0BFA7130532
:104880001002EFE03FA70145EFE0DFA6130560034C
:10489000EFE05FA60145EFE0FFA513056004EFE040
:1048A0007FA50145EFE01FA513052005EFE09FA4BC
:1048B0000145EFE03FA413054006EFE0BFA301452B
:1048C000EFE05FA31305A007EFE0DFA20145EFE0F3
:1048D0007FA21305B008EFE0FFA10145EFE09FA123
:1048E00013059009EFE01FA10145EFE0BFA01305FC
:1048F000800AEFE03FA00145EFE0DF9F1305900B3A
:10490000EFE05F9F0145EFE0FF9E1305400CEFE0F5
:104910007F9E0145EFE01F9E1305A00CEFE09F9DD9
:104920000145EFE03F9D1305200DEFE0BF9C0145E1
:10493000EFE05F9C1305900DEFE0DF9B0145EFE09A
:104940007F9B1305000EEFE0FF9A0145EFE09F9A71
:104950001305300FEFE01F9A0145EFE0BF991305F3
:10496000100EEFE07F9A5945EFE0DF980145EFE048
:104970007F987145EFE01F980145EFE0BF97130561
:104980002002EFE03F970145EFE0DF96130560035B
:10499000EFE05F960145EFE0FF9513055004EFE06F
:1049A0007F950145EFE01F9513052005EFE09F94EB
:1049B0000145EFE03F9413054006EFE0BF9301454A
:1049C000EFE05F931305A007EFE0DF920145EFE012
:1049D0007F921305B008EFE0FF910145EFE09F9152
:1049E00013059009EFE01F910145EFE0BF9013051B
:1049F000800AEFE03F900145EFE0DF8F1305900B59
:104A0000EFE05F8F0145EFE0FF8E1305400CEFE014
:104A10007F8E0145EFE01F8E1305A00CEFE09F8D08
:104A20000145EFE03F8D1305200DEFE0BF8C014500
:104A3000EFE05F8C1305800DEFE0DF8B0145EFE0C9
:104A40007F8B1305000EEFE0FF8A0145EFE09F8AA0
:104A50001305300FEFE01F8A0145EFE0BF89130512
:104A6000200EEFE07F8A1545EFE0DF880145EFE09B
:104A70007F882D45EFE01F880145EFE0BF876D453A
:104A8000EFE05F870145EFE0FF8613054003EFE0AD
:104A90007F860145EFE01F8613054004EFE09F8508
:104AA0000145EFE03F851305F004EFE0BF840145C9
:104AB000EFE05F8413051006EFE0DF830145EFE0D0
:104AC0007F8313059007EFE0FF820145EFE09F82AF
:104AD00013058008EFE01F820145EFE0BF81130559
:104AE0007009EFE03F810145EFE0DF801305600AC8
:104AF000EFE05F800145EFE0EFFF1305700BEFE0A3
:104B00006FFF0145EFE00FFF1305200CEFE08FFE74
:104B10000145EFE02FFE1305700CEFE0AFFD0145FE
:104B2000EFE04FFD1305100DEFE0CFFC0145EFE086
:104B30006FFC1305600DEFE0EFFB0145EFE08FFB2D
:104B40001305D00DEFE00FFB0145EFE0AFFA1305C1
:104B5000300FEFE02FFA0145EFE0CFF91305300EEB
:104B6000EFE08FFA1545EFE0EFF80145EFE08FF841
:104B70002945EFE02FF80145EFE0CFF77145EFE071
:104B80006FF70145EFE00FF713053003EFE08FF605
:104B90000145EFE02FF613054004EFE0AFF50145C6
:104BA000EFE04FF513050005EFE0CFF40145EFE02E
:104BB0006FF413052006EFE0EFF30145EFE08FF30C
:104BC00013058007EFE00FF30145EFE0AFF21305A7
:104BD0008008EFE02FF20145EFE0CFF113057009F7
:104BE000EFE04FF10145EFE0EFF01305600AEFE071
:104BF0006FF00145EFE00FF01305700BEFE08FEF62
:104C00000145EFE02FEF1305200CEFE0AFEE01457B
:104C1000EFE04FEE1305700CEFE0CFED0145EFE054
:104C20006FED1305100DEFE0EFEC0145EFE08FECB9
:104C30001305500DEFE00FEC0145EFE0AFEB13056E
:104C4000D00DEFE02FEB0145EFE0CFEA1305300F79
:104C5000EFE04FEA0145EFE0EFE91305400EEFE02A
:104C6000AFEA0545EFE00FE90145EFE0AFE80545A4
:104C7000EFE04FE80145EFE0EFE70945EFE08FE7B0
:104C80000145EFE02FE71305A002EFE0AFE6014595
:104C9000EFE04FE61305C003EFE0CFE50145EFE09D
:104CA0006FE51305B004EFE0EFE40145EFE08FE4BA
:104CB0001305D005EFE00FE40145EFE0AFE3130586
:104CC0004007EFE02FE30145EFE0CFE21305400896
:104CD000EFE04FE20145EFE0EFE113053009EFE0CF
:104CE0006FE10145EFE00FE11305200AEFE08FE0EF
:104CF0000145EFE02FE01305300BEFE0AFDF01459A
:104D0000EFE04FDF1305E00BEFE0CFDE0145EFE012
:104D10006FDE1305400CEFE0EFDD0145EFE08FDDC6
:104D20001305D00CEFE00FDD0145EFE0AFDC13051C
:104D3000300DEFE02FDC0145EFE0CFDB1305D00DA8
:104D4000EFE04FDB0145EFE0EFDA1305300FEFE066
:104D50006FDA0145EFE00FDA1305500EEFE0CFDA1E
:104D60000145EFE02FD90145EFE0CFD80145EFE055
:104D70006FD80145EFE00FD80945EFE0AFD7014507
:104D8000EFE04FD713059002EFE0CFD60145EFE0FB
:104D90006FD61305C003EFE0EFD50145EFE08FD5E7
:104DA0001305B004EFE00FD50145EFE0AFD41305D4
:104DB000D005EFE02FD40145EFE0CFD31305400736
:104DC000EFE04FD30145EFE0EFD213054008EFE0ED
:104DD0006FD20145EFE00FD213053009EFE08FD11C
:104DE0000145EFE02FD11305200AEFE0AFD00145D8
:104DF000EFE04FD01305300BEFE0CFCF0145EFE0F0
:104E00006FCF1305E00BEFE0EFCE0145EFE08FCE63
:104E10001305400CEFE00FCE0145EFE0AFCD1305D9
:104E2000D00CEFE02FCD0145EFE0CFCC1305300DD6
:104E3000EFE04FCC0145EFE0EFCB1305C00DEFE005
:104E40006FCB0145EFE00FCB1305300FEFE08FCABA
:104E50000145EFE02FCA1305600EEFE0EFCA4545AC
:104E6000EFE04FC90145EFE0EFC813054003EFE065
:104E70006FC80145EFE00FC813056005EFE08FC76D
:104E80000145EFE02FC713056007EFE0AFC601450E
:104E9000EFE04FC613057007EFE0CFC50145EFE027
:104EA0006FC513056006EFE0EFC40145EFE08FC466
:104EB00013058008EFE00FC40145EFE0AFC3130511
:104EC0009009EFE02FC30145EFE0CFC21305B00B0F
:104ED000EFE04FC20145EFE0EFC113059009EFE0AD
:104EE0006FC10145EFE00FC113056006EFE08FC011
:104EF0000145EFE02FC013055005EFE0AFBF0145BE
:104F0000EFE04FBF13055005EFE0CFBE0145EFE0E6
:104F10006FBE13055004EFE0EFBD0145EFE08FBD1C
:104F200013053004EFE00FBD0145EFE0AFBC130502
:104F30004004EFE02FBC0145EFE0CFBB1305700E3E
:104F4000EFE08FBC13052003EFE0CFBA0145EFE09F
:104F50006FBA13055005EFE0EFB90145EFE08FB9E7
:104F600013056007EFE00FB90145EFE0AFB8130597
:104F70006006EFE02FB80145EFE0CFB713057006EC
:104F8000EFE04FB70145EFE0EFB613057006EFE035
:104F90006FB60145EFE00FB613057008EFE08FB56F
:104FA0000145EFE02FB513059009EFE0AFB40145DF
:104FB000EFE04FB41305B00BEFE0CFB30145EFE0E6
:104FC0006FB313059009EFE0EFB20145EFE08FB248
:104FD00013057007EFE00FB20145EFE0AFB1130525
:104FE0004004EFE02FB10145EFE0CFB013056005BD
:104FF000EFE04FB00145EFE0EFAF13053002EFE017
:105000006FAF0145EFE00FAF13053003EFE08FAE58
:105010000145EFE02FAE13055004EFE0AFAD0145C1
:10502000EFE04FAD1305800EEFE00FAE0145EFE06E
:105030006FAC0145EFE00FAC13059009EFE08FABCB
:105040000145EFE02FAB13057008EFE0AFAA014573
:10505000EFE04FAA13058008EFE0CFA90145EFE08C
:105060006FA913057007EFE0EFA80145EFE08FA8E7
:1050700013056006EFE00FA80145EFE0AFA71305A9
:105080008008EFE02FA70145EFE0CFA61305A00AA7
:10509000EFE04FA60145EFE0EFA51305B00BEFE001
:1050A0006FA50145EFE00FA513059009EFE08FA470
:1050B0000145EFE02FA413056006EFE0AFA3014523
:1050C000EFE04FA313055005EFE0CFA20145EFE05D
:1050D0006FA213055005EFE0EFA10145EFE08FA1AE
:1050E00013054004EFE00FA10145EFE0AFA0130569
:1050F0004004EFE02FA00145EFE0CF9F13055005DE
:10510000EFE04F9F0145EFE0EF9E1305900EEFE0BB
:10511000AF9F1305A00AEFE0EF9D0145EFE08F9DE3
:105120000145EFE02F9D0145EFE0CF9C0145EFE009
:10513000AF9D1305A00AEFE0EF9B1305F00CEFE025
:10514000AF9C0145EFE00F9B0145EFE0AF9A0145B1
:10515000EFE04F9A0145EFE0EF990145EFE08F99BD
:105160000145EFE02F990145EFE0CF980145EFE0D1
:105170006F980145EFE00F980145EFE0AF970145CB
:10518000EFE04F970145EFE0EF960145EFE08F9696
:105190000145EFE02F960145EFE0CF950145EFE0A7
:1051A0006F950145EFE00F951305000FEFE0CF95E8
:1051B0000145EFE02F9413050005EFE0AF930145A3
:1051C000EFE04F930145EFE0EF920145EFE08F9262
:1051D0001305300FEFE04F930145EFE0AF9113055A
:1051E000900FEFE06F921945EFE0CF904145EFE06F
:1051F0006F9013059002EFE0EF8F0145EFE08F8F86
:105200001305A003EFE04F9013055005EFE08F8EDC
:105210004545EFE06F8F13054006EFD03FE21305E1
:105220009002EFE06F8E13055003EFE0EF8D014524
:10523000EFE04F8C13051005EFE00F8D1305F00F15
:10524000EFE04F8B13053005EFE00F8C1305C00224
:10525000EFE04F8A13055005EFE00F8B1305200890
:10526000EFE04F891305C002EFE00F8A6FB0AF95F2
:10527000EFB22F934545EFE02F8913058007EFD05C
:10528000FFDB13056003EFE02F8813058004EFE0D8
:105290006F861305A003EFE02F8713055005EFE09D
:1052A0006F851305000FEFE02F861305300CEFE03C
:1052B0006F841305000FEFE02F8513056009EFE001
:1052C0006F831305400BEFE02F840545EFE08F82DD
:1052D0001305600BEFE04F832945EFE0AF81130525
:1052E000200AEFE02F811305700BEFE0EF8113052B
:1052F000600CEFE02F801305900BEFE0EF80094585
:10530000EFD05FFF1305000EEFD0DFFE1305000C9A
:10531000EFD09FFF13050008EFD0DFFD5945EFD018
:105320007FFD1305100CEFD03FFE6545EFD09FFCCD
:105330001305200CEFD05FFD1305700AEFD09FFB23
:105340001305500CEFD05FFC5945EFD0BFFA1305A1
:10535000800EEFD07FFB13050004EFD0BFF91305DB
:10536000A008EFD03FF90145EFD0DFF80145EFD0BD
:105370007FF813059002EFD0FFF76545EFD09FF758
:105380001305500AEFD01FF713053003EFD09FF637
:105390001305000EEFD05FF71305000FEFD09FF558
:1053A0001D45EFD03FF53545EFD0DFF41145EFD087
:1053B0007FF41545EFD01FF45145EFD0BFF313052F
:1053C0006003EFD03FF313054005EFD0BFF21305A4
:1053D000C004EFD03FF213058003EFD0BFF14D457D
:1053E000EFD05FF15145EFD0FFF01305E002EFD0B1
:1053F0007FF013054003EFD0FFEF1305100EEFD041
:10540000BFF01305000FEFD0FFEE4145EFD09FEE48
:105410005145EFD03FEE3945EFD0DFED3145EFD0CC
:105420007FED2145EFD01FED13055003EFD09FEC2A
:1054300013054004EFD01FEC1305C004EFD09FEB21
:1054400013056002EFD01FEB4145EFD0BFEA49459D
:10545000EFD05FEA1305C002EFD0DFE913052003A8
:10546000EFD05FE91305000FEFD01FEA1305C0036B
:10547000EFD05FE81305000FEFD01FE9130590068A
:10548000EFD05FE713058007EFD05FBB1305100275
:10549000EFD09FE713059002EFD01FE76FA0BFF298
:1054A000EFA23FF0930550053D65EFD05FE73D6407
:1054B000130514009305A00AEFD07FE6130524001E
:1054C00093052005EFD0BFE513053400A145EFD0CB
:1054D0001FE5130544008545EFD07FE4B5452D65F4
:1054E0002D64EFD0DFE313051400B545EFD03FE3A3
:1054F00013052400B545EFD09FE213050460930522
:105500004003EFD0DFE11305146093054003EFD0B3
:105510001FE11305246093054003EFD05FE01305FE
:105520000410B545EFD0BFDF13051410B545EFD01B
:105530001FDF13052410B545EFD07FDE130504707F
:1055400093054003EFD0BFDD1305147093054003AE
:10555000EFD0FFDC1305247093054003EFD03FDC50
:10556000130504208145EFD09FDB130514208145EE
:10557000EFD0FFDA130524208145B164EFD03FDA84
:105580001385048093054002EFD07FD913851480E2
:1055900093054002EFD0BFD81385248093054002C5
:1055A000EFD0FFD7138504F08545EFD05FD7130503
:1055B0000430BD45EFD0BFD613051430BD45EFD044
:1055C0001FD613052430BD45EFD07FD51385049039
:1055D00093054003EFD0BFD4138514909305400387
:1055E000EFD0FFD31385249093054003EFD03FD332
:1055F00013050450A145EFD09FD213051450A145C7
:10560000EFD0FFD113052450A145EFD05FD1138512
:1056100004208D45EFD0BFD0138504A09305400230
:10562000EFD0FFCF138514A093054002EFD03FCFFA
:10563000138524A093054002EFD07FCE138504C0CC
:105640008145EFD0DFCD138514C093058007EFD0DF
:105650001FCD138524C08145EFD07FCC138504D0A6
:105660008145EFD0DFCB138514D093058007EFD0B1
:105670001FCB138524D08145EFD07FCA138504E06A
:105680008145EFD0DFC9138514E0930540063564EA
:10569000EFD0FFC8130504108145EFD05FC8130594
:1056A000141093053003EFD09FC7130524108145D4
:1056B000EFD0FFC61305341093054003EFD03FC66B
:1056C000130544108145EFD09FC513055410930571
:1056D000A003EFD0DFC4130564108145EFD03FC4B1
:1056E000130574109305A004EFD07FC31305841035
:1056F0008145EFD0DFC2130594109305C005EFD0AC
:105700001FC21305A4108145EFD07FC11305B4104B
:1057100093051008EFD0BFC01305C4108145EFD02A
:105720001FC01305D4109305600AEFD05FBF1305A7
:10573000E4108145EFD0BFBE1305F4109305500E61
:10574000EFD0FFBD130504118545EFD05FBD1305F4
:105750001411CD45EFD0BFBC130524118545EFD002
:105760001FBC1305341193054005EFD05FBB130533
:1057700044118545EFD0BFBA130554119305200895
:10578000EFD0FFB9130564118545EFD05FB913055C
:1057900074119305A00CEFD09FB8130584118945AF
:1057A000EFD0FFB7130594118145EFD05FB7130514
:1057B000A4118945EFD0BFB61305B4118545EFD0CC
:1057C0001FB61305C4118945EFD07FB51305D41159
:1057D00093054003EFD0BFB41305E4118945EFD022
:1057E0001FB41305F41193057006EFD05FB31305D2
:1057F00004128945EFD0BFB2130514129305400877
:10580000EFD0FFB1130524128945EFD05FB1130526
:1058100034129305400AEFD09FB013054412894516
:10582000EFD0FFAF130554129305700BEFD03FAFCD
:10583000130564128945EFD09FAE130574129305CA
:10584000F00CEFD0DFAD130584128945EFD03FADEA
:10585000130594129305E00DEFD07FAC1305A4124D
:105860008945EFD0DFAB1305B4129305200FEFD0BD
:105870001FAB1305C4128945EFD07FAA1305D412BC
:105880009305E00FEFD0BFA91305E4128D45EFD0CB
:105890001FA91305F412C145EFD07FA81305041307
:1058A0008D45EFD0DFA71305141393053003EFD018
:1058B0001FA7130524138D45EFD07FA613053413BE
:1058C0009305D006EFD0BFA5130504208145EFD086
:1058D0001FA51305142093053003EFD05FA4130513
:1058E00024208145EFD0BFA3130534209305400346
:1058F000EFD0FFA2130544208145EFD05FA213052E
:1059000054209305A003EFD09FA113056420814587
:10591000EFD0FFA0130574209305A004EFD03FA0A3
:10592000130584208145EFD09F9F13059420930594
:10593000C005EFD0DF9E1305A4208145EFD03F9E28
:105940001305B42093051008EFD07F9D1305C420E4
:105950008145EFD0DF9C1305D4209305600AEFD07A
:105960001F9C1305E4208145EFD07F9B1305F42095
:105970009305500EEFD0BF9A130504218545EFD053
:105980001F9A13051421CD45EFD07F9913052421CB
:105990008545EFD0DF981305342193054005EFD0FE
:1059A0001F98130544218545EFD07F971305542197
:1059B00093052008EFD0BF96130564218545EFD0ED
:1059C0001F96130574219305A00CEFD05F95130566
:1059D00084218945EFD0BF94130594218145EFD0F0
:1059E0001F941305A4218945EFD07F931305B4219B
:1059F0008545EFD0DF921305C4218945EFD03F9252
:105A00001305D42193054003EFD07F911305E421C2
:105A10008945EFD0DF901305F42193057006EFD090
:105A20001F90130504228945EFD07F8F13051422A0
:105A300093054008EFD0BF8E130524228945EFD08F
:105A40001F8E130534229305400AEFD05F8D130596
:105A500044228945EFD0BF8C130554229305700B67
:105A6000EFD0FF8B130564228945EFD05F8B1305C0
:105A700074229305F00CEFD09F8A13058422894588
:105A8000EFD0FF89130594229305E00DEFD03F89F5
:105A90001305A4228945EFD09F881305B4229305EE
:105AA000200FEFD0DF871305C4228945EFD03F8751
:105AB0001305D4229305E00FEFD07F861305E4226F
:105AC0008D45EFD0DF851305F422C145EFD03F852A
:105AD000130504238D45EFD09F84130514239305EC
