:040000006F40800BC2
:1000040000000000000000001E3D00003E3D000016
:1000140000000000B64000000000000000000000E6
:10002400B6400000B64000000000000000000000E0
:100034008C2F00000000000090020000000000006F
:10004400B6400000B6400000B6400000B6400000D4
:10005400B6400000B640000086330000AE33000016
:10006400D6330000FE33000026340000B640000002
:10007400B6400000B6400000B6400000B6400000A4
:10008400B6400000B6400000B6400000B640000094
:10009400B6400000B6400000B64000004E340000F8
:1000A400B6400000B6400000B6400000B640000074
:1000B400B6400000B6400000B6400000B640000064
:1000C400B6400000B6400000B6400000B640000054
:1000D400B640000080370000B6400000B640000083
:1000E400C6340000B6400000B6400000B640000030
:1000F400B6400000B6400000B6400000B640000024
:1001040000000000B6400000B6400000B640000009
:10011400B6400000B6400000B6400000B640000003
:10012400B6400000B6400000B6400000B6400000F3
:10013400B6400000B6400000B6400000B6400000E3
:10014400B6400000B6400000B6400000B6400000D3
:10015400B6400000B6400000B6400000B6400000C3
:10016400B6400000B6400000B6400000B6400000B3
:10017400B6400000B6400000B6400000B6400000A3
:10018400B6400000B6400000B6400000B640000093
:10019400B6400000B6400000B6400000B640000083
:1001A400000000000000000000000000000000004B
:0C01B4000000000000000000000000003F
:1001C00097020120938202E4938202E0739002344A
:1001D00003210500224573100530B1A819712320B1
:1001E000250006C006C216CAF322003093F2820030
:1001F000638402009302000816C412C81ACC1ECEF3
:1002000022D026D22AD42ED632D836DA3ADC3EDEB6
:10021000C2C0C6C2CAC4CEC6D2C8D6CADACCDECE26
:10022000E2D0E6D2EAD4EED6F2D8F6DAFADCFEDE96
:1002300003A1050009A002457310153492403785CB
:10024000000013050580732005302245732005301A
:100250004242D2426243F243025492542255B25572
:100260004256D2566257F257064896482649B64932
:10027000464AD64A664BF64B065C965C265DB65DF2
:10028000465ED65E665FF65F09617300203000004F
:10029000197116CA9302000816C49302000273A0D3
:1002A000428006C212C81ACC1ECE22D026D22AD430
:1002B0002ED632D836DA3ADC3EDEC2C0C6C2CAC456
:1002C000CEC6D2C8D6CADACCDECEE2D0E6D2EAD4E6
:1002D000EED6F2D8F6DAFADCFEDE73110134EF0066
:1002E0008061EF103009EF00C06373110134138493
:1002F000818A032904006304090223200400732572
:1003000010342AC01384018A044023A024001384DB
:10031000418A044003A10400024573101534924041
:10032000B78200009382028073A00230A24273A0C1
:1003300002304242D2426243F24302549254225566
:10034000B2554256D2566257F25706489648264949
:10035000B649464AD64A664BF64B065C965C265D25
:10036000B65D465ED65E665FF65F0961730020305B
:100370000000397101436EC619A0397141536AC832
:1003800066CA62CC5ECE19A0397101535AD056D2DA
:1003900052D44ED64AD826DA22DC06DE330161403A
:1003A000828241114AC026C222C406C68282B24D50
:1003B0004101024D924C224CB24B4101024B924AF8
:1003C000224AB2494101024992442244B2404101C9
:1003D00082803D432A876373C3029377F700BDEFA2
:1003E000ADE5937606FF3D8ABA960CC34CC30CC7A5
:1003F0004CC74107E36BD7FE11E28280B306C340CE
:100400008A069702000096966780A6002307B70029
:10041000A306B7002306B700A305B7002305B7005E
:10042000A304B7002304B700A303B7002303B70056
:10043000A302B7002302B700A301B7002301B7004E
:10044000A300B7002300B700828093F5F50F9396C1
:100450008500D58D93960501D58D61B793962700BC
:100460009702000096968682E78086FA9680C117EA
:100470001D8F3E96E374C3F8A5B703A581818280E2
:10048000EFF23FF2938781819843050798C3EF10FD
:10049000C0313C45FD173CC589E77C413CC5EF10A8
:1004A0008035EF10806005B7634205029307803EF8
:1004B0003347F5023365F5023305F5021305753E42
:1004C0003345F5023307F7023A9582807D558280E5
:1004D00001458280014582800145828001458280FC
:1004E000EFF23FEC2564A564130404CB9384C4CBE2
:1004F00063639400C9BD1C4011048297D5BFEFF21D
:100500005FEA2564A5641304C4CB938444CC63637D
:10051000940055BD1C4011048297D5BFEFF27FE8CF
:10052000F93FEF30700E45B5EFF2BFE7B7050000B9
:1005300037750000D1471547930600200146938583
:10054000C5511305C518EF10A026EF10203EA5BD1C
:10055000EFF23FE5EF10E062EF20F01BEF00B02B71
:10056000EF10205CEF005078C137EF10205C012CB9
:10057000EF00707A014581BDEFF2BFE2D13F014546
:1005800099B5EFF27FE0AA89EF10202219C1EF1090
:10059000800A2545EF00F06044411304450063964E
:1005A0008400EF108020014911A8138944FF2146DF
:1005B000CE854A851D2D01E9EF10201F19C1EF10CE
:1005C000E0084A85E5BB8440D9BF09E57D558280B6
:1005D0007D55D5BBEFF2FFDC2A842E853289AE84AF
:1005E0004D377DF522852686A545EF00305E014515
:1005F000231C2401230E0400231D0400D9BFEFF2A5
:100600005FDA1E2D41112A84C18B9DE71C558DC3D5
:100610002EC68297AA84B24501CD2A86377500007E
:10062000A28513054519EF0090182685410161BB8D
:100630001E2C93E707011EAC1E2CA18B89C73E2CF4
:10064000E554A18BFDF35C5489CF22858297AA845F
:1006500005E13E2C93E787003EAC5C2C85075CAC43
:10066000E9B785679387F7F0FD8D2EAC8144D5B748
:10067000E957E31CF5FAF1BF5C2D85CBEFF27FD291
:10068000FD1793F7F70F5CAD2A84014789EF1C59DA
:1006900089E70147231D040039A082972A8775D96D
:1006A000E957E309F5FE3A8539BB7D573A858280E3
:1006B000EFF23FCF582D09E77D552129014521A0B3
:1006C0005C5999C3829701B36955C5BFEFF27FCDDD
:1006D000582D09E77D55F52E014521A01C5D99C3D4
:1006E0008297D5B16955C5BF0CD101458280EFF223
:1006F000BFC993894187854A83A7418763863705A8
:10070000EF10204883A741872A8A638D370303A40B
:1007100041875C4018401309C4FE5CC398C340C0C5
:1007200000C0EF0050717C5099C34A8582974A857A
:10073000EF00105B631B55014A85EF00104FEF007F
:10074000F0705285EF10A04495B9EF0030705285DB
:10075000EF10E0434848EF00303A4A85EF0030554B
:1007600061BFEFF21FC413840194130904011C40FC
:1007700091C382971104E31C24FF953FEDB7EFF27C
:100780005FC237060000B7750000930800023D48BD
:1007900093070020138701958146130626769385DB
:1007A000C51C1385018CEF00307D1385018CEF1083
:1007B000E01711B9EFF2FFBE41112A842E8532C62F
:1007C0002EC4EF1060083246A24519C68547630D56
:1007D000F60001454101C5BE5840938745011CC341
:1007E00098CD5CC0C0C9F5B71C406388870083C63C
:1007F000550303C7170263FAE600D4431387450184
:1008000098C294CDD8C3DCC9E9B79C43F9BFEFF2D5
:100810005FB94111B2842E8689452A8436C6EF001D
:10082000F03AB246930744011CCC5CC846AC14B401
:100830000145410149BEEFF23FB583A70186411151
:100840002EC62A8491C38297EF10A0335E2CAA890A
:1008500089CFFD175EACEF10803383A7C1850145BA
:1008600091CB22858297014531A0B24791E7EF10E5
:1008700000327955410199B6EF0030732328050203
:100880001034AA85AA84130544012D37B247635C4E
:10089000F0001389C404700081454A85EF10601D83
:1008A0004A85EF1000124E85EF10602EEF00704960
:1008B000885845D5C1B7EFF2DFAE83A781852A847A
:1008C00091C38297EF10E02BAA8448489307440114
:1008D000630EF5003115EF10A00005442685EF10DA
:1008E000002B19C0EF00F0450145F1BC5E2C8507D7
:1008F0005EAC0144E5B7EFF2DFAA4111EF106028CA
:10090000138741821C23850793F7F70F1CA383A746
:10091000C18181C72AC682973245EF104027410125
:100920005DB4EFF21FA84111EF10A025138741829B
:100930001C23FD1793F7F70F1CA383A7018281C720
:100940002AC682973245EF1080244101ADBC03C511
:1009500041828280937808044111639E08009D685B
:100960009388883793730801638B03001378E8FF3B
:10097000930E000219A89D689388482DE5B713735C
:100980001800930E0003E30503FE13732800630EA3
:100990000306635806023306C0409302D0020A8E53
:1009A000814F294F6395E6073373D6023356D6023B
:1009B000469303430300850F050EA30F6EFE7DF2E1
:1009C0000DA0137348009302B002631703009372E3
:1009D0008800B3325000960279F2930600035480E7
:1009E000854FFE8663D3FF00BE8613781801158FEE
:1009F00063130804638502006353E0007D172A86B1
:100A0000B308E5001303000221A88142F1B7137374
:100A1000F600118271BF6374B600230066000506FC
:100A20003388C840E34900FF3A8663530700014614
:100A30007D173295118F638802006374B50023001F
:100A400055007D17050563870302AA961308000366
:100A50001DA86374B6002300D60105063388C8407C
:100A6000E34900FF3A866353070001467D1732953C
:100A7000118FE1BF2A86B308E500CDB76374B500D6
:100A80002300050105053386A640E3C9CFFEFD56C8
:100A9000FD1F6383DF0099E7AA873306E50013088B
:100AA000000231A86376B5003306F101102210A1CF
:100AB0000505F9BF63F4B700238007018507B30676
:100AC000F640E349D0FE6353070001473A954101E0
:100AD0008280EFF21F8D2A849D3D09C523A4818267
:100AE0006FF07F8EEF00704C75D900D9D5BF0D47E0
:100AF000AA876376C7009377350091C7AA873E9689
:100B00006397C706828093F7F50F13978700D98FF5
:100B1000139707015D8FB308C500AA87BD463388C8
:100B2000F84063EB060393574600C156B386D702DD
:100B30009207AA970D4836963383C700BE86B3083E
:100B4000D3406362180313572600F156B306D70249
:100B50000A07BA97369665B798C3D8C398C7C1072E
:100B600023AEE7FE6DBF910623AEE6FEC9BF850743
:100B7000A38FB7FE71B763F2A504B386C500637E89
:100B8000D5029345F6FF8147FD176393F5008280F8
:100B90003387F600030807003387C7002A9723002E
:100BA0000701DDB73387F500830607003307F5003B
:100BB000850714A3E318F6FE82808147E5BF0DC6C2
:100BC000AA8785050387F5FF85079306F6FFA38FA0
:100BD000E7FE09EB3E9685076393C7008280A38FEB
:100BE00007FED5BF3686F1FE828001476314E6001A
:100BF000814739A8B307E50083860700B387E5007E
:100C00009C23B387F640E207E18799E30507F9FEE5
:100C10003E858280AA870387070001E73385A740C6
:100C200082808507CDBFEFF24FF52E89B30B2501EA
:100C300041112A8CB68563F5AB001349F5FFFD5BC6
:100C4000C169377A00006284930AB002130B000274
:100C5000FD19130A0A3731A8130750026389E70206
:100C6000637374011CA013051400B284138614006E
:100C70002A8483070600EDF363060900637B742F63
:100C8000230004003305844141016FF08FF20148D5
:100C90001307D002930630021305000331A0639EB0
:100CA0005701136848002686830716009304160030
:100CB000E397E7FE13680801FDB7639567011368C2
:100CC0008800D5B76395D70013680802E9BF63951C
:100CD000A70013681800C1BF138707FDA54663E688
:100CE000E6040147A546294539A03307A702850434
:100CF0003E97130707FD83870400138607FDE3F67D
:100D0000C6FE038604009306E002FD57631FD60467
:100D100083871400254693861400138507FD6365B9
:100D2000A60A8147254529433DA09306A0027D5789
:100D3000E399D7FC9841930426009105E35307FCFF
:100D40003307E040136808016DBFB387670285066B
:100D5000B297938707FD03860600930806FDE376A6
:100D600015FF63D307008147B6848386040013060A
:100D70008006014593F8B6FF6395C80013F5F60F9A
:100D8000850403860400930690066303D60663C5B4
:100D9000C606930680056303D61C63C3C604930787
:100DA00050026307F61A63757401930750021CA082
:100DB00083870400130514006386071A63737501A3
:100DC0001CB0130524005DB51306A0026397C7008D
:100DD0009C4193862400910569B7B684814771B719
:100DE000930630066302D60893064006E31DD6FA42
:100DF00013682800A94699A0930630076303D60C10
:100E000063C5C6029306F0066300D6169306000774
:100E1000E31BD6F8FD566315D70013681800214769
:100E2000938C4500C14690411DA893065007E303EB
:100E3000D6FC93088007C146E31716F71306C006D1
:100E4000938C4500E301C5FE13068006E31DC5FC37
:100E5000904193752800639B051033763601DE853B
:100E60002285CD3CE68519B5137808016315080283
:100E7000BA879306000229A06373740114A00504C5
:100E8000FD17E34BF0FE9307F7FF6343E0000547D0
:100E90003387E740050793874500637474019441E5
:100EA00014A013051400229713060002B306A740EE
:100EB0006344D000BE855DBB6373750110A1050559
:100EC000F5B783AC0500138D450063930C00D28CFD
:100ED00066853EC63AC442C2353BB247AA8612482E
:100EE00022476355F00063D3A700BE86137808013C
:100EF000631E0800BA871306000231A063737401F1
:100F000010A00504BA877D17E3CAF6FE814763C1C6
:100F1000D702B68763D3060081473305F4002A97CA
:100F200013060002B307A74063CFF600EA853DBB76
:100F30003306F40063777601B385FC0083850500F2
:100F40000CA28507E9B76373750110A10505D9BF28
:100F50006373740110A01305140009BB136808041F
:100F6000C146E9BDFD1419B3A146C9BD420641867B
:100F7000FDB5A38F0BFE39B303A5C1828280EFF2CA
:100F80004FC203A9C182EFF0CFDF11CD1384C1821C
:100F9000AA84084019C1EFF02FEE9305300426858E
:100FA000EFF0EFE504C04A856FF0EFC18280397140
:100FB00026CA2ED232D436D62A8654109305F0078C
:100FC000138501B53EDA36C606CE22CC3AD842DCCD
:100FD00046DE9139AA8603A5C18209E9138501B5C8
:100FE000F137F2406244D244216182802686262D68
:100FF0001384C18293E704043EAD9307F00763F4C2
:10100000D7009306F007138601B58145EFF00FEC8A
:101010001C40A6AFF9B7EFF2CFB837750000130543
:10102000852E7137377500001305452F49373777FF
:10103000000037750000130787318D4605468D4542
:1010400013054532AD373775000013054534853734
:101050006FF06FB731C59D661377F50F9386461D08
:1010600009C7BA96882205058280C167938707F071
:10107000E98F81CB21851377F50F36970823250556
:101080008280B707FF00E98F81CB41859377F50F09
:10109000B6978823450582806181369508216505CC
:1010A000828003A741835C41BA976305F502B623AA
:1010B00095E283A60183638FF60093868183904235
:1010C0006313F60088C2D44354C1DC43B306E54041
:1010D000BA9794C71045B307C700630FF500B6234E
:1010E00081EE938681838C426393A5009CC2544118
:1010F000D4C35C413E9710C78280EFF28FAA83A5CC
:101100000184377500001305C538553583A5C184A2
:10111000377500001305053A593D83A5C18337751E
:1011200000001305453B61356FF0EFA9EFF26FA7A3
:1011300013F7C5FFE1462E8663F1E60693073500F7
:10114000F19B930687FE63EAF6041D8F130687FE64
:1011500023A0C1848966511713844183938606EACC
:10116000D8C394C323A407001CC0BA9723A8F18254
:10117000C966938606EAB775000094C3D8C398C7BA
:10118000814605469385C544138501BDEFF02FE8E0
:10119000184023ACE1826FF00FA3AA8537750000D9
:1011A000130545452935C5BFEFF2AF9F39C503A7E4
:1011B00001841304350071981389018481446366A6
:1011C000870EB1476373F4003144FD55138501BDAB
:1011D000EFF06FE683A7818383A54183832809000D
:1011E00026853386B740B386884013888183636839
:1011F000D600138501BDEFF00FEC81447DA0B384D0
:10120000C500BA2003AE440061E73307CE40930F18
:1012100047FF63EF8F0A138FC184938EC18313033B
:10122000840183260F0083A30E001389C184938257
:10123000C18363EF6F061307C4003297896E33834F
:10124000E500938E0EEA2322C3012324C30023204A
:10125000D3010546D8C0B2A003264300B1086304F9
:1012600016012E9618C61387C60022972320E90080
:1012700063F4E30023A0E2000967130707EA9AA0DA
:10128000639A970083A601830147B22305EE19C331
:101290002320F800138501BDEFF0EFE183A78184DF
:1012A000B10481C7A2852685829726856FF0AF910C
:1012B00005463697B2A02320EF00E3FFE3FA23A010
:1012C000EE005DBFE385D7FCDC430547AE9775BFF5
:1012D000728631BFEFF2EF8C3306B50241113285D1
:1012E00032C6D9352A8409C532468145EFF03F80A0
:1012F000228541016FF02F8D45C5EFF2EF8883A75E
:1013000041842A8491C3829783A7418313894183AF
:101310006366F40883A701836372F408FD5513859F
:1013200001BDEFF04FD1835764FF930944FF81CB98
:10133000035744FF8967938707EA6301F70237750C
:10134000000013050540A531835644FF035664FF92
:1013500037750000CE851305C5419139896793879C
:1013600007EA231AF4FE938781839843231B04FE24
:1013700063F4E90023A037011387C1841C4383264B
:1013800084FF4E85958F83260900B386D940B69792
:101390001CC3013B138501BDEFF0EFD16FF00F824D
:1013A0008280B707002093860700014793870700D4
:1013B00021468C426396A500131547003E95828016
:1013C0000507C106E317C7FE01458280EFE2DFFB98
:1013D0002A842E85AE89328AE9372A89A92C83246A
:1013E0004900930749006390F4048D2493E909F8B8
:1013F000230434012146D2852285EFF04FFC83A7D8
:10140000018599C322858297EF00A07703274900C1
:101410009307C4005CC358C42322F90004C8EF003A
:1014200000776FE0BFF984407DBFEFE29FF783A7AD
:1014300041852A8491C3829723040400EF006074DD
:10144000544418489307C400D8C214C31CC85CC4D1
:10145000EF00E0736FE03FF7EFE21FF32E89AA89F8
:101460008937AA84484589332A841DCDD0448145D3
:10147000EFF0EFE7214623043401A3040400CA85FA
:101480002285EFF0CFF383A7018599C32285829748
:10149000EF00206FD8409307C40091045CC358C488
:1014A0009CC004C8EF00A06E22856FE03FF1EFE220
:1014B0005FEF83A741852A8491C3829723040400A8
:1014C000EF00206C544418489307C400D8C214C3DA
:1014D0001CC85CC4EF00A06B2285393D6FE0BFEEF5
:1014E000030585007D81828023980186938701BF53
:1014F00013870708DCC39CC3A107E39DE7FE3D47B4
:101500002382E18623A4018623AE01869387418747
:10151000DCC39CC38280EFE2DFE803A5C187EFF064
:101520007FB37D1593173500138501BF3E950841A4
:101530001307C5FE210523A4E186EFE07FC86FE015
:101540009FE8EFE21FE6EF00C063839701872A89D7
:10155000B1E703A5C187EFF0FFAF7D151317350085
:10156000938701BFBA97844393878186804393858D
:10157000C4FE6305B4028CC383A7C1862382A186FF
:1015800099C32285829783C741821305C40193853D
:10159000840093F7F70F81EBEFE05FC44A85EF001B
:1015A000005F6FE05FE2EF00E05ECDBFEFE27FDF64
:1015B0002A84EF00005D8347440393064401C19BE6
:1015C00093E71700230AF402834754031397370065
:1015D000938701BFBA97D84314C318CCD4C35CC84F
:1015E0009387C1879443185C558F98C3EF00205AA6
:1015F0006FE07FDDEFE2FFDA2A846123184C544864
:1016000093074401D8C214C35CC81CCC834754035D
:1016100013973700938701BFBA979843631AF7006F
:101620001387C1871C5C144393C7F7FFF58F1CC356
:10163000B92B6FE05FD9EFE2DFD6A1239387018753
:101640009A2305079AA3A1236FE0FFD7EFE27FD586
:101650000D2B138701871E23FD17C207C1871EA309
:10166000634BF000231007001D2383A7818691C3DD
:10167000C93D6FE05FD5212BEDBFEFE29FD203A400
:1016800081860123AA842285B5379147230AF40273
:101690001305C404012E2285A1358547631BF5007F
:1016A0003C5C81EB228551332685D521593D6FE085
:1016B0009FD183A641871307440123AAE186D8C29C
:1016C0009387418754C81CCCC5B7EFE29FCD2A84CD
:1016D0005105411108CC48C80CD050D014D43A86DA
:1016E00058D49305300236853EC642C4EFF02FC071
:1016F000585410544C5008507117B71600003A96C1
:101700009386A6672D21B24722483716000048CCA1
:10171000230BF402A30AF402232C040281472322A0
:1017200004052324040523280402230A0402232C8D
:101730000406232E04060147A28613068675A28599
:101740001305C4041D2483A7018899C322858297A9
:10175000014541016FE03FC7EFE2BFC45049144D5E
:10176000795718D954C21307450190C218CD58C9EA
:10177000353DC13B6FE03FC5EFE2BFC24111B284CE
:101780002E8685452A84368946C03AC63EC442C262
:10179000EFF0DFC3024892472247B2464A86A68549
:1017A0002285253741016FE01FC203A58186828013
:1017B000EFE29FBD41112E89AA85054532C6B68448
:1017C000BA893E8AEFF05FC92A8411C92685EFF0F5
:1017D000BF9D324609E92285EFF07FCD0144228585
:1017E00041016FE0BFBDAA865288CE872687CA8591
:1017F0002285E13DEDB7EFE2DFBA612683A781865E
:101800000546AA8603C747033D8B631CC702D04B1E
:10181000984F6308E60258C210C303C65703938665
:1018200047010E06138701BF94CF3297504314C26D
:1018300090CF54C3D8CBA12EEFF0BFD001456FE0BD
:101840009FB83685A926DDBF834745030547BD8B75
:10185000639FE702EFE2FFB42A842526834744030F
:10186000AA842285C19B93E72700230AF402EFF0A4
:101870007FD81305C404F1222685112E83A7818801
:10188000014581C72285829701456FE0DFB37D5511
:101890008280EFE21FB141112AC6E52403A48186AC
:1018A0002A89228555379304C40470008145268512
:1018B000C922268539224A85D92CEFF09FC81858AD
:1018C000F9576314F70023280402014541016FE032
:1018D0009FAFEFE21FADEFE03FBD653F6FE0BFAEF2
:1018E000834745030947BD8B6390E704EFE27FAB75
:1018F0002A84412C5448184C93074401AA84D8C226
:1019000014C31CCC5CC81305C404252A26854124B5
:101910002285EFF0BFC983A74188014581C7228591
:10192000829701456FE03FAA7D558280EFE27FA755
:101930008346650305473317D70018DD0947A30A17
:10194000D502230AE502693F83A7818699C3EFF098
:101950005FBF01456FE03FA75449184D930745010C
:10196000D8C214C31CCD5CC98280EFE29FA3411191
:10197000B2842E86A9452A8436C63AC43EC2EFF008
:10198000FFA49247B2462247F99B1CB49307440137
:1019900044CC14D02324040258D01CCC5CC8410190
:1019A0006FE07FA2EFE2FF9F2A84E12AAA842285CA
:1019B00065372685E92A2285EFF03FA701456FE0CC
:1019C0009FA0EFE21F9E2A846D2AAA842285693790
:1019D0001C342685F99B1CB45D2A83A7C18599C355
:1019E00022858297EFE07FA95C503E9508D4512A6A
:1019F00013878189032847003706008093878189F0
:101A00001346E6FF98436315F8029386C188904217
:101A1000050690C29306440154C358C894C31CCC15
:101A20001C3493E717001CB49D2201456FE0BF9959
:101A3000544B0C546385B6008D8EE378D6FCBA8780
:101A4000D1B71C35858B85C7EFE2BF9583A781850C
:101A50002A8491C382973522AA842285F53D268562
:101A60003D221C340145F99B1CB46FE0DF957D5588
:101A7000828085476381F50263C5B70085C1014552
:101A800082808947638FF5008D47E39AF5FE1C3508
:101A900093E7270009A85C511CC2D5B71C425CD152
:101AA000F9BF1C35F59B1CB5D9BFEFE21F8DEFE0E8
:101AB000DF9C2A8CF920B70900802A8A93848189C7
:101AC00093C9E9FF8D4B8040631694005285C12075
:101AD0006FE03F8E48481309C4FE3305AC40E3E78E
:101AE000A9FE83A7018999C34A8582974A85EFF0A9
:101AF000BFE61C4448448297EFE03F9883A74189A2
:101B00002A8C99C34A858297834754FF13F7E70FBE
:101B1000A30AE4FE8D8BE39877FB4A85EFF07FEA1A
:101B20005DB793878189DCC39CC382808280110664
:101B3000719A2A8837C7ADDE130506F8AA871307FE
:101B4000F7EE631EF600A167938707882322D6F875
:101B50002324B6FA232006F92324F6F8828098C3BA
:101B60009107C5B737F700E01C43B7060080D58F53
:101B70001CC3828037F700E01C43860785831CC3A3
:101B800082802165130505807315053082807310EE
:101B900005308280EFE2FF801387818A18439387A4
:101BA000818A19E323A0A18A23A2B18A054798C399
:101BB000553F6FE05F812A87814718436314A70070
:101BC0003E8582808507D5BFB707EFBE37E700E0C7
:101BD000938707083CC701458280EFE28FFC377589
:101BE000000013050549EFF08FBC01456FE0AFFD24
:101BF000EFE22FFB2A84FD54378900007D14631423
:101C000094006FE04FFC130589BFEFF04FBAFDB7AA
:101C1000EFE28FF70041AA8437890000B7890000FE
:101C2000631494006FE08FF99305C4FE1305C9BFD8
:101C3000EFF0EFB71C4063869700138509C0EFF003
:101C40000FB70040F1BFEFE2CFF52E89EFE09FFC28
:101C50002A84EFF05F9E83240900639C2401EFF047
:101C6000FF9EA14763C3870011E0214422856FE0F6
:101C70008FF5138544FFEFE0FFF96353A4002A8436
:101C80008440E1BFEFE26FEF0545EFF08FF1B779E8
:101C90000000130945002A84CA85138549746537F5
:101CA000AA85AA8437750000138649741305C57484
:101CB000EFF0EFAF2685EFF0BFF3377500001305A7
:101CC0000579EFF0CFAE4040B7790000054A894A68
:101CD000378B0000B77B0000377C0000B77C00002A
:101CE000378D00006315890001456FE08FEC0347D5
:101CF00094021385097D930644FF2146A685EFF0E3
:101D00000FAB834784021385CC7DBD8B638E470167
:101D100013058C7E638A570113854B7F91C711474A
:101D20006396E70013050B80EFF06FA84C4C930708
:101D30003002AE8698226306F702105093074006E1
:101D40000848B295B386D540B386F602585C5C501D
:101D5000898D1305CD80B3D6C602EFF04FA50040A4
:101D600051B78506C1BFEFE22FE241110945EFF0FF
:101D70004FE393094500377900002A84CE85130587
:101D8000496EEFF05FECAA85AA8437750000130650
:101D9000496E1305056FEFF08FA12685EFF05FE523
:101DA000377500001305C570EFF06FA04040377A1B
:101DB0000000B77A0000377B000063968900014578
:101DC00041016FE0AFDF1A281C44930644FF13095A
:101DD000840036C63AC44A856306F902EFF0BFDDD7
:101DE0002247B246AA872146A68513854A72EFF09C
:101DF0000F9C4A85EFF0DFE113050B51EFF02F9BAD
:101E0000004065BFEFF03FDB2247B246AA8721467C
:101E1000A68513054A73EFF08F99DDB7EFE2CFD6B1
:101E200041111145EFF0EFD79309450037790000D4
:101E30002A84CE8513058952EFF0FFE0AA85AA8493
:101E4000377500001306895213050553EFF02F96DE
:101E50002685EFF0FFD93775000013054555EFF0E3
:101E60000F954040377A0000B77A0000377B0000BA
:101E700063968900014541016FE04FD41C4413096A
:101E80008400930644FF18486309F9024A8536C660
:101E90003AC4EFF05FD22247B246AA872146A68510
:101EA00013854A57EFF0AF904A85EFF07FD61305C0
:101EB0000B51EFF0CF8F004065BF2146A68513057B
:101EC000CA58EFF0CF8EC5BFEFE20FCC41110D45E0
:101ED000EFF02FCDB7790000130945002A84CA8599
:101EE00013850968EFF03FD6AA85AA8437750000EC
:101EF0001386096813058568EFF06F8B2685EFF070
:101F00003FCF377500001305C56AEFF04F8A404098
:101F1000B779000063168900014541016FE00FCADF
:101F2000930644FF1305840036C6EFF0DFC803486C
:101F300034015C48B246AA8821472146A68513850C
:101F4000C96CEFF0CF860040F1B7EFE2EFC341116B
:101F50001545EFF00FC593094500377900002A8435
:101F6000CE851305095AEFF01FCEAA85AA843775CE
:101F700000001306095A1305855AEFF04F83268592
:101F8000EFF01FC7377500001305C55CEFF02F8217
:101F90004040377A0000B77A0000377B0000639634
:101FA0008900014541016FE06FC17A285E28104425
:101FB000930644FF1309840036C63AC43EC24A85DC
:101FC0006307C902EFF03FBF92472247B2462A8813
:101FD0002146A68513858A5EEFE07FFD4A85EFF0F6
:101FE0003FC313050B51EFE09FFC00404DBFEFF0E6
:101FF0009FBC92472247B2462A882146A6851305F0
:102000000A60EFE0DFFAD5B7EFE20FB841111945EA
:10201000EFF02FB993094500377900002A84CE8567
:1020200013058961EFF03FC2AA85AA8437750000C5
:102030001306896113054562EFE07FF72685EFF00F
:102040003FBB3775000013050564EFE05FF64040C5
:10205000377A0000B77A0000377B0000639689006A
:10206000014541016FE08FB51A2C1C44930644FFD3
:102070001309840036C63AC44A856306F902EFF0B4
:102080009FB32247B246AA872146A68513858A6553
:10209000EFE0FFF14A85EFF0BFB713050B51EFE01A
:1020A0001FF1004065BFEFF01FB12247B246AA877B
:1020B0002146A6851305CA66EFE07FEFDDB7EFE2A4
:1020C000AFAC5D712545EFF0CFAD9D651306000502
:1020D0002A84130945009385C5130A85EF4050747F
:1020E000B7790000CA851385094CEFF0DFB5AA85E2
:1020F000AA84377500001386094C1305854CEFE060
:102100001FEB2685EFF0DFAE377500001305054F96
:10211000EFE0FFE94040D149377A000063168900BB
:10212000014561616FE08FA91C44930644FF63E0A1
:10213000F90298088A07BA9703A707FB1C282146CB
:10214000A68513054A51EFE09FE60040C1BF464710
:10215000F5B7EFE26FA32945EFF0AFA4B789000010
:10216000130945002A84CA8513854983EFF0BFAD62
:10217000AA85AA8437850000138649831305C58381
:10218000EFE0FFE22685EFF0BFA6378500001305DC
:102190004586EFE0DFE14040B7890000378A000064
:1021A000B78A0000631E8900EFE02FADAA8537854E
:1021B00000001305C58BEFE09FDF01456FE00FA026
:1021C0005C4C184C13858988930644FF2146A685EC
:1021D000EFE0FFDD8347D4FF13850A8A858B99E3FF
:1021E0001305CA8AEFE0BFDC00406DBFEFE2CF9974
:1021F0003775000013058549EFE07FDB03A4018BF1
:10220000B7790000377A000083A7418B6365F4003B
:1022100001456FE0AF9A044009469385C94A268577
:10222000EF40306F19C55040A68513050A4BEFE00B
:102230001FD83104D1BFEFE22F9537850000130579
:10224000C5D5EFE0DFD603A4018BB7890000378A3C
:10225000000083A7418B636BF40037750000130502
:102260000551EFE0DFD401456FE04F95044019467A
:10227000938589D72685EF40D06901E95040938541
:10228000640013050AD8EFE09FD23104D9B70545A1
:102290008280EFE26F8F79712A84AA9593060002FB
:1022A000254783070400B38485406385D70A638389
:1022B000E70A0145638B0410014913070002A54694
:1022C000B307240183870700638AE7086388D70878
:1022D0006314990883A9018B83AA418B378B000073
:1022E00063F0590903AA0900194693058BD7528553
:1022F000EF40306259E54A86A28513056A00EF4037
:10230000506141E14A9A83076A00A5EF83A98900D9
:10231000638809041306800281452800EFE06F8B73
:1023200013098100CA86A2870145014713080002EC
:10233000A548294313062002130EC0058385070014
:102340006384050163961505631F9702A94763031C
:10235000F50469A80504B1B705099DB7E31C09F6A2
:10236000A287038707001377F7FD79E73785000019
:10237000130545D423800700A285EFE05FC37D5598
:10238000A9A0B109B1BF23800700050785077DB764
:102390006310650437850000130505D2EFE03FC1E7
:1023A0000018B784000083250900138504D411099F
:1023B000EFE0FFBFE31989FE3775000013050551F3
:1023C000EFE0FFBE29452C00829945616FD01FFFC9
:1023D000637E970005056392C504850705079CC2C7
:1023E000838507006381C5026364970069FD8DBF23
:1023F000838E17006396C5016394CE008507050799
:1024000085070507F1BFE37397FE238007000507E3
:1024100085079106E36497F2D1BF9CC283850700CC
:102420006389050163871501E30297FC85070507AA
:10243000F5B7E36097FE5DBF850725B7EFD2FFF3E1
:102440008307050099E781450145EFF0DFDE6FD096
:102450005FF603AA018BAA8981440149378B0000EA
:10246000B78B000083A7418B6369FA00EDD04A86E1
:10247000A6854E85EFE0AFF4D9BF03240A001946C4
:1024800093058BD72285EF40D04821E14E85EF4060
:10249000304719042A86A2854E85EF40904715E5FE
:1024A000631709002285EF40B0452A89A284A687D8
:1024B00022870386070001EE858F63D327013E89BB
:1024C000A28513858BD8EFE09FAE310A61BF8306EA
:1024D0000700FDD2E312D6FE85070507D9BFEFD26C
:1024E0005FECEFF02FFA01456FD0FFEDEFD27FEBFD
:1024F000EFE0BFC001456FD01FEDEFD29FEA03A50B
:10250000C18AEFE04FBB01456FD0FFEBEFD27FE90F
:10251000B7970000938787B323A8F18AB797000085
:102520009387C7CA23AAF18AB79700009387C7CABF
:1025300023ACF18AB79700009387C7CA930500219F
:10254000054523AEF18A1384C18AEFE0BFD808C0E5
:1025500019E9378500001305C5E3EFE05FA57D5459
:1025600022856FD05FE6B725000037850000A947B8
:102570002D479306004001469385C568130545E540
:10258000EFF00FA3AA840840B785000081460146FA
:102590009385C5E5EFE0AFA70144F9D02685EFF0BC
:1025A000EFB87DBFEFD2FFDFEFF07FCE0DC5B7856F
:1025B0000000938585E0138501C7EF407033B78530
:1025C0000000938585E1138501C7EF4090301385A6
:1025D00001C76FD05FDFB7850000938505E1E1BFDC
:1025E000EFD23FDC2A8437850000130585E7EFE052
:1025F0001F9CEFF03FFBAA85378500001306A41B44
:10260000130505E8EFE0BF9A01456FD0DFDBEFD29D
:102610005FD941112AC6EFD0DFF6B24511E93785FF
:1026200000001305C5E1EFE09F9841016FD0BFD9CD
:1026300083A7C18AAA841384C18A83A7C720E3869B
:10264000A7FE93053014EFD09FFB65F11C4003A556
:10265000C72009C9EFE04F821C40814503A5C72070
:10266000EFE08F8800401306000581451305A41B89
:10267000EFD03FD6B7250000231504202326942051
:102680009385A54F2685EFE02F8645B7EFD27FCE05
:1026900083A7C18A41119384C18A03C74702136784
:1026A00017002382E70283A7C72091E7EFE0DF8CC2
:1026B00019C1EFF0DFF5EFF0FFEEEFE05F8F378B42
:1026C0000000B78B0000B7890000377A0000B78A96
:1026D0000000378C0000B78C00009C408546130634
:1026E000F10003A5C720FD55EFD09FFC8547631A75
:1026F000F5000309F100ED4780406319F90008D0A7
:10270000E9BF8840FD55EFE00F93C1BF1C506392B5
:10271000A7029307B0056315F90089471CD075BF60
:1027200023200402E30B09FAA5476314F9120149B7
:10273000D1A80947E398E7FE232004029307100479
:102740006312F9046E30D1D9FD15C205C1816EB096
:102750009307A41B13070005B385E50213060005C4
:102760003E859385A502A295EF40900BEF4050194E
:102770001375F50F2305A420A305A4202285EFF0EF
:102780003FE6A1BF930720046311F90216347E309F
:102790001387F6FF63D8E70085077EB09307A41B75
:1027A0006E304DBF9DDA7AB0D5BF930740046310F9
:1027B000F9028347B42095D3138549E6EFE02FFF54
:1027C00098408347B720FD17A305F72039B7930733
:1027D0003004E319F9F48347B4200347A420E3FE4F
:1027E000E7EE3E948305A41B13858AE6EFE02FFCF9
:1027F00098408347B7208507C1BF138549E6EFE0BE
:102800000FFB050980408347B420E348F9FE130518
:102810000A51EFE0CFF9EFF09FA785471304A41BFF
:102820006315F5002285EFF07FC1EFF0BFD7228658
:10283000AA8513850CE8EFE08FF780401305A41BF1
:10284000EF40100C1375F50F2305A420A305A42059
:1028500069B59307F0076305F900A1476315F90807
:102860008347B420E38B07E60346A420FD1793F7C4
:10287000F70F7D161376F60F2305C420A305F42069
:1028800063F8C7049385B71B1385A71B1D8EA295FC
:102890002295EFE04FAE9C401385CBE603C7A720FF
:1028A0003E97230D071A83C5B7209385A51BBE95B8
:1028B000EFE0EFEF9C4003C4B7209C4083C7A72004
:1028C000E3CD87E0138549E6EFE06FEE0504F5B749
:1028D00013054BE7EFE0AFED9C4003C7A720BA9785
:1028E000238D071ADDBB35478347A4206305E90024
:1028F0002947631EE90EB9CB035984029147130D92
:10290000A41B63FB2709930DA41613060005EA8593
:102910006E85EF40A06E1DC91309A4024A851309F4
:10292000090513060005CA85EF40806FE3982DFF67
:102930001306000581456E85EFD0BFA90346A4208C
:10294000EA856E85EF40C06D95471EB41E347EB09B
:10295000EFF0FF9385476312F5029C4083C747025F
:10296000858B89C713050A51EFE06FE488408345E2
:10297000A5201305A51BEFF0DF91EFF0BFC2EFE03C
:102980000FE380401306000581451305A41BEFD01B
:102990005FA42315042091B3630109021305F9FF15
:1029A000930700053305F50213060005EA851305B4
:1029B000A5022295EF40806451D9930D000533059F
:1029C000B9031306000581451305A5022295EFD032
:1029D0005FA00A340346A420EA853305B503130536
:1029E000A5022295EF40C0631E348507B9BF1307C7
:1029F000F0046374F700230504200346B4208347E2
:102A0000A4206370F6089305A61B1305B61BA295B8
:102A10003386C7402295EFE00F968C4083C7B520E0
:102A20003387F500230D271B03C74502058B01CB18
:102A30009387A71BBE951305CCBFEFE04FD79C40F3
:102A400003C4B7209C4083C7A7206346F402984084
:102A50008347A7208346B7208507850693F7F70F9E
:102A6000A305D7202305F7209306F004E3F7F6C665
:102A7000231507209DB1138549E6EFE04FD30504E8
:102A8000D1B7A297238D271B83474402858BE1D3BF
:102A9000CA8513858AE6EFE08FD155BF7C41232894
:102AA0000504232A05049C4381CBEFD29F8F930515
:102AB000850482976FD03F9101458280EFD2DF8CF1
:102AC00036899DCAAA843284B309D600294A1C20BB
:102AD000639B4701BE2C93F7070491C7FC40B545A3
:102AE00026859C478297FC408305040026859C47E9
:102AF00005048297E31D34FD4A856FD03F8CEFD2E9
:102B00005F8A93F705102A8491C71A2D61551377B0
:102B1000071035CF13F7054011C71A2C61551377ED
:102B2000074035C713F705049304000401E7262C7A
:102B300093F40404384893F5F50F2EAC39EBA1C794
:102B400068442981420541813105EFE0EFE5704499
:102B50002A89310529824206418281452320A90024
:102B6000EFD0FFF8232209003E2C2324090023285C
:102B7000240593E707103EAC7C4013060010C145C6
:102B8000DC43228582973E2C0145DD8C26AC6FD03C
:102B90009F83F5DB93E505102EACF5B70948AA87AE
:102BA00063810503EFD2EFFF0D48638205030547FC
:102BB0006399E5041A2D1377F7FD1AAD01456FD01F
:102BC0009F801A2D136707021AAD01458280328754
:102BD00075D6504274454C2D2982A9824206C20600
:102BE0004182C1826304D6001D45F1F91443B4C784
:102BF0005443F4C7E1D5F443BA853E8594428296A6
:102C000075BF7C41DC4382975DBFEFD2EFF736841E
:102C1000B1CA3E2DAA89328993F70710B6849DE385
:102C20007D5AA94A83A749044E85DC4782976309E8
:102C300045012300A900FD14050963035501FDF0BA
:102C4000058C0DA02449368A854AEFE09FF3FE20CB
:102C5000DA202A869444631AF70081EAEFE03FF312
:102C60003304444122856FD06FF598403E97034B63
:102C7000070003A7C9048507C2072983C183420748
:102C8000FEA0418363E4E7002393040063945601AC
:102C900023A404003285EFE09FEF7D1A2300690131
:102CA0000509E3140AFA6DBF582D854763ECE70266
:102CB0003E2D93F707109DC7EFD2AFEE2A84284927
:102CC000EFE08FE33E2C232804041306001093F753
:102CD000F7EF3EAC7C40C5452285DC438297014539
:102CE0006FD06FEE01458280EFD2AFEB3737000037
:102CF0001307C7A918D5373700001307E7AF58D512
:102D000037370000130787CA18D937370000130771
:102D1000A7C058D9373700001307C7AB18DD3737BE
:102D200000001307C7B9420658DD34C14182232A87
:102D300005002320050223220502EFD01F896FD052
:102D40008FE893F5F50F85476391F50AEFD2CFE34E
:102D500020494111AA847D598549FC402685DC47DC
:102D600082972A8A63072505EFE0BFE15A201C40BD
:102D7000BA97238047015E20F8448507C20729835C
:102D8000C18342075EA0418363E4E700231204008D
:102D900076205E20639CD7008507C207C1837EA092
:102DA0002324340163E4E70023130400EFE03FDE53
:102DB0006DB79C5085C3EFE0DFDC5A206E20636E58
:102DC000B700B305B7402EC6EFE07FDC9C50B2459C
:102DD0002685829741016FD06FDEFC44998DA983CF
:102DE000C207C183B385B740F9BF828001CEEFD25D
:102DF0004FDB7841B2878E23184332220297014578
:102E00006FD06FDC7D558280EFD2AFD9138741CF71
:102E100078432E86AA851843138541CF02976FD039
:102E20008FDAEFD20FD8138741CF78432E86AA8549
:102E30005843138541CF02976FD0EFD8EFD26FD6AA
:102E4000138741CF7843AA85138541CF184702974E
:102E50006FD06FD705C611476392E602EFD26FD4E9
:102E60007C410E2241119C4736C632C482972246CD
:102E7000B2462AA2368541016FD0EFD4814636850D
:102E800082801DC2B28711466390C602EFD26FD115
:102E90007841B2238E235843411136C60297B24679
:102EA000410136856FD02FD2814636858280EFD2A0
:102EB0004FCF938741CF4947D8CB3737000013070F
:102EC00047E5D8DB37370000130727E898DF3737A7
:102ED00000001307C7DEECC3B0C3AA850D461385F7
:102EE00041CF23A0070223A2070223A4070223A69F
:102EF000070223A80702D8DFEFD02FED01456FD0DE
:102F00008FCC370500201305C56F82803715002050
:102F10001305C56F8280EFD2CFC8B707002003A783
:102F2000071C9307803EC1563357F702B7E700E00E
:102F30002386D7402387D740856623A0D710916684
:102F400023A0D710B7F700E023A0070023A20700B3
:102F5000014690C78146D4C781461306F7FF90CB40
:102F6000D4CB3D4798C3EFD0AFD7EFF09FF92A8479
:102F7000EFF0DFF9AA852285EFE04F9B378500004F
:102F8000130585EFEFD0BFFF6FD0EFC3731101348E
:102F9000EFD07F96B7F700E023A20700EFD04FCE27
:102FA000EFD03F987311013473002030814785467C
:102FB000130700023396F6006306A6008507E39B1D
:102FC000E7FEFD573E858280EFD2AFBD85451305F4
:102FD0000002EF10206C6FD00FBFEFD28FBC854581
:102FE0002145EF10206B6FD00FBEEFD28FBB854510
:102FF0001145EF10206A6FD00FBDEFD28FBA854513
:103000004145EF1020696FD00FBCEFD28FB98545D5
:1030100013050004EF1000686FD0EFBAEFD26FB85D
:10302000A165378500000146938505F01305855E8F
:10303000EFF0FFE76FD02FB99307400663ECA700CE
:10304000931745002165130585F93E951841FD57F5
:103050006313F70001458280EFD2AFB4411113F53D
:10306000F50F32C6EFF05FFD11C54E25324608451B
:10307000EF10A04541016FD00FB5EFD28FB213F51D
:10308000F50FEFF07FFBAA87014589C7CE27884758
:10309000EF1000436FD02FB3EFD2AFB0011113F593
:1030A000F50F3284EFF05FF905C55C412AC68297BF
:1030B00032455C45FC82C1473ECE8D473ECC09C4BB
:1030C0001547631AE40002CE08454C08EF10403360
:1030D00005616FD04FAF05476315E40091473ECEC1
:1030E000E5B76315F40093078002D5BF89476315E0
:1030F000F40093078004E5B791476314F400D147C7
:10310000F9BF99476314F400F147D1BF9D47E31D10
:10311000F4FAE147E9B7EFD22FA713F5F50FAE8424
:10312000B289368A3A89EFF03FF1994731CD484567
:10313000EFF0DFE73D472A8499476367A704EFE094
:103140005FA4B146B306D402B7070020138707086F
:103150002A8693870708369783160700639F960091
:103160004C43639C45012E23639935011847631630
:103170002701EFE0DFA1814701A87D576389E600C1
:103180003285EFE0DFA09D473E856FD02FA331450C
:103190003305A4023E9506A12322450123113501E2
:1031A000232425013285F1B7EFD2AF9F13F5F50F38
:1031B000EFF09FE819471DC94845EFF03FDFBD47D5
:1031C0002A84194763E4A702EFE0BF9BB1473304A9
:1031D000F402B7070020938707087D57A2978396CC
:1031E00007006398E600EFE09F9A01473A856FD0A9
:1031F0008F9D41677D1798C323A2070023A4070072
:10320000DDB7EFD26F98011113F5F50F328AEFF0A9
:10321000BFE2994721C185442A8463159A10484525
:10322000EFF0DFD83D47AA8499476365A702EFE036
:103230005F95B14AB3875403370900201309090881
:10324000AA893E9903170900FD576319F700EFE0BB
:103250001F9499473E8505616FD04F965C408297D9
:1032600085450545EF1000435C440D473AC47C8218
:103270003EC88357290002CA52CE638C4709C1C792
:103280000947638DE70808444C00EF1060171844A5
:10329000B7170140938607C005456302D702094569
:1032A000630FF700938707400D45630AF700B727C0
:1032B00001409387078001456313F700114593F59B
:1032C000F40FEF1020210808EF10600AA167938720
:1032D00087F18E04BE94D04037E700E093060005E6
:1032E000B307C7002380D74093575600938707043E
:1032F00085468A07B396C600BA9794C34E85EFE019
:103300001F89814781BF930780023EC6A1473ECCFB
:103310009DBF930780043EC656CCB5B791473EC6C5
:10332000C147F5B79947E3170AF24845EFF01FC8C0
:103330003D479947E360A7F29317350021651305D0
:1033400085F13E9558419357570093870706B394EC
:10335000E4008A0737E700E0BA9784C30F10000043
:103360004DB7EFD20F84EFF07FC4B1473305F502BC
:10337000B7070020938707083E955C4199C308452D
:1033800082976FD04F8473110134EFD0CFD60545AB
:10339000EF10800419C50545EFF0BFFC0545EF109F
:1033A0008005EFD00FD873110134730020307311F2
:1033B0000134EFD04FD40945EF10000219C509457B
:1033C000EFF03FFA0945EF100003EFD08FD57311EE
:1033D00001347300203073110134EFD0CFD1114587
:1033E000EF00907F19C51145EFF0BFF71145EF10C1
:1033F0008000EFD00FD373110134730020307311AC
:103400000134EFD04FCF2145EF00107D19C5214584
:10341000EFF03FF52145EF00107EEFD08FD0731114
:1034200001347300203073110134EFD0CFCC41450B
:10343000EF00907A19C54145EFF0BFF24145EF002A
:10344000907BEFD00FCE73110134730020307311D5
:103450000134EFD04FCA13050002EF00F0771DCD05
:1034600013050002EFF0FFEF13050004EFF07FEF0C
:1034700013050008EFF0FFEE13050010EFF07FEEEC
:1034800013050020EFF0FFED1305003EEF00B076CE
:10349000EFD02FC9731101347300203013050004DD
:1034A000EF00907355FD13050008EF00F0724DF921
:1034B00013050010EF00507245F513050020EF00D2
:1034C000B07159FDF1B773110134EFD0CFC21305BC
:1034D0000040EF00707029C113050040EFF07FE855
:1034E000056513050580EFF0DFE70565EFF07FE781
:1034F0000965EFF01FE71165EFF0BFE62165EFF01A
:103500005FE64165130505C0EF00F06EEFD06FC1B7
:103510007311013473002030056513050580EF0039
:10352000B06B5DF90565EF00306B5DF50965EF0087
:10353000B06A5DF11165EF00306A59FD2165EF0059
:10354000B06959F9E1B701458280EFC29FE59C411E
:103550002041A14641111CC0B1473EA4DC412316C5
:10356000040013F7F7006301D702A546631ED700D6
:1035700005675AA013D747000D8B01C7854663081E
:10358000D7002313040031A023120400E5B7096714
:103590007AA099838D8B05476389E70081C7094726
:1035A0006389E7062314040021A0930700601EA48A
:1035B0001848B7470140938707806318F7041165DF
:1035C00085451105EF10000D93070020B714014049
:1035D0007C820D49E1474C00138504803EC64AC4F5
:1035E000EF001062930700407C824C0091471385E6
:1035F00004803EC64AC4EF00B0600848A285EF10C0
:10360000C02508488545EF10402E014541016FC097
:103610009FDB9307004061BFEFC21FD7B7140020A4
:1036200013844475930750035CC837190020B747CB
:1036300001401306C96F9387078074461CC8A167B1
:103640009387C75E7CC2B70700C0F58FC166A1062D
:10365000716713070720D58F1165411138C67CC6E5
:103660008545B7070C00110518C01CC423220400AF
:1036700023160400EF100002B71901409307002041
:103680007C820D4AE1474C001385098052C43EC636
:10369000EF001057930700407C824C009147138540
:1036A00009803EC652C4EF00B05508489385447562
:1036B000EF10A01A08488545EF102023B7850000B9
:1036C0009386447513063010938585EF1305C96FF3
:1036D000EFF08FE1014541016FC05FCEEFC27FCCBB
:1036E0002041930500020848EF10E02419C51C484A
:1036F000CA231375F50F6FC01FCD7D55EDBFEFC207
:103700005FCA24412E84884893050004EF10A0224C
:103710007DD99C4842044180C2A305456FC0BFCA01
:10372000EFC23FC8C1473841638DF502C547639773
:10373000F502544B054693D7560093870706331678
:10374000D6008A07B7E600E0B69790C30F100000D6
:103750000146084B93055052EF10801A01456FC087
:103760009FC6544B054693D75600938707043316DC
:10377000D6008A07B7E600E0B69790C30546D1BFEA
:10378000411122C626C473110134B7140020EFD0B2
:103790008F969387C46FA043930550520848EF104B
:1037A000201A19C985451385C46FEFF08FD90848D1
:1037B00093055052EF10801CEFD0AF967311013477
:1037C0003244A244410173002030EFC21FBBB787CF
:1037D000000083A747690111371400203ECCB7874A
:1037E000000003AB8769B787000083AAC769B78762
:1037F000000083AB076A930400001304847C5C44DC
:1038000013054006BDCF2824014A794CEF306049AA
:10381000DA85EF20B0092ACE371500201309C576C6
:10382000AA895285EF30803BDE85EF20304AA6859D
:10383000EF202051D685EF10A0152ACA31464C083A
:103840000A85EF30E07D9306290013061900CA852A
:103850000A85050A0D220D09E3158AFD1385C9762F
:10386000492C4C402685EF20C04DD685AA84EF20F8
:10387000D034634705002685D685EF20706EAA8474
:103880000A24EFE00F85A5BFEFC2BFB1B717002034
:103890009387877C1307000098C3378700000327AE
:1038A0000760B735000037850000D8C337071E0111
:1038B000650798C723A607002947A9479306004034
:1038C00001469385A57C13054560EFD07FEE09C9BD
:1038D000EFE0CF85378500001305C560EFD02FEDF1
:1038E0006FC07FAEEFC2FFAB054419C59547137497
:1038F000F50F63F3A70015442285EF30202EAA852B
:10390000EF20204493072003B3C78702B714002099
:103910009384847CC8C037850000A28513050565A3
:103920009EA48547DCC4EFD08FE86FC0DFA9EFC24B
:103930005FA737850000B71700201305C56723AAC6
:10394000077CEFD0CFE66FC01FA8EFC29FA59307FB
:1039500040069305400663E4A7009375F50F37858D
:103960000000B71700201305C5622389B77CEFD08C
:103970000FE46FC05FA5EFC2DF9F832945004111AF
:10398000AA842E8D0045930500004E85B28C368C9E
:10399000EF20102B635CA0148440B787000083A540
:1039A000C7692685EF207021634405009304000059
:1039B000B787000083A5876B268537890000EF2035
:1039C000E06EAA84EF3000162AC6EF302021AA85C7
:1039D0002685EF20F058AA8D2285EF3060392A8A9B
:1039E0004E85AE8AEF30C0382A86AE862A8BAE8BE3
:1039F0000325096C8325496CEF10D0405286D6868A
:103A0000EF10C074EF308041EE85AA844E85EF2020
:103A1000F02BEF30E0352A86AE860325096C83252E
:103A2000496CEF10303E5286D686EF102072EF3090
:103A3000E03EAA896E85EF30A0332A86AE86032544
:103A4000096C8325496CEF10F03B5A86DE86EF1037
:103A5000E06F2A86AE860325096C8325496CEF103A
:103A6000703A5286D686EF10606EEF30203BB24738
:103A700011472A896369F70621678A071307476A8E
:103A8000BA979C43828722894E84B789000083A518
:103A9000C96B2285EF209023EF30E00E83A5C96B20
:103AA0002300AD004A85EF207022EF30C00D83A5C2
:103AB000C96B2380AC002685EF205021EF30A00C8D
:103AC0002300AC0041016FC09F8EA2873E892684EF
:103AD000AA8465BFA2874E892684BE847DB7A2874B
:103AE00026892A84DDBF2689CE8445B7A28422890F
:103AF00069BFEFC21F8BB7270020138747831303CB
:103B0000A505938747837D56034F1500834E050017
:103B1000034E2500BE859D463358DF4013781800BC
:103B200093082004631408009308100223901501E1
:103B3000FD168905E392C6FEBE859D4633D8DE405C
:103B400013781800930820046314080093081002E7
:103B500023981501FD168905E392C6FEBE859D4694
:103B60003358DE40137818009308200463140800CB
:103B70009308100223901503FD168905E392C6FEF3
:103B80000D0593870703E311A3F893074706231056
:103B9000075A0907E39DE7FE3704024093052030EA
:103BA00013058405EF008076854513058405EF0035
:103BB000A07437050200EF00A07565DD370502002F
:103BC000EF00207837050240814513058505EF0099
:103BD000A0720545EFD0FFCF6FC0EFFEEFC26FFCC4
:103BE0001D7185451145EF00F02A85450545EF001B
:103BF000502C85472314F10237150140E1473ED888
:103C00002C108D47130505803ED6EF00607FB70767
:103C1000002003A6071C37340C001304045033564D
:103C200086026C08370500402311010202CE7D1682
:103C3000420641822310C10232C6EF007029C167DB
:103C4000938707064C18370500403EDA231D010212
:103C5000231E0102EF007032A14537050040EF003E
:103C6000F03E854537050040EF00B03C85453705FF
:103C70000040EF00B038324637850000A2851305BA
:103C8000856CEFD0CFB285450545EF00D01E3704D7
:103C90000240130584057D29B70700409387470339
:103CA0003EDAB7270020938747833EDCC1473EDEDC
:103CB00093072030BEC093070008BEC493070010CE
:103CC000BEC693070040BEC84C188967130584051B
:103CD000BECC82C282CA82CEE5230546930500206F
:103CE00037050040EF003034378500001305C56FFD
:103CF000EFD0EFAB3715002081471306857D130702
:103D0000A005B306F600238006008507E39BE7FEC7
:103D10001305857DEFF0FFDD25616FC0CFEA7311DC
:103D20000134EFC05FBD3785000013054573EFD048
:103D30000FA8EFC01FBF731101347300203073113F
:103D40000134EFC05FBB3785000013058572EFD0EB
:103D50000FA6EFC01FBD731101347300203083071D
:103D600005001307D0026398E7000505FD5681475B
:103D70002546294821A81307B0028546E399E7FEA6
:103D80000505F5B7B38707030505BA9703070500CF
:103D9000130707FD9375F70FE376B6FE3385D70259
:103DA0008280EFC20FE0854763DCA700C841EFF0D7
:103DB0001FFB1375F50FEFF0FFB201456FC0AFE0C9
:103DC0000D45C5BFEFC2EFDDEFF07FB601456FC017
:103DD0008FDFEFC20FDD854763D6A702C841EFF042
:103DE0001FF89307400663DBA70013054006137511
:103DF000F50FEFF09FB501456FC0EFDCE35905FE0D
:103E00000145F5B77945E5B7EFC2AFD93785000071
:103E100013050574EFD0AF9937840000130544747F
:103E2000EFD0EF983785000013050578EFD02F9875
:103E3000378500001305C57BEFD06F9737850000ED
:103E40001305857FEFD0AF9613054474EFD02F96FE
:103E5000252AB707002083A5071C37950000130506
:103E60004583EFD0CF94D524AA853795000013055C
:103E70004584EFD0CF93EFF07FD6EFF0FFA00D4554
:103E8000EFF05FA61305803EEFD0BFA4E5BFB717E4
:103E900002409843B706FFF041111367170098C31B
:103EA000D84337060200758FD8C39843B706F7FE8C
:103EB000FD16758F98C39843B706FCFFFD16758FE6
:103EC00098C3D843B70601FFFD16758FD8C3984332
:103ED000B70600ECFD16758F98C33707FF0098C72B
:103EE00023A6070202C402C69843C166558F98C331
:103EF000B716024005679C42F18F3EC6A247850770
:103F00003EC4B24781E7A247E397E7FEB7170240F6
:103F10009C431397E7006357070685473EC6324721
:103F20008547631FF704B7170240D843B706C1FFA0
:103F3000FD16D8C3D843D8C3D84313670740D8C3A6
:103F4000D843758FD8C3D843B7062900558FD8C337
:103F50009843B7060001558F98C39843931667009E
:103F6000E3DD06FED843B7160240719BD8C3D843A1
:103F700013672700D8C32147DC42B18BE39EE7FEDD
:103F80004101828002C661BFB7160240D842B7071E
:103F900000201146318B9387071C6305C70021461B
:103FA0006308C70237177A001307072098C337172B
:103FB0000240584311839376F70037070020130718
:103FC00007143697142398433357D70098C3828039
:103FD000D842D442416649833D8BF18E13062700B7
:103FE00015CF3D47630FE6024147630FE6024547A1
:103FF00081456313E6004146A1E2374702400327AB
:104000000780418B0DC737177A0013070720330647
:10401000C70290C3C9DD9843058349BF814549461E
:10402000E1BF85453546C9BF81453D46F1B73717E4
:104030003D0013070790E1BF37150240585593160E
:10404000F700585563DF060411833D8B9306170074
:1040500037177A00130707203357D70298C35455F0
:10406000A182BD8A8DE295463307D702058398C3A6
:1040700037170240585794433D8B050733D7E60264
:1040800098C3984369B705456394A600E546E9BF20
:104090003D456396A600D1463387E602C9BF89062F
:1040A000E5BF3D8B9306170037177A0013070720EB
:1040B0003357D702F1B701A07390123497D1FF1F85
:1040C0009381419017C100201301C1F317550000DF
:1040D0001305C5BF97C5FF1F9385C5F21386818160
:1040E00063FAC5008322050023A055001105910540
:1040F000E3EAC5FE1385818197E5FF1F938505D40B
:104100006377B500232005001105E36DB5FEFD4280
:10411000739002BCFD4273904280B782000093828C
:1041200002807390023097C2FFFF9382E2ED93E228
:10413000320073905230EFF09FD597C2FFFF938209
:10414000E2437390123473002030B7F7FF1F03A5CA
:10415000477082801C4141677917F98F1CC1232069
:1041600005002322050023240500B707024023266B
:104170000500138787006317E500D8431367F7002E
:10418000D8C382801387C7016316E500D84313673D
:10419000070FFDB7138707036318E500D84385664B
:1041A000938606F0558FE9BF138747046315E50032
:1041B000D843BD66C5BF138787056316E500D8439E
:1041C000B7060F00C5B71387C7066316E500D843C7
:1041D000B706F000C1BF138707086316E500D84390
:1041E000B706000FC1B7138787406319E50003A71F
:1041F00047401367F70023A2E74082801387C74137
:104200006317E50003A747401367070FEDB79387D0
:104210000743631BF500B707024003A747408566C5
:10422000938606F0558FC1BFB707024013874744F6
:104230006316E50003A74740BD66EDB713878745C2
:104240006317E50003A74740B7060F00E1BF1387D8
:10425000C7466317E50003A74740B706F000D9B784
:10426000138707486317E50003A74740B706000F09
:1042700055BF138707496319E50003A7474D136727
:10428000F70023AAE74C82801387074A6317E500EB
:1042900003A7474D1367070FEDB71387074B631944
:1042A000E50003A7474D8566938606F0558FD1BF7D
:1042B0001387074CE319E5FC03A7474DBD66FDB71F
:1042C0001C4161773D0794517D8F9C45D58F944962
:1042D000D58FD449D58F944DD58FD44DD58FD4510A
:1042E000D58F9455D58FD98F1CC1DC455CC19C41BD
:1042F0001CC5DC415CC582801C4189C593E7170061
:104300001CC1828041677917F98FDDBF4CC1828063
:104310009317350063DA0700B707024083A7074009
:104320007D8D3335A00082809317250063D7070069
:10433000B707024083A7074DE5B7B70702409C4384
:10434000C5B79317350063D70700B707024023A20C
:10435000A74082809317250063D70700B707024064
:1043600023AAA74C8280B7070240C8C38280584165
:10437000032805004C4537060140930706403E9749
:104380009346F8FFB1C583250640F58D2320B6403E
:10439000D043F18ED4C31443B3E6060114C31841CD
:1043A00090479346F7FF758E90C7D047F18ED4C7DC
:1043B000144541466399C6009447D98E94C7D447A3
:1043C000558FD8C78280B6979443558F98C3828003
:1043D0001C43F58F1CC38280B70701401387074039
:1043E00083A70740584B698F09C77D8D3335A000DF
:1043F000828001458280B707014023AAA7408280BE
:104400009C4513F7070113F8F70001C7D84133683B
:10441000E8008E2113F7F50F39C318418146854E08
:104420003D4F930F800293028004214E3396DE00AD
:10443000B3F8C500631116039398260033131F01C8
:104440001343F3FF3377E300B318180133E7E800B1
:10445000639FF70550C98506E39AC6FD18C1130787
:10446000F00F6375B70454412146854E3D4F930FBD
:10447000800293028004414EB398CE0033F71501B9
:104480006392E8021317260001173313EF0013435A
:10449000F3FFB376D3003317E800D98E639DF7019D
:1044A000232A15010506E319C6FD54C18280E39451
:1044B00057FA10C94DB7E39757FE23281501DDB70A
:1044C00008456D8D3335A000828019C20CC98280E9
:1044D0004CC9828013F7C50F93F73500B70501402B
:1044E000BA9594458A073D473317F7001347F7FFFE
:1044F000758F98C598453315F500598D88C582800C
:10450000371702405C439146B18B6385D700A146C3
:104510006382D706B7177A00938707201CC1371626
:1045200002405C4237070020130707159183BD8BBB
:10453000BA9794231C41B3D7D7005CC15442A182DF
:104540009D8ABA969422B3D6D70014C55442AD8240
:104550009D8A36971823B3D7E7005CC55842398344
:10456000937637001387418036971823B3D7E70235
:104570001CC982805C435843C166C983758FB7F6F6
:10458000FF1F83A6C670BD8B89071396160163486B
:104590000600C54601466392D702C94739A8894635
:1045A000638FD702BD46638ED702C146638ED702A2
:1045B000C54601466393D700C1471DEF3747024008
:1045C00003270780418B05C737177A001307072099
:1045D000B307F7021CC121D61C41858381B7014670
:1045E0006DBF0546B547D1BF0146BD47F9B737177F
:1045F0003D0013070790E9BFB7150240D855931641
:10460000F700D85563DF060411833D8B930617002E
:1046100037177A00130707203357D70218C1D4552C
:10462000A182BD8A8DE295463307D702058318C162
:1046300037170240585714413D8B050733D7E60220
:1046400018C1184171B785456394B600E546E9BFC6
:10465000BD456396B600D1463387E602C9BF8906D9
:10466000E5BF3D8B9306170037177A001307072025
:104670003357D702F1B799C5371702405C4B5D8DB0
:1046800048CB8280B7170240D84B1345F5FF798D90
:10469000C8CB828099C5371702401C4F5D8D08CF6B
:1046A0008280B7170240984F1345F5FF798D88CF68
:1046B000828099C5371702405C4F5D8D48CF82805C
:1046C000B7170240D84F1345F5FF798DC8CF8280C8
:1046D0001E2137370140930607C0C207C18363001C
:1046E000D504B7060040630CD502938606406308E4
:1046F000D502B7160040138606806302C502938672
:1047000006C0630ED50013070740630AE50037575C
:104710000140930607C06304D5006316E500BA2183
:1047200093F7F7F8D98F37170040630CE5001307AC
:1047300007406308E50093F7F7CFFA21C207C1836A
:10474000D98F1EA1DE215EB59E211EB5B73701406F
:10475000138707C0630EE50093870740630AF500DF
:10476000B7570140138707C06304E5006314F500E1
:104770009C251EB985475EA982801E31922103D8EF
:104780002500C207C183F99BC207C1831EB11E3138
:1047900056211A2DC207C183420741831377C7F8F8
:1047A000518F9225F59BC20633660601D18F3736AD
:1047B0000140130806C0C182630E050113060640BE
:1047C000630AC50037560140130806C0630405019B
:1047D0006310C502B225DD9B03D8E500D18FD2213D
:1047E000ED9B93F6F6CFD18FD22533660601D18E9D
:1047F00056A11AADFA215AB91EB182801E2189C56F
:1048000093E717001EA18280C207C183F99BC207EC
:10481000C183CDBF5E2501C6DD8D4EA5828093C5C7
:10482000F5FFFD8DDDBFEFB2DFB7EFF0BFFE6FB07C
:104830009FB91E2189C593E707081EA18280C20780
:10484000C18393F7F7F7C207C183C5BF1E2DC20707
:10485000C183DD9BDD8D0EAD8280EFB29FB4162942
:10486000F577FD17F58FF621DA257971D58F1EA919
:104870005625FD779387379FF58FD6212A842EC63C
:10488000D58F9625D58FB625D58F5EA55E29C20713
:10489000C18393F7F7CFD98F5EA96808EFF05FC6A1
:1048A000B747014093870780B245631EF402A257C1
:1048B0006547B387E7029841930640060A07B3D7D6
:1048C000E70233D7D702B3F7D702120792079387CD
:1048D0002703B3D7D702BD8BD98FC207C1831EA4CC
:1048E00045616FB05FAE9257E1B791C55E2509672C
:1048F000D98F5EA582805A25F977FD17F98FD5BF2C
:1049000013F7F50F85471583B395B7006319F700C3
:104910009307C500984301CED98D8CC38280894608
:1049200093074501E318D7FE93070501E5B793C543
:10493000F5FFF98DDDB70A216D8D3335A00082803A
:1049400013F7F50F85461583B397B6006311D702A9
:104950005A25F98F1A2101454207418381CB05452C
:10496000A181B315B5006D8F3335E0008280894693
:104970006314D7001A29F1BF5A29E1BFA1818547E5
:10498000B397B70093C7F7FFC207C1831EA1828008
:104990005D71A2C4A6C2CAC04EDE86C652DC56DA1B
:1049A000AA842E845D289387818003A90700FD5780
:1049B000AA89630EF906A2852285EF20E01225E977
:1049C000A6852685EF2040123DE193050000228553
:1049D000EF10F01829ED85473EC426859747000063
:1049E000938747F13EC602D4EF2080382A8A228579
:1049F000AE8A52C82ECAEF20A0372ACC2ECE630230
:104A00000904014681463285B68579222AD02ED204
:104A10008947631AF902EF20E05D930710021CC179
:104A2000A2579DE702559255EF20403FAA89B64014
:104A300026444E8596440649F259625AD25A61611B
:104A4000828052D056D22800B12271D5A257F9DB0C
:104A5000EF20405AA2571CC1F1B7B708008093C796
:104A6000F8FF33F6B7002A8851CAE98F3707807FED
:104A700063D6E7086344C70863CDC70833F3A800CB
:104A8000638AC708698F69EF13978700930620F838
:104A90006356E0000607FD16E34EE0FE3707807F11
:104AA0006D8F69EF13178600930820F8634607009F
:104AB0000607FD18E35E07FE130720F863CCE60A3D
:104AC000B70780001387F7FF33750701C98F1307F6
:104AD00020F863CCE808370680001307F6FFF98D4D
:104AE0004D8E33871641B386C74015CF860763C501
:104AF00006008DC2939716007D17F5B741114285C8
:104B000006C6EF10B01CAA85EF10405AB240410112
:104B1000828082809357F3019398270093870181C5
:104B2000C6978843828063C30600B687E5D7B70679
:104B300080003707800063D6D7008607FD18E3CED4
:104B4000E7FE130720F863C0E804370780FF3E97AD
:104B50009388F807DE08B367670033E5F8008280C2
:104B600093D67741938616F815BF3307174133164E
:104B7000E60085BF158FB397E70091BF9358764144
:104B8000938818F815BFB3081741B3D7174133E519
:104B90006700828001458280397193D7450122DC0C
:104BA0004AD856D22A891394C50006DE26DA4ED694
:104BB00052D45AD05ECE13F5F77F318093DAF501E7
:104BC000630B05109307F07F630BF514135AD9019B
:104BD0000E0433648A00370A8000336A4401131BD1
:104BE0003900930415C00144814B13D84601139931
:104BF000C6001378F87FB2881359C90093D9F6011B
:104C0000630E08089307F07F6300F8041357D6017A
:104C10000E0933692701130818C0B70780003367EE
:104C2000F90093183600B38404418145BD4733C869
:104C30003A0163E4871A97470000938727CC0A0458
:104C40003E9410403E9602863367C90093841480D8
:104C5000631207101364240081488945C1BF1306FD
:104C6000F07F81470147B207F25062545206B18388
:104C70007E08D18FB3E70701D2544259B259225A64
:104C8000925A025BF24B3A85BE85216182800148CF
:104C90001306F07FB70708000147F1B73367C90073
:104CA0004DC7630809304A8532C4EF20C02D224623
:104CB000130755FFF547930685FF998F3319D900E0
:104CC000B357F60033E72701B318D60026959304AF
:104CD000353F8145A1BF336A240163030A0636C606
:104CE00032C46306042A2285EF20E0292246B24618
:104CF000AA84130755FF754A138B84FF330AEA40D1
:104D000033146401335A4901336A8A00331B690141
:104D10001305D0C0B30495400144814BF9B5336A03
:104D2000240163180A002144014B9304F07F894B4E
:104D30006DBD228A4A8B31449304F07F8D4B75B54B
:104D40001144014B8144854B4DB5136414008148D7
:104D50008545E9BD136434004A878D45C1BD630AAA
:104D6000052E8547898F9306800363DDF632014661
:104D700081470147CDBDCE868947638DF53A8D4782
:104D8000E387F5F085473688E383F5FE1385F43F26
:104D9000E357A0FC93F778006396072893D6380072
:104DA0009317770063D80700B70700FFFD177D8FC3
:104DB000138504409307E07FE3C3A7EA1316D701E6
:104DC00093179700B1833367D6001376F57F61BDE3
:104DD000D6865287DA88DE8545B763614723630D3F
:104DE000EA20DA86FD145284014B9317870013D30F
:104DF00088013363F300935E0301B357D403131F99
:104E00000301135F0F0193D50601139E88003374CD
:104E1000D4033307FF024204C18D63FBE5009A957A
:104E20001386F7FF63EE652663FCE526F9179A956E
:104E3000998D33D7D503C206C182B3F5D5033306A6
:104E4000EF02C205D58D63FBC5009A959306F7FF67
:104E500063E6652463F4C52479179A95C207416413
:104E60005D8F9307F4FF3375F70093580701935F45
:104E70000E01B377FE00B302F502B386C540B383DB
:104E8000F80293D502013386AF021E962E96338523
:104E9000F803637376002295C168FD1893550601E7
:104EA000337616014206B3F81201AA95469663E6D8
:104EB000B6126382B6123306CB408D8E333BCB00E5
:104EC000338B66411385F43F630C6317B358DB03E0
:104ED00093550601337BDB03B3061F03420B33EB11
:104EE0006501637BDB001A9B9385F8FF636D6B2084
:104EF000637BDB20F9181A9B330BDB40B356DB03D3
:104F000042064182337BDB03330FDF02420B336601
:104F10006601637BE6011A969385F6FF6367661E5A
:104F20006375E61FF9161A96C208B3E8D800939580
:104F3000080193D20801C181B38EF5023306E64120
:104F4000B385BF0293D60E01B387F202BE95AE962B
:104F5000B38F5F0263F4F600C167BE9FC165FD15A4
:104F600093D70601ED8EC206B3FEBE00BE9FF69635
:104F7000637FF6091A969387F8FF6369661A636878
:104F8000F619630FF61BBE8893E8180011B54A8521
:104F9000EF10707F13075501F14593040502224677
:104FA000B246E3DAE5D4130485FF331A8900014BD6
:104FB00085B3328532C4EF10107D13075501F146D9
:104FC000AA87224613050502E3D6E6CEE11733177A
:104FD000F6008148E5B9E370CBEE729B3335CB0127
:104FE0001A95AA961305F7FF6378D30263E6B61005
:104FF0006382D5102A87C1B5E3651BDF93551B007B
:105000009316FA0113541A00CD8E7E0BF9BBE31DE3
:10501000F6F7E38F06D6B9BFE31ED3FCE378CBFDEA
:105020002A8751BD93F7F8009146E389D7D693B705
:10503000C8FF9386480093C717008D823E978DB3B3
:1050400081468547E34CA0FEFD58E31C05D0930440
:1050500010C085471385E441B316A70033D6F80086
:105060003395A800D18E3335A000C98E13F6760093
:105070003357F70001CE93F7F60011466388C70057
:1050800093874600B3B6D7003697BE86931787003E
:1050900063D80704054681470147F1B636877DBBD3
:1050A000B28779B3FD46E3D7F6FA0556098E930623
:1050B00000023356C7006388D7009387E443B317D1
:1050C000F700B3E8F800B3361001D18E13F676007E
:1050D000814701CE93F7F60011460147E392C7FAE4
:1050E000931797001316D701B18313D73600518F4A
:1050F000014695BEE370CBF0729B3335CB011A9518
:105100007917AA964DBBAE88C5BBAE8631BD931745
:105110001E0033BEC70172931A96F9183E8EE3152E
:10512000F6E7E307DEC693E818009DB1BE88E30A00
:10513000F6FF99BD36881306F07F8147014725B6F3
:10514000E367DEFCBE88E310DEFE99B139714AD810
:1051500013D945014ED652D456D29399C50006DED6
:1051600022DC26DA5AD05ECE1379F97F2A8A93D9C7
:10517000C90093DAF501630D090E9307F07F63060A
:10518000F9181354D5018E09B3693401370480002E
:1051900033E4890093143500130919C08149814B08
:1051A00013D74601139AC6001377F77FB285135AB7
:1051B000CA0013DBF601630B07109307F07F63034C
:1051C000F7049357D6010E0A33EA4701130717C0B5
:1051D000B7078000B367FA00931536003A99814803
:1051E00033C76A01BD463A851308190063E83617CC
:1051F00017360000130686748A09B29983A609003F
:10520000B2968286B367CA001309F97F63990712C1
:1052100093E9290081458948E1B701479307F07F69
:105220003704080081443204D20731807E075D8C48
:10523000598CA285F250625426854259D254B259F3
:10524000225A925A025BF24B216182805A853E8437
:10525000AE84C68B8947638DFB0E8D47E38FFBFAC7
:1052600085472A87639EFB3881470144814465BF97
:1052700033E4A90061C036C632C4638C092A4E8566
:10528000EF1070502246B246AA87130755FF7544A7
:10529000938487FF198CB399990033548A0033643F
:1052A0003401B3149A0013D746011309D0C0139ADE
:1052B000C6001377F77F3309F9408149814BB285E6
:1052C000135ACA0013DBF601E31907EEB367CA00ED
:1052D000B1C7630F0A22528532C4EF10D04A22466A
:1052E0002A87930655FFF547930587FF958F331A55
:1052F000BA00B357F600B3E74701B315B600330958
:10530000E9401309D9C08148E1BD33E4A90001ECAB
:10531000A14981441309F07F894B59B593E91900DC
:105320008145854875BD4E84AA84B1491309F07F33
:105330008D4BBDB5914981440149854B95B593E9A4
:105340003900D2878D4869BD89475685E397FBF0C0
:105350002A879307F07F01448144F1B5C16E13861B
:10536000FEFF93D6040113DE0501F18CF18D338627
:1053700095023383B6029358060133059E021A95AF
:10538000AA98B382C60363F36800F692C16F1383D1
:10539000FFFF33F5670093D30701B3F76800C20737
:1053A000337366003E933306950293D80801B387A2
:1053B000A602135F0601B3849302BE94FA94B38EDF
:1053C000760263F3F400FE9E416A9307FAFF935F4F
:1053D0000401B376F400B3F9F4007D8EC180338408
:1053E000D502C209338FD401B299CE98B307DE0239
:1053F000935E0401B385BF02AE97BE9E330EFE03DB
:1054000063F3BE00529EC1679385F7FF33F6BE007B
:105410006D8C4206229693DE0E01B305D502769E70
:105420003385AF0213D40501B386D302AA96A296A0
:10543000B38FF30363F3A600BE9F41657D15B3F7F9
:10544000A600C2076D8DAA97B3855800B3B9350180
:10545000FA97B2953384370133B6C500B30EC40151
:105460003385CE0033343401B3B7E701C18F33BE87
:10547000CE0113D406013336C5003E943366CE0008
:105480009394950032947E94B3E46400260493567A
:105490007501B3349000DD8193179500CD8C558C48
:1054A000DD8C9317740063DB070093D714008588A5
:1054B0009316F401DD8CD58C058042899307F93F62
:1054C0006359F00893F6740081CE93F6F400114608
:1054D0006388C60093864400B3B496002694B684CD
:1054E0009316740063D80600B70700FFFD177D8C84
:1054F000930709409306E07F63CFF60E93D63400FE
:105500009314D4012604D58C318093F7F77F21BB07
:10551000328532C4EF10302793065501F147130747
:1055200005022246E3D1D7DC6115B317A6008145F9
:10553000F9B3EF10502513075501F1459307050204
:105540002246B246E3D5E5D461153314AA0081445E
:1055500099BB85469D8EB1E71309E941B3972401B4
:10556000B3D4D40033192401B337F000B3649900E5
:10557000DD8C93F77400B356D40081CF93F7F40019
:1055800011466388C70093874400B3B49700A6967A
:10559000BE849397860063D80704854701448144FD
:1055A00059B113068003E341D6CC7D46E356D6FAC3
:1055B0000556B307F640930500023356F40063879F
:1055C000B6001309E943B3172401DD8CB33490000E
:1055D000D18C93F67400014499CA93F7F4001146F4
:1055E0008146E392C7FA139496003180F6068D80C7
:1055F000D58C81470DB99307F07F0144814425B1D3
:1056000042896DBD370710007D1701113373B70054
:1056100093D84601758F935ED60122CC26CA0E031D
:1056200093D445019357D5010E0706CE4AC84EC6FE
:1056300093F8F87F130EF07F33E7EE0093F4F47FD6
:1056400013D4F50133E36700131F3500FD82931E69
:1056500036006380C81993C61600B38514416305EC
:10566000D4126351B018638B081AB70780005D8F9E
:105670006381C4599307800363C4B734FD4763C58E
:10568000B748930700028D8FB3D9BE003318F700D7
:10569000B39EFE00336838013357B700B339D001E9
:1056A000336838013303E340B3090F41B3373F0197
:1056B0003306F3409317860063D30724370980002D
:1056C0007D1933792601630F092C4A85EF10B00B41
:1056D000130785FF93070002998FB3D7F90033169C
:1056E000E900D18FB399E9006344972A058F130627
:1056F0001700FD4663C5C63A13070002118FB3D6E3
:10570000C9003398E9003397E700558F333800011B
:10571000B369070133D6C700814493F7790081CF7D
:1057200093F6F90091476388F6009386490033B8F1
:1057300036014296B6899317860063D6071C1387F5
:1057400014009307F07F05886306F720B70780FFF2
:10575000FD17F18F1398D70193D93900A607336845
:105760003801B1831377F77F9396C7005207B18250
:105770007E04D98EC18EF2406244D2444249B2497D
:105780004285B685056182806356B00A638A081235
:10579000B70780005D8F6387C42D9307800363C7BD
:1057A000B718FD4763D2B73C138805FE9307000284
:1057B000B3590701638AF50093070004B385B74026
:1057C0003317B700B3EEEE003338D0013368380139
:1057D00095A2B367D7019385148099E393C6160009
:1057E000630AD404D1E19387140093F7E77F6399A8
:1057F000071EB367E3013368D7016392041663821F
:10580000073C63160842131835009316D30113584A
:10581000380033E806019357330019A2B367D70164
:105820006385071A9387F5FF638B073A638CC5235B
:10583000BE8589B56399051C9386140093F7E67FAE
:10584000C1EFB367E30163900436638D0744B36728
:10585000D701639407460E051318D3010D813368F1
:10586000A800935733006DA8B38598406397042030
:10587000B367E301638D07309387F5FF63890740C2
:105880001305F07F6383A520BE859307800363C261
:10589000B72AFD4763C8B73C930700028D8F3318C2
:1058A000F3003356BF00B317FF003368C800B339A5
:1058B000F0003353B3003368380133076740B5ACA9
:1058C000B367D701638307109387F5FF638F071EC4
:1058D0006380C52FBE85D1B59307F07F638BF60635
:1058E000FA9E33B6EE01B307E300B2971398F701BF
:1058F00093DE1E00B369D80113D61700B68493F760
:105900007900E39F07E09317D60113D83900336875
:10591000F800A685935736001307F07F6380E506ED
:10592000B207B18313F7F57F05883DBD3367D70113
:105930003338E000B309E801B3B7E9013386670003
:1059400093178600E3DD07FA85049307F07F639CD5
:10595000F41805881307F07F8147014831B563913A
:1059600007106301083C131836009317D70113582A
:1059700038003368F800368493573700B367F8006F
:10598000E9DB01441307F07FB70708000148E9BBD2
:10599000370680FF7D167D8E93F77900998CE39111
:1059A00007D895B74E85EF10005E13078501FD47B8
:1059B000E3D2E7D2130685FFB397C90081492DB31F
:1059C0003368D70133380001C5B113183500931778
:1059D000D301135838003368F800935733002DBFB4
:1059E000B309DF413309E34033363F013309C9408E
:1059F0009317890063CA072033E82901E31508CC0F
:105A00008147014431BFB385984063810414B706D0
:105A100080009307F07F3363D3006381F8209307FE
:105A2000800363CCB722FD4763C9B72C93070002FC
:105A30008D8F3318F300B356BF00B317FF003368E0
:105A4000D800B339F0003353B300336838011A97E4
:105A5000B309D801B3B7D9013386E700C684CDB501
:105A6000E31108F2131835009317D30113583800C7
:105A70003368F8009357330011B737058000930758
:105A8000F07F3363A300E392F8E00E061318D7010A
:105A90000D823368C800935737003684C5B50517A3
:105AA0009306000233D7E700630AD600930600048A
:105AB0003386C6403396C700B3E9C9003338300196
:105AC000B369E800014681441DBDB309DF01B30796
:105AD000E30033BFE9013386E7019317860085446D
