:040000006F40803895
:100004000000000000000000AE3E0000CE3E0000F4
:100014000000000086430000000000000000000013
:10002400864300008643000000000000000000003A
:10003400BA30000000000000900200000000000040
:100044008643000086430000864300008643000088
:100054008643000086430000B4340000DC34000012
:10006400043500002C3500005435000086430000A0
:100074008643000086430000864300008643000058
:100084008643000086430000864300008643000048
:100094008643000086430000864300007C35000050
:1000A4008643000086430000864300008643000028
:1000B4008643000086430000864300008643000018
:1000C4008643000086430000864300008643000008
:1000D40086430000783A0000983A00008643000006
:1000E400F435000086430000864300008643000088
:1000F40086430000864300008643000086430000D8
:100104000000000086430000864300008643000090
:1001140086430000864300008643000086430000B7
:1001240086430000864300008643000086430000A7
:100134008643000086430000864300008643000097
:100144008643000086430000864300008643000087
:100154008643000086430000864300008643000077
:100164008643000086430000864300008643000067
:100174008643000086430000864300008643000057
:100184008643000086430000864300008643000047
:100194008643000086430000864300008643000037
:1001A400000000000000000000000000000000004B
:0C01B4000000000000000000000000003F
:1001C00097020120938202E4938202E0739002344A
:1001D00003210500224573100530B1A819712320B1
:1001E000250006C006C216CAF322003093F2820030
:1001F000638402009302000816C412C81ACC1ECEF3
:1002000022D026D22AD42ED632D836DA3ADC3EDEB6
:10021000C2C0C6C2CAC4CEC6D2C8D6CADACCDECE26
:10022000E2D0E6D2EAD4EED6F2D8F6DAFADCFEDE96
:1002300003A1050009A002457310153492403785CB
:10024000000013050580732005302245732005301A
:100250004242D2426243F243025492542255B25572
:100260004256D2566257F257064896482649B64932
:10027000464AD64A664BF64B065C965C265DB65DF2
:10028000465ED65E665FF65F09617300203000004F
:10029000197116CA9302000816C49302000273A0D3
:1002A000428006C212C81ACC1ECE22D026D22AD430
:1002B0002ED632D836DA3ADC3EDEC2C0C6C2CAC456
:1002C000CEC6D2C8D6CADACCDECEE2D0E6D2EAD4E6
:1002D000EED6F2D8F6DAFADCFEDE73110134EF0066
:1002E0004074EF10301CEF00A076731101341384BA
:1002F000018B0329040063040902232004007325F1
:1003000010342AC01384818A044023A0240013845B
:10031000C18A044003A104000245731015349240C1
:10032000B78200009382028073A00230A24273A0C1
:1003300002304242D2426243F24302549254225566
:10034000B2554256D2566257F25706489648264949
:10035000B649464AD64A664BF64B065C965C265D25
:10036000B65D465ED65E665FF65F0961730020305B
:100370000000397101436EC619A0397141536AC832
:1003800066CA62CC5ECE19A0397101535AD056D2DA
:1003900052D44ED64AD826DA22DC06DE330161403A
:1003A000828241114AC026C222C406C68282B24D50
:1003B0004101024D924C224CB24B4101024B924AF8
:1003C000224AB2494101024992442244B2404101C9
:1003D00082803D432A876373C3029377F700BDEFA2
:1003E000ADE5937606FF3D8ABA960CC34CC30CC7A5
:1003F0004CC74107E36BD7FE11E28280B306C340CE
:100400008A069702000096966780A6002307B70029
:10041000A306B7002306B700A305B7002305B7005E
:10042000A304B7002304B700A303B7002303B70056
:10043000A302B7002302B700A301B7002301B7004E
:10044000A300B7002300B700828093F5F50F9396C1
:100450008500D58D93960501D58D61B793962700BC
:100460009702000096968682E78086FA9680C117EA
:100470001D8F3E96E374C3F8A5B73367B500FD53EF
:100480000D8B79E7B7877F7F9387F7F7104194410A
:10049000B372F6003363F600BE92B3E26200639576
:1004A000720C6318D6065041D441B372F600336320
:1004B000F600BE92B3E262006396720A631BD60432
:1004C00010459445B372F6003363F600BE92B3E272
:1004D0006200639F7208631ED6025045D445B37212
:1004E000F6003363F600BE92B3E2620063987208CE
:1004F0006311D60210499449B372F6003363F600D3
:10050000BE92B3E26200639172085105D105E30F18
:10051000D6F61317060193970601631CF7001357CD
:10052000060193D706013305F7409375F50F91E95E
:1005300082804183C1833305F7409375F50F91E1C4
:1005400082801377F70F93F7F70F3305F740828018
:1005500010219421050585056313D60075FA33052E
:10056000D640828011059105E314D6FE01458280B4
:100570002105A105E31ED6FC014582803105B105A8
:10058000E318D6FC014582804105C105E312D6FC83
:100590000145828003A501828280EFF29FE093876C
:1005A00001829843050798C3EF1020333C45FD179F
:1005B0003CC589E77C413CC5EF10E036EF10E061B7
:1005C00019B5634205029307803E3347F502336550
:1005D000F5023305F5021305753E3345F502330781
:1005E000F7023A9582807D558280014582800145DF
:1005F00082800145828001458280EFF29FDA356476
:10060000B564130484899384448A6363940065BB4E
:100610001C4011048297D5BFEFF2BFD83564B56492
:100620001304448A9384C48A6363940069BB1C40A6
:1006300011048297D5BFEFF2DFD6F93FEF301029D2
:1006400059B3EFF21FD6B705000037B50000D14708
:10065000154793060020014693856563130545966B
:10066000EF100028EF10803FB9BBEFF29FD3EF10DF
:100670004064EF20701DEF00102DEF10805DEF0043
:10068000B079C137EF10805D0524EF00D07B0145C4
:100690001DBBEFF21FD1D13F014535B3EFF2DFCEE5
:1006A000AA89EF10802319C1EF10E00B2545EF0058
:1006B000506244411304450063968400EF10E0212A
:1006C000014911A8138944FF2146CE854A85B125E9
:1006D00001E9EF10802019C1EF10400A4A85F9B9ED
:1006E0008440D9BF09E57D5582807D55E9B9EFF297
:1006F0005FCB2A842E853289AE844D377DF52285E5
:100700002686A545EF00905F0145231C2401230E9A
:100710000400231D0400D9BFEFF2BFC81E2D4111F4
:100720002A84C18B9DE71C558DC32EC68297AA844F
:10073000B24501CD2A8637B50000A2851305C596BE
:10074000EF00F01926854101BDB91E2C93E7070182
:100750001EAC1E2CA18B89C73E2CE554A18BFDF34A
:100760005C5489CF22858297AA8405E13E2C93E7C9
:1007700087003EAC5C2C85075CACE9B78567938746
:10078000F7F0FD8D2EAC8144D5B7E957E31CF5FA9F
:10079000F1BF5C2D85CBEFF2DFC0FD1793F7F70FAC
:1007A0005CAD2A84014789EF1C5989E70147231D65
:1007B000040039A082972A8775D9E957E309F5FE25
:1007C0003A8511B17D573A858280EFF29FBD582D51
:1007D00009E77D553D21014521A05C5999C38297C8
:1007E000DDB66955C5BFEFF2DFBB582D09E77D5572
:1007F0000929014521A01C5D99C38297E9B6695575
:10080000C5BF5C5D89C7EFF2DFB982976DBE6955E0
:1008100082800CD101458280EFF21FB79389C18796
:10082000854A83A7C18763863705EF10804883A771
:10083000C1872A8A638D370303A4C1875C401840AF
:100840001309C4FE5CC398C340C000C0EF00B07180
:100850007C5099C34A8582974A85EF00705B631B81
:1008600055014A85EF00704FEF0050715285EF102F
:100870000045A9B6EF0090705285EF1040444848FB
:10088000EF00903A4A85EF00905561BFEFF27FB1DB
:1008900013840196130904011C4091C3829711042B
:1008A000E31C24FF953FEDB7EFF2BFAF3716000012
:1008B000B7B50000930800023D4893070020138756
:1008C000019781461306C6889385459A1385018E44
:1008D000EF00907D1385018EEF104018EDB4EFF21C
:1008E0005FAC41112A842E8532C62EC4EF10C00899
:1008F0003246A24519C68547630DF6000145410100
:10090000D9B45840938745011CC398CD5CC0C0C979
:10091000F5B71C406388870083C6550303C71702D9
:1009200063FAE600D4431387450198C294CDD8C337
:10093000DCC9E9B79C43F9BFEFF2BFA64111B2840D
:100940002E8689452A8436C6EF00503BB24693076F
:1009500044011CCC5CC846AC14B401454101A5B4AB
:10096000EFF29FA283A7818641112EC62A8491C3EC
:100970008297EF1000345E2CAA8989CFFD175EACF8
:10098000EF10E03383A74186014591CB2285829702
:10099000014531A0B24791E7EF106032795541012E
:1009A00031BCEF009073232805021034AA85AA8475
:1009B000130544012D37B247635CF0001389C4046A
:1009C000700081454A85EF10C01D4A85EF10601206
:1009D0004E85EF10C02EEF00D049885845D5C1B7DD
:1009E000EFF23F9C83A701862A8491C38297EF1080
:1009F000402CAA84484893074401630FF500311541
:100A0000EF10000105442685EF10602B19C0EF00A0
:100A1000504601456FF03F9B5E2C85075EAC01445C
:100A2000DDB7EFF21F984111EF10A0281387C182A4
:100A30001C23850793F7F70F1CA383A7418281C767
:100A40002AC682973245EF10802741016FF0BF9789
:100A5000EFF23F954111EF10C0251387C1821C238F
:100A6000FD1793F7F70F1CA383A7818281C72AC6BE
:100A700082973245EF10A02441016FF0DF9403C547
:100A8000C1828280937808044111639E0800AD689A
:100A9000938808B593730801638B03001378E8FF0C
:100AA000930E000219A8AD689388C8AAE5B713731E
:100AB0001800930E0003E30503FE13732800630E72
:100AC0000306635806023306C0409302D0020A8E22
:100AD000814F294F6395E6073373D6023356D6020A
:100AE000469303430300850F050EA30F6EFE7DF2B0
:100AF0000DA0137348009302B002631703009372B2
:100B00008800B3325000960279F2930600035480B5
:100B1000854FFE8663D3FF00BE8613781801158FBC
:100B200063130804638502006353E0007D172A867F
:100B3000B308E5001303000221A88142F1B7137343
:100B4000F600118271BF6374B600230066000506CB
:100B50003388C840E34900FF3A86635307000146E3
:100B60007D173295118F638802006374B5002300EE
:100B700055007D17050563870302AA961308000335
:100B80001DA86374B6002300D60105063388C8404B
:100B9000E34900FF3A866353070001467D1732950B
:100BA000118FE1BF2A86B308E500CDB76374B500A5
:100BB0002300050105053386A640E3C9CFFEFD5697
:100BC000FD1F6383DF0099E7AA873306E50013085A
:100BD000000231A86376B5003306F101102210A19E
:100BE0000505F9BF63F4B700238007018507B30645
:100BF000F640E349D0FE6353070001473A954101AF
:100C00008280EFF20FFA2A849D3D09C523A88182D4
:100C10006FF06FFBEF00704C75D900D9D5BF0D4751
:100C2000AA876376C7009377350091C7AA873E9657
:100C30006397C706828093F7F50F13978700D98FC4
:100C4000139707015D8FB308C500AA87BD46338897
:100C5000F84063EB060393574600C156B386D702AC
:100C60009207AA970D4836963383C700BE86B3080D
:100C7000D3406362180313572600F156B306D70218
:100C80000A07BA97369665B798C3D8C398C7C107FD
:100C900023AEE7FE6DBF910623AEE6FEC9BF850712
:100CA000A38FB7FE71B763F2A504B386C500637E58
:100CB000D5029345F6FF8147FD176393F5008280C7
:100CC0003387F600030807003387C7002A972300FD
:100CD0000701DDB73387F500830607003307F5000A
:100CE000850714A3E318F6FE82808147E5BF0DC691
:100CF000AA8785050387F5FF85079306F6FFA38F6F
:100D0000E7FE09EB3E9685076393C7008280A38FB9
:100D100007FED5BF3686F1FE828001476314E600E8
:100D2000814739A8B307E50083860700B387E5004C
:100D30009C23B387F640E207E18799E30507F9FEB4
:100D40003E858280AA870387070001E73385A74095
:100D500082808507CDBFEFF24FE22E89B30B2501CC
:100D600041112A8CB68563F5AB001349F5FFFD5B95
:100D7000C16937BA00006284930AB002130B000203
:100D8000FD19130A8AB431A8130750026389E702D8
:100D9000637374011CA013051400B284138614003D
:100DA0002A8483070600EDF363060900637B742F32
:100DB000230004003305844141016FF08FDF0148B7
:100DC0001307D002930630021305000331A0639E7F
:100DD00057011368480026868307160093041600FF
:100DE000E397E7FE13680801FDB763956701136891
:100DF0008800D5B76395D70013680802E9BF6395EB
:100E0000A70013681800C1BF138707FDA54663E656
:100E1000E6040147A546294539A03307A702850402
:100E20003E97130707FD83870400138607FDE3F64B
:100E3000C6FE038604009306E002FD57631FD60436
:100E400083871400254693861400138507FD636588
:100E5000A60A8147254529433DA09306A0027D5758
:100E6000E399D7FC9841930426009105E35307FCCE
:100E70003307E040136808016DBFB387670285063A
:100E8000B297938707FD03860600930806FDE37675
:100E900015FF63D307008147B684838604001306D9
:100EA0008006014593F8B6FF6395C80013F5F60F69
:100EB000850403860400930690066303D60663C583
:100EC000C606930680056303D61C63C3C604930756
:100ED00050026307F61A63757401930750021CA051
:100EE00083870400130514006386071A6373750172
:100EF0001CB0130524005DB51306A0026397C7005C
:100F00009C4193862400910569B7B684814771B7E7
:100F1000930630066302D60893064006E31DD6FA10
:100F200013682800A94699A0930630076303D60CDE
:100F300063C5C6029306F0066300D6169306000743
:100F4000E31BD6F8FD566315D70013681800214738
:100F5000938C4500C14690411DA893065007E303BA
:100F6000D6FC93088007C146E31716F71306C006A0
:100F7000938C4500E301C5FE13068006E31DC5FC06
:100F8000904193752800639B051033763601DE850A
:100F90002285CD3CE68519B5137808016315080252
:100FA000BA879306000229A06373740114A0050494
:100FB000FD17E34BF0FE9307F7FF6343E00005479F
:100FC0003387E740050793874500637474019441B4
:100FD00014A013051400229713060002B306A740BD
:100FE0006344D000BE855DBB6373750110A1050528
:100FF000F5B783AC0500138D450063930C00D28CCC
:1010000066853EC63AC442C2353BB247AA861248FC
:1010100022476355F00063D3A700BE86137808010A
:10102000631E0800BA871306000231A063737401BF
:1010300010A00504BA877D17E3CAF6FE814763C195
:10104000D702B68763D3060081473305F4002A9799
:1010500013060002B307A74063CFF600EA853DBB45
:101060003306F40063777601B385FC0083850500C1
:101070000CA28507E9B76373750110A10505D9BFF7
:101080006373740110A01305140009BB13680804EE
:10109000C146E9BDFD1419B3A146C9BD420641864A
:1010A000FDB5A38F0BFE39B303A541838280EFF218
:1010B0004FAF03A94183EFF06FDE11CD138441835D
:1010C000AA84084019C1EFF0CFEC930530042685BF
:1010D000EFF08FE404C04A856FF0EFAE8280397183
:1010E00026CA2ED232D436D62A8654109305F0075B
:1010F000138501B73EDA36C606CE22CC3AD842DC9A
:1011000046DE9139AA8603A5418309E9138501B713
:10111000F137F2406244D244216182802686262D36
:101120001384418393E704043EAD9307F00763F40F
:10113000D7009306F007138601B78145EFF0AFEAB9
:101140001C40A6AFF9B7EFF2CFA537B500001305E5
:1011500005AC713737B500001305C5AC493737B753
:10116000000037B50000130707AF8D4605468D45D3
:101170001305C5AFAD3737B500001305C5B18537C9
:101180006FF06FA431C5AD661377F50F9386C69ADD
:1011900009C7BA96882205058280C167938707F040
:1011A000E98F81CB21851377F50F36970823250525
:1011B0008280B707FF00E98F81CB41859377F50FD8
:1011C000B69788234505828061813695082165059B
:1011D000828003A7C1835C41BA976305F502B623F9
:1011E00095E283A68183638FF60093860184904203
:1011F0006313F60088C2D44354C1DC43B306E54010
:10120000BA9794C71045B307C700630FF500B6231C
:1012100081EE938601848C426393A5009CC2544165
:10122000D4C35C413E9710C78280EFF28F9783A5AD
:10123000818437B50000130545B6553583A5418532
:1012400037B50000130585B7593D83A5418437B5EF
:1012500000001305C5B861356FF0EF96EFF26F949B
:1012600013F7C5FFE1462E8663F1E60693073500C6
:10127000F19B930687FE63EAF6041D8F130687FE33
:1012800023A4C184896651171384C183938606EA17
:10129000D8C394C323A407001CC0BA9723ACF1821F
:1012A000C966938606EAB7B5000094C3D8C398C749
:1012B00081460546938545C2138501BFEFF0CFE710
:1012C000184023A0E1846FF00F90AA8537B5000085
:1012D0001305C5C22935C5BFEFF2AF8C39C503A7C9
:1012E0008184130435007198138981848144636675
:1012F000870EB1476373F4003144FD55138501BF78
:10130000EFF00FE683A7018483A5C183832809003A
:1013100026853386B740B386884013880184636886
:10132000D600138501BFEFF0AFEB81447DA0B384FD
:10133000C500BA2003AE440061E73307CE40930FE7
:1013400047FF63EF8F0A138F4185938E4184130308
:10135000840183260F0083A30E00138941859382A5
:10136000418463EF6F061307C4003297896E33839D
:10137000E500938E0EEA2322C3012324C300232019
:10138000D3010546D8C0B2A003264300B1086304C8
:1013900016012E9618C61387C60022972320E9004F
:1013A00063F4E30023A0E2000967130707EA9AA0A9
:1013B000639A970083A681830147B22305EE19C380
:1013C0002320F800138501BFEFF08FE183A701858B
:1013D000B10481C7A2852685829726856FE0BFFE6E
:1013E00005463697B2A02320EF00E3FFE3FA23A0DF
:1013F000EE005DBFE385D7FCDC430547AE9775BFC4
:10140000728631BFEFE2FFF93306B5024111328532
:1014100032C6D9352A8409C532468145EFF03F806E
:10142000228541016FE03FFA45C5EFE2FFF583A752
:10143000C1842A8491C3829783A7C1831389C183FE
:101440006366F40883A781836372F408FD551385EE
:1014500001BFEFF0EFD0835764FF930944FF81CBC6
:10146000035744FF8967938707EA6301F70237B59B
:101470000000130585BDA531835644FF035664FF64
:1014800037B50000CE85130545BF9139896793872D
:1014900007EA231AF4FE938701849843231B04FE72
:1014A00063F4E90023A03701138741851C43832699
:1014B00084FF4E85958F83260900B386D940B69761
:1014C0001CC3013B138501BFEFF08FD16FE01FEF0D
:1014D0008280B707002093860700014793870700A3
:1014E00021468C426396A500131547003E958280E5
:1014F0000507C106E317C7FE01458280EFE2DFE87A
:101500002A842E85AE89328AE9372A89A92C832438
:101510004900930749006390F4048D2493E909F886
:10152000230434012146D2852285EFF04FFC83A7A6
:10153000818599C322858297EF00A0770327490010
:101540009307C4005CC358C42322F90004C8EF0009
:1015500000776FE0BFE684407DBFEFE29FE483A7A2
:10156000C1852A8491C3829723040400EF0060742C
:10157000544418489307C400D8C214C31CC85CC4A0
:10158000EF00E0736FE03FE4EFE21FE02E89AA89ED
:101590008937AA84484589332A841DCDD0448145A2
:1015A000EFF0EFE7214623043401A3040400CA85C9
:1015B0002285EFF0CFF383A7818599C32285829797
:1015C000EF00206FD8409307C40091045CC358C457
:1015D0009CC004C8EF00A06E22856FE03FDEEFE202
:1015E0005FDC83A7C1852A8491C38297230404000A
:1015F000EF00206C544418489307C400D8C214C3A9
:101600001CC85CC4EF00A06B2285393D6FE0BFDBD6
:10161000030585007D818280239C0186938701C11B
:1016200013870708DCC39CC3A107E39DE7FE3D4782
:101630002386E18623A8018623A201889387C18798
:10164000DCC39CC38280EFE2DFD503A54188EFF0C5
:101650007FB37D1593173500138501C13E95084171
:101660001307C5FE210523A8E186EFE07FB56FE0F3
:101670009FD5EFE21FD3EF00C063839781872A894C
:10168000B1E703A54188EFF0FFAF7D1513173500D3
:10169000938701C1BA9784439387018780439385D9
:1016A000C4FE6305B4028CC383A741872386A18649
:1016B00099C32285829783C7C1821305C40193858C
:1016C000840093F7F70F81EBEFE05FB14A85EF00FD
:1016D000005F6FE05FCFEF00E05ECDBFEFE27FCC59
:1016E0002A84EF00005D8347440393064401C19BB5
:1016F00093E71700230AF402834754031397370034
:10170000938701C1BA97D84314C318CCD4C35CC81B
:10171000938741889443185C558F98C3EF00205AF3
:101720006FE07FCAEFE2FFC72A846123184C544858
:1017300093074401D8C214C35CC81CCC834754032C
:1017400013973700938701C1BA979843631AF7003C
:10175000138741881C5C144393C7F7FFF58F1CC3A4
:10176000B92B6FE05FC6EFE2DFC3A12393878187C8
:101770009A2305079AA3A1236FE0FFC4EFE27FC27B
:101780000D2B138781871E23FD17C207C1871EA358
:10179000634BF000231007001D2383A7018791C32B
:1017A000C93D6FE05FC2212BEDBFEFE29FBF03A4F5
:1017B00001870123AA842285B5379147230AF402C1
:1017C0001305C404012E2285A1358547631BF5004E
:1017D0003C5C81EB228551332685D521593D6FE054
:1017E0009FBE83A6C1871307440123AEE186D8C2FA
:1017F0009387C18754C81CCCC5B7EFE29FBA2A842F
:101800005105411108CC48C80CD050D014D43A86A8
:1018100058D49305300236853EC642C4EFF02FC03F
:10182000585410544C5008507117B71600003A968F
:101830009386A67A2D21B24722483726000048CC4D
:10184000230BF402A30AF402232C0402814723226F
:1018500004052324040523280402230A0402232C5C
:101860000406232E04060147A28613068688A28555
:101870001305C4041D2483A7818899C322858297F8
:10188000014541016FE03FB4EFE2BFB15049144D53
:10189000795718D954C21307450190C218CD58C9B9
:1018A000353DC13B6FE03FB2EFE2BFAF4111B284C3
:1018B0002E8685452A84368946C03AC63EC442C231
:1018C000EFF0DFC3024892472247B2464A86A68518
:1018D0002285253741016FE01FAF03A50187828074
:1018E000EFE29FAA41112E89AA85054532C6B6842A
:1018F000BA893E8AEFF05FC92A8411C92685EFF0C4
:10190000BF9D324609E92285EFF07FCD0144228553
:1019100041016FE0BFAAAA865288CE872687CA8572
:101920002285E13DEDB7EFE2DFA7612683A70187BE
:101930000546AA8603C747033D8B631CC702D04BED
:10194000984F6308E60258C210C303C65703938634
:1019500047010E06138701C194CF3297504314C23A
:1019600090CF54C3D8CBA12EEFF0BFD001456FE08C
:101970009FA53685A926DDBF834745030547BD8B57
:10198000639FE702EFE2FFA12A84252683474403F1
:10199000AA842285C19B93E72700230AF402EFF073
:1019A0007FD81305C404F1222685112E83A701894F
:1019B000014581C72285829701456FE0DFA07D55F3
:1019C0008280EFE21F9E41112AC6E52403A401870D
:1019D0002A89228555379304C404700081452685E1
:1019E000C922268539224A85D92CEFF09FC818587C
:1019F000F9576314F70023280402014541016FE001
:101A00009F9CEFE21F9AEFE0DFBB653F6FE0BF9B5B
:101A1000834745030947BD8B6390E704EFE27F9856
:101A20002A84412C5448184C93074401AA84D8C2F4
:101A300014C31CCC5CC81305C404252A2685412484
:101A40002285EFF0BFC983A7C188014581C72285E0
:101A5000829701456FE03F977D558280EFE27F944A
:101A60008346650305473317D70018DD0947A30AE6
:101A7000D502230AE502693F83A7018799C3EFF0E6
:101A80005FBF01456FE03F945449184D93074501EE
:101A9000D8C214C31CCD5CC98280EFE29F90411173
:101AA000B2842E86A9452A8436C63AC43EC2EFF0D7
:101AB000FFA49247B2462247F99B1CB49307440106
:101AC00044CC14D02324040258D01CCC5CC841015F
:101AD0006FE07F8FEFE2FF8C2A84E12AAA842285BF
:101AE00065372685E92A2285EFF03FA701456FE09B
:101AF0009F8DEFE21F8B2A846D2AAA842285693785
:101B00001C342685F99B1CB45D2A83A7418699C3A2
:101B100022858297EFE01FA85C503E9508D4512A99
:101B20001387018A03284700370600809387018ABC
:101B30001346E6FF98436315F80293864189904265
:101B4000050690C29306440154C358C894C31CCCE4
:101B50001C3493E717001CB49D2201456FE0BF863B
:101B6000544B0C546385B6008D8EE378D6FCBA874F
:101B7000D1B71C35858B85C7EFE2BF8283A701866D
:101B80002A8491C382973522AA842285F53D268531
:101B90003D221C340145F99B1CB46FE0DF827D556A
:101BA000828085476381F50263C5B70085C1014521
:101BB00082808947638FF5008D47E39AF5FE1C35D7
:101BC00093E7270009A85C511CC2D5B71C425CD121
:101BD000F9BF1C35F59B1CB5D9BFEFE20FFAEFE05A
:101BE0007F9B2A8CF920B70900802A8A9384018A76
:101BF00093C9E9FF8D4B8040631694005285C12044
:101C00006FE02FFB48481309C4FE3305AC40E3E7FF
:101C1000A9FE83A7818999C34A8582974A85EFF0F7
:101C2000BFE61C4448448297EFE0DF9683A7C18952
:101C30002A8C99C34A858297834754FF13F7E70F8D
:101C4000A30AE4FE8D8BE39877FB4A85EFF07FEAE9
:101C50005DB79387018ADCC39CC3828082801106B2
:101C6000719A2A8837C7ADDE130506F8AA871307CD
:101C7000F7EE631EF600A167938707882322D6F844
:101C80002324B6FA232006F92324F6F8828098C389
:101C90009107C5B737F700E01C43B7060080D58F22
:101CA0001CC3828037F700E01C43860785831CC372
:101CB00082802165130505807315053082807310BD
:101CC00005308280EFE2EFED1387018B1843938795
:101CD000018B19E323A4A18A23A6B18A054798C3DF
:101CE000553F6FE04FEE2A87814718436314A700E2
:101CF0003E8582808507D5BFB707EFBE37E700E096
:101D0000938707083CC701458280EFE28FE937B52A
:101D10000000130585C6EFF08FBC01456FE0AFEA08
:101D2000EFE22FE82A84FD5437B900007D146314D4
:101D300094006FE04FE91305093DEFF04FBAFDB78E
:101D4000EFE28FE40041AA8437B90000B7B9000080
:101D5000631494006FE08FE69305C4FE1305493DBC
:101D6000EFF0EFB71C40638697001385893DEFF0D5
:101D70000FB70040F1BFEFE2CFE22E89EFE09FFC0A
:101D80002A84EFF05F9E83240900639C2401EFF016
:101D9000FF9EA14763C3870011E0214422856FE0C5
:101DA0008FE2138544FFEFE0FFF96353A4002A8418
:101DB0008440E1BFEFE26FDC0545EFF08FF1B7B98A
:101DC0000000130945002A84CA851385C9F16537C7
:101DD000AA85AA8437B500001386C9F1130545F218
:101DE000EFF0EFAF2685EFF0BFF337B50000130536
:101DF00085F6EFF0CFAE4040B7B90000054A894AFA
:101E000037BB0000B7BB000037BC0000B7BC000008
:101E100037BD00006315890001456FE08FD9034786
:101E20009402138589FA930644FF2146A685EFF0B4
:101E30000FAB8347840213854CFBBD8B638E470138
:101E400013050CFC638A57011385CBFC91C711471E
:101E50006396E70013058BFDEFF06FA84C4C9307DA
:101E60003002AE8698226306F702105093074006B0
:101E70000848B295B386D540B386F602585C5C50EC
:101E8000898D13054DFEB3D6C602EFF04FA5004075
:101E900051B78506C1BFEFE22FCF41110945EFF0E1
:101EA0004FE39309450037B900002A84CE85130516
:101EB000C9EBEFF05FECAA85AA8437B500001306E2
:101EC000C9EB130585ECEFF08FA12685EFF05FE5F8
:101ED00037B50000130545EEEFF06FA0404037BA6C
:101EE0000000B7BA000037CB0000639689000145B7
:101EF00041016FE0AFCC1A281C44930644FF13093C
:101F0000840036C63AC44A856306F902EFF0BFDDA5
:101F10002247B246AA872146A6851385CAEFEFF06D
:101F20000F9C4A85EFF0DFE113050B0BEFF02F9BC1
:101F3000004065BFEFF03FDB2247B246AA8721464B
:101F4000A6851305CAF0EFF08F99DDB7EFE2CFC396
:101F500041111145EFF0EFD79309450037B9000063
:101F60002A84CE85130509D0EFF0FFE0AA85AA8464
:101F700037B50000130609D0130585D0EFF02F9672
:101F80002685EFF0FFD937B500001305C5D2EFF075
:101F90000F95404037BA0000B7BA000037CB0000B9
:101FA00063968900014541016FE04FC11C4413094C
:101FB0008400930644FF18486309F9024A8536C62F
:101FC0003AC4EFF05FD22247B246AA872146A685DF
:101FD0001385CAD4EFF0AF904A85EFF07FD6130592
:101FE0000B0BEFF0CF8F004065BF2146A685130590
:101FF0004AD6EFF0CF8EC5BFEFE20FB941110D45C4
:10200000EFF02FCDB7B90000130945002A84CA8527
:10201000138589E5EFF03FD6AA85AA8437B500007D
:10202000138689E5130505E6EFF06F8B2685EFF043
:102030003FCF37B50000130545E8EFF04F8A404029
:10204000B7B9000063168900014541016FE00FB781
:10205000930644FF1305840036C6EFF0DFC803483B
:1020600034015C48B246AA8821472146A6851385DB
:1020700049EAEFF0CF860040F1B7EFE2EFB041114F
:102080001545EFF00FC59309450037B900002A84C4
:10209000CE85130589D7EFF01FCEAA85AA8437B560
:1020A0000000130689D7130505D8EFF04F83268566
:1020B000EFF01FC737B50000130545DAEFF02F82A8
:1020C000404037BA0000B7BA000037CB0000639633
:1020D0008900014541016FE06FAE7A285E28104407
:1020E000930644FF1309840036C63AC43EC24A85AB
:1020F0006307C902EFF03FBF92472247B2462A88E2
:102100002146A68513850ADCEFE07FFD4A85EFF0C6
:102110003FC313050B0BEFE09FFC00404DBFEFF0FA
:102120009FBC92472247B2462A882146A6851305BE
:102130008ADDEFE0DFFAD5B7EFE20FA541111945CF
:10214000EFF02FB99309450037B900002A84CE85F6
:10215000130509DFEFF03FC2AA85AA8437B5000056
:10216000130609DF1305C5DFEFE07FF72685EFF0E3
:102170003FBB37B50000130585E1EFE05FF6404057
:1021800037BA0000B7BA000037CB00006396890069
:10219000014541016FE08FA21A2C1C44930644FFB5
:1021A0001309840036C63AC44A856306F902EFF083
:1021B0009FB32247B246AA872146A68513850AE324
:1021C000EFE0FFF14A85EFF0BFB713050B0BEFE02F
:1021D0001FF1004065BFEFF01FB12247B246AA874A
:1021E0002146A68513054AE4EFE07FEFDDB7EFE275
:1021F000AF995D712545EFF0CFADAD6513060005D4
:102200002A8413094500938545910A85EF2050588B
:10221000B7B90000CA85138589C9EFF0DFB5AA8573
:10222000AA8437B50000138689C9130505CAEFE0F3
:102230001FEB2685EFF0DFAE37B50000130585CC28
:10224000EFE0FFE94040D14937BA0000631689004A
:10225000014561616FE08F961C44930644FF63E083
:10226000F90298088A07BA9703A707FB1C2821469A
:10227000A6851305CACEEFE09FE60040C1BF4647E2
:10228000F5B7EFE26F902945EFF0AFA4B7B90000C2
:10229000130945002A84CA851385C900EFF0BFAD34
:1022A000AA85AA8437B500001386C9001305450125
:1022B000EFE0FFE22685EFF0BFA637B5000013057B
:1022C000C503EFE0DFE14040B7B9000037BA0000D6
:1022D000B7BA0000631E8900EFE0CFABAA8537B51F
:1022E000000013054509EFE09FDF01456FE00F8D0A
:1022F0005C4C184C13850906930644FF2146A685BD
:10230000EFE0FFDD8347D4FF13858A07858B99E3D0
:1023100013054A08EFE0BFDC00406DBFEFE2CF8657
:1023200037B50000130505C7EFE07FDB03A4818B01
:10233000B7B9000037BA000083A7C18B6365F4000A
:1023400001456FE0AF8704400946938549C826855B
:10235000EF20706919C55040A68513058AC8EFE0C3
:102360001FD83104D1BFEFE22F8237B5000013052B
:102370004553EFE0DFD603A4818BB7B9000037BA2D
:10238000000083A7C18B636BF40037C50000130501
:10239000050BEFE0DFD401456FE04F8204401946A2
:1023A000938509552685EF20106401E950409385F7
:1023B000640013058A55EFE09FD23104D9B7054573
:1023C0008280EFD27FFC79712A84AA95930600025D
:1023D000254783070400B38485406385D70A638358
:1023E000E70A0145638B0410014913070002A54663
:1023F000B307240183870700638AE7086388D70847
:102400006314990883A9818B83AAC18B37BB000011
:1024100063F0590903AA0900194693050B55528523
:10242000EF20705C59E54A86A28513056A00EF200B
:10243000905B41E14A9A83076A00A5EF83A989006E
:10244000638809041306800281452800EFD07FF8D5
:1024500013098100CA86A2870145014713080002BB
:10246000A548294313062002130EC00583850700E3
:102470006384050163961505631F9702A9476303EB
:10248000F50469A80504B1B705099DB7E31C09F671
:10249000A287038707001377F7FD79E737B50000B8
:1024A0001305C55123800700A285EFE05FC37D556A
:1024B000A9A0B109B1BF23800700050785077DB733
:1024C0006310650437B500001305854FEFE03FC189
:1024D0000018B7B400008325090013858451110941
:1024E000EFE0FFBFE31989FE37C500001305050BB8
:1024F000EFE0FFBE29452C00829945616FD01FECAB
:10250000637E970005056392C504850705079CC295
:10251000838507006381C5026364970069FD8DBFF1
:10252000838E17006396C5016394CE008507050767
:1025300085070507F1BFE37397FE238007000507B2
:1025400085079106E36497F2D1BF9CC2838507009B
:102550006389050163871501E30297FC8507050779
:10256000F5B7E36097FE5DBF850725B7EFD2FFE0C3
:102570008307050099E781450145EFF0DFDE6FD065
:102580005FE303AA818BAA898144014937BB00001C
:10259000B7BB000083A7C18B6369FA00EDD04A8600
:1025A000A6854E85EFE0AFF4D9BF03240A00194693
:1025B00093050B552285EF20104321E14E85EF2036
:1025C000704119042A86A2854E85EF20D04115E579
:1025D000631709002285EF20F03F2A89A284A6878D
:1025E00022870386070001EE858F63D327013E898A
:1025F000A28513850B56EFE09FAE310A61BF8306BB
:102600000700FDD2E312D6FE85070507D9BFEFD23A
:102610005FD9EFF02FFA01456FD0FFDAEFD27FD804
:10262000EFE0BFC001456FD01FDAEFD29FD703A5FF
:10263000418BEFE0EFBA01456FD0FFD8EFD27FD6E4
:10264000B7C700009387C76F23ACF18AB7D70000E4
:102650009387478923AEF18AB7D7000093874789CC
:1026600023A0F18CB7D700009387478993050021F9
:10267000054523A2F18C1384418BEFE0BFD808C03D
:1026800019E937B5000013054561EFE05FA57D54FA
:1026900022856FD05FD38566B725000037B500006F
:1026A000A94715479386068001469385E57B130568
:1026B000C562EFF0EFA2AA840840B7B500008146DA
:1026C000014693854563EFE02FA70144F1D02685AD
:1026D000EFF0CFB875BFEFD2DFCCEFF05FCE0DC516
:1026E000B7B500009385055E138501C9EF20902DD5
:1026F000B7B500009385055F138501C9EF20302928
:10270000138501C96FD03FCCB7B500009385855EB6
:10271000E1BFEFD21FC92A8437B500001305056554
:10272000EFE0FF9BEFF03FFBAA8537B500001306F3
:10273000A41B13058565EFE09F9A01456FD0BFC8C4
:10274000EFD23FC641112AC6EFD05FF5B24511E97D
:1027500037B500001305455FEFE07F9841016FD06A
:102760009FC683A7418BAA841384418B83A7C7206C
:10277000E386A7FE93053014EFD01FFA65F11C40E5
:1027800003A5C72009C9EFE0CF801C40814503A500
:10279000C720EFE00F8800401306000581451305B0
:1027A000A41BEFD01FC3B725000023150420232648
:1027B00094209385A5622685EFE0AF8545B7EFD2DB
:1027C0005FBB83A7418B41119384418B03C74702B1
:1027D000136717002382E70283A7C72091E7EFE082
:1027E000BF8C19C1EFF0DFF5EFF0FFEEEFE03F8FA8
:1027F00037BB0000B7BB0000B7B9000037CA000004
:10280000B7BA000037BC0000B7BC00009C4085464A
:102810001306F10003A5C720FD55EFD01FFB854728
:10282000631AF5000309F100ED4780406319F900D0
:1028300008D0E9BF8840FD55EFE08F92C1BF1C5022
:102840006392A7029307B0056315F90089471CD06E
:1028500075BF23200402E30B09FAA5476314F9129C
:102860000149D1A80947E398E7FE23200402930712
:1028700010046312F9046E30D1D9FD15C205C1816F
:102880006EB09307A41B13070005B385E50213067A
:1028900000053E859385A502A295EF20606FEF208D
:1028A00070131375F50F2305A420A305A42022851A
:1028B000EFF03FE6A1BF930720046311F90216343D
:1028C0007E301387F6FF63D8E70085077EB0930755
:1028D000A41B6E304DBF9DDA7AB0D5BF930740047C
:1028E0006310F9028347B42095D31385C963EFE0E1
:1028F0000FFF98408347B720FD17A305F72039B78E
:1029000093073004E319F9F48347B4200347A42064
:10291000E3FEE7EE3E948305A41B13850A64EFE013
:102920000FFC98408347B7208507C1BF1385C96353
:10293000EFE0EFFA050980408347B420E348F9FE51
:1029400013050A0BEFE0AFF9EFF07FA785471304FB
:10295000A41B6315F5002285EFF05FC1EFF0BFD730
:102960002286AA8513858C65EFE06FF780401305FA
:10297000A41BEF2030061375F50F2305A420A30533
:10298000A42069B59307F0076305F900A147631513
:10299000F9088347B420E38B07E60346A420FD171C
:1029A00093F7F70F7D161376F60F2305C420A305C2
:1029B000F42063F8C7049385B71B1385A71B1D8EEE
:1029C000A2952295EFE02FAE9C4013854B6403C780
:1029D000A7203E97230D071A83C5B7209385A51B13
:1029E000BE95EFE0CFEF9C4003C4B7209C4083C767
:1029F000A720E3CD87E01385C963EFE04FEE050420
:102A0000F5B71305CB64EFE08FED9C4003C7A7201B
:102A1000BA97238D071ADDBB35478347A42063058A
:102A2000E9002947631EE90EB9CB03598402914797
:102A3000130DA41B63FB2709930DA41613060005B1
:102A4000EA856E85EF2080521DC91309A4024A85CC
:102A50001309090513060005CA85EF206053E398A2
:102A60002DFF1306000581456E85EFD09F96034626
:102A7000A420EA856E85EF20A05195471EB41E3430
:102A80007EB0EFF0DF9385476312F5029C4083C769
:102A90004702858B89C713050A0BEFE04FE4884096
:102AA0008345A5201305A51BEFF0BF91EFF0BFC232
:102AB000EFE0EFE280401306000581451305A41BFB
:102AC000EFD03F912315042091B363010902130550
:102AD000F9FF930700053305F50213060005EA85A3
:102AE0001305A5022295EF20604851D9930D0005EA
:102AF0003305B9031306000581451305A502229588
:102B0000EFD03F8D0A340346A420EA853305B50390
:102B10001305A5022295EF20A0471E348507B9BFF3
:102B20001307F0046374F700230504200346B42060
:102B30008347A4206370F6089305A61B1305B61BF4
:102B4000A2953386C7402295EFE0EF958C4083C76E
:102B5000B5203387F500230D271B03C74502058BDE
:102B600001CB9387A71BBE9513054C3DEFE02FD7F4
:102B70009C4003C4B7209C4083C7A7206346F4024F
:102B800098408347A7208346B7208507850693F79B
:102B9000F70FA305D7202305F7209306F004E3F7EA
:102BA000F6C6231507209DB11385C963EFE02FD327
:102BB0000504D1B7A297238D271B83474402858B39
:102BC000E1D3CA8513850A64EFE06FD155BF7C411C
:102BD00023280504232A05049C4381CBEFD26FFCF4
:102BE0009305850482976FD00FFE01458280EFD256
:102BF000AFF936899DCAAA843284B309D600294A1E
:102C00001C20639B4701BE2C93F7070491C7FC402F
:102C1000B54526859C478297FC40830504002685A0
:102C20009C4705048297E31D34FD4A856FD00FF958
:102C3000EFD22FF793F705102A8491C71A2D61550B
:102C40001377071035CF13F7054011C71A2C6155BC
:102C50001377074035C713F705049304000401E711
:102C6000262C93F40404384893F5F50F2EAC39EB79
:102C7000A1C768442981420541813105EFE0CFE5D4
:102C800070442A89310529824206418281452320E8
:102C9000A900EFD0DFF8232209003E2C23240900ED
:102CA0002328240593E707103EAC7C401306001050
:102CB000C145DC43228582973E2C0145DD8C26AC44
:102CC0006FD06FF0F5DB93E505102EACF5B7094832
:102CD000AA8763810503EFD2CFEC0D486382050319
:102CE00005476399E5041A2D1377F7FD1AAD0145E1
:102CF0006FD06FED1A2D136707021AAD0145828060
:102D0000328775D6504274454C2D2982A9824206DD
:102D1000C2064182C1826304D6001D45F1F9144305
:102D2000B4C75443F4C7E1D5F443BA853E85944211
:102D3000829675BF7C41DC4382975DBFEFD2CFE4C2
:102D40003684B1CA3E2DAA89328993F70710B6841A
:102D50009DE37D5AA94A83A749044E85DC478297A3
:102D6000630945012300A900FD140509630355010A
:102D7000FDF0058C0DA02449368A854AEFE07FF3EB
:102D8000FE20DA202A869444631AF70081EAEFE0F5
:102D90001FF33304444122856FD04FE298403E97A1
:102DA000034B070003A7C9048507C2072983C18312
:102DB0004207FEA0418363E4E70023930400639489
:102DC000560123A404003285EFE07FEF7D1A230033
:102DD00069010509E3140AFA6DBF582D854763ECB4
:102DE000E7023E2D93F707109DC7EFD28FDB2A84B1
:102DF0002849EFE06FE33E2C23280404130600105B
:102E000093F7F7EF3EAC7C40C5452285DC438297C3
:102E100001456FD04FDB01458280EFD28FD8373725
:102E200000001307E7BC18D537370000130707C3A6
:102E300058D5373700001307A7DD18D937370000FA
:102E40001307C7D358D9373700001307E7BE18DD7B
:102E5000373700001307E7CC420658DD34C1418202
:102E6000232A05002320050223220502EFD09F8795
:102E70006FD06FD593F5F50F85476391F50AEFD2C3
:102E8000AFD020494111AA847D598549FC4026854F
:102E9000DC4782972A8A63072505EFE09FE15A20E5
:102EA0001C40BA97238047015E20F8448507C2077B
:102EB0002983C18342075EA0418363E4E7002312B4
:102EC000040076205E20639CD7008507C207C1837B
:102ED0007EA02324340163E4E70023130400EFE021
:102EE0001FDE6DB79C5085C3EFE0BFDC5A206E201B
:102EF000636EB700B305B7402EC6EFE05FDC9C50B1
:102F0000B2452685829741016FD04FCBFC44998D05
:102F1000A983C207C183B385B740F9BF828001CEC0
:102F2000EFD22FC87841B2878E23184332220297FE
:102F300001456FD04FC97D558280EFD28FC6138770
:102F400041D178432E86AA851843138541D1029733
:102F50006FD06FC7EFD2EFC4138741D178432E866D
:102F6000AA855843138541D102976FD0CFC5EFD2C0
:102F70004FC3138741D17843AA85138541D11847A0
:102F800002976FD04FC405C611476392E602EFD295
:102F90004FC17C410E2241119C4736C632C48297F4
:102FA0002246B2462AA2368541016FD0CFC1814662
:102FB000368582801DC2B28711466390C602EFD269
:102FC0004FBE7841B2238E235843411136C6029733
:102FD000B246410136856FD00FBF8146368582806B
:102FE000EFD22FBC938741D14947D8CB3737000068
:102FF000130767F8D8DB37370000130747FB98DF64
:10300000373700001307E7F1ECC3B0C3AA850D46BC
:10301000138541D123A0070223A2070223A407029C
:1030200023A6070223A80702D8DFEFD0AFEB0145A4
:103030006FD06FB9371500201305C58882803755CA
:1030400000201305C5888280EFD2AFB503A7818029
:103050009307803EC1563357F702B7E700E0238657
:10306000D7402387D740856623A0D710916623A039
:10307000D710B7F700E023A0070023A207000146FE
:1030800090C78146D4C781461306F7FF90CBD4CBB7
:103090003D4798C3EFD06FD6EFF0DFF92A84EFF009
:1030A0001FFAAA852285EFE06F9B37B50000130554
:1030B000056DEFD0DFFF6FD00FB173110134EFD08A
:1030C0005F96B7F700E023A20700EFD00FCDEFD057
:1030D0003F987311013473002030814785461307F0
:1030E00000023396F6006306A6008507E39BE7FE21
:1030F000FD573E858280EFD2CFAA85451305000299
:10310000EF10C0626FD02FACEFD2AFA9854521453B
:10311000EF10C0616FD02FABEFD2AFA8854511453E
:10312000EF10C0606FD02FAAEFD2AFA78545414501
:10313000EF10C05F6FD02FA9EFD2AFA68545130562
:103140000004EF10A05E6FD00FA8EFD28FA5AD6581
:1031500037C5000001469385856D130505DCEFF04A
:103160003FE86FD04FA69307400663ECA700931784
:1031700045002D65130505773E951841FD576313EE
:10318000F70001458280EFD2CFA1411113F5F50F71
:1031900032C6EFF05FFD11C54E2532460845EF10EF
:1031A000203E41016FD02FA2EFD2AF9F13F5F50F54
:1031B000EFF07FFBAA87014589C7CE278847EF102C
:1031C000803B6FD04FA0EFD2CF9D011113F5F50FCB
:1031D0003284EFF05FF905C55C412AC6829732451B
:1031E0005C45FC82C1473ECE8D473ECC09C41547A5
:1031F000631AE40002CE08454C08EF10C02B0561AD
:103200006FD06F9C05476315E40091473ECEE5B74C
:103210006315F40093078002D5BF89476315F40056
:1032200093078004E5B791476314F400D147F9BFD1
:1032300099476314F400F147D1BF9D47E31DF4FAA9
:10324000E147E9B7EFD24F9413F5F50FAE84B28999
:10325000368A3A89EFF03FF1994731CD4845EFF092
:10326000DFE73D472A8499476367A704EFE07FA41F
:10327000B146B306D402B7070020138707082A8691
:1032800093870708369783160700639F96004C4381
:10329000639C45012E236399350118476316270166
:1032A000EFE0FFA1814701A87D576389E6003285E1
:1032B000EFE0FFA09D473E856FD04F90314533052D
:1032C000A4023E9506A123224501231135012324A2
:1032D00025013285F1B7EFD2CF8C13F5F50FEFF062
:1032E0009FE819471DC94845EFF03FDFBD472A84D5
:1032F000194763E4A702EFE0DF9BB1473304F40210
:10330000B7070020938707087D57A2978396070089
:103310006398E600EFE0BF9A01473A856FD0AF8A25
:1033200041677D1798C323A2070023A40700DDB7D8
:10333000EFD28F85011113F5F50F328AEFF0BFE25E
:10334000994721C185442A8463159A104845EFF0B6
:10335000DFD83D47AA8499476365A702EFE07F95D0
:10336000B14AB38754033709002013090908AA8911
:103370003E9903170900FD576319F700EFE03F94EA
:1033800099473E8505616FD06F835C408297854584
:103390000545EF10A0395C440D473AC47C823EC815
:1033A0008357290002CA52CE638C4709C1C7094717
:1033B000638DE70808444C00EF10E00F1844B7177E
:1033C0000140938607C005456302D7020945630F94
:1033D000F700938707400D45630AF700B7270140C0
:1033E0009387078001456313F700114593F5F40FA8
:1033F000EF10A0190808EF10E002AD679387076F80
:103400008E04BE94D04037E700E093060005B30772
:10341000C7002380D74093575600938707048546FB
:103420008A07B396C600BA9794C34E85EFE03F89EA
:10343000814781BF930780023EC6A1473ECC9DBF16
:10344000930780043EC656CCB5B791473EC6C147E8
:10345000F5B79947E3170AF24845EFF01FC83D4713
:103460009947E360A7F2931735002D651305056FA3
:103470003E9558419357570093870706B394E4004D
:103480008A0737E700E0BA9784C30F1000004DB7F2
:10349000EFC23FF1EFF07FC4B1473305F502B70744
:1034A0000020938707083E955C4199C308458297A1
:1034B0006FC07FF173110134EFD0AFD60545EF0037
:1034C000107D19C50545EFF0BFFC0545EF00107EE6
:1034D000EFD00FD873110134730020307311013411
:1034E000EFD02FD40945EF00907A19C50945EFF0C8
:1034F0003FFA0945EF00907BEFD08FD5731101346F
:103500007300203073110134EFD0AFD11145EF00BB
:10351000107819C51145EFF0BFF71145EF0010798C
:10352000EFD00FD3731101347300203073110134C5
:10353000EFD02FCF2145EF00907519C52145EFF051
:103540003FF52145EF009076EFD08FD07311013415
:103550007300203073110134EFD0AFCC4145EF0040
:10356000107319C54145EFF0BFF24145EF001074EB
:10357000EFD00FCE7311013473002030731101347A
:10358000EFD02FCA13050002EF0070701DCD130598
:103590000002EFF0FFEF13050004EFF07FEF1305DB
:1035A0000008EFF0FFEE13050010EFF07FEE1305BB
:1035B0000020EFF0FFED1305003EEF00306FEFD07D
:1035C0002FC9731101347300203013050004EF007C
:1035D000106C55FD13050008EF00706B4DF91305D5
:1035E0000010EF00D06A45F513050020EF00306AA7
:1035F00059FDF1B773110134EFD0AFC2130500408C
:10360000EF00F06829C113050040EFF07FE8056581
:1036100013050580EFF0DFE70565EFF07FE709654B
:10362000EFF01FE71165EFF0BFE62165EFF05FE611
:103630004165130505C0EF007067EFD06FC17311CE
:10364000013473002030056513050580EF003064F8
:103650005DF90565EF00B0635DF50965EF00306366
:103660005DF11165EF00B06259FD2165EF00306238
:1036700059F9E1B7EFC2FFD209654111854541050E
:10368000EF10C00A930700047C82E1473EC64C005D
:103690008D47371501403EC4EF00F06141016FC016
:1036A0009FD2EFC21FD00111373401407D15AE8487
:1036B0006884930770044C00130504403EC2231530
:1036C0000100EF10600AC167938707060C08130515
:1036D00004403EC8E483231C0100EF10801313054F
:1036E0000440A145EF10801F130504408545EF10ED
:1036F000401D130504408545EF10401B854513050B
:103700000440EF10201905616FC0FFCB0145828096
:10371000EFC23FC92041AA84930550520848EF10D8
:10372000A02B11C985452685EFF0CFF408489305F5
:103730005052EF10202E6FC01FC9EFC29FC3B75B5E
:1037400000201384CB93930750035CC8B75C002020
:10375000B74701401387CC88938707801CC87C47F4
:10376000370900C0C16AA10AB377F900F1649384F4
:103770000420B3E75701B70D0C00316B11654111FF
:1037800024C77CC7130B4BDC2324B4012322040081
:103790008545110523226705B719014004C023168A
:1037A0000400EF00B0780D4A93070020614D4C00F3
:1037B000138509807C8252C46AC6EF00D04F9307FC
:1037C0000040114C4C00138509807C8252C462C6B3
:1037D000EF00704E08489385CB93EF100011084816
:1037E0008545EF108019B7B500009386CB9313067B
:1037F00030109385056D1385CC88EFF00FE2B75B31
:10380000002013844B95930760035CC8B7470040C2
:10381000B75C0020938707401CC893874C8EF847FD
:10382000A4C7232204003379E9003369590123A690
:1038300027052324B40185453705020023A2670527
:1038400004C023160400EF00507085451145EF00B9
:10385000F06D4C00138509802312810152C46AC6A1
:10386000EF007045A1474C00138509807C8252C44B
:1038700062C6EF005044084893854B95EF10E00670
:1038800008488545EF10600FB7C5000093864B953B
:1038900013063010938585DD13854C8EEFF0EFD73E
:1038A000014541016FC0BFB0EFC2BFAF9C41204195
:1038B000A14641111CC0B1473EA4DC4123160400BF
:1038C00013F7F7006301D702A546631ED70005670B
:1038D0005AA013D747000D8B01C785466308D70050
:1038E0002313040031A023120400E5B709677AA06E
:1038F00099838D8B05476389E70081C709476388F2
:10390000E70C2314040021A0930700601EA41848AC
:10391000B7470140938707806318F7041165854511
:103920001105EF00B06093070020B71401407C82BE
:103930000D49E1474C00138504803EC64AC4EF00A0
:103940009037930700407C824C0091471385048098
:103950003EC64AC4EF0030360848A285EF00F07832
:1039600008488545EF1060011848B7470040938725
:103970000740631AF704854537050200EF00F05C45
:1039800085451145EF00905A9147B71401407C825C
:103990000D49E1474C00138504803EC64AC4EF0040
:1039A0009031A1477C824C009147138504803EC62C
:1039B0004AC4EF0050300848A285EF001073084851
:1039C0008545EF00907B014541016FC0DF9F930764
:1039D00000402DBFEFC2FF9C204193050002084824
:1039E000EF00F07E19C51C48CA231375F50F6FC090
:1039F0009F9D7D55EDBFEFC2DF9A24412E848848FC
:103A000093050004EF00B07C7DD99C4842044180BE
:103A1000C2A305456FC03F9BEFC2BF98C147384165
:103A2000638DF502C5476397F502544B054693D75E
:103A30005600938707063316D6008A07B7E600E0DC
:103A4000B69790C30F1000000146084B93055052E3
:103A5000EF00107401456FC01F97544B054693D774
:103A60005600938707043316D6008A07B7E600E0AE
:103A7000B69790C30546D1BF73110134EFC07FFAEA
:103A8000375500201305C588EFF09FC8EFC05FFCD5
:103A9000731101347300203073110134EFC07FF8CB
:103AA000375500201305458EEFF09FC6EFC05FFA33
:103AB0007311013473002030EFC2BF8E83A4818C58
:103AC0002A84EFD02FA8AA86228681452685EFC0BA
:103AD0009FD137C50000A285130505DEEFD02FE08A
:103AE0001305C05DEFD0FFF16FC0FF8DEFC27F8B7C
:103AF000370400208947130404336316F500C841D6
:103B0000EF10404608C00C4037C50000130505E91A
:103B1000EFD0EFDC6FC03F8BEFC2BF888947630AED
:103B2000F50037C50000130545E4EFD04FDB6FC04B
:103B30009F89C841EF100043130745069307800C87
:103B4000AA8563F7E70037C50000130585E6F1BFD6
:103B500023A2A18023A6A18C37C500001305C5E7C9
:103B6000EFD0EFD7E9B7EFC25F81B7C7000083AAF4
:103B700007F637590020B75900201D71130989979E
:103B80009389C996D68B37550020FD551305859F1F
:103B9000EFC01FDD03A5418D85461306F101814568
:103BA000EFC0BFC28547E310F5FE83A7018D130761
:103BB000E0079384018D636AF7168306F10113878A
:103BC0001700CA9794A398C04A9723000700930749
:103BD000D007E391F6FC9305B0074A85EF10005D2E
:103BE0002A8463040514AA8537C50000130545F629
:103BF000EFD0EFCE8145130600020810EFC06FFD35
:103C0000B7C50000938585F72285EF1040606301FA
:103C10000512B7C500009000938545F82D05EF10FB
:103C200060468800EF10A033EF10E0152A8C054A9B
:103C3000B7C50000938505F92285EF10405D930C10
:103C4000000005C1B7C500009000938545F8250523
:103C5000EF1040438800EF108030EF10C012AA8CA4
:103C6000054AB7C500009385C5F92285EF10205A93
:103C7000014D11CDB7C500009000938545F8210591
:103C8000EF1040408800EF10E02D2A8D054AB7C59F
:103C90000000938585FA2285EF10605755C51D05F4
:103CA0001307000283070500F59B6387E708B7C584
:103CB00000001010938505FBEF10C03C63000A065E
:103CC000054AD68523A0890123A2990123A4A9012D
:103CD0006685EF00305CEF10E004130440063367A4
:103CE000850266853AC6EF10E003DE852AC4628548
:103CF000EF00505AEF100003336485026285EF1025
:103D000060023247A246AA8537C50000EA8713053C
:103D100085FB2286EFD0AFBC63090A0037C50000DF
:103D20000C10130505FFEFD08FBB23A004009DB539
:103D3000014A130C0000EDBD0505ADB737C5000005
:103D4000A28513058500C5B7E30A0AFE014A95BF9F
:103D5000EFC22FE5375500201305859FEFC05FC8E0
:103D600001456FC04FE6EFC2CFE32A84B335A00010
:103D70002D45EFF02F9E09ECB7C50000938585F423
:103D800037C500001305C5F4EFD06FB56FC0AFE3C2
:103D9000B7C50000938545F4E5B7EFC28FE0B7578C
:103DA000002037C500009387C79613070000411114
:103DB000130585DD98C3D8C323A407001384418D60
:103DC000EFC0DF8D08C011E937C50000130585ED90
:103DD000EFD0EFB041016FC00FDF3247F16793873B
:103DE00007203EC4B70700C0F98F41672107B7C558
:103DF000000037550020D98F81460146938505EF95
:103E00001305859F3EC6EFC03FB3084030008D4587
:103E1000EFC03F9F084093053010EFC0FF8F084070
:103E2000B7450000938505D5EFC0BF9EB74500009C
:103E300037C50000A94721479306004001469385F6
:103E400065B6130585EFEFD0BFA919C1EFD01FC12B
:103E500081452D45EFF06F8E0545EFF0DFF09DBFFA
:103E6000EFC22FD489476309F50037C50000130559
:103E700045F0EFD0CFA629A8C041B7C50000938573
:103E800005F22285EFC06FDF11E50545EFF0BFEDCC
:103E90006FC06FD3B7C50000938545F22285EFC090
:103EA000CFDD6DD537C50000130585F2D9B7731185
:103EB0000134EFC01FB737C5000013058502EFD0EE
:103EC0000FA2EFC0FFB873110134730020307311DB
:103ED0000134EFC01FB537C500001305C501EFD091
:103EE0000FA0EFC0FFB673110134730020307D576F
:103EF0007D156313E5008280930730020100FD17F2
:103F0000F5FFFDB7EFC24FC80111371401408D47CF
:103F100085493ECCAA84C147130504802E894C08EC
:103F20003ECE02C623080100231A3101692301464F
:103F3000854513050480A9255145EFD09FAC054662
:103F40008545130504802D2D7945EFF05FFA930721
:103F500080044C08130504803ECE231A3101A12BA6
:103F6000854513050480012D8547631CF50037C581
:103F7000000013058503EFD08F967D5505616FC056
:103F8000EFC31304048085452285F5236DDD37C515
:103F900000001305850537140140EFD04F9413043A
:103FA000048085452285C12B8547E30CF5FE37C586
:103FB00000001305C506B7190140EFD04F9260000D
:103FC000930A1101938909807D5B1D4A85454E85C1
:103FD0005D236DDD13058002EFF07FF185454E8591
:103FE000592B85476317F5001C20331545015D8D5E
:103FF00008A085454E8541238547E30CF5FE7D1AD3
:10400000E3166AFD0504E3928AFC14869C861887F1
:104010009087B697BA97B297034601017955E39F07
:10402000C7F42300D90098A0014589BFEFC26FB73C
:1040300041119305F1001305E100EFF0BFEC01ED34
:1040400090870C8737C5000013054519EFD02F89DD
:1040500041016FC04FB737C500001305051BEFD0F6
:104060000F88FDB7EFC2EFB381452945EFE0FFECC4
:10407000EF001022AA8537C5000013050508EF00E0
:10408000507C014437C90000B7C400008145294570
:10409000EFE05FECA28513050909EFD04F8413050B
:1040A000401FEFD01F9685452945EFE0BFEA1385F5
:1040B000840AEFD0CF821305401FEFD09F940504F0
:1040C000A947E315F4FC01456FC0EFAFEFC26FAD38
:1040D000EFE0CFD637B400001305046DEFE04FE6F4
:1040E0001305046DEFC08FDB09C593053010EFC0D9
:1040F000AFE2EFC06FD237C500001305450BEFC02C
:104100001FFEA92A83A5818037C500001305850CF1
:10411000EFC0FFFC1926AA8537C500001305850DE1
:10412000EFC0FFFB37C500001305850EEFC03FFB56
:10413000EFF0BFC62522EFF0EFD315659305405190
:10414000130505E20564EFF0CFD5B7C400001304F2
:1041500084BB1385840FEFC09FF82285EFD07F8A40
:10416000CDBFB71702409843B706FFF04111136760
:10417000170098C3D84337060200758FD8C39843F9
:10418000B706F7FEFD16758F98C39843B706FCFF78
:10419000FD16758F98C3D843B70601FFFD16758FBE
:1041A000D8C39843B70600ECFD16758F98C3370740
:1041B000FF0098C723A6070202C402C69843C1663F
:1041C000558F98C3B716024005679C42F18F3EC6D3
:1041D000A24785073EC4B24781E7A247E397E7FEBF
:1041E000B71702409C431397E700635707068547BC
:1041F0003EC632478547631FF704B7170240D843CE
:10420000B706C1FFFD16D8C3D843D8C3D843136738
:104210000740D8C3D843758FD8C3D843B706290001
:10422000558FD8C39843B7060001558F98C398435C
:1042300093166700E3DD06FED843B7160240719B74
:10424000D8C3D84313672700D8C32147DC42B18BBA
:10425000E39EE7FE4101828002C661BFB7160240BD
:10426000D8421146318B938781806305C700214670
:104270006308C70237177A001307072098C3371758
:104280000240584311839376F70037070020130745
:1042900007143697142398433357D70098C3828066
:1042A000D842D442416649833D8BF18E13062700E4
:1042B00015CF3D47630FE6024147630FE6024547CE
:1042C00081456313E6004146A1E2374702400327D8
:1042D0000780418B0DC737177A0013070720330675
:1042E000C70290C3C9DD9843058349BF814549464C
:1042F000E1BF85453546C9BF81453D46F1B7371712
:104300003D0013070790E1BF37150240585593163B
:10431000F700585563DF060411833D8B93061700A1
:1043200037177A00130707203357D70298C354551D
:10433000A182BD8A8DE295463307D702058398C3D3
:1043400037170240585794433D8B050733D7E60291
:1043500098C3984369B705456394A600E546E9BF4D
:104360003D456396A600D1463387E602C9BF89065C
:10437000E5BF3D8B9306170037177A001307072018
:104380003357D702F1B701A07390123497C1FF1FC2
:104390009381417A17C100201301C1C6178500001F
:1043A0001305455197C5FF1F9385C5C51386018227
:1043B00063FAC5008322050023A05500110591056D
:1043C000E3EAC5FE138501829705002093854565C4
:1043D0006377B500232005001105E36DB5FEFD42AE
:1043E000739002BCFD4273904280B78200009382BA
:1043F00002807390023097C2FFFF9382E2C093E283
:10440000320073905230EFF0DFD597C2FFFF9382F6
:1044100082287390123473002030B7F7FF1F03A572
:10442000477082805841032805004C4537060140FB
:10443000930706403E979346F8FFB1C58325064093
:10444000F58D2320B640D043F18ED4C31443B3E698
:10445000060114C3184190479346F7FF758E90C725
:10446000D047F18ED4C7144541466399C60094479E
:10447000D98E94C7D447558FD8C78280B6979443B6
:10448000558F98C382801C43F58F1CC38280B70769
:1044900001401387074083A70740584B698F09C71E
:1044A0007D8D3335A000828001458280B7070140B1
:1044B00023AAA74082809C4513F7070113F8F70051
:1044C00001C7D8413368E8008E2113F7F50F39C3CF
:1044D00018418146854E3D4F930F80029302800420
:1044E000214E3396DE00B3F8C5006311160393988E
:1044F000260033131F011343F3FF3377E300B31890
:10450000180133E7E800639FF70550C98506E39A71
:10451000C6FD18C11307F00F6375B7045441214657
:10452000854E3D4F930F800293028004414EB39815
:10453000CE0033F715016392E80213172600011726
:104540003313EF001343F3FFB376D3003317E800C0
:10455000D98E639DF701232A15010506E319C6FDCF
:1045600054C18280E39457FA10C94DB7E39757FEC0
:1045700023281501DDB708456D8D3335A0008280F5
:1045800019C20CC982804CC9828013F7C50F93F7FA
:104590003500B7050140BA9594458A073D47331762
:1045A000F7001347F7FF758F98C598453315F50049
:1045B000598D88C58280371702405C439146B18B84
:1045C0006385D700A1466382D706B7177A00938721
:1045D00007201CC1371602405C4237070020130732
:1045E00007159183BD8BBA9794231C41B3D7D7008D
:1045F0005CC15442A1829D8ABA969422B3D6D70058
:1046000014C55442AD829D8A36971823B3D7E7006C
:104610005CC558423983937637001387C18036973B
:104620001823B3D7E7021CC982805C435843C16694
:10463000C983758FB7F6FF1F83A6C670BD8B890728
:104640001396160163480600C54601466392D702D9
:10465000C94739A88946638FD702BD46638ED70202
:10466000C146638ED702C54601466393D700C14752
:104670001DEF3747024003270780418B05C73717D7
:104680007A0013070720B307F7021CC121D61C418B
:10469000858381B701466DBF0546B547D1BF014649
:1046A000BD47F9B737173D0013070790E9BFB715A6
:1046B0000240D8559316F700D85563DF06041183DE
:1046C0003D8B9306170037177A00130707203357DF
:1046D000D70218C1D455A182BD8A8DE29546330711
:1046E000D702058318C137170240585714413D8B34
:1046F000050733D7E60218C1184171B785456394A1
:10470000B600E546E9BFBD456396B600D14633879E
:10471000E602C9BF8906E5BF3D8B93061700371730
:104720007A00130707203357D702F1B799C5371717
:1047300002401C4F5D8D08CF8280B7170240984F12
:104740001345F5FF798D88CF828099C537170240D0
:104750005C4F5D8D48CF8280B7170240D84F13451C
:10476000F5FF798DC8CF82801E213737014093062F
:1047700007C0C207C1836300D504B7060040630CBD
:10478000D502938606406308D502B716004013860B
:1047900006806302C502938606C0630ED500130728
:1047A0000740630AE50037570140930607C06304DA
:1047B000D5006316E500BA2193F7F7F8D98F3717BC
:1047C0000040630CE500130707406308E50093F71A
:1047D000F7CFFA21C207C183D98F1EA1DE215EB5B2
:1047E0009E211EB5B7370140138707C0630EE50051
:1047F00093870740630AF500B7570140138707C046
:104800006304E5006314F5009C251EB985475EA985
:1048100082801E31922103D82500C207C183F99BF3
:10482000C207C1831EB11E3156211A2DC207C18392
:10483000420741831377C7F8518F9225F59BC20633
:1048400033660601D18F37360140130806C0C18296
:10485000630E050113060640630AC5003756014082
:10486000130806C0630405016310C502B225DD9B71
:1048700003D8E500D18FD221ED9B93F6F6CFD18FEF
:10488000D22533660601D18E56A11AADFA215AB946
:104890001EB182801E2189C593E717001EA1828068
:1048A000C207C183F99BC207C183CDBF83574504AB
:1048B00091C52167D98F2312F5048280C607C5836D
:1048C000DDBF1E2189C593E707081EA18280C207AC
:1048D000C18393F7F7F7C207C183C5BF1E2DC20777
:1048E000C183DD9BDD8D0EAD8280EFB29FAB1629BB
:1048F000F577FD17F58FF621DA257971D58F1EA989
:104900005625FD779387379FF58FD6212A842EC6AB
:10491000D58F9625D58FB625D58F5EA55E29C20782
:10492000C18393F7F7CFD98F5EA96808EFF0BFC8AE
:10493000B747014093870780B245631EF402A25730
:104940006547B387E7029841930640060A07B3D745
:10495000E70233D7D702B3F7D7021207920793873C
:104960002703B3D7D702BD8BD98FC207C1831EA43B
:1049700045616FB05FA59257E1B791C55E250967A4
:10498000D98F5EA582805A25F977FD17F98FD5BF9B
:1049900013F7F50F85471583B395B7006319F70033
:1049A0009307C500984301CED98D8CC38280894678
:1049B00093074501E318D7FE93070501E5B793C5B3
:1049C000F5FFF98DDDB793F5F51F4EA182800A2121
:1049D0006D8D3335A000828013F7F50F8546158362
:1049E000B397B6006311D7025A25F98F1A210145F2
:1049F0004207418381CB0545A181B315B5006D8F79
:104A00003335E000828089466314D7001A29F1BF4C
:104A10005A29E1BFA1818547B397B70093C7F7FF34
:104A2000C207C1831EA18280EFB21F96B744014026
:104A3000AE893289014493840480634524014A8508
:104A40006FB0DF97930500042685EFF05FF87DD9FE
:104A5000B38789008385070026850504C205C181C7
:104A6000EFF07FF6D9BF138701811C43B7560020B2
:104A70009386C6A13E95636BD500B7060120938649
:104A8000068063E5A60008C33E858280FD57EDBF22
:104A90000A858280797122D4135475014ECE52CC8E
:104AA0009319950006D626D24AD056CA5AC813740E
:104AB000F40F93D99900135AF50169C49307F00FC5
:104AC0006308F40E9397390037070004B3E9E70051
:104AD000130414F88144014B13D77501939A950080
:104AE0001377F70F93DA9A0013D9F50145CF93079F
:104AF000F00F630CF7028E0A130717F8B7070004CC
:104B0000B3EAFA003A94014633452A01BD47AA8622
:104B10009305140063E09710177700001307C76A26
:104B20008A04BA949C40BA9782871304F40F639660
:104B30000A0C93E424000946C1BF01451307F00F96
:104B4000B7074000B2502254A6075E07A5837E0532
:104B5000D98F92540259F249624AD24A424B5D8D32
:104B600045618280CA86D689328B8947630FFB08EC
:104B70008D47E304FBFC854736856310FB1A01472C
:104B80008147C9B7639D090413D77501939A9500AE
:104B90001377F70F91440144054B93DA9A0013D928
:104BA000F50131F7639D0A0093E414000546A9BF9F
:104BB00063920902A1441304F00F094B31BF5685DB
:104BC000052E9307B5FF098CB39AFA001304A4F8D5
:104BD00001461DBFB1441304F00F0D4BF5BD4E85CA
:104BE0002EC639269307B5FF1304A0F8B399F90030
:104BF000098C8144014BB245C5B593E434000D46A0
:104C000021B78947D286E315FBF636851307F00FE7
:104C100081470DBF41639306F3FF13D6090193D873
:104C20000A01B3F7D900B3FADA0033885703B3891E
:104C3000F80213570801B30A5603D6994E97330664
:104C40001603637357011A96C167FD17B376F70011
:104C50003378F800C206C29693996600935707010D
:104C6000B3393001E982B2979A07B3E6D900B3E9C4
:104C7000D7009397490063D9070013D7190093F71A
:104C80001900B369F7002E841307F4076350E0049A
:104C900093F7790099C793F7F90091466383D7009A
:104CA00091099397490063D90700B70700F8FD17EA
:104CB000B3F9F900130704089307E00F63CBE70487
:104CC00093976900A5831377F70FADBD8547B3862A
:104CD000E74011C76D4601478147E345D6E6130714
:104CE000E4093397E9003337E000B3D7D900D98F0F
:104CF00013F7770019C713F7F70091466303D7003E
:104D0000910713975700634C07009A07A583014743
:104D100015BD1307F00F814735B52E84B5B705478C
:104D200081470DB537068000135775019307F6FFCD
:104D30001377F70F9305E007B3F6A7009357F50134
:104D400063FCE5009305D00963FAE50037050080B0
:104D50001345F5FF3E9582800145828093055009F9
:104D6000D18E63CDE500130660093307E64033D7E3
:104D7000E6003305E040F5F33A8582801307A7F695
:104D80003397E600FDB793D645019397C50093F698
:104D9000F67FB183138616008E071357D50113765D
:104DA000E67FFD815D8F9318350035CE138806C8E8
:104DB0009307E00F63DD0701814713959700930682
:104DC000F00FDE062581FE05558D4D8D82806355E1
:104DD000000B931765000E07B337F000D98F93D8F7
:104DE000D801B3E7170113F777006301071013F732
:104DF000F70091466303D7009107370700047D8FC2
:104E000075C7130718001306F00F9376F70FE30525
:104E1000C7FA9A07A58313959700DE062581FE053C
:104E2000558D4D8D8280B367170199EE85CF9547DB
:104E30009A07A5831395970093F6F60FDE06258152
:104E4000FE05558D4D8D8280A5DBB707400013957B
:104E500097009306F00FDE0681452581FE05558DEE
:104E60004D8D82808147139597008146DE0625810E
:104E7000FE05558D4D8D8280A5576348F804F9478E
:104E800037068000B38707417D45598E6351F5048D
:104E9000795733070741130500023357E60063884B
:104EA000A700938626CAB316D600B3E8D800B33756
:104EB0001001D98F13F77700014815FB139757009E
:104EC0008546E34807F48146A5B781468DB79386AA
:104ED00026C83397D8003337E000B316D600B3D8CE
:104EE000F800B367D700B3E7F800E9B7C28689B71F
:104EF000C167637CF5029307F00F1307000263EBB1
:104F0000A7009777000093872730AA978823330557
:104F1000A74082802181977700009387E72EAA9788
:104F2000882361473305A7408280B7070001636D7E
:104F3000F5006181977700009387072DAA97882352
:104F400021473305A74082804181977700009387EE
:104F5000A72BAA97882341473305A7408280814524
:104F60006F00D079294681456F1000100147631406
:104F7000E60001458280B307E5000507B386E5003A
:104F80009C2383C6F6FFE384D7FE3385D740828017
:104F9000B3C7A5008D8B3307C50081E78D4763ED4F
:104FA000C700AA87637EE508942185078505A38F3E
:104FB000D7FEE3EBE7FE828093763500AA8789CAA5
:104FC000942185078505A38FD7FE93F63700C5BFCB
:104FD0009376C7FF138606FE63F0C70683A305001A
:104FE00083A2450083AF850003AFC50083AE0501F2
:104FF00003AE450103A3850183A8C501938545023E
:1050000023A0770003A8C5FF23A2570023A4F7011C
:1050100023A6E70123A8D70123AAC70123AC670071
:1050200023AE17019387470223AE07FF75B7904160
:105030009107910523AEC7FEE3EBD7FEE3E6E7F663
:10504000828039713EDA2ED232D436D63AD842DC5A
:1050500046DE9387418122CC804326CA06CEAA84AD
:1050600011C41C4C81E72285EF10E0130C4454104E
:105070002686228536C6EF20101EF2406244D244B6
:105080002161828071713ED39307402006C72EC6EE
:1050900032CD36CF3AD142D546D72312F1022ACCAF
:1050A0002AD40D2A97070000938707063EDEFD5796
:1050B000B2452313F102938741812ACE2AD6884331
:1050C00034092E862C0882C682D036CAEF2080573B
:1050D000BA404D618280411122C42E848395E5003F
:1050E00006C6EF30C02E634905007C48AA977CC8ED
:1050F000B2402244410182805E247D777D17F98F82
:105100005EA4FDB701458280DE25011122CC26CAAE
:105110004AC84EC606CE93F70710AA842E84328959
:10512000B68999C78395E50089460146EF10D014EA
:105130005E247D777D17F98F5EA48315E4006244B9
:10514000F240CE864A86B24942492685D24405615C
:105150006F007073411122C42E848395E50006C64A
:10516000EF109011FD575A24631AF500FD77FD17D3
:10517000F98F5EA4B2402244410182808567D98FB5
:105180005EA468C8C5BF8395E5006F003073AA8729
:1051900098239386170009EB850503C7F5FF85075C
:1051A000A38FE7FE75FB8280B687DDB793F5F50F19
:1051B0001C2191C76393B70082800505D5BF91C1BB
:1051C00001458280AA87982185078505A38FE7FE80
:1051D0007DFB8280AA87850703C7F7FF6DFF3385B4
:1051E000A7407D15828015C27D160147B307E500F3
:1051F000B386E5009C2394226396D7006304C7001E
:105200000507EDF73385D74082800145828018215C
:105210009C2101E791C301458280814739A01C315F
:1052200013071500EDDB81473A853387F500182316
:1052300065D7B306F5009422E393E6FE85072A8737
:10524000E5B7011122CC2A872E843A85A28532C681
:1052500006CEEF10B07532462A88AE8805C651805A
:105260001374F47F9307B006818F635DF000D2075B
:105270003707F03F01483E974286BA86EF40500B11
:105280002A88AE88F24062444285C68505618280E4
:1052900035714AC92A89368532D436C606CF22CD21
:1052A00026CB4EC7EAD8EED62E8D52C556C35AC16C
:1052B000DEDEE2DCE6DA82C8EF10A07BAA8D0841D0
:1052C00081440144EFF01FF1B246AA89EAC635468F
:1052D0009305B0021305D00213080002A548B64793
:1052E0009823636BE608637F170955C702C8364ADF
:1052F00093070003814A03470A00631BF7128347A1
:105300001A00130780056388E70013068007130758
:1053100000036396C710C24736889808D4081776EA
:10532000000013062604EC004A85EF10800A9379EA
:105330007500AA8A6388090099476397F906050AE8
:10534000D2C602C8A25781C7B64722571CC3C2475C
:10535000B9C7B7050080A18DFA406A4426854A493D
:10536000DA44BA492A4A9A4A0A4BF65B665CD65C2A
:10537000465DB65D0D6182806309B7006303A702D5
:10538000E31607F78507BEC699BF02C81387170043
:10539000BAC69C33A9FFA257EAC602C8D5F7A285B0
:1053A00065BF05473AC8DDB7464611CA93055003A5
:1053B000A808EF20C003C6454A85EF10207BFD19E1
:1053C000914763EE3701177700001307E7F38A0967
:1053D000BA9983A70900BA978287E644764493FA7C
:1053E0008A00E3810AF6B70700805D8CA1BFF6450D
:1053F0003704F0FF7D14B3F785005644E6441304E8
:1054000034439315440133E4B700D1BF3704F07F30
:10541000F9B7B705008013C4F5FFFD54C9B7B64707
:1054200093861700B6C69C33E38BE7FE81DF854A7F
:10543000B64C014A814B014CA546A145A9473645CA
:10544000034B050013070BFD1376F70F63FDC6042E
:1054500083A50D004E86EFF01FD93DC1DA87E28D9E
:105460008146014B0145130750066387E700130788
:10547000500481496395E71663960D00B3E7560122
:1054800099DB814D364D1307B00293071D00BEC650
:1054900083471D00638FE70C1307D0020148639018
:1054A000E70E0548C1A863C98501B38BFB02BA9B0F
:1054B0000505050CAAC661B7330AFA023A9ACDBFB0
:1054C000364581464E95AAC61C21630B0C06014B3E
:1054D000E28D138707FD25466375E602054561B732
:1054E000B647850613861700B2C69C33E38AE7FEEB
:1054F0001387F7FC2146E366E61EB64C368B814DDA
:105500008146938707FD1387160085C73A9B33852D
:10551000B6016E872148C14829466316A702850D4A
:10552000B69DA14663CEE6022947B38BEB02014745
:10553000BE9BB64793861700B6C69C33BA8651BF4A
:105540001307000365B7930517006346E800B38BA4
:10555000CB022E87D9B7E3CEB8FE330ACA02D5BF35
:10556000C1460147E3C7B6FDA946330ADA023E9AAF
:10557000C9B7014893072D00BEC683472D00138786
:1055800007FD25466365E60C130700036385E70AFC
:105590001387F7FC214681496363E604B648138705
:1055A00007FD2543294EB64713861700B2C69C3324
:1055B000938507FD93F5F50F6375B3089569330679
:1055C00016419389F9E1A148CE8563C6C800BA891E
:1055D00063D3E500AE8963040800B30930416396E4
:1055E0000D0CB3E6DA00E39F06D4E31605DA1307E1
:1055F000E0046389E706634FF70413079004E39C14
:10560000E7D8977500009385E5D4E800EF10C02B2C
:10561000E30305D8B647977500009385E5D3E80006
:10562000FD17BEC6EF10402A01E5B6478507BEC686
:105630003704F07F01BBB64713861700B2C69C3310
:10564000B1B73307C703BA97138707FDA9BFEAC6E7
:10565000814971B713079006E385E7FA1307E0065F
:10566000E39BE7D297750000938585CFE800EF10A4
:10567000A025E30205D2B64798239307800263135F
:10568000F702B00897750000938505CFE800EF108A
:10569000802695476318F500F6453704F07FE64409
:1056A0004D8C4DB13704F8FF71B9B38A694163136A
:1056B0000C006E8CC1476E8D63D3B701414D5E8582
:1056C000EF50C019A547AA842E8463DCB703930763
:1056D0007DFF1397370097770000938727D7BA97F6
:1056E0009043D443EF40C0442A845285AE84EF50A7
:1056F000E0162A86AE862285A685EF304058AA8419
:105700002E84BD4763CDB709E38E0AC263545007A8
:105710005947634357038E0A97770000938707D34F
:10572000BE9A03A50A0083A54A002686A286EF40FA
:105730002040AA842E8439B1130750023307B741A1
:10574000634F5705B38DB74117790000130909D08E
:1057500093973D00CA978843CC43B38DBA412686C0
:10576000A2868E0DEF40C03CCA9D03A60D0083A605
:105770004D0075BFA95763C4FA02B3093B41139B9F
:10578000390097790000938969CCDA9903A609005A
:1057900083A649002685A285EF30704159BF338D1D
:1057A000AD41569D6357A0119377FD0099CF1777B0
:1057B00000001307A7C98E07BA978843CC432686F3
:1057C000A286EF40E036AA842E84137D0DFF630885
:1057D0000D0A9307401363D5A705014B814902C603
:1057E000814B930720022320F9003704F07F814486
:1057F000B247E38907B4C6454A85EF102037DE85F6
:105800004A85EF10A036CE854A85EF102036B24586
:105810004A85EF10A035DA854A85EF1020351DB690
:10582000135D4D402685A2858147014A054897783A
:105830000000938828BF6346A80599C3AA842E84D4
:1058400017770000130707BE93173A00BA978843EB
:10585000CC433707B0FC22972686BA86EF40402D0E
:105860003704F07FB377B4003707A07CAA84E366DF
:10587000F7F63707907C637AF7027D14FD54014AEE
:10588000DDA813771D0011CF13173A004697104378
:105890005443EF40E02985470548977800009388F6
:1058A00068B8050A135D1D4079B7370450032E947C
:1058B000F9B7E3060DFC330DA0419377FD0099CFB6
:1058C00017770000130787B88E07BA979043D44321
:1058D0002685A285EF30B02DAA842E84135D4D401D
:1058E000E30F0DF8FD4763DDA701014B814902C6B7
:1058F000814B93072002814401442320F900CDBD50
:10590000137A0D0163040A00130AA0062685A285F6
:1059100097770000938787A7014793761D0081CA78
:105920009043D4433EC6EF40A020B2470547135DE5
:105930001D40A107E3130DFE19C3AA842E8463053D
:105940000A029357440113F7F77F9307B006998F24
:10595000635CF0007D476354F722130740038144E2
:105960006359F72037047003014681462685A285D6
:10597000EF30307F3DD95E87EE866286E6854A85C8
:10598000EF10802C2AC6E30A05E493D7FA41B30945
:105990003B41B3F7F9003ED056CE63D30A0002CEA6
:1059A000B247014B8149B1073ED8B7071000FD1738
:1059B0003ED6B2474A85CC43EF108012AA8BE30251
:1059C00005E2B247C2553105904B09060A06EFF0D1
:1059D0002FDCB808D4082286A6854A8526CA22CCA0
:1059E000EF10700CAAC8E30E05DE85454A85EF105E
:1059F000E03AAA89E30705DED64763C707180257CE
:105A0000724C338DE7006647B387474193066003C6
:105A1000BA97FD17930D20C0998E63D6B7193387B7
:105A2000FD407D46998E6346E616854DB397ED00A1
:105A30003ED2814C369CB30DDD00529CEA8763D385
:105A4000AD01EE876353FC00E2876358F000B38D2D
:105A5000FD40330CFC40330DFD4082576358F0028B
:105A6000CE853E864A85EF106049AA89E30B05D6AC
:105A70004646AA854A85EF1020342ADAE30305D684
:105A8000C6454A85EF10800ED257BEC8634FB0118D
:105A9000635A50017246DE854A85EF102046AA8B74
:105AA000E30105D4635A8001DE8562864A85EF10E2
:105AB000C050AA8BE30705D2635AA001CE856A863F
:105AC0004A85EF10804FAA89E30D05D0C6455E8652
:105AD0004A85EF10805E2A8BE30505D0032CC500B4
